:100000000C94C6010C94D8010C94D8010C94840D66
:100010000C9451340C94D8010C94D8010C94D80150
:100020000C94D8010C94D8010C94D8010C94952907
:100030000C94D8010C94D8010C94D8010C94D801DC
:100040000C94C52B0C94D8010C9451250C941325B9
:100050000C94D8010C94D8010C94D8010C94D801BC
:100060000C94D8010C94D8019304BB0CBB0C9D04D8
:10007000AA04B704C404BB0CC804BB0CD604BB0C54
:10008000E004EA04F404BB0CBB0CBB0C0305100534
:100090001D056220652068206B206E207120742071
:1000A00077207A207D20802087258925C225C225BA
:1000B000C225C225C225C225C225C225C225C22508
:1000C0008F25912593259525972599259B259D2558
:1000D000C225A125A325A525A725A925AB25C22590
:1000E000AD253F27452748274B275027582760270E
:1000F000F327F327F3276D27702779278227F32724
:10010000F327F327F327F327F3278E279827A4272E
:10011000AC27AF27B827C127C727F327F327D02756
:10012000D927E427084AD73B3BCE016E84BCBFFDEC
:10013000C12F3D6C74319ABD56833DDA3D00C77FB7
:1001400011BED9E4BB4C3E916BAAAABE0000008050
:100150003F05A84CCDB2D44EB93836A9020C50B9DF
:10016000918688083CA6AAAA2ABE000000803F000B
:100170007C413A007C4F763A007C57434F3A007CF2
:10018000506E3A007C46533A007C42663A007C57F7
:10019000506F733A007C4D506F733A00536C656535
:1001A0007000446F6F723A00436865636B00416C86
:1001B00061726D00486F6D65004A6F6700486F6C33
:1001C000643A0052756E0049646C65005B4F505490
:1001D0003A005B5645523A312E31682E3230313971
:1001E000303833303A00244E00204D0020470020A4
:1001F000530020460020540033382E005B47433A1A
:1002000047005B544C4F3A005B4739323A00333079
:10021000003238005B47005B5052423A005B484C6A
:10022000503A242420242320244720244920244EEB
:100230002024783D76616C20244E783D6C696E6593
:1002400020244A3D6C696E652024534C5020244381
:10025000202458202448207E2021203F20637472CF
:100260006C2D785D0D0A000D0A4772626C20312EEC
:100270003168205B27242720666F722068656C70C8
:100280005D0D0A00536C656570696E670052657399
:10029000746F72696E67207370696E646C6500526A
:1002A0006573746F72696E672064656661756C74DE
:1002B000730050676D20456E6400436865636B2072
:1002C0004C696D69747300436865636B20446F6F9C
:1002D000720044697361626C656400456E61626CB2
:1002E00065640043617574696F6E3A20556E6C6F7A
:1002F000636B656400272448277C272458272074D3
:100300006F20756E6C6F636B00526573657420743B
:100310006F20636F6E74696E7565005B4D53473A6D
:1003200000414C41524D3A000D0A006572726F72E5
:100330003A006F6B0D0A0000007A4300007A430018
:10034000007A430000FA430000FA430000FA430039
:10035000A00C4700A00C4700A00C47000048C300B9
:100360000048C3000048C30A000019010AD7233C13
:100370006F12033B00007A44000000000000000000
:10038000C8410000FA43FA000000803F11241FBE5C
:10039000CFEFD8E0DEBFCDBF27E0A0E0B1E001C0E5
:1003A0001D92A136B207E1F70E94BE0F0C94D93B13
:1003B0000C940000439B02C080E4089580E00895FF
:1003C000439808953B9A0C94E0019091F5059111A2
:1003D00007C086FF02C0439A01C043981092FF05F0
:1003E0000895CF939091F405923039F0C82F0E9470
:1003F000CF1F8C2FCF910C94E501CF910895F999DF
:10040000FECF92BD81BD81E08FBB80B50895F89489
:10041000F999FECF92BD81BD81E08FBB80B5862763
:10042000962F982339F06F3F19F060BD84E006C025
:1004300084E104C0882321F060BD84E28FBBF99A77
:10044000789408959F92AF92BF92CF92DF92EF92ED
:10045000FF920F931F93CF93DF935C018A017B017F
:10046000E40EF51EEB01912C6C01C61AD70ACE01E1
:100470008C0D9D1DCE15DF0589F0911008C0292D2A
:10048000990C330B232F221F2227221F01C021E0AA
:100490006991922E960E0E940702E9CF692DC5013F
:1004A000800F911FDF91CF911F910F91FF90EF90DF
:1004B000DF90CF90BF90AF909F900C9407029F92D7
:1004C000AF92BF92CF92DF92EF92FF920F931F9362
:1004D000CF93DF935B018A017C01E40EF51EEC01F2
:1004E000912C6B01C81AD90AC6018C0F9D1FCE151D
:1004F000DF0589F00E94FF01911008C0292D990C99
:10050000330B232F221F2227221F01C021E0982E08
:10051000920E8993E9CFC501800F911F0E94FF01C0
:1005200021E030E0981611F020E030E0C901DF91C1
:10053000CF911F910F91FF90EF90DF90CF90BF90E0
:10054000AF909F90089580E4E9E7F5E0DF011D9208
:100550008A95E9F76DE975E080E00E94A326811194
:1005600003C087E00C942E20089564E176E081E9D1
:1005700095E00C94CB342F923F924F925F926F9202
:100580007F928F929F92AF92BF92CF92DF92EF9223
:10059000FF920F931F93CF93DF93CDB7DEB7AC9746
:1005A0000FB6F894DEBF0FBECDBF9F8F8E8F8AE34C
:1005B000E9EBF5E0DF011D928A95E9F78BE0E9E7C9
:1005C000F5E0AAEBB5E001900D928A95E1F7EE8D8A
:1005D000FF8D8081843211F00C94D90C81E08093DE
:1005E000BA051092BB0583E08A8FF1E0FC8F212CC5
:1005F000312C1DA21CA218A21B8E1D8EEE24E3948A
:10060000F12C01E07AE0472E512CE1E66E2EE3E07A
:100610007E2E8A8DEE8DFF8DE80FF11DC080CC20DF
:1006200009F438C29FEB9C0D9A3110F00C94AB0C7E
:100630008F5F8A8FAE014A5E5F4FBE01665E7F4F5D
:100640008E8D9F8D0E94F913882311F40C94AD0CAC
:100650008E889F88A88CB98CC501B4010E94443B48
:100660000E948238162F70E080E090E00E94B3383C
:100670009B01AC01C501B4010E94093720E030E0C4
:1006800048EC52E40E94613A0E94CE3A0E948238BD
:10069000CB0127E4C21629F03DE4C31609F4E9C0F2
:1006A00034C1183209F4C5C020F5143168F4113191
:1006B00008F08AC0143009F452C008F464C01A303B
:1006C00009F445C00C94BB0C1C3109F440C050F433
:1006D000163110F00C94BB0C25E1211B2093BC05B6
:1006E00026E0ACC01E3199F1163209F44CC00C94CE
:1006F000BB0C1D3309F497C0A8F4153381F140F405
:100700001B3209F47AC0113309F477C00C94BB0C86
:100710001C3310F00C94BB0C6AEC610F6093C005A5
:1007200029E08CC01C3538F41A3508F053C0103558
:1007300081F10C94BB0C1C3551F01F3510F00C945A
:10074000BB0C2EE5211B2093BB0525E077C000974D
:1007500031F44D8D41110C94AF0CA1E0AD8F10938D
:10076000B905212F2D7F2C3119F01C3509F063C0FC
:10077000009721F00A9711F00C94BB0C610F609365
:10078000B90520E060C0BD8DB1110C94AF0CE2E062
:10079000ED8F1093BA05163209F04FC084319105E0
:1007A00059F08E31910541F08832910529F082335C
:1007B000910511F00C94BB0CB2010E94763B665778
:1007C0006093BA0521E03FC06FEE610F6093BE05F4
:1007D00022E034C0892B31F466EA610F6093BD05D5
:1007E00023E031C06A30710511F00C94BB0C1A354E
:1007F00011F40C94BB0C24E026C0FD8DF1110C9477
:10080000AF0C113331F41092BF0528E033E03D8F77
:100810001AC00A9711F00C94BB0C0093BF0528E096
:1008200043E04D8F10C0892B11F00C94BB0C2AE0D3
:100830000AC027E003C020E001C021E0892B19F0A5
:1008400087E10C94DD0CC70102C0880F991F2A951F
:10085000E2F72CA13DA128233923232B19F085E1B0
:100860000C94DD0CACA1BDA1A82BB92BBDA3ACA3EE
:10087000D0CE892B29F7163018F4133058F016C053
:10088000183010F40C94BB0C1A30F0F01E3159F0F3
:100890000C94BB0C112319F0113011F104C0B3E01A
:1008A000B093C1051DC01093C1051AC0143021F0CA
:1008B000153031F080E101C080E28093C30502C0B1
:1008C0001092C3058CE00DC0193031F08091C20543
:1008D00080648093C20502C01092C2058DE001C001
:1008E0008BE0F70102C0EE0FFF1F8A95E2F72CA103
:1008F0003DA12E233F23232B09F0B1CF2CA13DA1F5
:100900002E2B3F2B3DA32CA384CE8C2D90E0FC01FD
:10091000E654F109E531F10510F00C94BB0CEC5CE8
:10092000FF4F0C94AC3B8092C5059092C605A092F7
:10093000C705B092C80580E08CC08092C90590922E
:10094000CA05A092CB05B092CC0538A1316038A37E
:1009500081E07FC08092CD059092CE05A092CF0518
:10096000B092D00548A1426048A382E072C0809254
:10097000D1059092D205A092D305B092D40588A15A
:10098000846088A383E065C01093D50584E061C0CE
:10099000C501B4010E947B386093D6057093D705DA
:1009A0008093D8059093D90585E053C08092DA05ED
:1009B0009092DB05A092DC05B092DD0586E049C08F
:1009C0008092DE059092DF05A092E005B092E105ED
:1009D00087E03FC08092E2059092E305A092E40593
:1009E000B092E50588E035C020E030E04FE753E401
:1009F000C501B4010E94213A18160CF4B2C7109335
:100A0000E60589E026C08092E7059092E805A0926D
:100A1000E905B092EA059B8D91609B8F8AE019C031
:100A20008092EB059092EC05A092ED05B092EE0558
:100A3000AB8DA260AB8F8BE00CC08092EF059092E3
:100A4000F005A092F105B092F205BB8DB460BB8FAA
:100A50008CE06701082E02C0CC0CDD1C0A94E2F782
:100A600091012C213D21232B09F07DC7F30102C008
:100A7000F595E7958A95E2F7E0FF09C020E030E0C0
:100A8000A901C501B4010E94FF3787FD6EC72C285C
:100A90003D28BFCDFB8DFF2329F02D8D211102C0F4
:100AA00032E03D8F25FE0EC08091D6059091D7058E
:100AB000A091D805B091D90581389649A849B105CA
:100AC0000CF055C78C8D882319F020FE5AC716C02C
:100AD0008091BB05813061F49D8D9230D1F580917C
:100AE000BA058035B1F18823A1F120FE4AC731C093
:100AF00080917A0581112DC020FE1BC08091BC051C
:100B0000813039F523E333E34BEC51E46091C505C3
:100B10007091C6058091C7059091C8050E94613A01
:100B20006093C5057093C6058093C7059093C8056B
:100B300010C08091880590918905A0918A05B09197
:100B40008B058093C5059093C605A093C705B09308
:100B5000C80530FC10C08091840590918505A09156
:100B60008605B09187058093E2059093E305A093F5
:100B7000E405B093E5058091B905843031F426FC95
:100B800002C08CE11AC7E89426F88091BE0588233C
:100B900071F0813031F4A1E0ACA719A6B2E0B8A79A
:100BA0000BC01CA6E2E0E9A7F1E0F8A705C022E02F
:100BB0002CA731E039A718A68091BC05813021F01F
:100BC0004D8D4330B1F52DC059EBE52E55E0F52E96
:100BD00000E010E08B8DC82ED12CC601002E02C083
:100BE000959587950A94E2F780FF12C023E333E3DB
:100BF0004BEC51E4D7019E966D917D918D919C9126
:100C0000D1970E94613AF70166A777A780AB91ABB5
:100C10000F5F1F4FF4E0EF0EF11C03301105E9F6F2
:100C2000CFCF8091BF05813021F42B8D243009F086
:100C3000A0C68CE0EDE9F5E0DE01119601900D9281
:100C40008A95E1F78CA19DA191FD09C09091B9050C
:100C50009E8F9A30B9F09C3509F4AAC011C18091D9
:100C6000C005873010F08DE1A8C690917F058917E7
:100C700069F3BE016F5F7F4F0E94A326882309F4AA
:100C80008CC6E4CFAB8DA11102C08AE196C6C1012A
:100C900080759927892B09F474CF6091DA057091DA
:100CA000DB058091DC059091DD050E94443B0E94AC
:100CB00082386730C0F68091D505843129F08230C2
:100CC00009F059C627FC57C6BFEA2B22662319F044
:100CD00061506E8F03C0E091C005EE8F69EC75E046
:100CE0008E8D0E94A326882309F457C6B090D5059F
:100CF0004090B5055090B6056090B7057090B80566
:100D000009EB15E049E7C42E45E0D42EE12CF12C87
:100D1000FB8D8F2E912CC4010E2C02C095958795CA
:100D20000A94E2F780FF36C024E1B2122AC0D6014D
:100D3000D0962D913D914D915C91D39758966D91A0
:100D40007D918D919C915B970E940937F80126A5B2
:100D500037A540A951A90E940937D80150966D9333
:100D60007D938D939C935397B2E0EB1213C0A30134
:100D700092010E940937F801608B718B828B938BF3
:100D800009C0F80186A597A5A0A9B1A9808B918B70
:100D9000A28BB38BFFEFEF1AFF0A0C5F1F4F24E00B
:100DA000C20ED11C33E0E316F10409F0B4CF35C113
:100DB0004B8D442309F469CF4090B5055090B6059A
:100DC0006090B7057090B80529EBE22E25E0F22E71
:100DD00039E7A32E35E0B32E8E010F5F1F4FC12CD4
:100DE000D12C842E912CC4010C2C02C09595879592
:100DF0000A94E2F780FF29C0D8012D913D914D91D1
:100E00005C91F501608D718D828D938D0E94093703
:100E1000D7019E962D913D914D915C91D1970E9465
:100E20000937F70166A777A780AB91ABF2E0CF1245
:100E300016C0A30192010E940937D7019E966D93B7
:100E40007D938D939C93D1970AC0F50180A991A9B8
:100E5000A2A9B3A9F70186A797A7A0ABB1ABFFEFF3
:100E6000CF1ADF0A24E0E20EF11C34E0A30EB11C1D
:100E70000C5F1F4F43E0C416D10409F0B4CFCCC0BF
:100E80008D8D833071F49E8D9E3109F48FC0953322
:100E900009F4BDC09C3109F0BFC069EC75E086E083
:100EA00088C0AB8DAA2379F3B091BD05BEA3409055
:100EB000B5055090B6056090B7057090B80599E7F4
:100EC000C92E95E0D92E09EB15E0FE0131964F01B0
:100ED000E12CF12CAA2EB12CC5010E2C02C0959547
:100EE00087950A94E2F780FD0BC0F601808D918D05
:100EF000A28DB38DF80186A797A7A0ABB1AB45C073
:100F0000FE8DF53309F441C02EA121112BC0D6016D
:100F1000D0962D913D914D915C91D397F4016081D4
:100F20007181828193810E940A37D8019E962D910A
:100F30003D914D915C91D1970E940A37F80166A7C7
:100F400077A780AB91ABF2E0EF121FC0A301920133
:100F50000E940A37D8019E966D937D938D939C9342
:100F6000D19713C0F601208D318D428D538DD8015C
:100F70009E966D917D918D919C91D1970E940A379B
:100F8000F80166A777A780AB91ABFFEFEF1AFF0AD6
:100F900024E0C20ED11C0C5F1F4F34E0830E911C65
:100FA00043E0E416F10409F097CF6DCF69EC75E0EA
:100FB00087E00E94A326882309F4EFC48B8D81115A
:100FC00003C01E8E1D8E29C0A9E7B5E0E9EBF5E050
:100FD00080E090E04B8D242F30E0A901082E02C064
:100FE000559547950A94E2F740FD0AC058964D91F1
:100FF0005D916D917C915B97408B518B628B738B74
:101000000196149634968330910539F705C0809186
:10101000BA05823008F0B1C41E8E1091BA051035A1
:1010200021F48B8D8111ABC43BC29D8D923009F0B0
:1010300037C2111104C0AB8DA11132C228C020E00B
:1010400030E0A9016091C5057091C6058091C70582
:101050009091C8050E94FF37882309F492C41C3878
:1010600009F409C240F41230A1F01330A9F0113094
:1010700009F016C209C01E3809F4FDC108F4F8C110
:101080001F3809F4F5C10CC2BB8DB11109C21D8E08
:1010900007C2EC8DE460EC8FFB8DFF2309F4F5CDE6
:1010A00038A5232F30E03FA32EA399A5892F90E0E8
:1010B0009BA78AA781E090E08C0108A402C0000FE2
:1010C000111F0A94E2F709A402C0880F991F0A941D
:1010D000E2F7082B192B8F2F90E080239123892B87
:1010E00009F451C4F901EE0FFF1FEE0FFF1FE75483
:1010F000FA4FD901AA0FBB1FAA0FBB1FAF56BA4F99
:101100002D913D914D915C9166A577A580A991A9FE
:101110000E9409376B017C01EAA5FBA5EE0FFF1FBA
:10112000EE0FFF1FE754FA4FAAA5BBA5AA0FBB1FDE
:10113000AA0FBB1FAF56BA4F2D913D914D915C91B7
:1011400066A577A580A991A90E9409372B013C01CA
:1011500027FEE2C0E89427F84CE050E067EE75E027
:1011600081E995E00E94CC3B892B11F481E225C4F2
:101170008091BC058130B1F423E333E34BEC51E4BF
:101180006091DE057091DF058091E0059091E105A9
:101190000E94613A6093DE057093DF058093E0055D
:1011A0009093E1058090DE059090DF05A090E0052A
:1011B000B090E10520E030E040E850E4C501B40122
:1011C0000E94613AA50194010E94613A4B015C01C1
:1011D000A7019601C701B6010E94613A9B01AC01CB
:1011E000C501B4010E9409374B015C01A3019201C2
:1011F000C301B2010E94613A9B01AC01C501B40177
:101200000E9409374B015C0120E030E0A9010E94F7
:10121000FF3787FDBAC3C501B4010E94003B4B01F3
:101220005C01A3019201C701B6010E94E3149B0176
:10123000AC01C501B40190580E9409384B015C0112
:101240008091BA05833021F4B7FAB094B7F8B0941E
:101250008091DE059091DF05A091E005B091E10558
:1012600088A399A3AAA3BBA320E030E0A901BC01F5
:10127000CD010E94FF3787FF11C0B7FAB094B7F8CD
:10128000B09488A199A1AAA1BBA1B0588093DE0512
:101290009093DF05A093E005B093E1050EA11FA197
:1012A000000F111F000F111F07531A4FA3019201C6
:1012B000C501B4010E94613A9B01AC01C701B601AE
:1012C0000E94093720E030E040E05FE30E94613A8D
:1012D000D8016D937D938D939C9313970AA51BA5BD
:1012E000000F111F000F111F07531A4FA70196017E
:1012F000C501B4010E94613AA30192010E940A371C
:1013000020E030E040E05FE30E94613AF801608352
:10131000718382839383C4C0F8A18F2E912C0821FE
:101320001921012B09F433C321EF22228091BC053E
:10133000813009F456C00AA51BA5000F111F000F2C
:10134000111F07531A4FD8012D913D914D915C917A
:10135000C301B2010E9409372B013C018EA19FA15C
:10136000880F991F880F991FFC01E753FA4F5F01FF
:101370002081318142815381C701B6010E94093722
:10138000A30192010E94E3146B017C01D8012D910D
:101390003D914D915C91F5016081718182819381D4
:1013A0000E94E3144B015C016093DE057093DF053E
:1013B0008093E0059093E1059B01AC01C701B60164
:1013C0000E9409376B017C01E894F7F82AE037EDB9
:1013D00043EA5BE3C701B6010E94213A18165CF1AB
:1013E0005FC089EBA82E85E0B82E00E010E0C401B4
:1013F000002E02C0959587950A94E2F780FF12C0EF
:1014000023E333E34BEC51E4D50150966D917D918C
:101410008D919C9153970E94613AF501608B718B7D
:10142000828B938B0F5F1F4FF4E0AF0EB11C033024
:101430001105E9F680CF20E030E040E05FE3C7012E
:10144000B6010E94213A18160CF490CE2FE632E134
:1014500043E85AE3C501B4010E94613A9B01AC0123
:10146000C701B6010E94213A18160CF47FCE18C0AD
:101470002C8D20612C8F1E58123018F43C8D386052
:101480003C8F4B8D442309F400CC4CE050E067EED8
:1014900075E081E995E00E94CC3B892B09F466CE8A
:1014A0002C8D21708C8D80FF03C0C1018E7D03C007
:1014B000C1018E7D9C7FAD8DA111937E892B09F09A
:1014C00068C23E01BDE06B0E711C89E0F301119210
:1014D0008A95E9F7222379F18CA19DA1867B892B3E
:1014E00009F059C28091B905853311F0811153C2B9
:1014F0008091840590918505A0918605B09187051E
:10150000898B9A8BAB8BBC8B9091820580918105E6
:10151000892B8D8B69EB75E0C3010E94F60C81115C
:101520004CC28CE0E7EEF5E0A1E9B5E001900D9248
:101530008A95E1F70EC2809151071091820581FFD3
:1015400026C08091BA058150833018F0FC8DF0647C
:10155000FC8F2B8D222339F03D8D323021F44C8DC0
:1015600040684C8F14C0103191F4809179058150FE
:101570009C8D9074833030F4992349F08C8D806277
:101580008C8F05C0911103C09C8D90629C8F8091BF
:10159000D6059091D705A091D805B091D905809333
:1015A0008D0590938E05A0938F05B0939005809143
:1015B000BB0580937A05882311F088E08D8B80919C
:1015C000C5059091C605A091C705B091C805809347
:1015D000880590938905A0938A05B0938B058D8724
:1015E0009E87AF87B88BC090E205D090E305E0906E
:1015F000E405F090E505A7019601609184057091DE
:10160000850580918605909187050E94FF370C8D96
:101610000074811103C0AC8DA5FF20C0112371F0AF
:10162000BC8DB7FD0BC0002321F040E050E0BA01B3
:1016300002C0B701A601812F0E9431298091E205E5
:101640009091E305A091E405B091E50580938405B0
:1016500090938505A0938605B093870501110CC072
:101660008091840590918505A0918605B0918705AC
:10167000898B9A8BAB8BBC8B8091E60580938C0514
:101680008091C30590918205981751F049895A8934
:101690006B897C890E9431298091C30580938205E2
:1016A0009D8980918205892B8D8B8091C2059091B7
:1016B0008105981731F00E94F1018091C205809355
:1016C00081059D8980918105892B8D8B8091B9053C
:1016D000843051F46091DA057091DB058091DC056E
:1016E0009091DD050E943A138091BE0580937D059F
:1016F0008091BC0580937B05ED8DE33071F5809181
:10170000BF0580937E05811108C01092EF051092ED
:10171000F0051092F1051092F205C090EF05D090FF
:10172000F005E090F105F090F205A70196016091B7
:10173000B5057091B6058091B7059091B8050E94E6
:10174000FF37882351F0C092B505D092B605E092DC
:10175000B705F092B8050E94AC348091C005909115
:101760007F05981769F080937F058CE0FE01319624
:10177000ADE9B5E001900D928A95E1F70E94AC3495
:101780008091BD0580937C058091B9058632F1F189
:1017900038F48C3109F18E31F9F08A3069F04FC09C
:1017A0008C35D1F1863609F441C0883209F047C042
:1017B00061E975E087E02DC069EC75E08E8D0E94CF
:1017C000F32580917F05FE8DF81339C08CE0E9EC9C
:1017D000F5E0ADE9B5E025C08D8981608D8B2D8D5B
:1017E000222329F0B30187EE95E00E941110B30186
:1017F00089EC95E00E9411108CE0E9ECF5E0A1E99C
:10180000B5E001900D928A95E1F719C061E975E0A4
:1018100086E00E94F32513C08CE0E7EEF5E0A9EA2C
:10182000B5E001900D928A95E1F707C08CE0E9EAF6
:10183000F5E0DF011D928A95E9F70E94AC348091B2
:10184000BA05809379058035F1F1BD8DB230D9F5B7
:10185000813029F0811109C08D8981608D8BB301A0
:1018600087EE95E00E9411109AC082508230D8F421
:10187000E090DE05F090DF050091E0051091E105B4
:10188000EC8DE2FB332430F83F928CA4A9A4C8A4C9
:1018900029EC35E041E955E0B30187EE95E00E947F
:1018A00050100F907CC08D8984608D8B4C8DB3015E
:1018B00087EE95E00E946913882309F470C0813097
:1018C00011F40E94B5028091C105809380058823A0
:1018D00009F473C00E94CF1F809180059091F40598
:1018E000833041F4923099F188E00E9421350E94C2
:1018F000441E2DC081E08093790510927D051092E1
:101900007C0510927A0510927F0510928205109244
:10191000810584E68093FB058093FC058093FD059B
:10192000923091F06DE975E080E00E94A326882353
:10193000A1F10E94AC3440E050E0BA0180E00E9486
:101940000D2980E00E94E50188E00E94512010925C
:10195000800580E032C081E030C082E02EC088E1A6
:101960002CC086E22AC089E128C084E026C08BE131
:1019700024C085E222C084E120C08EE11EC08FE138
:101980001CC086E11AC080E218C082E216C083E261
:1019900014C084E212C080E110C087E00EC08CE069
:1019A000E7EEF5E0A1E9B5E001900D928A95E1F747
:1019B0008ACF1A8E1C8E0C94F702AC960FB6F89450
:1019C000DEBF0FBECDBFDF91CF911F910F91FF9072
:1019D000EF90DF90CF90BF90AF909F908F907F90CF
:1019E0006F905F904F903F902F9008950F931F93AB
:1019F000CF93DF938C01FB0184859585A685B78500
:101A0000F80180839183A283B3838085846080877B
:101A100080915107EB01AE9685FD09C0B801CE015A
:101A20000E941110C091F405C11108C009C0CE0177
:101A30000E94E634882391F3CFE00DC0C0E00BC0D4
:101A40000E944317892BD1F380E28093F4050E9412
:101A50008E2C0E944F298C2FDF91CF911F910F91D7
:101A60000895EBE6F0E08081897E8083E8E6F0E08F
:101A700080818E7F8083089584B1897E84B985B109
:101A8000866185B98091510783FF0BC080916B00FF
:101A9000866180936B00809168008160809368000C
:101AA00008950C94310DEF92FF920F931F93CF93F3
:101AB000DF93C3B1C6718091510786FD02C086E1F4
:101AC000C827CC23C1F000E010E0D0E0EE24E3947E
:101AD000F12C802F0E9420288C2339F0C701002E82
:101AE00001C0880F0A94EAF7D82B0F5F1F4F03300D
:101AF000110579F701C0D0E08D2FDF91CF911F91B3
:101B00000F91FF90EF9008951F920F920FB60F92D2
:101B100011242F933F934F935F936F937F938F93F2
:101B20009F93AF93BF93EF93FF938091F405813020
:101B300049F080912006811105C00E94D71381E0F1
:101B40000E94DF36FF91EF91BF91AF919F918F91EE
:101B50007F916F915F914F913F912F910F900FBEA9
:101B60000F901F9018952F923F924F925F926F9215
:101B70007F928F929F92AF92BF92CF92DF92EF921D
:101B8000FF920F931F93CF93DF93CDB7DEB7A1974B
:101B90000FB6F894DEBF0FBECDBF9091F505911141
:101BA000B3C1782EFE013D9689E0DF011D928A9532
:101BB000E9F786E08D8BECE0F7E0FA8FE98F5F01C3
:101BC0009E012A5E3F4F490100E010E0C12CD12C5C
:101BD0007601872D90E09E8F8D8F802F0E940C289C
:101BE000D4018D934D018D8D9E8D002E02C0959553
:101BF00087950A94E2F780FF19C020E030E040ECBE
:101C00005FEBF50164A175A186A197A10E94613ADD
:101C1000362E472E582E692EA70196010E94FF37B7
:101C200087FD04C0C32CD42CE52CF62C0F5F1F4F6E
:101C3000F4E0AF0EB11C0330110579F68090570720
:101C400090905807A0905907B0905A0784E0682EEA
:101C500001E064E176E0CE0101960E94CB348091F0
:101C60005207282F30E038A32F8FFE01319684E1F0
:101C700096E09C8F8B8F1C01DE0156962D0180E033
:101C800090E019A210E0B701A60170582D8D3E8D8D
:101C9000082E02C0359527950A94E2F720FF24C04C
:101CA000B9A1BF5FB9A3D1011D921D921D921C92D3
:101CB00013972F8D38A1082E02C0359527950A94C9
:101CC000E2F720FF03C0002319F007C0002329F02A
:101CD000C082D182E282F38204C040835183628356
:101CE0007383D2012C91122B0196BFEF4B1A5B0A22
:101CF000349624E0220E311C8330910539F639A147
:101D0000632F70E080E090E00E94B1380E94003BB9
:101D10009B01AC011093FA05C501B4010E94613A20
:101D20006D877E878F87988BBE01635F7F4FCE0163
:101D300001960E94791884E08093F8050E948E2C09
:101D40000E944F290023E9F00E94530DFE01769670
:101D500020E030E090E06191462F412359F0AC0142
:101D6000022E02C0559547950A94E2F740FF02C043
:101D7000609516232F5F3F4F2330310561F7109395
:101D8000FA050E948E2C80910606847331F1109121
:101D9000060614FF03C086E00E94DF3615FF03C06D
:101DA00087E00E94DF36011106C00E94530D872193
:101DB00039F088E003C012FF03C089E00E94DF36DB
:101DC00080912006882329F00E94D7130E94441E88
:101DD0009BC084E00E94D53604C0812F8C7109F02D
:101DE000B1CF0E94152C80915B0790915C070E94F7
:101DF000D81491E00927C9F020E030E040EA50E42F
:101E000060915D0770915E0780915F079091600718
:101E10000E94613A6B017C018090530790905407B7
:101E2000A0905507B090560710C0C0905D07D090A5
:101E30005E07E0905F07F0906007809057079090F2
:101E40005807A0905907B0905A076A94611001CFC3
:101E5000E0905207F12C80905D0790905E07A09073
:101E60005F07B09060072401350177FA709477F826
:101E7000709400E010E08D8D9E8D002E02C095952F
:101E800087950A94E2F780FF2CC0C701002E02C09C
:101E9000959587950A94E2F7A98DBA8D80FF11C0B8
:101EA00094962D913D914D915C919797C501B40108
:101EB0000E940A37E98DFA8D208131814281538158
:101EC00006C02D913D914D915C91C301B2010E94DC
:101ED000613A0E942E3AEB8DFC8D60837183828380
:101EE00093830F5F1F4F2B8D3C8D2C5F3F4F3C8F9B
:101EF0002B8F898D9A8D04969A8F898F03301105C7
:101F000009F0B9CF1092F805A1960FB6F894DEBF8C
:101F10000FBECDBFDF91CF911F910F91FF90EF903A
:101F2000DF90CF90BF90AF909F908F907F906F90F9
:101F30005F904F903F902F9008950E94E634882341
:101F4000E1F081E08093F7058091F405883039F065
:101F50000E94D71382E00E94DF360C94441E88E072
:101F60000E9421350E94441E8091F505811105C013
:101F70008091F4058111F6CFEBCF08950E94E724FC
:101F80000E94FF270E94482C0E942E348CE0E4E13E
:101F9000F6E0DF011D928A95E9F778941092F40536
:101FA00084EFE82E85E0F82E91E1D92EC4E608E012
:101FB00016E0DCE08091F405F7019D2D11929A95D1
:101FC000E9F78093F405C093FB05C093FC05C0932B
:101FD000FD05D801ED2F1D92EA95E9F7109207064D
:101FE00010920606109220061092F3051092050634
:101FF0000E94D3250E94A3020E9436280E94E2017B
:102000000E943C0D0E94691C0E941D170E94152C05
:102010000E94371B0E94B5020E9487200E944E1F1B
:10202000C9CF0F931F93CF93DF938C01EB01809166
:10203000510785FF07C08091F405803219F0C8016F
:102040000E949D0F8091F405823029F10E94441E68
:102050008091F50581111FC00E946C17882319F02B
:102060000E94891CF3CFBE01C8010E94791881111A
:1020700012C08091510781FF0EC0888584FF0BC07C
:102080004C815D816E817F8180E1DF91CF911F91D5
:102090000F910C943129DF91CF911F910F910895E9
:1020A0002F923F924F925F926F927F928F929F9268
:1020B000AF92BF92CF92DF92EF92FF920F931F9356
:1020C000CF93DF93CDB7DEB7E0970FB6F894DEBFBE
:1020D0000FBECDBF988B8F877E876D875A8B498BBC
:1020E0003901E986FA860B871C878D8A26962FADE3
:1020F00026972B8B34E0C39E60011124CA018C0DFE
:102100009D1D9A8F898FD301AC0DBD1DBC8FAB8FE8
:102110002D903D904D905C90FC0120813181428159
:102120005381C201B1010E940A376D8F7E8F8F8F5C
:1021300098A3F4E0AF9E8001112429893A89200FE9
:10214000311F3AA329A3C301800F911F9CA38BA326
:10215000DC018D909D90AD90BC90F9012081318182
:1021600042815381C501B4010E940A376DA37EA349
:102170008FA398A7D201C101B0588D839E83AF83EE
:10218000B887D501C401B05889839A83AB83BC83D7
:10219000EF85F889EC0DFD1D2D8D3E8D4F8D58A1DD
:1021A00060817181828193810E9409376B017C017A
:1021B000EF85F889E00FF11F2DA13EA14FA158A591
:1021C00060817181828193810E9409374B015C019A
:1021D000A70196016D817E818F8198850E94613A69
:1021E0002B013C01A501940169817A818B819C813D
:1021F0000E94613A9B01AC01C301B2010E940A37FF
:102200002B013C01A50194016D817E818F81988510
:102210000E94613A4B015C01A701960169817A81B4
:102220008B819C810E94613A9B01AC01C501B40184
:102230000E940937A30192010E9489376B017C013A
:102240009B89992399F02DEB37E346E055EBC701C5
:10225000B6010E94213A87FD1DC02BED3FE049ECFD
:1022600050E4C701B6010E94093712C02DEB37E3D5
:1022700046E055E3C701B6010E94FF37181654F037
:102280002BED3FE049EC50E4C701B6010E940A374C
:102290006B017C018090450790904607A09047070E
:1022A000B090480729853A854B855C85CA01B901FC
:1022B0000E940A37A50194010E940937A5019401E3
:1022C0000E94613A0E94003B4B015C0120E030E03B
:1022D00040E05FE3C701B6010E94613A29853A8573
:1022E0004B855C850E94613A9F77A50194010E940D
:1022F00009380E94EE380E9482387C8B6B8BDB01A0
:10230000AB2BF1F46D857E858F859889E0960FB6AD
:10231000F894DEBF0FBECDBFDF91CF911F910F911B
:10232000FF90EF90DF90CF90BF90AF909F908F90F5
:102330007F906F905F904F903F902F900C94111072
:10234000ED85FE8510854B01A12CB12C13FF16C025
:10235000C501B4010E94B1389B01AC01AD85BE85B9
:102360006D917D918D919C910E94613AED85FE85E4
:102370006083718382839383177F1087C501B401C3
:102380000E94B1382B013C019B01AC01C701B60191
:102390000E94093869877A878B879C872D89F4E0AA
:1023A0002F9F4001112409891A89080D191DEF85F5
:1023B000F889E80DF91DD8012D913D914D915C9161
:1023C00060817181828193810E940937A30192010A
:1023D0000E9409386DA77EA78FA798AB29853A85FB
:1023E0004B855C85CA01B9010E94613A9B01AC0131
:1023F00060E070E080E090E40E9409376B017C01AE
:102400002BEA3AEA4AE25EE369857A858B859C8508
:102410000E94613A4B015C0120E030E040E850E46A
:10242000C701B6010E940A379B01AC01C501B40186
:102430000E94613A6D8B7E8B8F8B988F20E030E00D
:1024400040E05FE3C701B6010E94613A69A77AA73D
:102450008BA79CA7712C22242394312CEB89FC8917
:102460002E163F0609F44ECFBBE0B71508F444C062
:1024700029A53AA54BA55CA569817A818B819C81B0
:102480000E94613A6B017C012D893E894F89588DEC
:102490006D817E818F8198850E94613AA7019601A6
:1024A0000E940A377B016C0129A53AA54BA55CA5C2
:1024B0006D817E818F8198850E94613A4B015C011C
:1024C0002D893E894F89588D69817A818B819C81C4
:1024D0000E94613A9B01AC01C501B4010E94093719
:1024E0006D837E838F8398877394C701D601898318
:1024F0009A83AB83BC8365C0B10180E090E00E9409
:10250000B13829853A854B855C850E94613A6B011B
:102510007C010E9404382B013C01C701B6010E94D6
:10252000F23A4B015C01EB8DFC8DC080D180E280E2
:10253000F380F7FAF094F7F8F094ABA1BCA18D9179
:102540009D910D90BC91A02D89839A83AB83BC8310
:10255000A7019601C301B2010E94613A6D837E8397
:102560008F83988729813A814B815C81C501B401B1
:102570000E94613A9B01AC016D817E818F819885BB
:102580000E940A376D837E838F839887A701960107
:10259000C501B4010E94613A6B017C0129813A8135
:1025A0004B815C81C301B2010E94613A9B01AC0185
:1025B000C701B6010E94093769837A838B839C83A4
:1025C000712C2D8D3E8D4F8D58A16D817E818F8117
:1025D00098850E940A37E98DFA8D60837183828322
:1025E00093832DA13EA14FA158A569817A818B814A
:1025F0009C810E940A37A9A1BAA16D937D938D9306
:102600009C9313972DA53EA54FA558A9F80160816D
:102610007181828193810E940A37D8016D937D93E5
:102620008D939C9313976D857E8589899A890E94E5
:1026300011108091F505811104C0BFEF2B1A3B0AE0
:102640000DCFE0960FB6F894DEBF0FBECDBFDF9181
:10265000CF911F910F91FF90EF90DF90CF90BF909F
:10266000AF909F908F907F906F905F904F903F9032
:102670002F900895CF92DF92EF92FF922091F40570
:10268000223069F06B017C010E94CF1F40E0C7013E
:10269000B601FF90EF90DF90CF900C94A914FF90BB
:1026A000EF90DF90CF9008950E94310D84E00E945A
:1026B000B30D82E00E94B30D0E94441E8091F50587
:1026C000811106C00E94B5020E94371B0C943C0D7C
:1026D0000895EF92FF920F931F93CF932091F405EB
:1026E000223009F45DC0C42F7B018C010E94CF1FF2
:1026F0008091F505811113C01092F905C3FB88275D
:1027000080F90E94571C0E946E1C882351F084E0BF
:102710000E94DF360E94441E80E00E94571C82E027
:1027200040C0B701C8010E94111081E080930706E4
:1027300082E00E9421350E94441E8091F50581119E
:10274000EECF8091F4058111F6CF8091070681309C
:1027500081F4C4FF0AC08CE0E4E1F6E0A8E0B6E052
:1027600001900D928A95E1F707C085E00E94DF365F
:1027700003C081E08093F9051092070680E00E9473
:10278000571C0E94441E0E94152C0E941D170E9477
:10279000371B0E94A12181E09091F905911101C0A0
:1027A00080E0CF911F910F91FF90EF90089580915D
:1027B000060684FD1DC080E10E9421350E942F285D
:1027C0000E94E0019091F405892F8C7221F4809190
:1027D000F805867069F0943031F4809120068111FB
:1027E00005C086E001C083E00E94DF360C946729B3
:1027F00008954F925F926F927F92AF92BF92CF9265
:10280000DF92EF92FF920F931F93CF93DF937C01A0
:102810006B015A01FB01C081D0E0FC01EC0FFD1FF0
:1028200080818D3229F4EF012296818101E00AC076
:102830008B3221F02196CE0DDF1D03C0EF012296D1
:10284000818100E0712CF0E010E020E030E0A9018F
:10285000E0EDE80FEA30D0F4FF5FF93098F4711042
:102860001150A5E0B0E00E94B23BDC01CB01880F23
:10287000991FAA1FBB1F9C01AD012E0F311D411DC9
:10288000511D0AC0711008C01F5F06C0EE3F31F431
:10289000711004C0772473948991DACFFF2309F46F
:1028A00048C0CA01B9010E94B1382B013C0120E0A7
:1028B00030E0A9010E94FF37882349F11F3F64F4EB
:1028C0002AE037ED43E25CE3C301B2010E94613AC2
:1028D0002B013C011E5FF2CF1F3F59F42DEC3CEC65
:1028E0004CEC5DE3C301B2010E94613A2B013C0153
:1028F0000EC0112361F020E030E040E251E4C3015A
:10290000B2010E94613A2B013C011150F2CF002329
:1029100021F077FA709477F87094F5014082518233
:1029200062827382CE19DF09C150F601C08381E053
:1029300001C080E0DF91CF911F910F91FF90EF9048
:10294000DF90CF90BF90AF907F906F905F904F904F
:1029500008951F93CF93DF93142F20E030E040EAD7
:1029600051E40E94613A0E94E8370E948238EB01EC
:102970002097D1F08091F505811116C0111103C087
:102980000E94441E06C00E94911C8091F60581FDA4
:102990000BC02FEF80E792E0215080409040E1F79C
:1029A00000C000002197E4CFDF91CF911F910895DF
:1029B000009741F0EFE9FFE03197F1F700C0000028
:1029C0000197F6CF08958F929F92AF92BF92CF92C8
:1029D000DF92EF92FF9269017A019B01AC010E94A4
:1029E000613A4B015C01A7019601C701B6010E9443
:1029F000613A9B01AC01C501B4010E940A37FF9006
:102A0000EF90DF90CF90BF90AF909F908F900C94FD
:102A1000003B4F925F926F927F92AF92BF92CF92A4
:102A2000DF92EF92FF920F931F93CF93DF93EC010E
:102A30005C018CE0A80EB11C8E01C12CD12C76015A
:102A4000F80141905190619071908F0120E030E049
:102A5000A901C301B2010E94FF37882371F0A301CD
:102A60009201C301B2010E94613A9B01AC01C7010E
:102A7000B6010E940A376B017C010A151B0501F79C
:102A8000C701B6010E94003B6B017C019B01AC01B8
:102A900060E070E080E89FE30E9409382B013C0170
:102AA000A3019201688179818A819B810E94613AA8
:102AB0006993799389939993AC16BD0689F7C701F9
:102AC000B601DF91CF911F910F91FF90EF90DF90B2
:102AD000CF90BF90AF907F906F905F904F90089590
:102AE0006F927F928F929F92AF92BF92CF92DF921E
:102AF000EF92FF920F931F93CF93DF93EB018C0123
:102B00005B018CE0A80EB11C89E9682E96E7792E4E
:102B100026E9822E3EE7932EC990D990E990F9904C
:102B200020E030E0A901C701B6010E94FF378823E9
:102B3000B9F0A7019601F8016081718182819381CA
:102B40000E9409386B017C01E894F7F89301A40115
:102B5000C701B6010E94213A181614F03601470148
:102B60000C5F1F4FCA15DB05B9F6B301C401DF9135
:102B7000CF911F910F91FF90EF90DF90CF90BF907A
:102B8000AF909F908F907F906F9008952F923F927B
:102B90004F925F926F927F928F929F92AF92BF926D
:102BA000CF92DF92EF92FF920F931F93CF93DF9319
:102BB000C0911E01C11101C0C0E1C150D0911C01E2
:102BC000DC1709F41DC1EC2EF12C22E3C29F800119
:102BD0001124005E1E4FF801A688B788C08CD18CE6
:102BE000628D738D848D958D9B01AC010E940A3797
:102BF000F801268D378D40A151A10E94613A4B0109
:102C00008C019B01AC01B501C6010E94FF3787FD15
:102C100002C05401680182E38E9DF0018F9DF00D8A
:102C20001124E05EFE4FC501D601828B938BA48BED
:102C3000B58BC11101C0C0E1C150DC1761F022E3C6
:102C40002E9DC0012F9D900D11249C01205E3E4FB2
:102C50007901D2E333C080911F01D81360C00E9474
:102C60006A2C5DC0AC2EB12CDA9DC001DB9D900DAD
:102C70001124FC01E05EFE4F6F01C11101C0C0E1F3
:102C8000C15080911F018C1302C00E946A2CDA9DF2
:102C90008001DB9D100D1124005E1E4FF801868817
:102CA0009788A08CB18CA50194016289738984896D
:102CB00095890E94FF37811106C0760180911C0121
:102CC000C813D0CF2CC0F801628D738D848D958D83
:102CD0009B01AC010E940A37F801268D378D40A177
:102CE00051A10E94613AF7012289338944895589AB
:102CF0000E940A372B013C019B01AC01C501B401C4
:102D00000E94213AF80118162CF4428A538A648AE8
:102D1000758AD3CF828A938AA48AB58ACECFD0917E
:102D20001C01F2E3DF9F80011124005E1E4FC1E011
:102D3000CD0FC03109F4C0E020901E0182E3382E8F
:102D4000C21509F45BC0CC2ED12C3C9CC0013D9C2B
:102D5000900D11249C01205E3E4F7901F8014288BC
:102D6000538864887588F90182889388A488B58817
:102D7000A5019401C301B2010E94FF3787FF24C05F
:102D8000F801628D738D848D958D9B01AC010E943D
:102D90000A37F801268D378D40A151A10E94613A72
:102DA000A30192010E940A372B013C019B01AC0157
:102DB000C501B4010E94213A181634F4F701428A81
:102DC000538A648A758ADC2F3C9CF0013D9CF00D8F
:102DD0001124E05EFE4F26893789408D518D62892E
:102DE0007389848995890E94FF37811101C0DC2F86
:102DF000CF5FC03109F4C0E08701A2CFD0931C019E
:102E0000DF91CF911F910F91FF90EF90DF90CF90C6
:102E1000BF90AF909F908F907F906F905F904F90FA
:102E20003F902F90089510921F0110921E0181E093
:102E300080931D0110921C0108958CE1E0E0F1E007
:102E4000DF011D928A95E9F70C94131790911F01E9
:102E500080911E01891769F081E0890F803109F4A2
:102E600080E020911C01921302C080931C0180938A
:102E70001F01089580911E0122E3829FC001112449
:102E8000805E9E4F089580911F0190911E019817BA
:102E900039F022E3829FC0011124805E9E4F089585
:102EA00080E090E00895E0911F01EF5FE03109F4C8
:102EB000E0E080911E018E1759F082E3E89FF00157
:102EC0001124E05EFE4F6289738984899589089593
:102ED00060E070E0CB01089581E020911F019091A6
:102EE0001D01291380E00895BF92CF92DF92EF92E7
:102EF000FF920F931F93CF93DF937C01FC0102A5F8
:102F000013A5D4A5C5A5818980FF18C06091FC05D3
:102F100070E080E090E00E94B3382AE037ED43E2B1
:102F20005CE30E94613A9B01AC01B8018D2F9C2F9C
:102F30000E94613A8B01D82FC92F2DC082FD17C086
:102F40006091FB0570E080E090E00E94B3382AE0D9
:102F500037ED43E25CE30E94613A9B01AC01B801AA
:102F60008D2F9C2F0E94613A8B01D82FC92FF7011A
:102F7000B6A0C7A0D0A4F1A42B2D3C2D4D2D5F2DC4
:102F8000B8018D2F9C2F0E94213A181624F40B2D86
:102F90001C2DDD2DCF2D20E030E040E85FE3B801AF
:102FA0008D2F9C2F0E94213A181624F000E010E08B
:102FB000D0E8CFE3B8018D2F9C2FDF91CF911F91E7
:102FC0000F91FF90EF90DF90CF90BF9008955F92A8
:102FD0006F927F928F929F92AF92BF92CF92DF9229
:102FE000EF92FF920F931F93CF93DF93C0911F0136
:102FF00050901E0189E9F82E06E716E9DEE792E314
:10300000692EC51509F459C0AC2EB12C6A9CC001BB
:103010006B9C900D11249C01205E3E4F6901C901FB
:103020000E947417762E872E982EE92E262F372F82
:10303000482F592F6F2D702F812F9D2F0E94FF3702
:1030400087FF09C02F2D302F412F5D2F6F2D702F3F
:10305000812F9D2F08C0272D382D492D5E2D672DDE
:10306000782D892D9E2D0E94613AF601668B778B13
:10307000808F918F6A9C80016B9C100D1124005EE3
:103080001E4FF801A2A0B3A0C4A0D5A0A60195012F
:1030900066897789808D918D0E94213A18162CF4CB
:1030A000F801A68AB78AC08ED18ECF5FC03109F4ED
:1030B000C0E0F72C8401DE2DA4CF8F2D902FA12FFF
:1030C000BD2F8093180190931901A0931A01B0931A
:1030D0001B01DF91CF911F910F91FF90EF90DF9037
:1030E000CF90BF90AF909F908F907F906F905F90A8
:1030F00008952F923F924F925F926F927F928F929C
:103100009F92AF92BF92CF92DF92EF92FF920F9376
:103110001F93CF93DF93CDB7DEB7C454D1090FB659
:10312000F894DEBF0FBECDBF7B0120911E01222E81
:10313000312C32E3329DA001339D500D1124BA0190
:10314000605E7E4F7AAF69AFFB0111923A95E9F765
:10315000F7013085FB01318BF70144815581668190
:103160007781E9ADFAAD46A757A760AB71AB31FFE8
:1031700004C03CE0E4E1F6E003C03CE0E0E0F1E064
:10318000DE01599601900D923A95E1F78BAB9CAB1D
:103190006CE077E07EAB6DABCE01859623969FAF5A
:1031A0008EAF2397FE0179962196FFAFEEAF219760
:1031B000F2E32F9FC00111249C01205E3E4F3EAFE1
:1031C0002DAFBE01635F7F4F7CAF6BAF78AF6FAB4E
:1031D00010E082E3829D9001839D300D1124C9018E
:1031E000805E9E4FFC013C962596FFAFEEAF259783
:1031F0006C01F0E1CF0ED11CEBA9FCA9619171919A
:1032000081919191FCABEBABEDA9FEA981909190DE
:10321000A190B190FEABEDABA50194010E94613A83
:103220000E942E3A2396EEADFFAD239761937193E2
:10323000819391932396FFAFEEAF23972196EEAD46
:10324000FFAD219741905190619071902196FFAF11
:10325000EEAF219764197509860997092B013C0186
:1032600097FF07C0442455243201461A570A680ABA
:10327000790AEDADFEAD4192519261927192FEAF2D
:10328000EDAF2596EEADFFAD2597208131814281CE
:103290005381241535054605570510F4A301920105
:1032A0002596EEADFFAD259720833183428353836E
:1032B0000E94B338A50194010E940938EFA9F8AD26
:1032C0006193719381939193F8AFEFAB20E030E07D
:1032D000A9010E94FF3787FF07C0812F0E9416288F
:1032E000F6019081892B80831F5F133009F084CF12
:1032F00082E3829D8001839D100D1124005E1E4F8C
:10330000F80184859585A685B785892B8A2B8B2B1B
:1033100009F490C1CE010D960E940915F801668F3F
:10332000778F80A391A3BE01635F7F4F84E297E014
:103330000E947015F801628F738F848F958FBE0184
:10334000635F7F4F88E197E00E947015F80166A3E4
:1033500077A380A791A7D188D0FC13C0F701208163
:10336000318142815381F80122A733A744A755A791
:10337000D3FE0BC0668D778D80A191A10E94613A2A
:10338000F80162A773A784A795A790911E01809169
:103390001F01981711F0D1FE0DC082E3829DF0014C
:1033A000839DF00D1124E05EFE4F128A138A148A69
:1033B000158A54C02CE031E03CAB2BAB8E010F5F83
:1033C0001F4FBE01675E7F4F7AAB69ABC12CD12C1A
:1033D00076010DAB1FABEBA9FCA981909190A19058
:1033E000B190FCABEBABEBADFCAD4190519061907B
:1033F0007190FCAFEBAFA3019201C501B4010E9433
:10340000613A9B01AC01C701B6010E9409376B010B
:103410007C01A5019401C301B2010E940937F801A2
:1034200061937193819391938F0129A93AA96BAD0F
:103430007CAD2617370779F62FEE3FEF4FE75FE3B6
:10344000C701B6010E94213A18166CF482E3829DEE
:10345000F001839DF00D1124E05EFE4F12A213A235
:1034600014A215A274C02FEE3FEF4FE75FEBC70128
:10347000B6010E94FF3787FF11C082E3829DF001F1
:10348000839DF00D1124E05EFE4F89E996E7A6E9E1
:10349000BEE782A393A3A4A3B5A359C08DA99FA9F6
:1034A0000E9409156DA97FA984E297E00E9470151A
:1034B0004B015C01A701960160E070E080E89FE3AA
:1034C0000E94093720E030E040E05FE30E94613A6B
:1034D0000E94003B6B017C01209141073091420723
:1034E0004091430750914407C501B4010E94613ADD
:1034F000A70196010E94613A4B015C01A701960168
:1035000060E070E080E89FE30E9409379B01AC0116
:10351000C501B4010E9409387B018C0120E030E034
:10352000A9010E94FF3787FF04C0E12CF12C00E0C5
:1035300010E082E3829DF001839DF00D1124E05E96
:10354000FE4FA701B80142A353A364A375A382E36E
:10355000829D8001839D100D1124005E1E4FF80195
:10356000818981FD69C089AD9AAD0E9474176B0194
:103570007C018090180190901901A0901A01B090E0
:103580001B01A50194010E94213A18162CF4A501F3
:103590009401C501B40104C0A7019601C701B60199
:1035A0000E94613AF801668B778B808F918F82E35E
:1035B000829D8001839D100D1124005E1E4FF80135
:1035C00082A093A0A4A0B5A0A501940166897789E3
:1035D000808D918D0E94213A18162CF4F801868A6C
:1035E000978AA08EB18EC0921801D0921901E092F4
:1035F0001A01F0921B018CE0FE013D96ACE0B1E0B7
:1036000001900D928A95E1F78CE0FE01B596A0E05D
:10361000B1E001900D928A95E1F780911D018093B0
:103620001E018F5F803109F480E080931D010E94AC
:10363000C61502C080E001C081E0CC5BDF4F0FB651
:10364000F894DEBF0FBECDBFDF91CF911F910F91D8
:10365000FF90EF90DF90CF90BF90AF909F908F90B2
:103660007F906F905F904F903F902F900895E4E18E
:10367000F6E0A0E0B1E041915191619171914D93DB
:103680005D936D937D9386E0E032F807A1F708958E
:1036900090911E0180911F01981710F0815F01C069
:1036A0008150891B08950E946A2C80911F0180938C
:1036B0001C010C94C615CF93DF93EC0189918823EC
:1036C00019F00E94F724FACFDF91CF910895CF939C
:1036D000DF93FC018491EF012196882321F00E9461
:1036E000F724FE01F7CFDF91CF910895CF93DF93B9
:1036F000843630F06AE00E946A3BC0E3C90F03C021
:10370000C0E08A3030F06AE00E946A3BD0E3D90F13
:1037100001C0D0E0805D0E94F724DD2319F08D2FD9
:103720000E94F724CC2329F08C2FDF91CF910C94A9
:10373000F724DF91CF9108958F929F92AF92BF921D
:10374000CF92DF92EF92FF920F931F93CF93DF936D
:10375000CDB7DEB72D970FB6F894DEBF0FBECDBF45
:103760006B017C01042F20E030E0A9010E94FF37AB
:1037700087FF07C08DE20E94F724F7FAF094F7F86C
:10378000F094102F123060F020E030E048EC52E46A
:10379000C701B6010E94613A6B017C011250F2CF61
:1037A00000FF0AC020E030E040E251E4C701B6016A
:1037B0000E94613A6B017C0120E030E040E05FE371
:1037C000C701B6010E940A370E947B3810E03AE038
:1037D000832E912CA12CB12C6115710581059105C9
:1037E00091F0EE24E394F12CEC0EFD1EE10EF11CA1
:1037F000A50194010E948A3B605DF7016083B901D5
:10380000CA011F5FE9CF80E3101748F4E1E0F0E060
:10381000EC0FFD1FE10FF11D80831F5FF5CF10132B
:1038200013C0FE01E10FF11D80E381831F5F0CC017
:10383000101303C08EE20E94F724FE01E10FF11D78
:1038400080810E94F72411501111F2CF2D960FB6EE
:10385000F894DEBF0FBECDBFDF91CF911F910F91C6
:10386000FF90EF90DF90CF90BF90AF909F908F90A0
:1038700008952091510720FF08C02BE832E441E26F
:103880005DE30E94613A44E001C043E00C949C1B5C
:103890002091510720FF08C02BE832E441E25DE3AC
:1038A0000E94613A41E001C040E00C949C1B1092E0
:1038B00021069091510797FD03C090E29093210655
:1038C000882331F09091210680E289278093210698
:1038D00008953D98459A80E00C94571C86B18072FB
:1038E00090912106892708950E946E1C882381F0FB
:1038F000109207068CE0E4E1F6E0A8E0B6E0019063
:103900000D928A95E1F78091060680648093060601
:1039100008950E944317892B19F082E00C942135F9
:103920000895CF93C0912006CC23B9F081E0809315
:10393000F4058C2F0E944120C150C23018F00E9423
:10394000E5360BC081E00E94512080E10E94D5360F
:103950008091060684FFFCCFF2CFC0910606CC23EF
:1039600009F4F4C0C4FF04C081E08093F5058AC166
:10397000C0FF05C00E94212381E00E94D5368C2F14
:10398000887E09F460C08091F405982F937009F047
:1039900049C08872A1F08091F605807C81F40E9474
:1039A0006A2C82E08093F8058091F405803239F426
:1039B000C7FD66C18091F60580688093F605809109
:1039C000F405811103C091E09093F605C6FF07C08E
:1039D00085FD05C09091F60590649093F605C3FFB0
:1039E00005C0807E19F480E18093F405C5FF1AC0FC
:1039F00086E00E9451208091F60587FD0EC09091CF
:103A0000F405903439F483FF37C1837E826080935C
:103A1000F60532C1903809F02FC18091F605806219
:103A20008093F605C7FF0CC08091F405813029F41E
:103A30008091F60585608093F60580E88093F40513
:103A400088EE0E94D536C1FF44C08C2F8876F1F5F0
:103A50008091F405803471F48091F60585FD0AC0EB
:103A600084FF03C01092F40505C082FF03C0886084
:103A70008093F6058091F405882381F084FF26C0A9
:103A80009091F60590FF22C0803141F48091FE05AF
:103A9000882321F088608093FE0518C01092F805F5
:103AA0000E944317892B71F08091F60586FD0AC0AC
:103AB0001092F60588E08093F4050E948E2C0E94F7
:103AC0004F2904C01092F6051092F40582E00E947E
:103AD000D536C2FF3BC08091F405807D9091F605FC
:103AE0008823A9F08091F705811111C097FD0FC0BF
:103AF0000E94531B8091F80581FF05C09091F60547
:103B000091609093F605897F8093F8051CC097FF1C
:103B10000AC01092F8050E941D170E94152C0E94E1
:103B2000B5020E94371B8091F60585FF08C08F778C
:103B300081608093F60580E48093F40504C01092C0
:103B4000F6051092F40584E00E94D536C091F30585
:103B5000CC2381F10E94FD363091FB05C0FF02C0ED
:103B600084E601C0832FC1FD865FC2FD8A50C3FD7C
:103B70008F5FC4FD8150893C08F088EC8A3008F4DE
:103B80008AE02091FC05C5FF02C094E601C0922F97
:103B9000C6FD92E3C7FD99E1381302C0921751F0B8
:103BA0008093FB059093FC051092FF050E94E71798
:103BB0000E94531BC0910506CC2309F456C00E94F5
:103BC00003379091FD05C0FF02C084E601C0892F34
:103BD000C1FD865FC2FD8A50C3FD8F5FC4FD815069
:103BE000893C08F088EC8A3008F48AE09817D1F014
:103BF0008093FD058091F40581110DC040918405ED
:103C000050918505609186057091870580918205A8
:103C10000E940D2905C08091F80588608093F80501
:103C20001092FF058091F405C5FF0DC0803159F455
:103C30009091FE05911102C092E003C090FF03C075
:103C400094609093FE05C07C81F0882311F0887306
:103C500061F0C0918105C6FF02C0CF7B01C0C06486
:103C60008C2F0E94E501C09381058091F4058C7F23
:103C700049F0CF910C948E2C80E48093F405CDCE46
:103C800080E2A4CECF910895CF92DF92EF92FF927F
:103C90001F93CF93DF930E94911C8091F605882398
:103CA00009F4F4C00E9443177C01009771F4C0919D
:103CB000820580918105C82BC0908405D090850530
:103CC000E0908605F09087050BC0FC01C189C073A8
:103CD0000E94DA01C82BF701C6A4D7A4E0A8F1A876
:103CE0008091510781FF03C080E20E94F436DC2FEF
:103CF000D07311E0C07C8091F605882309F4C6C01A
:103D00009091F5059111C2C080FFBDC09091F4055E
:103D1000292F207C09F473C082FD12C01092FE0589
:103D200040E050E0BA0180E00E940D2980E00E944E
:103D3000E5018091F6058D7F84608093F605A3C030
:103D40009038A9F48BE00E94512040E050E0BA0185
:103D500080E00E940D2980E00E94E5010E94672911
:103D60008091F505811192C00E94911CF9CF903489
:103D700049F40E948B34811105C08091F6058F7D36
:103D80008093F6058091F60583FF7DC090918205B2
:103D90009923C1F081FD16C08091510781FF06C0B3
:103DA0008091F80588608093F8050CC0B701A601E2
:103DB0008D2F0E940D2941E060E070E080E890E4E2
:103DC0000E94A91480918105882371F08091F605E5
:103DD00081FD0AC08C2F0E94E50141E060E070E0A7
:103DE00080E89FE30E94A9148091F60581FD4BC0F5
:103DF00080618093F60582E00E94213544C0809165
:103E0000FE05882391F181FF0DC0809182058823F2
:103E1000B1F040E050E0BA0180E00E940D2910931B
:103E2000FE0531C08C7079F18091820581110AC044
:103E30008091FE0583FF03C082E00E94213510922D
:103E4000FE0521C08AE00E9451208091510781FF28
:103E500006C08091F80588608093F805E9CFB70126
:103E6000A6018D2F0E940D29E3CF8091F80583FFD5
:103E70000AC0B701A6018D2F0E940D298091F80577
:103E8000877F8093F8050E94911C35CFDF91CF91F9
:103E90001F91FF90EF90DF90CF900895CF93DF9325
:103EA0008091F405817839F082E00E94512081E010
:103EB0008093F40530C01092F4050E948B3488235F
:103EC00039F0809106068062809306060E94441EA7
:103ED00080E494E00E948D341EC08D3061F0DD23BB
:103EE00099F1893209F4DD7F0E943D258F3F09F465
:103EF0004AC08A3091F70E94441E8091F5058111D5
:103F00004BC0EC2FF0E0E05CFB4F1082D0FF06C00E
:103F10008BE00E942E20C0E0D0E0E6CF80914004EC
:103F20008823B9F3843229F480E494E00E942A358E
:103F3000F0CF8091F405817211F089E0EACF80E43E
:103F400094E00E94BB02E5CF813270F28F3261F2C1
:103F5000883299F08B3399F0CF3498F42C2F30E0DD
:103F6000E1E0EC0F9FE9980FD901A05CBB4F9A31BB
:103F700008F480528C93CE2FB7CFD2E0B5CFD4E0E7
:103F8000B3CFD1E0B1CF0E94891C0E94441E809122
:103F9000F505882309F4A8CFDF91CF9108950E94F9
:103FA000891C0E94441E8091F505811108C00E9461
:103FB0004317892BB1F78091F405883091F3089568
:103FC00088E293E00C94671B8DE50E94F7240C9423
:103FD000E01F0F931F93CF938C01C0E0F801619114
:103FE0007191819191918F010E94391CC23019F019
:103FF0008CE20E94F724CF5FC33081F7CF911F91ED
:104000000F910895CF93C82F84E20E94F7248C2F3C
:104010000E94761B8DE3CF910C94F724CF93C62F8B
:104020000E9402208C2F0E94761BCF910C94E01FDF
:10403000CF92DF92EF92FF92CF936A017B01C22F62
:104040000E9402204C2FC701B6010E949C1BCF91F9
:10405000FF90EF90DF90CF900C94E01FCF938111F1
:1040600005C082E393E0CF910C94671BC82F8BE2CD
:1040700093E00E94671B8C2F0E94761BCF910C94BB
:10408000E01FCF93C82F81E293E00E94671B8C2F23
:104090000E94761B0E94E01F84EF91E0CF910C9468
:1040A000D814CF93C82F8BE193E00E94671B8C2F0D
:1040B00090E0FC013197EB30F10530F5E75BFF4F05
:1040C0000C94AC3B89E093E01DC085EF92E01AC0F0
:1040D00083EE92E017C08BED92E014C082ED92E087
:1040E00011C087EC92E00EC08AEB92E00BC082EB2D
:1040F00092E008C08FE992E005C08DE892E002C02E
:1041000084E892E00E94671BCF910C94E41F87E63D
:1041100092E00C94671B8DE192E00C94671BEF9288
:10412000FF920F931F93CF93DF9360913C0770E052
:1041300080E00E940E2060913F0770E081E00E94C5
:104140000E2060913D0770E082E00E940E20609199
:104150003E0770E083E00E940E206091510762FBF1
:10416000662760F970E084E00E940E20609151079C
:1041700066FB662760F970E085E00E940E20809162
:104180005107082E000C990B692F661F6627661FC2
:1041900070E086E00E940E206091400770E08AE0A7
:1041A0000E940E20409141075091420760914307C1
:1041B0007091440723E08BE00E941820409145074E
:1041C00050914607609147077091480723E08CE0C3
:1041D0000E94182060915107617070E08DE00E948C
:1041E0000E206091510765FB662760F970E084E15D
:1041F0000E940E206091510763FB662760F970E012
:1042000085E10E940E20609151076295617070E017
:1042100086E10E940E206091520770E087E10E94C3
:104220000E204091530750915407609155077091AB
:10423000560723E088E10E941820409157075091CB
:1042400058076091590770915A0723E089E10E944D
:10425000182060915B0770915C078AE10E940E2034
:1042600040915D0750915E0760915F077091600714
:1042700023E08BE10E9418204091490750914A07A2
:1042800060914B0770914C0720E08EE10E9418204E
:1042900040914D0750914E0760914F077091500724
:1042A00020E08FE10E9418206091510766956170AF
:1042B00070E080E20E940E20D4E6F12C0CE017E0C2
:1042C00083E0E82EED0ECD2F82E0F81691F0E3E0CA
:1042D000FE16E9F0F1E0FF1631F0F801408151815E
:1042E000628173811AC0F80144855585668577859A
:1042F00014C020E030E041E655E4F801608D718D96
:10430000828D938D0E940938AB01BC0106C0F80173
:1043100044A155A166A177A1705823E08C2F0E947B
:1043200018200C5F1F4FCF5FCE11CECFD65FF39416
:10433000DC3821F6DF91CF911F910F91FF90EF9024
:104340000895CF93DF93CDB7DEB72C970FB6F894CF
:10435000DEBF0FBECDBF87E192E00E94671B68E021
:1043600076E0CE0101960E94CB34CE0101960E94E8
:10437000E91F8AE30E94F7248091F9050E94761BC9
:104380000E94E41F2C960FB6F894DEBF0FBECDBF7F
:10439000DF91CF9108951F93CF93DF93CDB7DEB711
:1043A0002C970FB6F894DEBF0FBECDBF10E0BE0154
:1043B0006F5F7F4F812F0E94A32681110AC08BE27D
:1043C00093E00E94671B87E00E94761B0E94E01F1B
:1043D0003CC084E192E00E94671B163029F0173040
:1043E00041F48EE092E002C081E192E00E94671BFE
:1043F00004C086E3810F0E94761B8AE30E94F724A3
:10440000CE0101960E94E91F0E94E41F1F5F183031
:1044100071F688E092E00E94671B89EA95E00E94AD
:10442000E91F0E94E41F82E092E00E94671B6091F6
:10443000B5057091B6058091B7059091B8050E94B9
:10444000391C0E94E41F0E94A1212C960FB6F894FB
:10445000DEBF0FBECDBFDF91CF911F9108958CEFCE
:1044600091E00E94671B809179058C3838F088EFC5
:1044700091E00E94671B809179058A580E94761B03
:104480008CEE91E00E94671B80917F058A5C0E9400
:10449000761B8CEE91E00E94671B80917D058F5EFC
:1044A0000E94761B8CEE91E00E94671B90917B0529
:1044B00085E1891B0E94761B8CEE91E00E94671BB0
:1044C00080917C05865A0E94761B8CEE91E00E94BA
:1044D000671B90917A058EE5891B0E94761B80915F
:1044E0008005882399F089EE91E00E94671B8091F6
:1044F0008005833029F08E3139F0823039F404C0E0
:1045000080E30E94F72402C00E94761B89EE91E0AE
:104510000E94671B80918205803131F0803231F03A
:10452000811107C085E303C083E301C084E30E94D7
:10453000F72489EE91E00E94671B80918105882312
:1045400011F088E301C089E30E94F72485EF91E030
:104550000E94671B80918C050E94761B82EF91E080
:104560000E94671B609188057091890580918A057A
:1045700090918B050E94481C8FEE91E00E94671B72
:1045800060918405709185058091860590918705DD
:1045900040E00E949C1B0C94E41F1F93CF93DF9379
:1045A000182FEB0186EE91E00E94671B812F0E947D
:1045B000761B8DE30E94F724CE010E945B1BDF91E6
:1045C000CF911F910C94E01F0F931F93CF938C01F9
:1045D000C62F8EE30E94F724C8010E945B1B8AE36A
:1045E0000E94F7248C2FCF911F910F910C942E20B5
:1045F000CF93DF93EC0182ED91E00E94671BCE0127
:104600000E945B1B0E94E41F8CEC91E00E94671BE0
:1046100086E50E94F72484E40E94F7248CE40E943B
:10462000F7248CE20E94F7248FE00E94761B8CE234
:104630000E94F72480E80E94761BDF91CF910C94B2
:10464000E41F4F925F926F927F92AF92BF92CF9290
:10465000DF92EF92FF920F931F93CF93DF93CDB72B
:10466000DEB7A4970FB6F894DEBF0FBECDBF8CE0C7
:10467000E4E1F6E0DE01599601900D928A95E1F7AA
:10468000BE01675E7F4FCE010D960E94CB348CE356
:104690000E94F7248091F4058830E1F058F48130CD
:1046A00099F1A8F0823099F1843009F043C084EB8D
:1046B00091E03EC0803229F118F4803171F03AC0A7
:1046C000803441F18038B1F58CE991E031C087EC5C
:1046D00091E02EC083EC91E02BC08091F60587FD20
:1046E00010C08DEB91E00E94671B8091F60580FF62
:1046F00006C080E31AC082FF17C085FFFACF81E3AE
:1047000014C089EB91E014C08EEA91E011C088EAF0
:1047100091E00EC082EA91E00E94671B8091F6054D
:1047200083FFE9CF83E301C082E30E94F72402C044
:104730000E94671B80914007282F2170E22E80FD88
:1047400014C04090B5055090B6056090B7057090C4
:10475000B8058DE9A82E85E0B82E8E010F5F1F4F9A
:10476000CE010D966C01F12C2CC08091000688239F
:1047700041F385E991E040C0A30192010E940A370C
:10478000F8016083718382839383E110F2CFF80193
:104790002081318142815381F60160817181828162
:1047A00093810E940937F60160837183828393832A
:1047B000F3940C5F1F4FF4E0CF0ED11C23E0F216F0
:1047C000B9F0F50161917191819191915F0120851D
:1047D0003185428553850E940A37F80160837183D1
:1047E00082839383F2E0FF1639F2EE2081F2E0CF6C
:1047F000E110BFCF8EE891E00E94671BCE010D96BD
:104800000E94E91F8091400781FF0FC089E891E075
:104810000E94671B0E94481B0E94761B8CE20E942C
:10482000F7240E94DC240E94761B84E891E00E9419
:10483000671B0E941D340E94481C8CE20E94F724D2
:104840006091010670910206809103069091040622
:1048500040E00E949C1B0E94530D082F0E943F3491
:10486000182F0E946E1CF82E802F812B8F2959F152
:104870008FE791E00E94671BFF2019F080E50E94FE
:10488000F724002379F000FF03C088E50E94F72495
:1048900001FF03C089E50E94F72402FF03C08AE5F7
:1048A0000E94F724112379F010FF03C082E50E94D3
:1048B000F72411FF03C088E40E94F72412FF03C00D
:1048C00083E50E94F72480910006882321F081501F
:1048D0008093000618C08091F4058C7711F08DE16B
:1048E00001C089E0809300068091FF05811103C01B
:1048F00081E08093FF0589E791E00E94671BCE016C
:1049000001960E94E91F8091FF05882321F08150C4
:104910008093FF0537C08091F4058C7711F083E117
:1049200001C089E08093FF0584E791E00E94671B46
:104930008091FB050E94761B8CE20E94F7248091F7
:10494000FC050E94761B8CE20E94F7248091FD05F5
:104950000E94761B0E942A28082F0E94DA01182F35
:10496000011102C0882371F080E791E00E94671B6B
:10497000002319F083E50E94F72416FF03C086E4A4
:104980000E94F7248EE30E94F7240E94E01FA49661
:104990000FB6F894DEBF0FBECDBFDF91CF911F9150
:1049A0000F91FF90EF90DF90CF90BF90AF907F90EE
:1049B0006F905F904F90089580919204909193042E
:1049C000981710F0805801C08150891B0895E0ECC1
:1049D000F0E08081826080831092C50080E1809346
:1049E000C400E1ECF0E08081886980830895E09163
:1049F000910491E09E0F993631F490E004C020912B
:104A0000060624FD0FC0209190042917C1F3F0E0A1
:104A1000EE5DF94F8083909391048091C100806294
:104A20008093C10008951F920F920FB60F92112428
:104A30008F939F93EF93FF9380919004E82FF0E082
:104A4000EE5DF94F90819093C6008F5F893609F42F
:104A500080E08093900490919104891305C0809127
:104A6000C1008F7D8093C100FF91EF919F918F9145
:104A70000F900FBE0F901F90189590919204809107
:104A80009304981761F0E92FF0E0E557F94F808122
:104A90009F5F913809F490E09093920408958FEF0E
:104AA00008951F920F920FB60F9211242F933F93E8
:104AB0004F935F936F937F938F939F93AF93BF9326
:104AC000EF93FF93E091C600E13271F028F4E831F2
:104AD00079F40E94D71356C0EF3321F0EE3741F43A
:104AE00082E003C081E001C088E00E9421354AC015
:104AF000E7FF37C08E2F90E0FC01E458F109ED315B
:104B0000F10508F03FC0EC5AFF4F0C94AC3B80E23B
:104B1000ECCF8091F40585FF35C080E4E6CF81E0DD
:104B20000DC082E00BC084E009C088E007C080E1CE
:104B300005C080E203C080E401C080E80E94EB363B
:104B400021C081E00BC082E009C084E007C088E09A
:104B500005C080E103C080E201C080E40E94F43619
:104B600011C0A091930481E08A0F813809F480E09C
:104B700090919204891731F0B0E0A557B94FEC93AA
:104B800080939304FF91EF91BF91AF919F918F918B
:104B90007F916F915F914F913F912F910F900FBE39
:104BA0000F901F901895809193048093920408951C
:104BB0000F931F93CF93C82F8B010E94CF1F21E526
:104BC000C29FC001112440E550E0B8019D5FCF9124
:104BD0001F910F910C94220240E550E0BC018EEA37
:104BE00093E00C9422020F931F93CF93C82F8B0155
:104BF0000E94CF1F2DE0C29FC00111244CE050E065
:104C0000B8019E5FCF911F910F910C9422026AE030
:104C100080E090E00E94070245E550E06CE077E01C
:104C200081E090E00C942202EF92FF920F931F9389
:104C3000CF93DF93CDB7DEB72C970FB6F894DEBFD6
:104C40000FBECDBF182F80FF0BC085E5E7E3F3E073
:104C5000ACE0B7E005900D928A95E1F70E94072637
:104C600011FF10C0CE0101967C018CE0F70111927A
:104C70008A95E9F700E0B701802F0E94F3250F5FC6
:104C80000830C9F712FF14C060E080E093E00E9492
:104C9000070260E081E093E00E94070260E081E5A6
:104CA00093E00E94070260E082E593E00E94070221
:104CB00013FF0AC060E08EEA93E00E94070260E002
:104CC0008FEA93E00E9407022C960FB6F894DEBF9D
:104CD0000FBECDBFDF91CF911F910F91FF90EF904D
:104CE00008951F93CF93DF93182FEB0181E5189F51
:104CF000B00111247D5F40E550E0CE010E945F02CB
:104D0000892B39F41882BE01812F0E94D82580E0BA
:104D100001C081E0DF91CF911F910895CF93DF9380
:104D2000EC0140E550E06EEA73E00E945F02892BDF
:104D300031F41882CE010E94EC2580E001C081E0B0
:104D4000DF91CF9108951F93CF93DF93182FEB013D
:104D50008DE0189FB00111247E5F4CE050E0CE0141
:104D60000E945F02892B59F48CE0FE0111928A9512
:104D7000E9F7BE01812F0E94F32580E001C081E0A8
:104D8000DF91CF911F91089580E090E00E94FF0194
:104D90008A3059F445E550E061E070E08CE097E03E
:104DA0000E945F0221E0892B09F420E0822F089500
:104DB000CF92DF92EF92FF92CF93DF93C82F6A01D9
:104DC0007B0120E030E0A901C701B6010E94FF3756
:104DD00087FD07C1C43608F441C08CE98C0F20E080
:104DE000833098F590E0880F991F880F991F223023
:104DF00059F0FC012330F1F0213019F0E45FF84F55
:104E00001FC0E85EF84F1CC0EC01CC5DD84F20E01D
:104E100030E040E752E4C701B6010E94613A20E069
:104E200030E040E752E40E94613A688379838A83E4
:104E30009B83D3C0E05DF84FF7FAF094F7F8F09455
:104E4000C082D182E282F382C8C02F5F8A3008F428
:104E5000CAC0243009F4C7C08A50C2CFC701B60106
:104E60000E94443B0E9482388C2F90E08132910551
:104E700008F0B9C0FC01EF58FF4F0C94AC3B633015
:104E800008F4B3C060933C07A8C060933F07A5C077
:104E900060933D0702C060933E070E94DB2B9DC0DC
:104EA00080915107662311F0846095C08B7F93C079
:104EB00080915107662311F080648DC08F7B8BC079
:104EC00080915107662311F0806801C08F7780932D
:104ED000510780E00E94571C80C0609340077DC04E
:104EE000C0924107D0924207E0924307F0924407F4
:104EF00074C0C0924507D0924607E0924707F092EF
:104F000048076BC080915107662311F0816001C092
:104F10008E7F809351070E94AC345FC0809151070F
:104F2000662321F084FF63C0806255C08F7D53C02B
:104F300080915107662311F0886001C0877F8093BC
:104F400051070E943C0D49C080915107662311F022
:104F5000806141C08F7C3FC0609352073EC0C092C9
:104F60005307D0925407E0925507F092560735C088
:104F7000C0925707D0925807E0925907F0925A070B
:104F80002CC070E070935C0760935B0726C0C092F2
:104F90005D07D0925E07E0925F07F09260071DC048
:104FA000C0924907D0924A07E0924B07F0924C0713
:104FB00008C0C0924D07D0924E07E0924F07F09282
:104FC00050070E94362809C080915107662311F0CE
:104FD000826001C08D7F809351070E94072680E088
:104FE00007C084E005C083E003C086E001C08AE01A
:104FF000DF91CF91FF90EF90DF90CF9008950E94C6
:10500000C426811108C087E00E942E208FEF0E94E5
:1050100014260C948F200895882321F0813021F0EC
:1050200080E1089584E0089588E00895882321F0C0
:10503000813021F080E8089580E2089580E40895A9
:10504000882321F0813021F080E1089582E00895E5
:1050500084E0089585B185FB882780F90895E0EB09
:10506000F0E080818F7780832D980895239A83E0E4
:105070008093B00084E08093B100259A20914D0781
:1050800030914E0740914F0750915007609149076A
:1050900070914A0780914B0790914C070E94093705
:1050A0009B01AC0160E070E08EE793E40E94093858
:1050B000609394047093950480939604909397045E
:1050C0000C942F288093B300811104C08091B0000C
:1050D0008F7703C08091B00080688093B0000895FE
:1050E0004F925F926F927F928F929F92AF92BF92F8
:1050F000CF92DF92EF92FF926B017C0180904D077F
:1051000090904E07A0904F07B090500740904907ED
:1051100050904A0760904B0770904C07A301920192
:10512000C501B4010E94213A87FF19C06091FD05B5
:1051300070E080E090E00E94B3382AE037ED43E26F
:105140005CE30E94613AA70196010E94613A6B01FB
:105150007C01A30192010E94213A87FD0AC040927E
:1051600001065092020660920306709204068FEFC9
:1051700047C0A5019401C701B6010E94FF37181668
:10518000E4F020E030E0A901C701B6010E94FF373A
:10519000811109C0109201061092020610920306B6
:1051A000109204062DC08092010690920206A092F1
:1051B0000306B092040681E023C0C0920106D0929B
:1051C0000206E0920306F0920406A5019401C701CD
:1051D000B6010E94093720919404309195044091C2
:1051E0009604509197040E94613A0E94EE3820E0A4
:1051F00030E040E85FE30E940A370E948238862F41
:10520000FF90EF90DF90CF90BF90AF909F908F90E6
:105210007F906F905F904F9008959091F505911158
:105220001FC081110BC0109201061092020610924D
:105230000306109204060E942F2810C09091510777
:1052400091FF05C0803219F440E050E0BA01CB0173
:10525000BA010E9470280E9462282D9A1092FF05C0
:105260000895CF92DF92EF92FF92CF939091F40541
:10527000923079F06A017B01C82F0E94CF1FB701DD
:10528000A6018C2FCF91FF90EF90DF90CF900C94E0
:105290000D29CF91FF90EF90DF90CF9008958091EE
:1052A000510782FF02C0289A01C028988091CE043D
:1052B0008093E00480913C07880F8450819580930F
:1052C000DF0480916F00826080936F000895809169
:1052D0006F008D7F80936F0080918100887F816057
:1052E000809381001092CC0480913F079091F40547
:1052F0008F3F39F420912006211103C0903841F4EA
:1053000002C0943029F090E00E94D81481E001C0DE
:1053100080E09091510792FF02C091E08927882395
:1053200011F0289A0895289808951F920F920FB6A9
:105330000F9211242F933F934F935F936F937F931B
:105340008F939F93AF93BF93EF93FF938091CC0480
:1053500081110AC28BB19091E104907E8F71892BEB
:105360008BB98BB1837E9091E004892B8BB98091AE
:10537000DF0486BD82E085BD81E08093CC04789413
:105380008091F3049091F404892B09F0BBC08091C3
:10539000D1049091D004981709F4A4C0E091D104ED
:1053A0002E2F30E087E0E89FF0011124EB50FB4FF7
:1053B000F093F404E093F304828193819093890045
:1053C00080938800808191819093EF048093EE0414
:1053D000E4818091F0048E1761F1E093F00482E1A2
:1053E000E89FF0011124E15EFA4FF093F204E0939C
:1053F000F10484859585A685B785B695A79597957B
:1054000087958093DA049093DB04A093DC04B09337
:10541000DD048093D6049093D704A093D804B0936E
:10542000D9048093D2049093D304A093D404B0936E
:10543000D504A091F104B091F20450969C9150973C
:105440008091CD0489278093E10487E0829FF00159
:10545000839FF00D1124EB50FB4F25814D915D9101
:105460006D917C911397022E04C0769567955795A0
:1054700047950A94D2F74093E2045093E304609373
:10548000E4047093E50414964D915D916D917C91C7
:105490001797022E04C076956795579547950A94FD
:1054A000D2F74093E6045093E7046093E8047093C6
:1054B000E90418968D919D910D90BC91A02D04C08A
:1054C000B695A795979587952A95D2F78093EA0484
:1054D0009093EB04A093EC04B093ED0486810E94BA
:1054E000622810C00E946729E091F104F091F20453
:1054F0008189882319F080E00E94622884E00E945C
:10550000213532C180910706813011F40E94741C4C
:105510001092E0044091D2045091D3046091D404DD
:105520007091D5048091E2049091E304A091E40489
:10553000B091E504840F951FA61FB71F8093D20476
:105540009093D304A093D404B093D504E091F104D4
:10555000F091F2044485558566857785481759078B
:105560006A077B0768F524E02093E00444855585AD
:1055700066857785841B950BA60BB70B8093D204A9
:105580009093D304A093D404B093D5042089809140
:10559000140690911506A0911606B091170625FFE6
:1055A00004C00197A109B10903C00196A11DB11D55
:1055B0008093140690931506A0931606B0931706D1
:1055C0004091D6045091D7046091D8047091D904C9
:1055D0008091E6049091E704A091E804B091E90479
:1055E000840F951FA61FB71F8093D6049093D704EE
:1055F000A093D804B093D9044485558566857785F2
:10560000481759076A077B0778F52091E00428605E
:105610002093E0044485558566857785841B950B2A
:10562000A60BB70B8093D6049093D704A093D8040D
:10563000B093D90420898091180690911906A09101
:105640001A06B0911B0626FF04C00197A109B109F3
:1056500003C00196A11DB11D8093180690931906F1
:10566000A0931A06B0931B064091DA045091DB0414
:105670006091DC047091DD048091EA049091EB0468
:10568000A091EC04B091ED04840F951FA61FB71FE5
:105690008093DA049093DB04A093DC04B093DD04E0
:1056A0004485558566857785481759076A077B07BE
:1056B00078F52091E00420612093E004448555852D
:1056C00066857785841B950BA60BB70B8093DA0450
:1056D0009093DB04A093DC04B093DD0420898091D7
:1056E0001C0690911D06A0911E06B0911F0627FF73
:1056F00004C00197A109B10903C00196A11DB11D04
:1057000080931C0690931D06A0931E06B0931F065F
:105710008091F405843039F49091E0048091FA0589
:1057200089238093E0048091EE049091EF04019727
:105730009093EF048093EE04892B69F41092F404A3
:105740001092F3048091D1048F5F8093D10486304E
:1057500011F41092D1049091E0048091CE04892735
:105760008093E0041092CC04FF91EF91BF91AF9130
:105770009F918F917F916F915F914F913F912F9169
:105780000F900FBE0F901F9018951F920F920FB69B
:105790000F9211248F939F938BB19091CE049C71A3
:1057A000837E892B8BB915BC9F918F910F900FBE73
:1057B0000F901F9018950F931F93CF93DF93109224
:1057C000CE041092CD04C0E0D0E01C2F0C2F8091AD
:1057D0003D0790E00C2E02C0959587950A94E2F75C
:1057E00080FF08C0812F0E940C289091CE04892B45
:1057F0008093CE0480913E0790E002C095958795F6
:105800000A95E2F780FF08C0812F0E941628909128
:10581000CD04892B8093CD042196C330D105A9F600
:10582000DF91CF911F910F910895CF93DF930E9445
:10583000672980E3E8E9F4E0DF011D928A95E9F742
:10584000C2EDD4E083E2FE0111928A95E9F710924D
:10585000CB041092CA041092D1041092D00481E0BB
:105860008093CF041092CC040E94DB2B8091CD0456
:105870008F878BB1837E9091CE04892B8BB98BB1AE
:105880008F719091CD04892B8BB9DF91CF910895C1
:105890008AB18C618AB9209A8AB1806E8AB9E1E8AE
:1058A000F0E080818F7E8083808188608083E0E863
:1058B000F0E080818C7F808380818F708083EEE632
:1058C000F0E08081887F808314BC15BC808181607A
:1058D00080830895CF93DF93C091CA04D091CB0405
:1058E0002097C9F080919904816080939904609118
:1058F000AF047091B0048091B1049091B2049B0107
:10590000AC010E94613A6A8B7B8B8C8B9D8B1092D1
:10591000CB041092CA04DF91CF9108952F923F9249
:105920004F925F926F927F928F929F92AF92BF92AF
:10593000CF92DF92EF92FF920F931F93CF93DF935B
:10594000CDB7DEB7EA970FB6F894DEBF0FBECDBF76
:105950008091F80580FD58C79091D1048091CF04C3
:10596000981709F451C78091CA049091CB04892BF0
:1059700009F015C38091F80582FF03C00E943A1711
:1059800002C00E9443179093CB048093CA042090D6
:10599000CA043090CB042114310409F435C71091A6
:1059A0009904812F817010FF03C010929904E9C0FF
:1059B000909198049F5F953009F0892F8093980407
:1059C000E82EF12C22E12E9DF0012F9DF00D1124E7
:1059D000E15EFA4FF093C904E093C804D1015096F8
:1059E0009C915097908BE2E18E9FC001112420E0A2
:1059F00030E04D915D916D917D91F901E80FF91FB6
:105A0000E15EFA4F03E0440F551F661F771F0A95AA
:105A1000D1F740835183628373832C5F3F4F2C30D7
:105A2000310539F722E12E9DF0012F9DF00D112453
:105A30009F01215E3A4FF10184859585A685B78542
:105A400043E0880F991FAA1FBB1F4A95D1F7F901A0
:105A500084879587A687B787D1011C966D917D9124
:105A60008D919C911F970E94B13860939E04709312
:105A70009F048093A0049093A104F101268D378D9B
:105A800040A151A10E9409389B01AC016093A2047E
:105A90007093A3048093A4049093A50460E070E045
:105AA00080EA9FE30E9409386093A6047093A704DC
:105AB0008093A8049093A90410929A0410929B04D6
:105AC00010929C0410929D048091F80581FD02C003
:105AD00013FF1FC06091B7047091B8048091B9049E
