:100000000C9408020C94B4270C948D270C943002A5
:100010000C9430020C9430020C9430020C94300298
:100020000C9430020C9430020C9430020C94300288
:100030000C9430020C9430020C9430020C94300278
:100040000C9443270C9430020C9401280C94DB2769
:100050000C9430020C9430020C9430020C94300258
:100060000C9424260C9430024E414E494E4954596A
:10007000494E46CDCCCC3D0AD7233C17B7D1387773
:10008000CC2B329595E6241FB14F0A000020410089
:1000900000C84200401C4620BCBE4CCA1B0E5AAED3
:1000A000C59D7400407A10F35A00A0724E180900E2
:1000B00010A5D4E80000E87648170000E40B5402CD
:1000C0000000CA9A3B000000E1F505000080969808
:1000D00000000040420F000000A086010000001058
:1000E0002700000000E8030000000064000000009A
:1000F000000A00000000000100000000002C76D87B
:1001000088DC674F0823DFC1DFAE59E1B1B796E560
:10011000E3E453C63AE651997696E8E6C28426EBC4
:10012000898C9B62ED407C6FFCEFBC9C9F40F2BAD7
:10013000A56FA5F490055A2AF75C936B6CF9676D6F
:10014000C11BFCE0E40D47FEF520E6B500D0ED90C4
:100150002E0300943577050080841E080000204E91
:100160000A000000C80C333333330F986E1283112A
:1001700041EF8D2114893BE65516CFFEE6DB18D101
:10018000844B381BF77C1D901DA4BBE424203284D3
:10019000725E228100C9F124ECA1E53D2756616C15
:1001A00075657300486F6D65267265736574506F71
:1001B00073004368616E67652043757474657200EF
:1001C00053657475700053687574646F776E00467C
:1001D000656D616C65204A6F696E74004D616C6578
:1001E000204A6F696E740053657475700046696EBD
:1001F000676572204A6F696E74004461646F004DD8
:10020000616E75616C206D6F646500454D455247A8
:10021000454E43592053544F50210000244A3D4736
:10022000393020257325732046313030300047396E
:100230003020473020592573205A25730073657488
:10024000207570206375747465722100593D0073C8
:100250006574206E6577207A65726F0073656C65D2
:10026000637420706F732059007A65726F20706F0D
:100270007320593F00437574746572207769647404
:10028000683F006D61782074726176656C20593F1B
:10029000006261636B736C61736820593F00666133
:1002A000696C65642063616C63206461646F0065E0
:1002B00072722063616C63206461646F73007365A4
:1002C0006C65637420706F73205900676F746F20C2
:1002D0007A65726F3F00686F6D696E673F00736883
:1002E0006565742077696474683F006461646F2099
:1002F000706F736974696F6E3F006461646F20771B
:10030000696474683F007368656574207769647414
:10031000683F00636C656172616E63652077696434
:1003200074683F0066696E67657220636F756E74EE
:100330003F006572722063616C632066696E676559
:100340007273006572722063616C632066696E6708
:10035000657273003A2000473130205030204C3213
:100360003020592573205A25730000000000240016
:1003700027002A0000000000250028002B000000B4
:1003800000002300260029000404040404040404DB
:100390000202020202020303030303030102040830
:1003A00010204080010204081020010204081020DF
:1003B0000000000800020100000304070000000024
:1003C000000000007A65726F20617869733F005009
:1003D0006F733A20257320202573005061737320BA
:1003E00025692F256900443A25692F2569202D208C
:1003F000503A25692F256900FF01FA01ED01E70157
:10040000DC01CF01C601C001B201A4019D01332866
:1004100011241FBECFEFD8E0DEBFCDBF26E0A0EE97
:10042000B1E001C01D92A932B207E1F711E0A0E0EE
:10043000B1E0E4E8FFE602C005900D92A03EB107EE
:10044000D9F712E0C8E0D2E004C02197FE010E9473
:100450001536C730D107C9F70E94112A0C94C0374E
:100460000C94000096E0899FD0011124AA54BA4F41
:1004700090967C936E935F9791E091969C93919761
:10048000E0912306F091240690912206992339F0F9
:10049000309751F0811108C08091D20509943097AE
:1004A00019F05C968C91FACF08952091D702260F0F
:1004B0003327331F21323105ECF42091FD02FC017A
:1004C00090E080E0243069F082E00895A091D702A6
:1004D0002191AC014B545D4FA40FB52FB11D2C934E
:1004E0000196861798F38091D702680F6093D70220
:1004F00080E0089581E00895089508950895E091B9
:10050000AC028091AB02E81730F4F0E0E557FD4F04
:10051000808190E008958FEF9FEF08959091AC0255
:100520008091AB022FEF3FEF981748F4E92FF0E0EE
:10053000E557FD4F208130E09F5F9093AC02C901E9
:1005400008958091AB029091AC02891B990B08959C
:10055000CF92DF92EF92FF920F931F93CF93DF938F
:100560007C01CB018A0120918A02222389F0EB01D0
:100570006B01C40ED51ECC15DD0569F06991D7015C
:10058000ED91FC910190F081E02DC7010995F3CF29
:10059000642F0E945502C801DF91CF911F910F91E6
:1005A000FF90EF90DF90CF900895CF93DF931F924D
:1005B000CDB7DEB7698320918A022223F9F020911A
:1005C000AD02203258F021E030E0FC013383228379
:1005D00090E080E00F90DF91CF9108958091AE027E
:1005E000E82FF0E0E659FD4F998190838F5F80936B
:1005F000AE028093AD0281E090E0ECCF61E0CE01ED
:1006000001960E945502F7CF833081F028F48130A3
:1006100099F08230A9F008958730A9F08830C9F0A8
:100620008430B1F4809180008F7D03C08091800080
:100630008F7780938000089584B58F7784BD089567
:1006400084B58F7DFBCF8091B0008F778093B00011
:1006500008958091B0008F7DF9CFCF93DF93282F3D
:1006600030E0F901E055FC4F8491F901E456FC4F6C
:10067000D491F901E857FC4FC491CC23A1F081112A
:100680000E940403EC2FF0E0EE0FFF1FE258FC4F36
:10069000A591B491EC91ED2381E090E009F480E024
:1006A000DF91CF91089580E090E0FACF1F93CF9330
:1006B000DF93282F30E0F901E055FC4F8491F901D8
:1006C000E456FC4FD491F901E857FC4FC491CC2378
:1006D000A9F0162F81110E940403EC2FF0E0EE0F19
:1006E000FF1FEC58FC4FA591B4918FB7F894EC9193
:1006F000111108C0D095DE23DC938FBFDF91CF911D
:100700001F910895DE2BF8CF1092FD0281E08093B7
:10071000FF021092FE0261E082E10E94560361E056
:1007200083E10E945603E9EBF0E080818E7F8083B5
:1007300080818D7F808388E48093B80085E48093F6
:10074000BC000895CF93DF9391E09093B402882387
:10075000B9F0C091B800D091BA008091BC008A7BFA
:100760008093BC0060E082E10E94560360E083E178
:100770000E9456030E948403D093BA00C093B8002D
:10078000DF91CF910895CF93DF9390E0FC01E45681
:10079000FC4F249188579C4FFC0184918823C9F019
:1007A00090E0880F991FFC01E659FC4FA591B49188
:1007B000FC01EC58FC4FC591D49161110DC09FB75D
:1007C000F8948C91209582238C9388812823288308
:1007D0009FBFDF91CF910895623051F49FB7F89495
:1007E0003C91822F809583238C93E8812E2BEFCF31
:1007F0008FB7F894EC912E2B2C938FBFEACF3FB795
:10080000F8948091660290916702A0916802B0917D
:10081000690226B5A89B05C02F3F19F00196A11DBE
:10082000B11D3FBFBA2FA92F982F8827BC01CD013A
:10083000620F711D811D911D42E0660F771F881F99
:10084000991F4A95D1F708958F929F92AF92BF92C8
:10085000CF92DF92EF92FF924B015C010E94FF0367
:100860006B017C010E94FF036C197D098E099F09B1
:10087000683E734081059105A8F321E0821A910832
:10088000A108B10888EEC80E83E0D81EE11CF11C57
:1008900081149104A104B10429F7FF90EF90DF9037
:1008A000CF90BF90AF909F908F9008952FB7F894FE
:1008B000609162027091630280916402909165027E
:1008C0002FBF0895CF92DF92EF92FF92C090B105B3
:1008D000D090B205E090B305F090B4050E945604A4
:1008E0006C157D058E059F0518F18091AD050E9460
:1008F0002D032091B00528171906D1F00E94560447
:100900002091AE053091AF05620F731F811D911DBF
:100910006093B1057093B2058093B3059093B405CD
:100920008091B00591E089278093B0059093B5053B
:100930008091B005FF90EF90DF90CF9008950F93D6
:100940001F93CF93DF93C82FD62F86E0C89FF00167
:100950001124EA54FA4F11A2878D90A1813091059C
:10096000F1F058F082309105F1F1039709F440C09D
:10097000DF91CF911F910F9108956623C9F361E034
:1009800070E08C2F0E9432020E94560460930E0683
:1009900070930F068093100690931106E9CF0E9482
:1009A000560400910E0610910F062091100630910A
:1009B0001106AB01BC01401B510B620B730B809104
:1009C000200690912106B0E0A0E084179507A607C5
:1009D000B70748F462E070E08C2FDF91CF911F9150
:1009E0000F910C94320263E070E0D111C1CFF4CFCB
:1009F00070E060E0F1CF08950895AF92BF92CF927A
:100A0000DF92EF92FF920F931F93CF93DF936C01CE
:100A10007B018B01040F151FEB015E01AE18BF08AF
:100A2000C017D10759F06991D601ED91FC91019061
:100A3000F081E02DC6010995892B79F7C501DF9179
:100A4000CF911F910F91FF90EF90DF90CF90BF90CB
:100A5000AF900895FC01538D448D252F30E0842FF5
:100A600090E0821B930B541710F0CF9608950197D6
:100A70000895FC01918D828D981761F0A28DAE0FC3
:100A8000BF2FB11D5D968C91928D9F5F9F73928F4A
:100A900090E008958FEF9FEF08958F929F92AF920D
:100AA000BF92EF92FF920F931F93CF93DF937B013F
:100AB0008C01D0E0C0E00E945604609391037093D3
:100AC0009203809393039093940389E893E00E94A8
:100AD000390597FF27C00E9456048090910390909B
:100AE0009203A0909303B0909403681979098A093E
:100AF0009B0980908D0390908E03A0908F03B090FF
:100B00009003681579058A059B05F8F2CE01DF91FF
:100B1000CF911F910F91FF90EF90BF90AF909F905A
:100B20008F9008958A30910589F3F80181938F01A0
:100B30002196EC16FD0609F0BECFE8CFFC01918DA1
:100B4000828D981731F0828DE80FF11D858D90E030
:100B500008958FEF9FEF0895FC01918D228D892FCD
:100B600090E0805C9F4F821B91098F7399270895B5
:100B700089E893E00E94AC0521E0892B09F420E08C
:100B8000822F089580E090E0892B29F00E94B8051B
:100B900081110C9400000895FC01A48DA80FB92FB9
:100BA000B11DA35ABF4F2C91848D90E001968F7395
:100BB0009927848FA689B7892C93A089B1898C91B4
:100BC000837080648C93938D848D981306C0028803
:100BD000F389E02D80818F7D80830895EF92FF92CD
:100BE0000F931F93CF93DF93EC0181E0888F9B8D50
:100BF0008C8D98131AC0E889F989808185FF15C00A
:100C00009FB7F894EE89FF896083E889F98980812C
:100C10008370806480839FBF81E090E0DF91CF91FB
:100C20001F910F91FF90EF900895F62E0B8D10E01D
:100C30000F5F1F4F0F731127E02E8C8D8E110CC08C
:100C40000FB607FCFACFE889F989808185FFF5CFD7
:100C5000CE010E94CC05F1CFEB8DEC0FFD2FF11DE5
:100C6000E35AFF4FF0829FB7F8940B8FEA89FB8914
:100C700080818062CFCFCF93DF93EC01888D882372
:100C8000B9F0AA89BB89E889F9898C9185FD03C0EF
:100C9000808186FD0DC00FB607FCF7CF8C9185FFD4
:100CA000F2CF808185FFEDCFCE010E94CC05E9CF48
:100CB000DF91CF910895862F0C942D03862F642FFA
:100CC0000C945603862F642F0C94C303662339F0CB
:100CD000FC0184819581009711F06150F7CF089550
:100CE000FC0182819381009711F00C94660690E0DC
:100CF00080E00895EF92FF920F931F93CF93DF93BD
:100D000060E080912804909129040E947006C0E060
:100D10000097E1F000913C0410E0D0913A04D170CA
:100D2000E0903404F12CC0E0FC012781A80102C04E
:100D3000559547952A95E2F740FD02C0DD2371F0F5
:100D4000F39461E00E946606009771F78C2FDF91A3
:100D5000CF911F910F91FF90EF900895EF1488F3BA
:100D6000CF5FEFCF0F931F93CF93DF9360E080911E
:100D70002804909129040E947006C0E00097D1F0E9
:100D800000913C0410E0D0913A04D170C0E0FC0125
:100D90002781A80102C0559547952A95E2F740FDA5
:100DA00001C0D111CF5F61E00E946606009779F71C
:100DB000C111C1508C2FDF91CF911F910F910895D8
:100DC0000E94B20680933704909134042091350438
:100DD000921B891740F09093360480913A04806208
:100DE00080933A04089580933604F7CFDC0112967D
:100DF000ED91FC911397309769F02481358121158D
:100E0000310531F475836483FB01918380830895F8
:100E1000F901F3CF13967C936E931297F5CFCF928F
:100E2000DF92EF92FF920F931F93CF93DF93FC011A
:100E3000C48121E020938A02C09310021092AE0276
:100E40001092AD028485682B8DE793E00E94D50255
:100E5000D091AD02D13208F092C00E94FF036B0125
:100E60007C018091FD02811165C082E08093FD02CA
:100E700081E08093FF028FEF8093FC0210922103A8
:100E8000D0932003AAE6B2E0E0E0F3E080E0D813DC
:100E900085C01092220380912203CC0FC82BC093EF
:100EA00022038091FE02813009F07CC01092FE0284
:100EB0000E94FF036B017C01809122038093BB00A1
:100EC0008091B0029091B102A091B202B091B302B0
:100ED000892B8A2B8B2B99F00E94FF030091B00283
:100EE0001091B1022091B2023091B3026C197D09C8
:100EF0008E099F090617170728073907E0F1809127
:100F0000BC0083FDD9CF85EC8093BC000E94FF0319
:100F10006B017C018091FD02823009F445C0809113
:100F2000FC028F3F61F18091FC02803241F180919F
:100F3000FC0225C08091B0029091B102A091B20252
:100F4000B091B302892B8A2B8B2B09F48ACF0E9494
:100F5000FF030091B0021091B1022091B2023091D2
:100F6000B3026C197D098E099F0906171707280718
:100F7000390708F076CF8091AF020E94A203109249
:100F8000AE021092AD0210928A02DF91CF911F91B2
:100F90000F91FF90EF90DF90CF9008959D919193E6
:100FA0008F5F75CF85EEB0CF8091B0029091B10286
:100FB000A091B202B091B302892B8A2B8B2B09F43A
:100FC000A9CF0E94FF030091B0021091B1022091BD
:100FD000B2023091B3026C197D098E099F09061780
:100FE00017072807390708F095CFC5CF089590E077
:100FF00080E0089508950895089508950895089546
:1010000008950895089508950895089508950895F8
:10101000089508950895089508950895DC01ED91C7
:10102000FD918081ED91FD919081ED91FD916C910B
:1010300063708E2309F064609F2309F06860EBE21F
:10104000F8E0E60FF11D659565956D936D917D91C5
:101050008D919D91099423C01AC012C016C010C072
:101060001EC009C014C013C006C019C009C00DC0FD
:1010700007C00DC014C062507040804090400BC04B
:10108000615070408040904006C06E5F01C06F5F4D
:101090007F4F8F4F9F4F9E938E937E936E930895B5
:1010A0008091E0019091E1010C940E088091E201A1
:1010B0009091E3010C940E08DF92EF92FF920F9350
:1010C0001F93CF93DF93C0913504D0912D040E94DC
:1010D000B206809337046C2F8091280490912904E4
:1010E0000E9470068C01892B09F46EC080913A042D
:1010F00082FD61C0E6E0F5E086E294E050E24FEF69
:1011000030E020E0DC01A20FB31F58965C932F5F04
:101110003F4F24313105B1F74193449624E08E3E90
:10112000920771F734E1D32EDC0F80913C0490E0FC
:10113000D80117962C91179702C0959587952A95F7
:10114000E2F780FF29C01696EC918E2F90E0880F71
:10115000991FE0912A04F0912B04E80FF91F659183
:101160007491EC2EF12C809135049701281B3109E4
:10117000D29EC001D39E900D1124825C9B4F0E9491
:10118000892DF801868190913504F701E91BF10959
:10119000EA5FFA4F8083CF5F61E0C8010E94660674
:1011A0008C01892B19F0CD1708F4BFCF80913A0438
:1011B000806480933A04DF91CF911F910F91FF904B
:1011C000EF90DF900C94E0060E945D09F4CF0F933E
:1011D0001F93CF930091280410912904C0913404E7
:1011E000CC2351F06C2FC8010E947006892B21F48A
:1011F000C150C0933404F2CF8091350420912D0466
:10120000280F3327331FC217130644F08F5F8093D4
:101210003504CF911F910F910C945C08C81710F4FE
:101220008150F5CFCF911F910F910C94E0060F9351
:101230001F93CF93DF9310923504909329048093EA
:101240002804E0913804E63088F480913A0487FD60
:1012500013C0AE2FB0E0AA5DBB4F80913404189646
:101260008C93EF5FE093380410923404DF91CF91B8
:101270001F910F910C945C088F7780933A04EE23B2
:10128000A9F3E150E0933804F0E0EA5DFB4FC0853C
:10129000C093340480912D04C81740F3D0E08150EE
:1012A000990BC81BD90B10E000E00C171D07F4F6D2
:1012B0000E94E7080F5F1F4FF8CF80913804882302
:1012C00091F080913A04806880933A0480912804D8
:1012D00090912904FC01208131812115310509F00B
:1012E000C9010C941709089580913D048F3F59F06E
:1012F00080913A04826080933A048091390480623C
:101300008093390408950C945D09EF92FF920F9336
:101310001F93CF93DF9380913D048F3F09F03FC02F
:101320000091280410912904C09134040E947A0687
:101330006C2F680FC8010E947006EC01009779F1CC
:101340000E94170960E0CE010E9470060097E1F04C
:10135000E0903C04F12C00913A04017010E061E04F
:101360000E946606009771F0FC012781A70102C068
:10137000559547952A95E2F740FD02C0002379F381
:101380001F5FEDCF11110BC08E8180933D04DF9163
:10139000CF911F910F91FF90EF900C94B206DF91C7
:1013A000CF911F910F91FF90EF900895282F90916A
:1013B0003D049F3FB1F5823029F1833009F041C0EF
:1013C00080913404882329F08150809334040C9454
:1013D000E70880913B0480FF34C0809137048093FC
:1013E000340490912D04482F491B550B57FF03C01F
:1013F0001092350403C0891B809335040E94E708CE
:101400000C945C088091340490913704891710F48F
:101410008F5FDBCF80913B0480FF13C010923404B8
:10142000E7CF81E090E0A0E0B0E004C0880F991F12
:10143000AA1FBB1F2A95D2F720913904822B8093D3
:1014400039040895CF92DF92FF920F931F93CF93A9
:10145000DF938C01D62F80913A04846080933A0404
:10146000FF24FA9460E0C8010E9470066C01892B89
:1014700041F10E948509F60186818D1769F1F0928C
:101480003D046D2FC6010E94220AC82F813021F130
:10149000F0923D040E945D0982E00E94D60961E05D
:1014A000C8010E9466068C01892B11F0CC23D1F271
:1014B0008C2FDF91CF911F910F91FF90DF90CF90F4
:1014C0000895F8018681D81739F0F0923D0482E042
:1014D0000E94D609C0E0E3CF80913A048B7F8093CD
:1014E0003A04C1E0E5CF6115710579F0FB01019087
:1014F0000020E9F73197AF01461B570BDC01ED9156
:10150000FC910280F381E02D099490E080E0089541
:101510000F931F93CF938C01C62F0E940F076C2F40
:101520006460C8010E940F076C2F6B7FC8010E9486
:101530000F0783EC90E00197F1F7CF911F910F9186
:1015400008950F931F93CF93DF938C01D62FC42F51
:10155000607F642B0E94880A80E1D89FB00111242B
:101560006C2BC801DF91CF911F910F910C94880AC9
:10157000CF93DF93CDB7DEB728970FB6F894DEBFD1
:101580000FBECDBF98E0ECE2F1E0DE0111960190D4
:101590000D929A95E1F790917805961710F46FEFF8
:1015A000690F262F30E0220F331F41E050E04C0F2F
:1015B0005D1F240F351FF9016081680F606840E0EE
:1015C00080E795E028960FB6F894DEBF0FBECDBF3A
:1015D000DF91CF910C94A10ACF93DF93EC016A8144
:1015E00088810E94B80ABE016C5F7F4F80E795E05A
:1015F0000E94730A0D88DE89C02DC031D10544F4E4
:101600006AE971E080E795E00E94730A2196F5CFC0
:10161000DF91CF9108951092AB051092AA05E9E9E8
:10162000F5E080E1DF011D928A95E9F785E995E013
:101630000C94EC0ACF93DF93C9E9D5E0FE01019049
:101640000020E9F79F012A59354040E150E0421B54
:10165000530BBC01C90187569A4F0E94A8370990C5
:101660000020E9F7CA59D540D093AB05C093AA052D
:10167000C358DA4F1C8E85E995E0DF91CF910C9429
:10168000EC0A0F931F93CF93DF93EC018C010C5F57
:101690001F4F40E150E0C8010E94A837F8010190B7
:1016A0000020E9F73197E01BF10BFE8BED8BEC0F7F
:1016B000FD1F1482CE01DF91CF911F910F910C94E9
:1016C000EC0A4F925F926F927F928F929F92AF92AD
:1016D000BF92CF92EF92FF920F931F93CF93DF931E
:1016E000CDB7DEB76E970FB6F894DEBF0FBECDBF95
:1016F000270138014F5F5F4FFE0131965F01623075
:1017000071050CF45EC03F932F935F934F937F93CB
:101710006F9301969F938F9386EE93E09F938F93A1
:101720001F9284E18F93FF93EF930E94D42D0FB605
:10173000F894DEBF0FBECDBFB5018DE795E00E94E6
:10174000410B4E01F5E18F0E911C840121E041E037
:10175000C301B2010E94672D8CE991E0C11002C063
:1017600087EA91E09F938F939F928F928FEC93E003
:101770009F938F931F9284E18F93BF92AF920E94A9
:10178000D42DB50185E995E00E94410B0FB6F89480
:10179000DEBF0FBECDBF6E960FB6F894DEBF0FBE94
:1017A000CDBFDF91CF911F910F91FF90EF90CF9020
:1017B000BF90AF909F908F907F906F905F904F9071
:1017C00008953F932F935F934F938BED93E09F93F7
:1017D0008F931F9284E18F93FF93EF930E94D42DF8
:1017E000A6CF40E061E080E795E00E94A10A8BE38C
:1017F0009FE10197F1F780917905882321F060E05E
:1018000080E00C94B80A08950E94F10B60E080E03B
:101810000C94B80A0F931F93CF93DF9380915702D4
:1018200081FF62C08091600281FD29C08260809347
:10183000600280913D0480930901E82FF0E0EE0FF3
:10184000FF1FE95DFD4FC081D18197E0CC3FD907F3
:1018500009F04FC080913A04826080933A048091ED
:101860000B0190910C01A0910D01B0910E0180939C
:101870005C0290935D02A0935E02B0935F020E94AF
:10188000560400915C0210915D0220915E0230913D
:101890005F02601B710B820B930B00910B01109187
:1018A0000C0120910D0130910E0160177107820724
:1018B0009307D0F00E94560460935C0270935D021F
:1018C00080935E0290935F02E0913D04EF3F49F008
:1018D000F0E0EE0FFF1FEF5EFD4F0190F081E02D75
:1018E000099581E080930A01DF91CF911F910F91BB
:1018F00008958F3F09F4B3CF0E94040C109239046D
:10190000FE010995ACCF40E062E080E795E00E94DF
:10191000A10A8BE39FE10197F1F70895CF93DF933D
:10192000823028F0909175059860909375058093AA
:10193000780562E370E080E090E00E94240460910A
:101940007C0580E795E00E940F0768EE73E080E079
:1019500090E00E94240460E380E795E00E94880AFA
:10196000CBE4D6E4CE010197F1F760E380E795E0A0
:101970000E94880A2197F1F760E380E795E00E94D2
:10198000880A83E592E00197F1F760E280E795E04D
:101990000E94880A60917505606240E080E795E0EA
:1019A0000E94A10A84E08093760540E06CE080E725
:1019B00095E00E94A10A0E94F10B82E080937705D6
:1019C00040E066E080E795E00E94A10ADF91CF91B8
:1019D0000C94830C41E00E94A10A81E090E00895FC
:1019E0000F931F93CF93DF938B0198E0899FB001F2
:1019F0001124606440E080E795E00E94A10AE801BC
:101A0000085F1F4F699180E795E00E94EA0CC017BC
:101A1000D107C1F7DF91CF911F910F9108958F9258
:101A20009F92AF92BF92EF92FF920F931F93CF932B
:101A3000DF930E94830C80913D04C0913A048F3F54
:101A400021F08C2F8A7009F460C0D0913704DF5FD9
:101A5000FD2ED23010F082E0F82EE09034040E9487
:101A60007A06982EC874C9F00E94040C06E214E0AD
:101A7000C0E0580124E1A20EB11CCF1571F06C2F0B
:101A800081E00E94B80AB801685E7F4F80E795E068
:101A90000E94730ACF5F8501ECCF80913A0485FFE5
:101AA00034C0C0E0CF1519F16C2F80E00E94B80A55
:101AB000809136046EE7C81360E280E795E00E94EB
:101AC000EA0C6C2F8FE0FD1648F40E94B80A60E023
:101AD00080E795E00E94EA0CCF5FE4CF0E94B80A4D
:101AE00041E060E280E795E00E94A10AF5CFCD17C2
:101AF00060F48E2D890DC9F460E08FE00E94B80A71
:101B000061E080E795E00E94EA0C80913A048779D1
:101B100080933A04DF91CF911F910F91FF90EF9046
:101B2000BF90AF909F908F9008952D2F2150330B31
:101B30008901E82EF12C2E153F0539F46FEF6C0F5B
:101B40008FE00E94B80A64E0DCCF6C2F70E090E078
:101B500080E00E9431349B01AC010E941C364B0195
:101B60005C01B801110F880B990B0E9431349B0165
:101B7000AC01C501B4010E949F364B015C01B70165
:101B8000FF0C880B990B0E9431349B01AC01C501FD
:101B9000B4010E9490340E941837862F6C2F0E9447
:101BA000C835C92F682F8FE00E94B80A61E06C0F1A
:101BB000A8CF85ED8093BC008091B0029091B102D6
:101BC000A091B202B091B3020796A11DB11D23E00E
:101BD000B695A795979587952A95D1F72091BC0042
:101BE00024FD03C01092FD0208954091B00250916F
:101BF000B1026091B2027091B302452B462B472B84
:101C000069F30097A105B10541F02AE22A95F1F7A1
:101C100000C00197A109B109E1CF8091AF020C94F6
:101C2000A203EF92FF920F931F93CF93DF93CDB751
:101C3000DEB760970FB6F894DEBF0FBECDBF7C0154
:101C40008091340190913501A0913601B091370116
:101C500089839A83AB83BC83F701EE0FFF1F81E07A
:101C600090E08C0F9D1FE80FF91F6081718185E95D
:101C700095E00E94410B09E915E0F8010190002070
:101C8000E9F7CF018A59954040E150E0481B590BD4
:101C900064E573E087569A4F0E94992DF8010190F0
:101CA0000020E9F78F010A5915401093AB05009306
:101CB000AA0503581A4FF801148E85E995E00E9491
:101CC000EC0AD701AA0FBB1FAA0FBB1FAD5CBC4F0C
:101CD000F701EE0FFF1FEE0FFF1FE55CFC4F218D9C
:101CE000328D438D548D59966D917D918D919C913E
:101CF0005C970E941C368E010F5F1F4F22E041E06F
:101D00000E94672DC8010E941A0B60960FB6F894C6
:101D1000DEBF0FBECDBFDF91CF911F910F91FF901E
:101D2000EF9008950F931F93CF93DF93EC018C01F5
:101D30000C5F1F4F40E150E0C8010E94992DF8014F
:101D400001900020E9F73197E01BF10BFE8BED8B42
:101D5000EC0FFD1F1482CE01DF91CF911F910F91E7
:101D60000C94EC0ACF92DF92EF92FF920F931F93A5
:101D7000CF93DF93CDB7DEB7C054D1090FB6F89437
:101D8000DEBF0FBECDBF6C018B01F42EE22E89E8C1
:101D900093E00E9439050196D1F7012E000C220B29
:101DA000330B00938D0310938E0320938F03309396
:101DB0009003B60189E893E00E94730A65EA71E036
:101DC00089E893E00E94730A21E0EE20A1F18E01E0
:101DD0000F5F1F4FF1100FC080E4F80111928A9538
:101DE000E9F760E470E0C8010E944D051816190675
:101DF00084F020E020C080E4F80111928A95E9F790
:101E000060E470E0C8010E944D051816190624F31D
:101E1000F0CFF80101900020E9F73197E01BF10BBA
:101E2000EC0FFD1F108268EA71E0C8010E949F3725
:101E300021E0892BF1F6822FC05CDF4F0FB6F894BA
:101E4000DEBF0FBECDBFDF91CF911F910F91FF90ED
:101E5000EF90DF90CF90089521E040E068EB7BE0C9
:101E60008BEA91E00C94B20E7F928F929F92AF9288
:101E7000BF92CF92DF92EF92FF920F931F93CF9377
:101E8000DF93CDB7DEB7A8970FB6F894DEBF0FBECD
:101E9000CDBF7C01CB01BA0187010E5F1F4F000F40
:101EA000111F000F111FF801ED5CFC4F218D328DC9
:101EB000438D548D0E941B365B016C0120E030E0A5
:101EC000A9010E942A3487FD74C0F801ED5DFC4F22
:101ED00080809180028113819501A601B401C8011F
:101EE0000E942A34712C87FF04C0540168017724B2
:101EF00073944E012FE1820E911C840122E041E097
:101F0000B501C6010E94672D809134019091350181
:101F1000A0913601B091370189839A83AB83BC834A
:101F20000E511109F701EE0FFF1FE00FF11F808125
:101F300091819F928F929F938F938CE192E09F93D8
:101F40008F931F928EE18F931F930F930E94D42D36
:101F500020E040E068EE73E0C8010E94B20E0FB6C8
:101F6000F894DEBF0FBECDBF882379F0F701EE0FE6
:101F7000FF1FEE0FFF1FED5CFC4FC501D601818FE7
:101F8000928FA38FB48F81E08725A8960FB6F8941F
:101F9000DEBF0FBECDBFDF91CF911F910F91FF909C
:101FA000EF90DF90CF90BF90AF909F908F907F90F9
:101FB000089577247394A12CB12CC12CD12C99CFE6
:101FC0005F926F927F928F929F92AF92BF92CF92C9
:101FD000DF92EF92FF920F931F93CF93DF93CDB7D2
:101FE000DEB7C456D1090FB6F894DEBF0FBECDBF21
:101FF0007C0189E893E00E9439050196D1F788EECB
:1020000093E0A0E0B0E080938D0390938E03A093C3
:102010008F03B09390036FEA71E089E893E00E9428
:10202000730A65EA71E089E893E00E94730A8E0101
:102030000F5F1F4F84E6F80111928A95E9F764E675
:1020400070E0C8010E944D05181619060CF056C024
:10205000F80101900020E9F73197E01BF10BEC0F3C
:10206000FD1F108261EB71E0C8010E94A82D10E0F5
:1020700000E03701FFEF6F1A7F0A570125E0A20E3B
:10208000B11C4701E9E08E0E911C55245394009732
:1020900009F450C00230110509F448C07CF4011560
:1020A0001105D9F00130110519F160EC71E090E0F3
:1020B00080E00E94A82D0F5F1F4FE9CF033011056C
:1020C000B9F164010430110581F70E94852DF601F4
:1020D0006083718382839383E8CFF701108266EB7C
:1020E00071E00E949F37892B01F7F7015082DDCF05
:1020F0006BEB71E00E949F37892BB9F280E0CC59DD
:10210000DF4F0FB6F894DEBF0FBECDBFDF91CF918A
:102110001F910F91FF90EF90DF90CF90BF90AF9005
:102120009F908F907F906F905F9008956301CDCFC7
:102130006501CBCF81E0E3CF4F925F926F927F92A8
:102140009F92AF92BF92CF92DF92EF92FF920F9346
:102150001F93CF93DF93CDB7DEB7EF970FB6F89409
:10216000DEBF0FBECDBF29013A012EE1922E9E01A6
:102170002F5F3F4F7901F901292D11922A95E9F737
:102180006E013CE2C30ED11C860122E041E00E94B8
:10219000672D5E0186E3A80EB11C850122E041E0B7
:1021A000C301B2010E94672DBF92AF92DF92CF921E
:1021B00087E593E09F938F931F929F92FF92EF92F8
:1021C0000E94D42D21E040E068EE73E0C7010E9438
:1021D000B20E0FB6F894DEBF0FBECDBF882321F03C
:1021E000CE014F960E94E00FEF960FB6F894DEBF37
:1021F0000FBECDBFDF91CF911F910F91FF90EF9058
:10220000DF90CF90BF90AF909F907F906F905F9046
:102210004F9008950F931F93CF93DF9384E08093A3
:10222000330303E313E0D0E0C0E0CE010E94613548
:10223000F80161918F01861719F0CE010E9469356E
:102240002196C934D10589F7DF91CF911F910F9164
:1022500008953F924F925F926F927F928F929F92DA
:10226000AF92BF92CF92DF92EF92FF920F931F93A4
:10227000CF93DF93CDB7DEB7C354D1090FB6F8942F
:10228000DEBF0FBECDBF24966CAF7DAF8EAF9FAFCC
:10229000249749015A01302E20915403309155035F
:1022A00040915603509157030E941B366B017C01ED
:1022B00020E030E0A9010E942A3487FF1BC0F12CE6
:1022C0008F2DCD5BDF4F0FB6F894DEBF0FBECDBFB5
:1022D000DF91CF911F910F91FF90EF90DF90CF9002
:1022E000BF90AF909F908F907F906F905F904F9036
:1022F0003F90089520912B0330912C0340912D03A2
:1023000050912E03C701B6010E9488371816BCF2FF
:10231000209158033091590340915A0350915B0327
:10232000C501B4010E941B362B013C0120E030E0C6
:10233000A9010E942A3487FDC2CF20912F0330913A
:1023400030034091310350913203C301B2010E9426
:10235000883718160CF4B3CF3E018CE2680E711C5E
:10236000830122E041E0C701B6010E94672D7E0192
:1023700096E3E90EF11C20915803309159034091E6
:102380005A0350915B03C501B4010E941B368701BB
:1023900022E041E00E94672DFF92EF927F926F92C0
:1023A0008EE292E09F938F931F928EE18F9305535D
:1023B00011091F930F930E94D42D232D40E060E15B
:1023C00077E2C8010E94B20EF82E0FB6F894DEBF75
:1023D0000FBECDBF882309F472CF209154033091F2
:1023E0005503409156035091570324966CAD7DAD33
:1023F0008EAD9FAD24970E941B3660934C03709363
:102400004D0380934E0390934F03209158033091D6
:10241000590340915A0350915B03C501B4010E94D6
:102420001B36609350037093510380935203909333
:1024300053030E940A11332009F442CFCE014F9674
:102440000E94E00F8823D1F3FF8CF11039CF64E6AE
:1024500070E080E090E00E942404F0CF0F93E3E36B
:10246000F3E021A132A143A154A1618D728D838D2E
:10247000948D0E941C3601E020E030E040E251ECF7
:102480000E942911E6E2F4E084898260848B0F9136
:1024900008957F928F929F92AF92BF92CF92DF92D8
:1024A000EF92FF920F931F93CF93DF934B015C0149
:1024B000F22E132FD42FC52FAC019B0160910C027B
:1024C00070910D0280910E0290910F020E942A34A9
:1024D00087FD1AC001E02F2D312F4D2F5C2FC50134
:1024E000B4010E94291181114CC080E0DF91CF918D
:1024F0001F910F91FF90EF90DF90CF90BF90AF9022
:102500009F908F907F9008952F2D312F4D2F5C2F0E
:10251000609108027091090280910A0290910B0269
:102520000E942A34882341F1209127033091280307
:102530004091290350912A036F2D712F8D2F9C2FCD
:102540000E941B36762EC72ED82EE92E209123030B
:10255000309124034091250350912603C501B40115
:102560000E941C3600E0272D3C2D4D2D5E2D0E9433
:1025700029118111AFCFB9CF7F2CC12EDD2EEC2ECA
:10258000E5CF80920C0290920D02A0920E02B092C2
:102590000F024F2D512F6D2F7C2F40930802509327
:1025A000090260930A0270930B02A0CF1F93CF938E
:1025B000DF93CDB7DEB72F970FB6F894DEBF0FBE0F
:1025C000CDBF85E88E871F8621E041E068EE73E08D
:1025D000CE010E960E94B20E11E0882309F1CE01C1
:1025E00001960E94E00F182F8823D1F08E819F81E1
:1025F000A885B98580934C0390934D03A0934E0317
:10260000B0934F038A859B85AC85BD85809350032D
:1026100090935103A0935203B09353030E940A1165
:10262000812F2F960FB6F894DEBF0FBECDBFDF917E
:10263000CF911F9108950F931F93CF93DF93CDB741
:10264000DEB7C954D1090FB6F894DEBF0FBECDBFB7
:1026500049E450E070E060E0CE0101960E945135FF
:102660008981843009F470C040E050E060E271E498
:102670004A835B836C837D8380E090E0ABE9B3E4C5
:102680008E839F83A887B98780E090E0A4E8B2E4B6
:102690008A879B87AC87BD8780E090E0A0E8BFE396
:1026A0008E879F87A88BB98B8A8B9B8BAC8BBD8BBE
:1026B00000E010E020E731E40E8B1F8B288F398F6C
:1026C00022968CAF9DAFAEAFBFAF229780E090E077
:1026D000A0E9B1E48AAF9BAFACAFBDAF80E090E0C2
:1026E000AAE7B3E42A968CAF9DAFAEAFBFAF2A97EF
:1026F00026961CAE1DAE1EAE1FAE26970DEC1CEC32
:102700002CEC3DE30EA71FA728AB39AB4AA75BA76C
:102710006CA77DA78EAB9FABA8AFB9AF1AAA1BAAB7
:102720001CAA1DAA1A8E1B8E1C8E1D8E1E8E1F8E1D
:1027300018A219A21AA21BA21CA21DA21EA21FA2AD
:1027400018A619A60E940A1189E4FE013196A3E396
:10275000B3E001900D928A95E1F7C75BDF4F0FB6AA
:10276000F894DEBF0FBECDBFDF91CF911F910F91C7
:102770000895CF92DF92EF92FF920F931F93CF9322
:10278000DF938C017B01FC01628180810E94B80A89
:10279000C7010E94902D6C01D0E0C0E0CC15DD0592
:1027A0005CF4F701EC0FFD1F649141E080E795E0D8
:1027B0000E94A10A2196F2CFF801C589D689C031BD
:1027C000D10544F46AE971E080E795E00E94730A5C
:1027D0002196F5CFDF91CF911F910F91FF90EF9050
:1027E000DF90CF9008956F927F928F929F92AF92D9
:1027F000BF92CF92DF92EF92FF920F931F93CF93EE
:10280000DF9380910002811173C062E082E00E9438
:10281000C30362E083E00E94C303EAE8F3E0E491CB
:10282000F0E0EE0FFF1FE258FC4FA591B491B0937A
:10283000F501A093F401EEE9F3E044914093F8012F
:10284000EBE8F3E0E491F0E0EE0FFF1FE258FC4FFD
:10285000C591D491D093F701C093F601EFE9F3E06D
:10286000E491E093F9011092FB011092FC011092A7
:10287000FD011092FE012BE33FE1C9010197F1F741
:102880009C91842F892391E009F490E08881E823CA
:1028900009F0926024EF31E09093FA013093E10166
:1028A0002093E00180E598E0909305018093040176
:1028B000809169008C7F816080936900E89A91E043
:1028C0009093FF013093E3012093E20126E538E085
:1028D000309307012093060180916900837F846013
:1028E00080936900E99A82E08093FF01909300024F
:1028F0008091EC01811112C081E10E942D03092E0B
:10290000000CAA0BBB0B8093E8019093E901A09304
:10291000EA01B093EB0181E08093EC0181E10E9438
:102920002D03482F50E070E060E00091E801109125
:10293000E9012091EA013091EB014017510762074C
:102940007307B1F14093E8015093E9016093EA0104
:102950007093EB0181112CC080913D048F3F09F4ED
:1029600057C0809139048061809339040E945604D5
:1029700080913D048F3F99F00E9456046F5F7F4F16
:102980008F4F9F4F60935C0270935D0280935E0255
:1029900090935F02809157028260809357028091EA
:1029A000390485FD05C08F7D809339040E940F0D89
:1029B00081E0809322060E94560400911206109135
:1029C00013062091140630911506AB01BC01401B83
:1029D000510B620B730B80911E0690911F06B0E0A5
:1029E000A0E084179507A607B70708F0B2C1C0E0BA
:1029F00080911C06C81778F4E0911806F09119062A
:102A0000EC0FF11D62E080810E94C303CF5FF0CF25
:102A10000E948509ABCF712C812C912C5401839499
:102A200080911D06781608F05FC0072D10E0E09138
:102A30001A06F0911B06E00FF11F61E080810E94F1
:102A4000C303E0911A06F0911B06E00FF11F60E04E
:102A500080810E945603D501C401072C04C0880F51
:102A6000991FAA1FBB1F0A94D2F76C017C01E09446
:102A7000F094612C80911C066816F8F4C62DD0E005
:102A8000E0911806F0911906EC0FFD1F80810E945D
:102A90002D032496CC0FDD1FCA54DA4F892B41F445
:102AA000888199818C299D29998388836394E2CFB9
:102AB000888199818E219F21F7CFE0911A06F091AC
:102AC0001B06E00FF11F61E080810E945603809198
:102AD0001A0690911B06080F191F60E0F80180810B
:102AE0000E94C30373949CCF26EBC22E25E0D22E06
:102AF00082EF95E0E6012FEF3FEF4F8D58A1452B78
:102B000021F41C8E3E8F2D8F19A226968C179D07BF
:102B1000A1F710E096E0B92E80911C06181708F076
:102B200052C000E0E12EF12CEE0CFF1C9701225464
:102B30003A4F790120911D06021708F042C0F701B3
:102B400060817181002E02C0769567950A94E2F744
:102B5000129F90011124200F311DE6EBF5E080E07B
:102B6000458D568D2417350709F46EC18F5F369653
:102B70008A30B1F760FF23C0E6EBF5E090E080E03B
:102B8000448D411117C0E0911606F0911706E20F2F
:102B9000F31F4081B89EF001B99EF00D1124EA5454
:102BA000FA4F448F368F258F10A2178E61E00E9456
:102BB0009F0405C0019636968A30910509F70F5F8C
:102BC000B9CF1F5FA9CF10E0F60181A18111182FA5
:102BD000F6E0CF0ED11CCC15DD05B1F70E945604EE
:102BE0006093120670931306809314069093150653
:102BF000112309F4AEC08091D705882309F4A9C038
:102C00008091D5059091D605019709F0A2C08091D9
:102C1000D20510927C038111A1C00E9462048091B0
:102C2000B505882351F11092B5050E946204811107
:102C300024C06BE172E08DE795E00E94B9136BE16F
:102C400072E085E995E00E94B9136BE072E08DE7D0
:102C500095E00E94B9130E9462048823E1F38091F9
:102C6000B5058823C1F31092B5058DE795E00E9464
:102C7000EC0A85E995E00E94EC0A8091FF01823020
:102C800008F0DEC0F89484EF91E00E940E08609195
:102C9000FB017091FC018091FD019091FE017894FF
:102CA00022E030E040E050E00E94D43569017A0132
:102CB0008091E4019091E501A091E601B091E701D6
:102CC0008C159D05AE05BF05A9F1281B390B4A0BD4
:102CD0005B0BDA01C901B7FFB5C082E00E94D609DB
:102CE0000E94560480913D048F3F99F00E94560443
:102CF0006F5F7F4F8F4F9F4F60935C0270935D02B9
:102D000080935E0290935F0280915702826080936D
:102D100057028091390485FD05C08F7D8093390469
:102D20000E940F0DC092E401D092E501E092E6010D
:102D3000F092E701DF91CF911F910F91FF90EF90FB
:102D4000DF90CF90BF90AF909F908F907F906F90CB
:102D500008951092220610927C035FCF853689F089
:102D600044F48A3009F45FC0843699F180937C037F
:102D700054CF823709F455C0853709F450C08C36DA
:102D8000A9F781E00E94D6090E94560480913D0473
:102D90008F3F99F00E9456046F5F7F4F8F4F9F4F78
:102DA00060935C0270935D0280935E0290935F0279
:102DB000809157028260809357028091390485FD8B
:102DC00005C08F7D809339040E940F0D0E94740905
:102DD00003C082E00E94D6090E94560480913D04FF
:102DE0008F3F99F00E9456046F5F7F4F8F4F9F4F28
:102DF00060935C0270935D0280935E0290935F0229
:102E0000809157028260809357028091390485FD3A
:102E100004CF8F7D809339040E940F0DFECE83E096
:102E2000D9CF80E0D7CF80913D048F3F31F08091A2
:102E30003904806180933904CFCF0E948509CCCFBB
:102E4000F89425CF83E04ACF6170B1CECF92DF9264
:102E5000EF92FF928091570280FF56C080916002EE
:102E600080FD28C0816080936002C12CD12C760146
:102E7000C394C0920001D0920101E0920201F0924D
:102E8000030162E082E00E94C30362E083E00E94EB
:102E9000C30362E081E10E94C30362E08091AD055B
:102EA0000E94C303C0925802D0925902E0925A0283
:102EB000F0925B020E945604C0905802D0905902D2
:102EC000E0905A02F0905B026C197D098E099F090F
:102ED000C0900001D0900101E0900201F090030148
:102EE0006C157D058E059F0578F00E945604609351
:102EF00058027093590280935A0290935B020E9489
:102F0000F31381E080930A01FF90EF90DF90CF9060
:102F100008952F923F924F925F926F927F928F927D
:102F20009F92AF92BF92CF92DF92EF92FF920F9358
:102F30001F93CF93DF93CDB7DEB760970FB6F894AA
:102F4000DEBF0FBECDBF1C014A015B012801390164
:102F5000FC0160817181828193818E010F5F1F4F1F
:102F600022E041E00E94672DB80185E995E00E94CA
:102F7000410B81E08093AC05809139048D7E809374
:102F800039040E94F3138091390481FF1FC08D7FA3
:102F9000809339040E940B0B80E060960FB6F89482
:102FA000DEBF0FBECDBFDF91CF911F910F91FF907C
:102FB000EF90DF90CF90BF90AF909F908F907F90D9
:102FC0006F905F904F903F902F90089584FF20C0A6
:102FD0008F7E8093390489E995E00E94852D6B01ED
:102FE0007C01F101C082D182E282F382A3019201CD
:102FF0000E948837181674F2A5019401C701B60122
:103000000E942A3487FDC6CF0E940B0B81E0C5CFFA
:1030100010917C03112309F4B4CF8091AC0588236F
:1030200021F01092AC050E940B0B8091AA059091A3
:10303000AB058F3091057CF49C012F5F3F4F30939F
:10304000AB052093AA0583589A4FFC01148F23588F
:103050003A4FF901148E85E995E00E94EC0A10922E
:103060007C038FCF0F931F9364E273E08DE795E0AD
:103070000E94920E00E010E020E732E440E050E0D1
:10308000BA018CE593E00E948917811108C08091F4
:103090003A04826080933A041F910F91089563E18E
:1030A00073E08DE795E00E94920E00E010E020E2D0
:1030B00031E440E050E0BA0180E693E00E948917D5
:1030C000882329F366E073E08DE795E00E94920E75
:1030D000609138037091390380913A0390913B03DA
:1030E0009B01AC010E941C368B019C0140E050E02A
:1030F000BA0188E693E00E948917882341F280E0B4
:1031000090E0A0E8BFE38093480390934903A09325
:103110004A03B0934B038093640390936503A09399
:103120006603B09367030E940A11B1CF0F931F93F8
:103130008091390481FF05C080913A0482608093B8
:103140003A0461E972E08DE795E00E94920E00E09A
:1031500010E020EA30E440E050E0BA0180E493E07F
:103160000E948917811108C080913A04826080937F
:103170003A041F910F91089563E872E08DE795E09E
:103180000E94920E00E010E02AEF34E440E050E0AC
:10319000BA0188E393E00E948917882329F30E94EB
:1031A0000A110E941B13E0CF48E1469F9001479F00
:1031B000300D1124BC01C90183589A4F0E94920E10
:1031C0000E94F3138091390484FF05C08F7E8093A1
:1031D000390481E0089581FFF3CF8D7F8093390416
:1031E00080E008952F923F924F925F926F927F926C
:1031F0008F929F92AF92BF92CF92DF92EF92FF9207
:103200000F931F93CF93DF93CDB7DEB72A970FB6F7
:10321000F894DEBF0FBECDBF8E8320915403309152
:103220005503409156035091570360914C037091A0
:103230004D0380914E0390914F030E941C36698389
:103240007A838B839C830E9456042B013C010E944D
:1032500056046B017C0190E080E00E94110E21E099
:103260002D8322242394312CD701C60188519C4FF1
:10327000AF4FBF4F8F839887A987BA870E94F313F8
:1032800080917C038E33D9F510927C0361E070E06D
:1032900084EC93E00E94D418882369F120914C03B8
:1032A00030914D0340914E0350914F0360E070E028
:1032B000CB010E941B366093540370935503809397
:1032C0005603909357030E940A11209154033091A2
:1032D0005503409156035091570360914C037091F0
:1032E0004D0380914E0390914F030E941C366983D9
:1032F0007A838B839C8390E080E00E94110E809102
:103300007C038D32C4F110927C030E940B0BC090A1
:103310005403D0905503E0905603F090570320914A
:103320002B0330912C0340912D0350912E03C701A4
:10333000B6010E941C364B015C0120E030E0A9017F
:10334000C701B6010E941C36AB01BC019501840186
:10335000CE0101960E948917882369F049815A811C
:103360006B817C8190E080E00E94340F90E080E0EF
:103370000E94110E83CF80913904982F9470282FCA
:103380002C7009F4BCC00FEF1FEF911102C001E0D7
:1033900010E0837F809339040E94560464197509F4
:1033A000860997090E942F344B015C01B801012E58
:1033B000000C880B990B0E9431346B017C0120E0DA
:1033C00030E040E752E4C501B4010E942A3420E015
:1033D00030E040E850E487FD40C020E030E04CE8B9
:1033E00052E4C501B4010E942A3487FF28C0A70116
:1033F0009601C701B6010E941C366B017C010215C3
:10340000130581F19D81911118C00E94D61220915F
:1034100054033091550340915603509157036091E6
:103420004C0370914D0380914E0390914F030E9485
:103430001C3669837A838B839C8318011FCF20E01D
:1034400030E044EB52E4C501B4010E942A3487FD08
:10345000D6CF2DEC3CEC4CEC5DE3C701B6010E94ED
:103460009034CBCFA701960169817A818B819C81B1
:103470000E941C3669837A838B839C830E94560446
:103480002B013C0149815A816B817C8190E080E075
:103490000E94340F90E080E00E94110E1D82809106
:1034A0003904AE81AA2339F184FFE8CE8F7E809360
:1034B00039040E94D6120E940B0B80913A0482605C
:1034C00080933A042A960FB6F894DEBF0FBECDBFA4
:1034D000DF91CF911F910F91FF90EF90DF90CF90F0
:1034E000BF90AF909F908F907F906F905F904F9024
:1034F0003F902F90089581FFC1CE8D7FD8CF0E943D
:1035000056042F81388549855A852617370748077D
:10351000590728F60E940A11C2CFCF92DF92EF928C
:10352000FF9261E070E086ED92E00E94D41888235B
:1035300009F447C021E041E068EA71E686EC91E0D9
:103540000E94B20EC0903803D0903903E0903A0345
:10355000F0903B0320E030E0A901C701B6010E94D2
:103560009C10882391F0C0924C03D0924D03E092BE
:103570004E03F0924F031092500310925103109299
:103580005203109253030E940A1120914C03309170
:103590004D0340914E0350914F0360913803709159
:1035A000390380913A0390913B030E941B3660934C
:1035B00054037093550380935603909357030E94CE
:1035C0000A1161E070E08BEC92E00E94D41888232D
:1035D00039F020E030E0A901CA01B9010E94491286
:1035E00080913A04826080933A04FF90EF90DF90DC
:1035F000CF9008958F929F92AF92BF92CF92DF9219
:10360000EF92FF920F931F93CF93DF93CDB7DEB767
:1036100060970FB6F894DEBF0FBECDBF21E040E04B
:1036200068EB7BE089EC91E00E94B20E65E772E006
:103630008DE795E00E94920E8090340390903503C0
:10364000A0903603B090370300E010E020EA32E4A7
:1036500040E050E0BA0184E393E00E948917882398
:1036600039F00E940A1180913A04826080933A04F2
:10367000C0904C03D0904D03E0904E03F0904F0368
:10368000A501940160913403709135038091360354
:10369000909137030E941B3620E030E040E05FE36A
:1036A0000E9490344B015C012091540330915503EA
:1036B0004091560350915703C701B6010E941C3632
:1036C0009B01AC01C501B4010E941C36A701960103
:1036D0000E941B36609354037093550380935603E6
:1036E000909357030E940A1170E060E089E692E02F
:1036F0000E94D418882309F467C020E030E040E23B
:1037000051E460E070E0CB010E9449126CE572E088
:103710008DE795E00E94920E10925403109255038B
:1037200010925603109257030E940A1181E00E94E2
:10373000F2186FE472E08DE795E00E94920E64EF5C
:1037400071E080E090E00E94240420914C033091CD
:103750004D0340914E0350914F0360E070E0CB0168
:103760000E941B3660935403709355038093560355
:10377000909357030E940A116CE472E085E995E08A
:103780000E94920E209154033091550340915603AC
:103790005091570360914C0370914D0380914E03FB
:1037A00090914F030E941C368E010F5F1F4F22E045
:1037B00041E00E94672DC8010E941A0B68EE73E079
:1037C00080E090E00E942404209158033091590336
:1037D00040915A0350915B036091500370915103E3
:1037E00080915203909153030E941C369B01AC01BF
:1037F00001E060E070E0CB010E9429110E942C0FD3
:1038000080913A04826080933A0460960FB6F894EF
:10381000DEBF0FBECDBFDF91CF911F910F91FF9003
:10382000EF90DF90CF90BF90AF909F908F900895D2
:103830002F923F924F925F926F927F928F929F92C0
:10384000AF92BF92CF92DF92EF92FF920F931F93AE
:10385000CF93DF93CDB7DEB7C45AD1090FB6F89432
:10386000DEBF0FBECDBFCD56DF4F99838883C359CE
:10387000D040CF56DF4F79836883C159D040CD55B2
:10388000DF4F59834883C35AD040C556DF4F088362
:1038900019832A833B83CB59D04030903403209145
:1038A0003503EA962FAFEA9730913603C158DF4FC0
:1038B0003883CF57D04040913703CD57DF4F4883EF
:1038C000C358D04020E030E0A901632DEA967FADD7
:1038D000EA97C158DF4F8881CF57D040CD57DF4F8F
:1038E0009881C358D0400E942A34882309F4AAC181
:1038F000409038035090390360903A0370903B0336
:10390000F12CE12CCF56DF4F88819981C159D040ED
:10391000E816F9060CF038C2EDE0EE9DD001EF9DFF
:10392000B00D1124CB56DF4FB983A883C559D040C1
:10393000CD56DF4FC880D980C359D040CA0EDB1E98
:10394000D601BC91CC57DF4FB883C458D040F601A4
:1039500001811281238084809580A680B780208594
:10396000318542855385C956DF4F288339834A8381
:103970005B83C759D040A5019401632DEA967FADC2
:10398000EA97C158DF4F8881CF57D040CD57DF4FDE
:103990009881C358D0400E948837181684F420E0DC
:1039A00030E0A901CC57DF4F6881C458D040702F58
:1039B000812F922D0E942A34882309F43EC6CC57C9
:1039C000DF4F2881C458D040302F412F522DC501E0
:1039D000B4010E941C36EF966CAF7DAF8EAF9FAFE7
:1039E000EF97C556DF4F288139814A815B81CB59DA
:1039F000D040632DEA967FADEA97C158DF4F8881AA
:103A0000CF57D040CD57DF4F9881C358D0400E9448
:103A10001C369B01AC01EF966CAD7DAD8EAD9FADBC
:103A2000EF970E94883718160CF40CC1EF962CAD56
:103A30003DAD4EAD5FADEF97C301B2010E94883737
:103A400087FFFBC5EF962CAD3DAD4EAD5FADEF975B
:103A5000C556DF4F688179818A819B81CB59D040DF
:103A60000E941B36C156DF4F6883CF59D040C056E5
:103A7000DF4F7883C05AD040CF55DF4F8883C15A7B
:103A8000D040CE55DF4F9883C25AD040CC57DF4F3D
:103A90002881C458D040302F412F522DC301B2018C
:103AA0000E942A3418166CF0EF962CAD3DAD4EAD49
:103AB0005FADEF97C301B2010E942A3418160CF0D3
:103AC000DCC5CC57DF4F2881C458D040302F412F60
:103AD000522DC301B2010E941B36EC966FAFEC97DA
:103AE000C857DF4F7883C858D040C757DF4F888307
:103AF000C958D040C357DF4F9883CD58D0409B0161
:103B0000AC01C501B4010E941B36B62EA72E982E1B
:103B1000892EEC962FADEC97C857DF4F3881C858E7
:103B2000D040C757DF4F4881C958D040C357DF4FF7
:103B30005881CD58D040632DEA967FADEA97C158A1
:103B4000DF4F8881CF57D040CD57DF4F9881C35882
:103B5000D0400E9488371816FCF4EC963FAEEC97E4
:103B6000EA96BFADEA97C857DF4FB883C858D04030
:103B7000C158DF4FE881CF57D040C757DF4FE883A8
:103B8000C958D040CD57DF4FF881C358D040C357F4
:103B9000DF4FF883CD58D0402B2D3A2D492D582D8D
:103BA000632DEA967FADEA97C158DF4F8881CF57E2
:103BB000D040CD57DF4F9881C358D0400E948837FE
:103BC00018160CF475C5CC57DF4F8881C458D04007
:103BD000902FA12FB22DF60180839183A283B3830E
:103BE000EC968FADEC97C857DF4F9881C858D040FE
:103BF000C757DF4FA881C958D040C357DF4FB8819E
:103C0000CD58D04084839583A683B783C956DF4FB0
:103C1000288139814A815B81C759D040208731870B
:103C2000428753871486CD55DF4FE881F981C35A07
:103C3000D040CF56DF4F28813981C159D0402E174F
:103C40003F075CF16FEA72E08DE795E00E94920E0B
:103C500068EE73E080E090E00E94240480913A04D2
:103C6000826080933A04CC55DF4F0FB6F894DEBFE4
:103C70000FBECDBFDF91CF911F910F91FF90EF90BD
:103C8000DF90CF90BF90AF909F908F907F906F907C
:103C90005F904F903F902F900895CB56DF4F088153
:103CA0001981C559D040035F1F4FCD56DF4F288182
:103CB0003981C359D040020F131FCF56DF4F88817F
:103CC0009981C159D0408E199F0901973DE0389FD5
:103CD000A001399F500D1124CB56DF4F8881998167
:103CE000C559D0404A96B801CD56DF4FA881B98159
:103CF000C359D0408A0F9B1F0E948D37C156DF4F9A
:103D00008881CF59D040C056DF4F9881C05AD040EB
:103D1000CF55DF4FA881C15AD040CE55DF4FB88173
:103D2000C25AD040F80180839183A283B3838B2D44
:103D30009A2DA92DB82D84839583A683B783C95660
:103D4000DF4F288139814A815B81C759D040D80132
:103D50002087318742875387E1E01C96EC93FFEF81
:103D6000EF1AFF0ACF56DF4F28813981C159D04061
:103D70002F5F3F4FCF56DF4F39832883C159D04043
:103D80003FEFE31AF30ABECD712C612C41E0CD5711
:103D9000DF4F4883C358D040512C412CEB961FAEC7
:103DA0001EAEEB97CF56DF4F88819981C159D04025
:103DB0000197CB56DF4F99838883C559D04020C4E3
:103DC000CB56DF4FE881F981C559D040EB962EAD37
:103DD0003FADEB972E173F070CF022C42F5F3F4FEC
:103DE000EB963FAF2EAFEB9781E0512C412C9B7FA0
:103DF0009093390431E0C857DF4F3883C858D0401A
:103E00009091390493FF0FC04114510499F151E08E
:103E1000451A5108977F90933904B1E0C857DF4F96
:103E2000B883C858D0409091390494FF0FC09F7E4A
:103E300090933904E1E0C857DF4FE883C858D04079
:103E4000F1E0CD57DF4FF883C358D040909139044B
:103E500091FF1EC09D7F9093390400CFCD57DF4F57
:103E60004881C358D040C857DF4F4883C858D04016
:103E7000842FC6CFEB96AEADBFADEB971A161B06DF
:103E80004CF61197EB96BFAFAEAFEB9781E0C2CF88
:103E9000882309F4CBC2C0903403D0903503E0905E
:103EA0003603F090370320E030E0A901C701B601E6
:103EB0000E942A34882309F4B0C24DE0EB962EAD5F
:103EC0003FADEB97429FF001439FF00D1124CD567B
:103ED000DF4F88819981C359D040E80FF91F2091A5
:103EE00048033091490340914A0350914B03CC570A
:103EF000DF4F288339834A835B83C458D040808155
:103F00009181A281B381EF968CAF9DAFAEAFBFAF71
:103F1000EF972481358146815781C757DF4F28832A
:103F200039834A835B83C958D04080859185A285B7
:103F3000B385C158DF4F88839983AA83BB83CF574A
:103F4000D04020E030E0A901EF966CAD7DAD8EADA4
:103F50009FADEF970E942A34811179C1A701960184
:103F600060E070E080E09FE30E941B3620E030E0DC
:103F700040E251E40E9490340E9411377A836983B1
:103F800020E030E040E251E4C158DF4F68817981A0
:103F90008A819B81CF57D0400E9490340E94113774
:103FA0007C836B8366246394712CC757DF4F288111
:103FB00039814A815B81C958D040C701B6010E944E
:103FC0008837181674F420E030E0A901EF966CAD44
:103FD0007DAD8EAD9FADEF970E94883718160CF41B
:103FE0001CC2F301E150F04CEE0FFF1FEE0FFF1F5C
:103FF00021E030E02C0F3D1FE20FF31F6081718143
:10400000072E000C880B990B0E94313420E030E021
:1040100040E251E40E949F36A70196010E941C369F
:10402000EF962CAD3DAD4EAD5FADEF970E941B36C8
:104030009B01AC01C757DF4F688179818A819B81E1
:10404000C958D0400E941B364B015C01A701960164
:104050000E949F360E9488367B018C019B01AC0137
:10406000C501B4010E949F36C757DF4F688379832B
:104070008A839B83C958D04020E030E040E85FE36A
:10408000B701C8010E941B36C357DF4F6883CD5864
:10409000D040C956DF4F7883C759D040C556DF4F4F
:1040A0008883CB59D040C156DF4F9883CF59D04039
:1040B00020E030E0A901B701C8010E942A3488231A
:1040C00009F4B4C1130131E0231A30EC330A220C95
:1040D000331C220C331CE1E0F0E0EC0FFD1FE20D7D
:1040E000F31D60817181072E000C880B990B0E94D3
:1040F00031346B017C0120E030E040E251E4C757ED
:10410000DF4F688179818A819B81C958D0400E94A4
:1041100090349B01AC01C701B6010E941C364B01D3
:104120005C01C158DF4F288139814A815B81CF57BB
:10413000D040CC57DF4F688179818A819B81C458F8
:10414000D0400E942A34C12CD12C760187FF34C084
:10415000CC57DF4F288139814A815B81C458D040D8
:10416000C158DF4F688179818A819B81CF57D040C8
:104170000E949F360E941837EF966CAF7DAF8EAFCE
:104180009FAFEF9744E0240E311C81E090E08C0F4C
:104190009D1F280E391EED960EAD1FADED97C12C5B
:1041A000D12C76010150110908F00FC1ED96AEAD8A
:1041B000BFADED976A0E7B1EC158DF4F2881398154
:1041C0004A815B81CF57D040C701B6010E942A3493
:1041D00087FF28C07301EE0CFF1CEE0CFF1CE1E012
:1041E000F0E0EC0FFD1FEE0EFF1EC501B4010E94B2
:1041F0001137D7016D937C9320E030E040E251E429
:10420000C158DF4F688179818A819B81CF57D04027
:104210000E9490340E941137F70173836283FFEF8D
:104220006F1A7F0AC357DF4FE880CD58D040C95678
:10423000DF4FF880C759D040C556DF4F0881CB59B2
:10424000D040C156DF4F1881CF59D04015CFC1584B
:10425000DF4F288139814A815B81CF57D040CC57CD
:10426000DF4F688179818A819B81C458D0400E9448
:104270002A34712C612C812C912C540187FF32C07F
:10428000CC57DF4F288139814A815B81C458D040A7
:10429000C158DF4F688179818A819B81CF57D04097
:1042A0000E949F360E941837C357DF4F6883798377
:1042B0008A839B83CD58D040DE0111961D01C357E0
:1042C000DF4F08811981CD58D040812C912C5401A9
:1042D0000150110908F047C0C357DF4F688079804B
:1042E000CD58D040C158DF4F288139814A815B8148
:1042F000CF57D040C501B4010E942A3487FF55CE64
:104300008301000F111F000F111FE1E0F0E0EC0F1F
:10431000FD1F0E0F1F1F20E030E040E251E4EF963A
:104320006CAD7DAD8EAD9FADEF970E9490340E9435
:104330001137D8016D937C9320E030E040E251E4E6
:10434000C158DF4F688179818A819B81CF57D040E6
:104350000E9490340E941137F80173836283FFEF4B
:104360006F1A7F0A22CECC57DF4F288139814A81CC
:104370005B81C458D040C501B4010E941C364B017A
:104380005C0120E030E040E251E4EF966CAD7DADA1
:104390008EAD9FADEF970E9490340E941137F101CE
:1043A0007183608320E030E040E251E4C501B40154
:1043B0000E9490340E941137D10113967C936E9322
:1043C0001297B4E02B0E311C83CFCC57DF4F2881DE
:1043D00039814A815B81C458D040C701B6010E942F
:1043E0001C366B017C01C501B4010E941137F1013B
:1043F0007183608320E030E040E251E4C701B60100
:104400000E9490340E941137D10113967C936E93D1
:104410001297B4E02B0E311CC5CE0E940B0B70E03E
:1044200060E08EE992E00E94D41818CCC857DF4FA4
:104430002881C858D040222309F448C08DE0EB966B
:104440004EAD5FADEB97849F8001859F100D1124C9
:10445000CD56DF4FA881B981C359D0400A0F1B1F29
:10446000F201EE0FFF1FEE0FFF1F21E030E02C0FD7
:104470003D1FE20FF31F60817181072E000C880B36
:10448000990B0E94313420E030E040E251E40E9478
:104490009F3620913403309135034091360350917B
:1044A00037030E941C36D8011C96CC907B018C01EE
:1044B0009301A201CF56DF4F68817981C159D04065
:1044C000EB968EAD9FADEB970E94610BCD57DF4F02
:1044D000B881C358D040BB2309F48DC08201000FBE
:1044E000111F000F111FE1E0F0E0EC0FFD1F0E0F98
:1044F0001F1FD80112966D917C91072E000C880B1E
:10450000990B0E94313420E030E040E251E40E94F7
:104510009F366B017C01F80160817181072E000CD0
:10452000880B990B0E94313420E030E040E251E4E6
:104530000E949F3620913403309135034091360319
:10454000509137030E941C36A70196010E94491220
:10455000882309F46BC0C3010197481659060CF073
:104560004AC0FFEF4F1A5F0A4DE0EB962EAD3FAD0C
:10457000EB97429F8001439F100D1124CD56DF4FD2
:1045800088819981C359D040080F191FF201EE0F9D
:10459000FF1FEE0FFF1FA1E0B0E0AC0FBD1FEA0F41
:1045A000FB1F60817181072E000C880B990B0E9404
:1045B000313420E030E040E251E40E949F36209107
:1045C00034033091350340913603509137030E94F4
:1045D0001C36F801C4847B018C019301A201CF56E3
:1045E000DF4F68817981C159D040EB968EAD9FAD88
:1045F000EB970E94610BCD57DF4F1882C358D04014
:104600000E94F3139091390492FF28CC930121501A
:104610003109421653060CF0D3CBAFEF4A1A5A0AAF
:10462000CD57DF4F8881C358D040E1CB6DEC71E0AE
:1046300085E995E00E94410BDECF20E0CC57DF4FAB
:104640008881C458D040902FA12FB22DF6018083CD
:104650009183A283B38384829582A682B782C9564E
:10466000DF4F88819981AA81BB81C759D04080875B
:104670009187A287B387248783CBC156DF4FF88108
:10468000CF59D040CC57DF4FF883C458D040C056E4
:10469000DF4F0881C05AD040CF55DF4F1881C15A33
:1046A000D040CE55DF4F2880C25AD04021E0C6CF3F
:1046B000B32CEA96AFACEA97C158DF4F9880CF573A
:1046C000D040CD57DF4F8880C358D0407CCA20E00F
:1046D00030E0A90160913403709135038091360375
:1046E000909137030E942A34811108C070E060E085
:1046F0008DE392E00E94D41880E0089581E008954F
:104700002F923F924F925F926F927F928F929F92E1
:10471000AF92BF92CF92DF92EF92FF920F931F93CF
:10472000CF93DF93CDB7DEB7C95CD1090FB6F8944C
:10473000DEBF0FBECDBF0E94672381111FC08091D5
:104740003A04826080933A04C753DF4F0FB6F8945F
:10475000DEBF0FBECDBFDF91CF911F910F91FF90B4
:10476000EF90DF90CF90BF90AF909F908F907F9011
:104770006F905F904F903F902F900895C0903403BA
:10478000D0903503E0903603F090370320E030E01E
:10479000A901C701B6010E942A34882309F48BC0FD
:1047A00060915C0370915D0380915E0390915F0363
:1047B0000E9411371B01409068035090690360907C
:1047C0006A0370906B03072E000C880B990B0E94F4
:1047D00031349B01AC01C301B2010E949F364B01F1
:1047E0005C01AC019B01C701B6010E948837181615
:1047F0000CF461C08091640390916503A0916603FD
:10480000B0916703CC53DF4F88839983AA83BB831E
:10481000C45CD0408E010F5F1F4FD12CC12CF12CF6
:10482000E12CC853DF4F0883C85CD040C753DF4F2B
:104830001883C95CD040E214F3045CF5B7010F2C77
:10484000000C880B990B0E943134A50194010E9441
:104850009034D8016D937D938D939C931397F801B9
:1048600084829582A682B782CC53DF4F888199815A
:10487000AA81BB81C45CD04080879187A287B3871F
:10488000FFEFCF1ADF0A82E0E80EF11C035F1F4F33
:10489000D2CF930182014FE050E0B601C853DF4F01
:1048A0008881C85CD040C753DF4F9881C95CD04035
:1048B0000E94181C44CF63E473E08DE795E00E94EA
:1048C000920E68EE73E080E090E00E94240437CFFF
:1048D0002F923F924F925F926F927F928F929F9210
:1048E000AF92BF92CF92DF92EF92FF920F931F93FE
:1048F000CF93DF93CDB7DEB7CB5CD1090FB6F89479
:10490000DEBF0FBECDBF0E94672381111FC0809103
:104910003A04826080933A04C553DF4F0FB6F8948F
:10492000DEBF0FBECDBFDF91CF911F910F91FF90E2
:10493000EF90DF90CF90BF90AF909F908F907F903F
:104940006F905F904F903F902F900895C0903403E8
:10495000D0903503E0903603F090370320E030E04C
:10496000A901C701B6010E942A34882309F496C020
:1049700060915C0370915D0380915E0390915F0391
:104980000E9411371B0140906803509069036090AA
:104990006A0370906B03072E000C880B990B0E9422
:1049A00031349B01AC01C301B2010E949F364B011F
:1049B0005C01AC019B01C701B6010E948837181643
:1049C0000CF46CC08091640390916503A091660320
:1049D000B0916703CC53DF4F88839983AA83BB834D
:1049E000C45CD0408091600390916103A091620308
:1049F000B0916303C853DF4F88839983AA83BB8335
:104A0000C85CD0408E010F5F1F4FD12CC12CEE240B
:104A1000E394F12CE214F304BCF5B7010F2C000C65
:104A2000880B990B0E943134A50194010E949034A7
:104A3000D8016D937D938D939C931397A501940159
:104A4000C853DF4F688179818A819B81C85CD040DF
:104A50000E941C36F8016483758386839783CC5348
:104A6000DF4F88819981AA81BB81C45CD040808757
:104A70009187A287B387FFEFCF1ADF0A82E0E80EA3
:104A8000F11C035F1F4FC6CF930182014FE050E03E
:104A9000B601CE0101960E94181C39CF62E373E083
:104AA0008DE795E00E94920E68EE73E080E090E062
:104AB0000E9424042CCF0F931F93CF93DF93CDB785
:104AC000DEB76A970FB6F894DEBF0FBECDBF0E9467
:104AD0006723811110C080913A04826080933A0468
:104AE0006A960FB6F894DEBF0FBECDBFDF91CF91AF
:104AF0001F910F9108956AEF72E08DE795E00E9493
:104B0000920E00E010E028EC32E440E050E0BA0100
:104B10008CE693E00E9489178823E9F280E090E018
:104B2000A0E8BFE38093480390934903A0934A030E
:104B3000B0934B038093740390937503A093760313
:104B4000B09377036BEE72E08DE795E00E94920ED2
:104B5000009138031091390320913A0330913B03BF
:104B600040E050E0BA0180E793E00E948917882373
:104B700009F4B1CF6EED72E08DE795E00E94920EE0
:104B8000009138031091390320913A0330913B038F
:104B900040E050E0BA0188E793E00E94891788233B
:104BA00009F499CF0E940A11FE013D968EE0DF01C3
:104BB0001D928A95E9F78091700390917103A091FD
:104BC0007203B091730389839A83AB83BC83809112
:104BD0006C0390916D03A0916E03B0916F038D8370
:104BE0009E83AF83B8878091740390917503A091E1
:104BF0007603B091770389879A87AB87BC8700914A
:104C000078031091790320917A0330917B0342E07D
:104C100050E061E070E0CE0101960E94181C5BCF6D
:104C20000E946723811106C080913A0482608093BC
:104C30003A0408956EEB72E08DE795E00E94920EC3
:104C400080E00E94F218F0CF1F920F920FB60F92E1
:104C500011242F933F934F935F936F937F938F9381
:104C60009F93AF93BF93EF93FF938091B900887F99
:104C7000803609F44AC0F0F5883209F4A7C018F567
:104C8000803109F49BC0B8F4882309F4F9C0883056
:104C900009F494C0FF91EF91BF91AF919F918F91D3
:104CA0007F916F915F914F913F912F910F900FBE28
:104CB0000F901F901895883109F488C0803251F701
:104CC0008093FC0214C0803409F49DC040F480330A
:104CD000B9F38833F9F68093FC0285ECB0C08035D7
:104CE00009F485C0883509F496C0883499F60E9485
:104CF000D90DD0CF883909F48CC038F5883729F020
:104D000050F4883611F0803729F683E08093FD0255
:104D10001092FB0257C0883809F47BC0803919F023
:104D2000803809F0B7CF8091FB02803208F071C063
:104D3000E091FB0281E08E0F8093FB028091BB002B
:104D4000F0E0E552FD4F80833DC0803B39F0E0F458
:104D5000803A09F479C0883A09F09CCF84E08093C6
:104D6000FD021092D8021092D702E091D502F09184
:104D7000D60209958091D70281110FC081E08093FE
:104D8000D7021092B50209C0803C09F4A6CF883C36
:104D900009F4A3CF883B09F07DCFE091D80281E0F0
:104DA0008E0F8093D802F0E0EB54FD4F808180930A
:104DB000BB009091D8028091D70229C08091220334
:104DC0008093BB0085EC8093BC0064CF909121035D
:104DD00080912003981758F5E091210381E08E0F10
:104DE00080932103F0E0E050FD4F8081E9CFE09116
:104DF000210381E08E0F809321038091BB00F0E0BE
:104E0000E050FD4F808390912103809120039817FB
:104E1000C8F285E8D8CFE091210381E08E0F80931E
:104E200021038091BB00F0E0E050FD4F8083809132
:104E3000FF0281115CCF81E08093FE0284EA8093BF
:104E4000BC001092FD0226CF85EC8093BC0010922E
:104E5000FD028091FB02803230F4E091FB02F0E031
:104E6000E552FD4F10826091FB0270E0E091D902A3
:104E7000F091DA028BED92E009951092FB020ACFD5
:104E80001092FC0234CF1F920F920FB60F92112492
:104E90002F933F938F939F93AF93BF938091620221
:104EA00090916302A0916402B09165023091610219
:104EB00023E0230F2D3758F50196A11DB11D209336
:104EC00061028093620290936302A0936402B093A4
:104ED00065028091660290916702A0916802B0918C
:104EE00069020196A11DB11D80936602909367022D
:104EF000A0936802B0936902BF91AF919F918F9187
:104F00003F912F910F900FBE0F901F90189526E89C
:104F1000230F0296A11DB11DD2CF1F920F920FB683
:104F20000F9211242F933F934F935F936F937F932F
:104F30008F939F93AF93BF93EF93FF93E0910601FD
:104F4000F09107010995FF91EF91BF91AF919F916A
:104F50008F917F916F915F914F913F912F910F9022
:104F60000FBE0F901F9018951F920F920FB60F92C1
:104F700011242F933F934F935F936F937F938F935E
:104F80009F93AF93BF93EF93FF93E0910401F09150
:104F900005010995FF91EF91BF91AF919F918F917D
:104FA0007F916F915F914F913F912F910F900FBE25
:104FB0000F901F9018951F920F920FB60F92112409
:104FC0002F933F934F935F936F937F938F939F9311
:104FD000AF93BF93EF93FF9389E893E00E94CC05D2
:104FE000FF91EF91BF91AF919F918F917F916F91C1
:104FF0005F914F913F912F910F900FBE0F901F9097
:1050000018951F920F920FB60F9211242F938F9322
:105010009F93EF93FF93E0919903F0919A0380811E
:10502000E0919F03F091A00382FD1BC090818091CD
:10503000A2038F5F8F732091A303821741F0E09149
:10504000A203F0E0E757FC4F958F8093A203FF91F6
:10505000EF919F918F912F910F900FBE0F901F9006
:1050600018958081F4CFCF931092800310927F0324
:1050700088EE93E0A0E0B0E08093810390938203F8
:10508000A0938303B093840324E631E030937E033E
:1050900020937D0310928C0310928B0380938D03D9
:1050A00090938E03A0938F03B093900386E791E0D3
:1050B00090938A038093890385EC90E09093960304
:1050C0008093950384EC90E09093980380939703EA
:1050D00080EC90E090939A038093990381EC90E0A8
:1050E00090939C0380939B0382EC90E090939E03AB
:1050F00080939D0386EC90E09093A00380939F03A0
:105100001092A2031092A3031092A4031092A5037D
:1051100010927E0510927D051092800510927F05F9
:105120001092930510929205109294051092960594
:105130001092950581E090E09093980580939705F3
:105140001092AB051092AA051092AC05109273054F
:105150001092720588E891E0909371058093700534
:10516000109279058FE38093740580E180937A052E
:10517000C2E0C0937B0510927C050E94560428E68D
:1051800035E0109269051092680510926D05109235
:105190006C0510926B0510926A058FEF80936E0577
:1051A00091E090936F051092610510926005109246
:1051B00065051092640510926305109262051092C5
:1051C00066051092670510925905109258051092C5
:1051D0005D0510925C0510925B0510925A05909344
:1051E0005E0510925F0510925105109250051092C5
:1051F0005505109254051092530510925205C09314
:1052000056051092570510924905109248051092C4
:105210004D0510924C0510924B0510924A0593E0F3
:1052200090934E0510924F05109241051092400543
:1052300010924505109244051092430510924205C4
:1052400094E090934605109247051092390510920C
:10525000380510923D0510923C0510923B051092C6
:105260003A0595E090933E0510923F051092310566
:1052700010923005109235051092340510923305C6
:105280001092320596E090933605109237051092F1
:1052900029051092280510922D0510922C051092C8
:1052A0002B0510922A0597E090932E0510922F055A
:1052B00010922105109220051092250510922405C8
:1052C000109223051092220598E0909326051092E3
:1052D0002705109219051092180510921D051092BD
:1052E0001C0510921B0510921A0599E090931E055B
:1052F00010921F05109211051092100510921505BD
:105300001092140510921305109212059AE09093D2
:105310001605109217053093270420932604309326
:1053200029042093280428EF33E030932B042093A2
:105330002A0410923A0410923B0410923604109200
:10534000380410922E0410923704C0932D049FE06D
:1053500090932C0480933D04109239041092B80568
:105360001092BC051092BB051092BD0584E991E036
:105370009093B7058093B605E2EDF5E010821482B4
:1053800013821582369686E0EE30F807B9F783E18E
:1053900091E090931906809318068FE091E0909326
:1053A0001B0680931A0685E080931C0684E0809398
:1053B0001D0688E191E090931706809316068AE017
:1053C00090E090931F0680931E0684EF91E09093E7
:1053D0002106809320061092240610922306109234
:1053E00012061092130610921406109215061092CF
:1053F000220680E18093AD0584E690E09093AF05AE
:105400008093AE0581E08093B0051092B1051092B3
:10541000B2051092B3051092B4051092B505CF9164
:105420000895CF93DF9300D0CDB7DEB7789484B5DD
:10543000826084BD84B5816084BD85B5826085BD90
:1054400085B5816085BD80916E00816080936E001E
:105450001092810080918100826080938100809110
:1054600081008160809381008091800081608093C1
:1054700080008091B10084608093B1008091B00081
:1054800081608093B00080917A00846080937A007C
:1054900080917A00826080937A0080917A008160A6
:1054A00080937A0080917A00806880937A001092CD
:1054B000C100E0919903F0919A0382E08083E0912A
:1054C0009503F09196031082E0919703F091980371
:1054D00080E180831092A103E0919D03F0919E03EF
:1054E00086E08083E0919B03F0919C038081806142
:1054F0008083E0919B03F0919C038081886080838E
:10550000E0919B03F0919C03808180688083E0910F
:105510009B03F0919C0380818F7D80831092AC026D
:105520001092AB021092AE021092AD020E94840360
:105530008CE792E09093D6028093D5028DE792E0BB
:105540009093DA028093D9021092750580917B05C1
:105550000E948E0C88E080937C0560E080E795E0F7
:105560000E940F0782E00E948E0C0E94830C68E369
:1055700071E080E00E94F00C60E471E081E00E9444
:10558000F00C68E471E082E00E94F00C60E571E0EC
:1055900083E00E94F00C68E571E084E00E94F00C6A
:1055A00080913C04816080933C0488E098E0909373
:1055B00028028093270280E196E290931202809362
:1055C000110287E098E090933E0280933D0260E6EE
:1055D00075E088E695E00E94F60684E098E09093F6
:1055E0002A02809329028BE595E29093140280931E
:1055F000130283E098E09093400280933F0268E5B5
:1056000075E088E695E00E94F6069CEFC92E97E0CB
:10561000D92ED0922C02C0922B022BEFE22E27E043
:10562000F22EF0921602E09215020AEF17E01093A4
:1056300042020093410260E575E088E695E00E9431
:10564000F60682E098E090932E0280932D0282E38A
:1056500098E1909318028093170281E098E090936C
:1056600044028093430268E475E080E595E00E947F
:10567000F60680E098E09093300280932F0288E64F
:1056800094E290931A02809319028FEF97E090931F
:1056900046028093450260E475E080E595E00E9453
:1056A000F6068EEF97E0909332028093310280E805
:1056B00093E290931C0280931B028DEF97E09093EE
:1056C00048028093470268E375E080E595E00E9418
:1056D000F6068AE098E090933402809333028EE2DB
:1056E00092E190931E0280931D0289E098E09093CE
:1056F0004A028093490260E375E088E695E00E94E3
:10570000F606D0923602C0923502F0922002E09264
:105710001F0210934C0200934B0268E275E088E68A
:1057200095E00E94F6068BEF94E090933802809308
:1057300037028AEF9AE190932202809321028DE052
:1057400098E090934E0280934D0260E275E088E20B
:1057500095E00E94F60686E098E090933A028093E6
:1057600039028DE89AE1909324028093230285E028
:1057700098E09093500280934F0268E175E088E2D0
:1057800095E00E94F6068CE098E090933C028093AE
:105790003B0286E998E190932602809325028BE0F4
:1057A00098E0909352028093510260E175E088E2A4
:1057B00095E00E94F6060E945C080E940F0D86E2AA
:1057C00097E190935402809353020E9456046F5FB6
:1057D0007F4F8F4F9F4F6093580270935902809371
:1057E0005A0290935B028091570281608093570226
:1057F0008AE09CE090935602809355020E941B130E
:1058000021E040E068EE73E08CED91E00E94B20E82
:1058100088E189831A8221E041E068EB7BE0CE01D8
:1058200001960E94B20E68EE73E080E090E00E9464
:10583000240421E040E068EE73E08CED91E00E94EA
:10584000B20E64E670E080E090E00E942404809153
:105850003C0390913D03A0913E03B0913F034091E2
:1058600038035091390360913A0370913B030091E2
:105870004403109145032091460330914703C090A3
:105880004003D0904103E0904203F0904303C09264
:105890002303D0922403E0922503F0922603009381
:1058A0002703109328032093290330932A0340935E
:1058B0002B0350932C0360932D0370932E0380933E
:1058C0002F0390933003A0933103B09332032091C0
:1058D0005003309151034091520350915303609112
:1058E0004C0370914D0380914E0390914F030E94A1
:1058F0009C100E942C0F00E010E034E6C32ED12C47
:10590000E12CF12CBB24BA94AA24A39480913A04EC
:1059100081FFA9C0809160028D7F80936002109208
:105920005C0210925D0210925E0210925F02C092C1
:105930000B01D0920C01E0920D01F0920E018091CA
:1059400057028D7F80935702E0910901EF3F09F4E0
:105950008AC0F0E0EE0FFF1FE35CFD4F0190F08185
:10596000E02D0995B09209010E94040C0E945C0888
:105970000E940F0D10923904B0923D0480913A04B8
:105980008D7F80933A04909008018FEF981609F468
:1059900052C00E947409B0923D0480913A048F7EF7
:1059A00080933A0480913804882319F00E945D099D
:1059B000F9CF1092360410923404109235041092EC
:1059C00039040E945C0880913A04816480933A040F
:1059D000692D80912604909127040E94220A81114A
:1059E0000E94850980913A048A7F80933A040E943C
:1059F000560480913D048F3F99F00E9456046F5FDA
:105A00007F4F8F4F9F4F60935C0270935D02809336
:105A10005E0290935F0280915702826080935702EA
:105A20008091390485FD05C08F7D809339040E94E3
:105A30000F0DB092080180913A0484FF14C0909138
:105A40003D049F3F39F1806180933A040E947409BC
:105A50000E945C0880913A04806480933A040E941A
:105A60005C080E940F0DE0915302F09154020995D9
:105A700080910A01811121C0A0920A01011511052E
:105A800009F444CF0E94B805882309F43FCF0E944F
:105A900000003CCF8F7E80933A04809138048823A5
:105AA00019F00E945D09F9CF109236041092340467
:105AB0001092350410923904CBCFE0915502F09149
:105AC0005602099580910A018111D8CFD5CFEF9266
:105AD0000F931F93CF93DF93E80134E047FD34E148
