:100000000C944A020C9404290C94DD280C9472027E
:100010000C9472020C9472020C9472020C94720290
:100020000C9472020C9472020C9472020C94720280
:100030000C9472020C9472020C9472020C94720270
:100040000C9493280C9472020C9451290C942B2933
:100050000C9472020C9472020C9472020C94720250
:100060000C9474270C9472024E414E494E495459D7
:10007000494E46CDCCCC3D0AD7233C17B7D1387773
:10008000CC2B329595E6241FB14F0A000020410089
:1000900000C84200401C4620BCBE4CCA1B0E5AAED3
:1000A000C59D7400407A10F35A00A0724E180900E2
:1000B00010A5D4E80000E87648170000E40B5402CD
:1000C0000000CA9A3B000000E1F505000080969808
:1000D00000000040420F000000A086010000001058
:1000E0002700000000E8030000000064000000009A
:1000F000000A00000000000100000000002C76D87B
:1001000088DC674F0823DFC1DFAE59E1B1B796E560
:10011000E3E453C63AE651997696E8E6C28426EBC4
:10012000898C9B62ED407C6FFCEFBC9C9F40F2BAD7
:10013000A56FA5F490055A2AF75C936B6CF9676D6F
:10014000C11BFCE0E40D47FEF520E6B500D0ED90C4
:100150002E0300943577050080841E080000204E91
:100160000A000000C80C333333330F986E1283112A
:1001700041EF8D2114893BE65516CFFEE6DB18D101
:10018000844B381BF77C1D901DA4BBE424203284D3
:10019000725E228100C9F124ECA1E53D2756616C15
:1001A00075657300486F6D65267265736574506F71
:1001B00073004368616E67652043757474657200EF
:1001C00053657475700053687574646F776E00467C
:1001D000656D616C65204A6F696E74004D616C6578
:1001E000204A6F696E740053657475700046696EBD
:1001F000676572204A6F696E74004461646F004DD8
:10020000616E75616C206D6F646500454D455247A8
:10021000454E43592053544F50210000244A3D4736
:10022000393020257325732046313030300047396E
:100230003020473020592573205A25730073657488
:10024000207570206375747465722100593A2573A6
:10025000205A3A2573202573005061737320256955
:100260002F256900443A25692F2569202D20503A11
:1002700025692F2569007A65726F20617869733F5F
:1002800000593D00736574206E6577207A65726F42
:100290000073656C65637420706F732059007A6514
:1002A000726F20706F7320593F005A3D0073657460
:1002B000206E6577207A65726F0073656C65637474
:1002C00020706F73205A007A65726F20706F7320F0
:1002D0005A3F004375747465722077696474683F8F
:1002E000006D61782074726176656C205A3F006DF4
:1002F00061782074726176656C20593F0062616399
:100300006B736C617368205A3F006261636B736C3E
:1003100061736820593F006661696C6564206361A0
:100320006C63206461646F006572722063616C634A
:10033000206461646F730073656C65637420706F13
:10034000736974696F6E00676F746F207A65726F7E
:100350003F00686F6D696E673F0073686565742064
:1003600077696474683F006461646F20706F7369BB
:1003700074696F6E3F006375742064657074682FD4
:10038000706173733F006461646F206465707468AA
:100390003F006461646F2077696474683F0063752F
:1003A000742064657074682F706173733F006669B0
:1003B0006E676572206C656E6774683F0073686570
:1003C00065742077696474683F00636C656172616D
:1003D0006E63652077696474683F0066696E67655F
:1003E0007220636F756E743F006572722063616C7A
:1003F000632066696E67657273006572722063615F
:100400006C632066696E67657273003A200047313D
:1004100030205030204C323020592573205A25731B
:100420000000000000240027002A00000000002532
:100430000028002B000000000023002600290004F3
:10044000040404040404040202020202020303037B
:100450000303030102040810204080010204081075
:100460002001020408102000000008000201000022
:100470000304070000000000000000FF01FA01ED86
:1004800001E701DC01CF01C601C001B201A4019D59
:100490000100832911241FBECFEFD8E0DEBFCDBFFE
:1004A00026E0A0EEB1E001C01D92A932B207E1F74B
:1004B00011E0A0E0B1E0E4E2F2E702C005900D92A5
:1004C000A03EB107D9F712E0CAE4D2E004C02197F8
:1004D000FE010E946537C934D107C9F70E94612B1C
:1004E0000C9410390C94000096E0899FD0011124DF
:1004F000AA54BA4F90967C936E935F9791E0919631
:100500009C939197E0912306F09124069091220606
:10051000992339F0309751F0811108C08091D205AC
:100520000994309719F05C968C91FACF0895209138
:100530003103260F3327331F21323105ECF420918C
:100540005703FC0190E080E0243069F082E00895D8
:10055000A09131032191AC01415F5C4FA40FB52FF5
:10056000B11D2C930196861798F380913103680F83
:100570006093310380E0089581E00895089508951F
:100580000895E091060380910503E81730F4F0E048
:10059000EB51FD4F808190E008958FEF9FEF08951C
:1005A00090910603809105032FEF3FEF981748F4D1
:1005B000E92FF0E0EB51FD4F208130E09F5F9093F9
:1005C0000603C90108958091050390910603891BD4
:1005D000990B0895CF92DF92EF92FF920F931F93A2
:1005E000CF93DF937C01CB018A012091E402222387
:1005F00089F0EB016B01C40ED51ECC15DD0569F049
:100600006991D701ED91FC910190F081E02DC70136
:100610000995F3CF642F0E949702C801DF91CF9113
:100620001F910F91FF90EF90DF90CF900895CF939F
:10063000DF931F92CDB7DEB769832091E4022223B6
:10064000F9F020910703203258F021E030E0FC015E
:100650003383228390E080E00F90DF91CF91089563
:1006600080910803E82FF0E0EC53FD4F99819083CF
:100670008F5F809308038093070381E090E0ECCFC5
:1006800061E0CE0101960E949702F7CF833081F09E
:1006900028F4813099F08230A9F008958730A9F0CC
:1006A0008830C9F08430B1F4809180008F7D03C020
:1006B000809180008F7780938000089584B58F7734
:1006C00084BD089584B58F7DFBCF8091B0008F7776
:1006D0008093B00008958091B0008F7DF9CFCF93C3
:1006E000DF93282F30E0F901E959FB4F8491F9019C
:1006F000ED5AFB4FD491F901E15CFB4FC491CC233F
:10070000A1F081110E944603EC2FF0E0EE0FFF1FD5
:10071000EB5CFB4FA591B491EC91ED2381E090E06F
:1007200009F480E0DF91CF91089580E090E0FACF66
:100730001F93CF93DF93282F30E0F901E959FB4F46
:100740008491F901ED5AFB4FD491F901E15CFB4F23
:10075000C491CC23A9F0162F81110E944603EC2FDF
:10076000F0E0EE0FFF1FE55DFB4FA591B4918FB751
:10077000F894EC91111108C0D095DE23DC938FBF63
:10078000DF91CF911F910895DE2BF8CF1092570380
:1007900081E0809359031092580361E082E10E9446
:1007A000980361E083E10E949803E9EBF0E0808127
:1007B0008E7F808380818D7F808388E48093B800E2
:1007C00085E48093BC000895CF93DF9391E09093EC
:1007D0000E038823B9F0C091B800D091BA0080917F
:1007E000BC008A7B8093BC0060E082E10E94980399
:1007F00060E083E10E9498030E94C603D093BA0090
:10080000C093B800DF91CF910895CF93DF9390E02C
:10081000FC01ED5AFB4F2491815C9B4FFC018491BC
:100820008823C9F090E0880F991FFC01EF5DFB4F12
:10083000A591B491FC01E55DFB4FC591D491611187
:100840000DC09FB7F8948C91209582238C9388815A
:10085000282328839FBFDF91CF910895623051F400
:100860009FB7F8943C91822F809583238C93E881E5
:100870002E2BEFCF8FB7F894EC912E2B2C938FBFAC
:10088000EACF3FB7F8948091C0029091C102A09145
:10089000C202B091C30226B5A89B05C02F3F19F034
:1008A0000196A11DB11D3FBFBA2FA92F982F8827F0
:1008B000BC01CD01620F711D811D911D42E0660FCB
:1008C000771F881F991F4A95D1F708958F929F929D
:1008D000AF92BF92CF92DF92EF92FF924B015C01F9
:1008E0000E9441046B017C010E9441046C197D0946
:1008F0008E099F09683E734081059105A8F321E0A8
:10090000821A9108A108B10888EEC80E83E0D81EAB
:10091000E11CF11C81149104A104B10429F7FF909A
:10092000EF90DF90CF90BF90AF909F908F90089501
:100930002FB7F8946091BC027091BD028091BE0205
:100940009091BF022FBF0895CF92DF92EF92FF9256
:10095000C090B105D090B205E090B305F090B40519
:100960000E9498046C157D058E059F0518F18091F5
:10097000AD050E946F032091B00528171906D1F02C
:100980000E9498042091AE053091AF05620F731F4D
:10099000811D911D6093B1057093B2058093B305DD
:1009A0009093B4058091B00591E089278093B005BC
:1009B0009093B5058091B005FF90EF90DF90CF90B8
:1009C00008950F931F93CF93DF93C82FD62F86E000
:1009D000C89FF0011124EA54FA4F11A2878D90A10B
:1009E00081309105F1F058F082309105F1F10397D3
:1009F00009F440C0DF91CF911F910F9108956623B4
:100A0000C9F361E070E08C2F0E9474020E94980488
:100A100060930E0670930F06809310069093110654
:100A2000E9CF0E94980400910E0610910F062091C4
:100A3000100630911106AB01BC01401B510B620B3B
:100A4000730B8091200690912106B0E0A0E08417FE
:100A50009507A607B70748F462E070E08C2FDF9196
:100A6000CF911F910F910C94740263E070E0D1114B
:100A7000C1CFF4CF70E060E0F1CF08950895AF9258
:100A8000BF92CF92DF92EF92FF920F931F93CF937B
:100A9000DF936C017B018B01040F151FEB015E01DD
:100AA000AE18BF08C017D10759F06991D601ED9172
:100AB000FC910190F081E02DC6010995892B79F711
:100AC000C501DF91CF911F910F91FF90EF90DF90C3
:100AD000CF90BF90AF900895FC01538D448D252F8A
:100AE00030E0842F90E0821B930B541710F0CF96C8
:100AF000089501970895FC01918D828D981761F0FA
:100B0000A28DAE0FBF2FB11D5D968C91928D9F5F10
:100B10009F73928F90E008958FEF9FEF08958F92CB
:100B20009F92AF92BF92EF92FF920F931F93CF933A
:100B3000DF937B018C01D0E0C0E00E9498046093B9
:100B4000910370939203809393039093940389E8A5
:100B500093E00E947B0597FF27C00E949804809035
:100B6000910390909203A0909303B090940368191E
:100B700079098A099B0980908D0390908E03A0903B
:100B80008F03B0909003681579058A059B05F8F2EC
:100B9000CE01DF91CF911F910F91FF90EF90BF9009
:100BA000AF909F908F9008958A30910589F3F80156
:100BB00081938F012196EC16FD0609F0BECFE8CF98
:100BC000FC01918D828D981731F0828DE80FF11D17
:100BD000858D90E008958FEF9FEF0895FC01918D32
:100BE000228D892F90E0805C9F4F821B91098F732B
:100BF0009927089589E893E00E94EE0521E0892B6A
:100C000009F420E0822F089580E090E0892B29F0FC
:100C10000E94FA0581110C9400000895FC01A48D36
:100C2000A80FB92FB11DA35ABF4F2C91848D90E00E
:100C300001968F739927848FA689B7892C93A089F1
:100C4000B1898C91837080648C93938D848D98137B
:100C500006C00288F389E02D80818F7D808308950E
:100C6000EF92FF920F931F93CF93DF93EC0181E0FC
:100C7000888F9B8D8C8D98131AC0E889F9898081A3
:100C800085FF15C09FB7F894EE89FF896083E889D6
:100C9000F98980818370806480839FBF81E090E0C8
:100CA000DF91CF911F910F91FF90EF900895F62E55
:100CB0000B8D10E00F5F1F4F0F731127E02E8C8DEF
:100CC0008E110CC00FB607FCFACFE889F989808134
:100CD00085FFF5CFCE010E940E06F1CFEB8DEC0F14
:100CE000FD2FF11DE35AFF4FF0829FB7F8940B8F51
:100CF000EA89FB8980818062CFCFCF93DF93EC01BB
:100D0000888D8823B9F0AA89BB89E889F9898C91F3
:100D100085FD03C0808186FD0DC00FB607FCF7CFAF
:100D20008C9185FFF2CF808185FFEDCFCE010E94AF
:100D30000E06E9CFDF91CF910895862F0C946F03B3
:100D4000862F642F0C949803862F642F0C9405042F
:100D5000662339F0FC0184819581009711F0615080
:100D6000F7CF0895FC0182819381009711F00C94D4
:100D7000A80690E080E00895EF92FF920F931F93F2
:100D8000CF93DF9360E080912804909129040E9422
:100D9000B206C0E00097E1F000913C0410E0D09171
:100DA0003A04D170E0903404F12CC0E0FC012781BA
:100DB000A80102C0559547952A95E2F740FD02C06B
:100DC000DD2371F0F39461E00E94A806009771F7AB
:100DD0008C2FDF91CF911F910F91FF90EF9008958D
:100DE000EF1488F3CF5FEFCF0F931F93CF93DF9371
:100DF00060E080912804909129040E94B206C0E02E
:100E00000097D1F000913C0410E0D0913A04D170E9
:100E1000C0E0FC012781A80102C0559547952A959D
:100E2000E2F740FD01C0D111CF5F61E00E94A8064A
:100E3000009779F7C111C1508C2FDF91CF911F918D
:100E40000F9108950E94F406809337049091340422
:100E500020913504921B891740F0909336048091BD
:100E60003A04806280933A04089580933604F7CF61
:100E7000DC011296ED91FC911397309769F0248173
:100E800035812115310531F475836483FB0191832C
:100E900080830895F901F3CF13967C936E93129794
:100EA000F5CFCF92DF92EF92FF920F931F93CF93E4
:100EB000DF93FC01C48121E02093E402C09311027E
:100EC00010920803109207038485682B8DE793E046
:100ED0000E941703D0910703D13208F092C00E94FC
:100EE00041046B017C0180915703811165C082E050
:100EF0008093570381E0809359038FEF80935603CB
:100F000010927B03D0937A03A4ECB2E0EAE5F3E01D
:100F100080E0D81385C010927C0380917C03CC0FB5
:100F2000C82BC0937C0380915803813009F07CC0AA
:100F3000109258030E9441046B017C0180917C0354
:100F40008093BB0080910A0390910B03A0910C0346
:100F5000B0910D03892B8A2B8B2B99F00E944104B1
:100F600000910A0310910B0320910C0330910D03A3
:100F70006C197D098E099F0906171707280739077D
:100F8000E0F18091BC0083FDD9CF85EC8093BC005B
:100F90000E9441046B017C0180915703823009F467
:100FA00045C0809156038F3F61F180915603803296
:100FB00041F18091560325C080910A0390910B0363
:100FC000A0910C03B0910D03892B8A2B8B2B09F474
:100FD0008ACF0E94410400910A0310910B032091D3
:100FE0000C0330910D036C197D098E099F090617BA
:100FF00017072807390708F076CF809109030E9468
:10100000E40310920803109207031092E402DF91A8
:10101000CF911F910F91FF90EF90DF90CF900895A7
:101020009D9191938F5F75CF85EEB0CF80910A032C
:1010300090910B03A0910C03B0910D03892B8A2B87
:101040008B2B09F4A9CF0E94410400910A0310914F
:101050000B0320910C0330910D036C197D098E094F
:101060009F09061717072807390708F095CFC5CF3E
:10107000089590E080E008950895089508950895F2
:101080000895089508950895089508950895089578
:101090000895089508950895089508950895089568
:1010A000DC01AA0FBB1FAA0FBB1FAA5ABD4F880F96
:1010B000991F880F991FFC01E25BFD4F218D328D36
:1010C000438D548D59966D917D918D919C915C9736
:1010D0000E946C370895DC01ED91FD918081ED91C6
:1010E000FD919081ED91FD916C9163708E2309F0DB
:1010F00064609F2309F06860E8E8F8E0E60FF11DFE
:10110000659565956D936D917D918D919D910994F6
:1011100023C01AC012C016C010C01EC009C014C01F
:1011200013C006C019C009C00DC007C00DC014C04F
:1011300062507040804090400BC0615070408040D1
:10114000904006C06E5F01C06F5F7F4F8F4F9F4F13
:101150009E938E937E936E9308958091E00190917B
:10116000E1010C946B088091E2019091E3010C94F1
:101170006B08DF92EF92FF920F931F93CF93DF9351
:10118000C0913504D0912D040E94F4068093370459
:101190006C2F80912804909129040E94B2068C0142
:1011A000892B09F46EC080913A0482FD61C0E6E0AB
:1011B000F5E086E294E050E24FEF30E020E0DC0121
:1011C000A20FB31F58965C932F5F3F4F2431310518
:1011D000B1F74193449624E08E3E920771F734E1D3
:1011E000D32EDC0F80913C0490E0D80117962C910F
:1011F000179702C0959587952A95E2F780FF29C039
:101200001696EC918E2F90E0880F991FE0912A049A
:10121000F0912B04E80FF91F65917491EC2EF12CDD
:10122000809135049701281B3109D29EC001D39EBD
:10123000900D1124825C9B4F0E94D92EF80186816B
:1012400090913504F701E91BF109EA5FFA4F8083B9
:10125000CF5F61E0C8010E94A8068C01892B19F0BC
:10126000CD1708F4BFCF80913A04806480933A048C
:10127000DF91CF911F910F91FF90EF90DF900C9431
:1012800022070E94BA09F4CF0F931F93CF930091C6
:10129000280410912904C0913404CC2351F06C2F00
:1012A000C8010E94B206892B21F4C150C0933404B6
:1012B000F2CF8091350420912D04280F3327331F5E
:1012C000C217130644F08F5F80933504CF911F91AE
:1012D0000F910C94B908C81710F48150F5CFCF9135
:1012E0001F910F910C9422070F931F93CF93DF93BD
:1012F000109235049093290480932804E0913804D7
:10130000E63088F480913A0487FD13C0AE2FB0E038
:10131000AA5DBB4F8091340418968C93EF5FE093E5
:10132000380410923404DF91CF911F910F910C94E7
:10133000B9088F7780933A04EE23A9F3E150E09344
:101340003804F0E0EA5DFB4FC085C093340480911F
:101350002D04C81740F3D0E08150990BC81BD90B5E
:1013600010E000E00C171D07F4F60E9444090F5F1F
:101370001F4FF8CF80913804882391F080913A0470
:10138000806880933A048091280490912904FC019C
:10139000208131812115310509F0C9010C947409AE
:1013A000089580913D048F3F59F080913A04826006
:1013B00080933A04809139048062809339040895BF
:1013C0000C94BA09EF92FF920F931F93CF93DF9380
:1013D00080913D048F3F09F03FC000912804109197
:1013E0002904C09134040E94BC066C2F680FC80108
:1013F0000E94B206EC01009779F10E94740960E046
:10140000CE010E94B2060097E1F0E0903C04F12C7E
:1014100000913A04017010E061E00E94A806009774
:1014200071F0FC012781A70102C0559547952A95C7
:10143000E2F740FD02C0002379F31F5FEDCF1111E9
:101440000BC08E8180933D04DF91CF911F910F914E
:10145000FF90EF900C94F406DF91CF911F910F91C4
:10146000FF90EF900895282F90913D049F3FB1F594
:10147000823029F1833009F041C0809134048823FF
:1014800029F08150809334040C94440980913B04EA
:1014900080FF34C0809137048093340490912D04F0
:1014A000482F491B550B57FF03C01092350403C04A
:1014B000891B809335040E9444090C94B9088091DB
:1014C000340490913704891710F48F5FDBCF80913B
:1014D0003B0480FF13C010923404E7CF81E090E01A
:1014E000A0E0B0E004C0880F991FAA1FBB1F2A9577
:1014F000D2F720913904822B809339040895CF923A
:10150000DF92FF920F931F93CF93DF938C01D62F1F
:1015100080913A04846080933A04FF24FA9460E056
:10152000C8010E94B2066C01892B41F10E94E209B8
:10153000F60186818D1769F1F0923D046D2FC60189
:101540000E947F0AC82F813021F1F0923D040E9451
:10155000BA0982E00E94330A61E0C8010E94A8062D
:101560008C01892B11F0CC23D1F28C2FDF91CF91FC
:101570001F910F91FF90DF90CF900895F801868121
:10158000D81739F0F0923D0482E00E94330AC0E09F
:10159000E3CF80913A048B7F80933A04C1E0E5CF9A
:1015A0006115710579F0FB0101900020E9F7319791
:1015B000AF01461B570BDC01ED91FC910280F381DA
:1015C000E02D099490E080E008950F931F93CF934E
:1015D0008C01C62F0E9451076C2F6460C8010E94C5
:1015E00051076C2F6B7FC8010E94510783EC90E07C
:1015F0000197F1F7CF911F910F9108950F931F93CA
:10160000CF93DF938C01D62FC42F607F642B0E9471
:10161000E50A80E1D89FB00111246C2BC801DF914D
:10162000CF911F910F910C94E50ACF93DF93CDB723
:10163000DEB728970FB6F894DEBF0FBECDBF98E097
:10164000ECE2F1E0DE01119601900D929A95E1F73E
:1016500090917805961710F46FEF690F262F30E000
:10166000220F331F41E050E04C0F5D1F240F351F48
:10167000F9016081680F606840E080E795E0289696
:101680000FB6F894DEBF0FBECDBFDF91CF910C94A3
:10169000FE0ACF93DF93EC016A8188810E94150BCB
:1016A000BE016C5F7F4F80E795E00E94D00A0D88F5
:1016B000DE89C02DC031D10544F46AE971E080E7CC
:1016C00095E00E94D00A2196F5CFDF91CF91089541
:1016D0001092AB051092AA05E9E9F5E080E1DF017F
:1016E0001D928A95E9F785E995E00C94490B0F93D3
:1016F0001F93CF93DF93CDB7DEB760970FB6F89403
:10170000DEBF0FBECDBF8E010F5F1F4F22E041E055
:101710000E94B72E09E915E0F80101900020E9F7D1
:10172000CF018A59954040E150E0481B590BBE015A
:101730006F5F7F4F87569A4F0E94F838F8010190EB
:101740000020E9F78F010A5915401093AB0500936B
:10175000AA0503581A4FF801148E85E995E00E94F6
:10176000490B60960FB6F894DEBF0FBECDBFDF9178
:10177000CF911F910F9108950F931F93CF93DF93F4
:10178000EC018C010C5F1F4F40E150E0C8010E944A
:10179000F838F80101900020E9F73197E01BF10BD0
:1017A000FE8BED8BEC0FFD1F1482CE01DF91CF91EC
:1017B0001F910F910C94490B40E061E080E795E0A8
:1017C0000E94FE0A8BE39FE10197F1F78091790572
:1017D000882321F060E080E00C94150B08950E94AE
:1017E000DC0B60E080E00C94150B0F931F93CF93FC
:1017F000DF938091B10281FF62C08091BA0281FDC6
:1018000029C082608093BA0280913D0480930901CF
:10181000E82FF0E0EE0FFF1FE85DFD4FC081D181A2
:1018200098E0CE33D90709F04FC080913A04826026
:1018300080933A0480910B0190910C01A0910D01CD
:10184000B0910E018093B6029093B702A093B802B4
:10185000B093B9020E9498040091B6021091B702A9
:101860002091B8023091B902601B710B820B930B6F
:1018700000910B0110910C0120910D0130910E018E
:101880006017710782079307D0F00E949804609355
:10189000B6027093B7028093B8029093B902E091B8
:1018A0003D04EF3F49F0F0E0EE0FFF1FEE5EFD4F0D
:1018B0000190F081E02D099581E080930A01DF918C
:1018C000CF911F910F9108958F3F09F4B3CF0E94DC
:1018D000EF0B10923904FE010995ACCF40E062E0B5
:1018E00080E795E00E94FE0A8BE39FE10197F1F704
:1018F0000895CF93DF93823028F09091750598601A
:10190000909375058093780562E370E080E090E045
:101910000E94660460917C0580E795E00E94510773
:1019200068EE73E080E090E00E94660460E380E788
:1019300095E00E94E50ACBE4D6E4CE010197F1F7E9
:1019400060E380E795E00E94E50A2197F1F760E304
:1019500080E795E00E94E50A83E592E00197F1F7C0
:1019600060E280E795E00E94E50A6091750560629B
:1019700040E080E795E00E94FE0A84E080937605CF
:1019800040E06CE080E795E00E94FE0A0E94DC0BDC
:1019900082E08093770540E066E080E795E00E9472
:1019A000FE0ADF91CF910C946E0C41E00E94FE0A7A
:1019B00081E090E008950F931F93CF93DF938B0105
:1019C00098E0899FB0011124606440E080E795E0D1
:1019D0000E94FE0AE801085F1F4F699180E795E0C9
:1019E0000E94D50CC017D107C1F7DF91CF911F918D
:1019F0000F9108958F929F92AF92BF92EF92FF92B4
:101A00000F931F93CF93DF930E946E0C80913D0440
:101A1000C0913A048F3F21F08C2F8A7009F460C086
:101A2000D0913704DF5FFD2ED23010F082E0F82E27
:101A3000E09034040E94BC06982EC874C9F00E943D
:101A4000EF0B06E214E0C0E0580124E1A20EB11C45
:101A5000CF1571F06C2F81E00E94150BB801685E04
:101A60007F4F80E795E00E94D00ACF5F8501ECCFE1
:101A700080913A0485FF34C0C0E0CF1519F16C2F76
:101A800080E00E94150B809136046EE7C81360E277
:101A900080E795E00E94D50C6C2F8FE0FD1648F48E
:101AA0000E94150B60E080E795E00E94D50CCF5FA7
:101AB000E4CF0E94150B41E060E280E795E00E94D0
:101AC000FE0AF5CFCD1760F48E2D890DC9F460E0C4
:101AD0008FE00E94150B61E080E795E00E94D50C35
:101AE00080913A04877980933A04DF91CF911F91D6
:101AF0000F91FF90EF90BF90AF909F908F900895BF
:101B00002D2F2150330B8901E82EF12C2E153F0586
:101B100039F46FEF6C0F8FE00E94150B64E0DCCF9F
:101B20006C2F70E090E080E00E9481359B01AC0159
:101B30000E946C374B015C01B801110F880B990BA7
:101B40000E9481359B01AC01C501B4010E94EF37B1
:101B50004B015C01B701FF0C880B990B0E9481358A
:101B60009B01AC01C501B4010E94E0350E946838B8
:101B7000862F6C2F0E941837C92F682F8FE00E9484
:101B8000150B61E06C0FA8CF85ED8093BC008091B0
:101B90000A0390910B03A0910C03B0910D030796DB
:101BA000A11DB11D23E0B695A795979587952A9518
:101BB000D1F72091BC0024FD03C010925703089573
:101BC00040910A0350910B0360910C0370910D0337
:101BD000452B462B472B69F30097A105B10541F032
:101BE0002AE22A95F1F700C00197A109B109E1CFD6
:101BF000809109030C94E4032F923F924F925F92DD
:101C00006F927F928F92AF92BF92CF92DF92EF92BC
:101C1000FF920F931F93CF93DF93CDB7DEB7A897B3
:101C20000FB6F894DEBF0FBECDBF270138014F5F5E
:101C30005F4F623071050CF479C03F932F935F932F
:101C40004F937F936F9301969F938F9384E692E0D7
:101C50009F938F931F9284E18F9381E090E08C0F8C
:101C60009D1F9F938F930E94242F0FB6F894DEBF81
:101C70000FBECDBFBE016F5F7F4F8DE795E00E9425
:101C8000BC0B1E0195E1290E311C810121E041E0D0
:101C9000C301B2010E94B72E7E018FE1E80EF11C54
:101CA000870121E041E0C601B5010E94B72E8CE911
:101CB00091E0811002C087EA91E09F938F93FF9299
:101CC000EF923F922F928CE492E09F938F931F921A
:101CD00084E18F9381E090E08C0F9D1F9F938F9301
:101CE0000E94242FBE016F5F7F4F85E995E00E941F
:101CF000BC0B0FB6F894DEBF0FBECDBFA8960FB6D3
:101D0000F894DEBF0FBECDBFDF91CF911F910F9131
:101D1000FF90EF90DF90CF90BF90AF908F907F902B
:101D20006F905F904F903F902F9008953F932F9327
:101D30005F934F9389E592E09F938F931F9284E185
:101D40008F9381E090E08C0F9D1F9F938F930E9453
:101D5000242F8BCFEF92FF920F931F93CF93DF939C
:101D600000D000D0CDB7DEB77C01809134019091D6
:101D70003501A0913601B091370189839A83AB83F5
:101D8000BC83F701EE0FFF1FEC0FFD1F6181728115
:101D900085E995E00E94BC0B09E915E0F801019086
:101DA0000020E9F7CF018A59954040E150E0481BF7
:101DB000590B6BE074E087569A4F0E94E92EF801A8
:101DC00001900020E9F78F010A5915401093AB05E7
:101DD0000093AA0503581A4FF801148E85E995E07F
:101DE0000E94490BC7010E9450080F900F900F905E
:101DF0000F90DF91CF911F910F91FF90EF900C9476
:101E0000770B0F931F93CF93DF93EC018C010C5F43
:101E10001F4F40E150E0C8010E94E92EF8010190F7
:101E20000020E9F73197E01BF10BFE8BED8BEC0FF7
:101E3000FD1F1482CE01DF91CF911F910F910C9461
:101E4000490BCF92DF92EF92FF920F931F93CF93A4
:101E5000DF93CDB7DEB7C054D1090FB6F894DEBF1B
:101E60000FBECDBF6C018B01F42EE22E89E893E00A
:101E70000E947B050196D1F7012E000C220B330B3B
:101E800000938D0310938E0320938F033093900360
:101E9000B60189E893E00E94D00A65EA71E089E81A
:101EA00093E00E94D00A21E0EE20A1F18E010F5FA5
:101EB0001F4FF1100FC080E4F80111928A95E9F7E5
:101EC00060E470E0C8010E948F051816190684F0BE
:101ED00020E020C080E4F80111928A95E9F760E4DF
:101EE00070E0C8010E948F051816190624F3F0CF80
:101EF000F80101900020E9F73197E01BF10BEC0F9E
:101F0000FD1F108268EA71E0C8010E94EF3821E0ED
:101F1000892BF1F6822FC05CDF4F0FB6F894DEBF3D
:101F20000FBECDBFDF91CF911F910F91FF90EF902A
:101F3000DF90CF90089521E040E068EB7BE08BEAF2
:101F400091E00C94210F7F928F929F92AF92BF925B
:101F5000CF92DF92EF92FF920F931F93CF93DF9375
:101F6000CDB7DEB7A8970FB6F894DEBF0FBECDBFD2
:101F70007C01CB01BA0187010E5F1F4F000F111FBB
:101F8000000F111FF801E25BFD4F218D328D438D53
:101F9000548D0E946B375B016C0120E030E0A90199
:101FA0000E947A3587FD74C0F801E25CFD4F8080A5
:101FB0009180028113819501A601B401C8010E949C
:101FC0007A35712C87FF04C054016801772473941B
:101FD0004E012FE1820E911C840122E041E0B50107
:101FE000C6010E94B72E8091340190913501A091D5
:101FF0003601B091370189839A83AB83BC830E513C
:102000001109F701EE0FFF1FE00FF11F8081918191
:102010009F928F929F938F938CE192E09F938F93E7
:102020001F928EE18F931F930F930E94242F20E025
:1020300040E068EE73E0C8010E94210F0FB6F894EB
:10204000DEBF0FBECDBF882379F0F701EE0FFF1F73
:10205000EE0FFF1FE25BFD4FC501D601818F928F0E
:10206000A38FB48F81E08725A8960FB6F894DEBFC2
:102070000FBECDBFDF91CF911F910F91FF90EF90D9
:10208000DF90CF90BF90AF909F908F907F900895FA
:1020900077247394A12CB12CC12CD12C99CF5F92B1
:1020A0006F927F928F929F92AF92BF92CF92DF9268
:1020B000EF92FF920F931F93CF93DF93CDB7DEB7CD
:1020C000C456D1090FB6F894DEBF0FBECDBF7C0158
:1020D00089E893E00E947B050196D1F788EE93E0B2
:1020E000A0E0B0E080938D0390938E03A0938F03C4
:1020F000B09390036FEA71E089E893E00E94D00A00
:1021000065EA71E089E893E00E94D00A8E010F5FD2
:102110001F4F84E6F80111928A95E9F764E670E0B2
:10212000C8010E948F05181619060CF056C0F80158
:1021300001900020E9F73197E01BF10BEC0FFD1F38
:10214000108261EB71E0C8010E94F82E10E000E0FF
:102150003701FFEF6F1A7F0A570125E0A20EB11C6D
:102160004701E9E08E0E911C55245394009709F421
:1021700050C00230110509F448C07CF40115110566
:10218000D9F00130110519F160EC71E090E080E0C8
:102190000E94F82E0F5F1F4FE9CF03301105B9F1F0
:1021A00064010430110581F70E94D52EF601608389
:1021B000718382839383E8CFF701108266EB71E02D
:1021C0000E94EF38892B01F7F7015082DDCF6BEBCE
:1021D00071E00E94EF38892BB9F280E0CC59DF4FD3
:1021E0000FB6F894DEBF0FBECDBFDF91CF911F9128
:1021F0000F91FF90EF90DF90CF90BF90AF909F90A6
:102200008F907F906F905F9008956301CDCF6501AF
:10221000CBCF81E0E3CF4F925F926F927F929F92FC
:10222000AF92BF92CF92DF92EF92FF920F931F93E4
:10223000CF93DF93CDB7DEB7EF970FB6F894DEBF3D
:102240000FBECDBF29013A012EE1922E9E012F5FD4
:102250003F4F7901F901292D11922A95E9F76E0175
:102260003CE2C30ED11C860122E041E00E94B72E61
:102270005E0186E3A80EB11C850122E041E0C301A6
:10228000B2010E94B72EBF92AF92DF92CF928EE042
:1022900094E09F938F931F929F92FF92EF920E94E0
:1022A000242F21E040E068EE73E0C7010E94210F77
:1022B0000FB6F894DEBF0FBECDBF882321F0CE014C
:1022C0004F960E944F10EF960FB6F894DEBF0FBEE8
:1022D000CDBFDF91CF911F910F91FF90EF90DF90D5
:1022E000CF90BF90AF909F907F906F905F904F90F6
:1022F00008950F931F93CF93DF9384E080934E0252
:102300000EE412E0D0E0C0E0CE010E94B136F80148
:1023100061918F01861719F0CE010E94B93621967E
:10232000C934D10589F7DF91CF911F910F9108959D
:10233000CF93DF939C01CB01BA01E901CC0FDD1FE4
:10234000CC0FDD1FCA5ADD4F220F331F220F331F60
:10235000F901E25BFD4F218D328D438D548D0E943A
:102360006B37698F7A8F8B8F9C8FDF91CF910C9415
:1023700079113F924F925F926F927F928F929F92CC
:10238000AF92BF92CF92DF92EF92FF920F931F9383
:10239000CF93DF93CDB7DEB7C354D1090FB6F8940E
:1023A000DEBF0FBECDBF24966CAF7DAF8EAF9FAFAB
:1023B000249749015A01302E20916F02309170020A
:1023C00040917102509172020E946B376B017C0147
:1023D00020E030E0A9010E947A3587FF1BC0F12C74
:1023E0008F2DCD5BDF4F0FB6F894DEBF0FBECDBF94
:1023F000DF91CF911F910F91FF90EF90DF90CF90E1
:10240000BF90AF909F908F907F906F905F904F9014
:102410003F90089520914602309147024091480232
:1024200050914902C701B6010E94D8381816BCF273
:10243000209173023091740240917502509176029E
:10244000C501B4010E946B372B013C0120E030E054
:10245000A9010E947A3587FDC2CF20914A023091AE
:102460004B0240914C0250914D02C301B2010E94B7
:10247000D83818160CF4B3CF3E018CE2680E711CEC
:10248000830122E041E0C701B6010E94B72E7E0120
:1024900096E3E90EF11C2091730230917402409191
:1024A000750250917602C501B4010E946B37870115
:1024B00022E041E00E94B72EFF92EF927F926F924E
:1024C0008EE292E09F938F931F928EE18F9305533C
:1024D00011091F930F930E94242F232D40E060E1E8
:1024E00077E2C8010E94210FF82E0FB6F894DEBFE4
:1024F0000FBECDBF882309F472CF20916F023091B7
:102500007002409171025091720224966CAD7DADC3
:102510008EAD9FAD24970E946B37609367027093D6
:1025200068028093690290936A022091730230914D
:1025300074024091750250917602C501B4010E9467
:102540006B3760936B0270936C0280936D02909373
:102550006E020E947911332009F442CFCE014F96CA
:102560000E944F108823D1F3FF8CF11039CF64E61D
:1025700070E080E090E00E946604F0CFCF92DF929E
:10258000EF92FF920F936B017C0190E080E00E943C
:10259000500801E0A70196010E94B9110F91FF9028
:1025A000EF90DF90CF9008950F9381E090E00E942C
:1025B00050089B01AC0101E060E070E080E291EC2A
:1025C0000E94B91190E080E00E94500820E030E0C5
:1025D00040E251EC0E94B911E6E2F4E084898260A5
:1025E000848B0F910895CF92DF92EF92FF920F9319
:1025F0006B017C0181E090E00E9450089B01AC01DE
:1026000001E0C701B6010E94B9110F91FF90EF9050
:10261000DF90CF9008957F928F929F92AF92BF925A
:10262000CF92DF92EF92FF920F931F93CF93DF939E
:102630004B015C01F22E132FD42FC52FAC019B014F
:1026400060910C0270910D0280910E0290910F0228
:102650000E947A3587FD1AC001E02F2D312F4D2FB2
:102660005C2FC501B4010E94B91181114CC080E0FA
:10267000DF91CF911F910F91FF90EF90DF90CF905E
:10268000BF90AF909F908F907F9008952F2D312F06
:102690004D2F5C2F609108027091090280910A020F
:1026A00090910B020E947A35882341F120914202D9
:1026B0003091430240914402509145026F2D712F99
:1026C0008D2F9C2F0E946B37762EC72ED82EE92E89
:1026D00020913E0230913F024091400250914102D0
:1026E000C501B4010E946C3700E0272D3C2D4D2D13
:1026F0005E2D0E94B9118111AFCFB9CF7F2CC12EB1
:10270000DD2EEC2EE5CF80920C0290920D02A0926D
:102710000E02B0920F024F2D512F6D2F7C2F409340
:1027200008025093090260930A0270930B02A0CF33
:102730001F93CF93DF93CDB7DEB72F970FB6F894E3
:10274000DEBF0FBECDBF85E88E871F8621E041E04A
:1027500068EE73E0CE010E960E94210F11E08823EF
:1027600009F1CE0101960E944F10182F8823D1F055
:102770008E819F81A885B9858093670290936802B6
:10278000A0936902B0936A028A859B85AC85BD855A
:1027900080936B0290936C02A0936D02B0936E02D3
:1027A0000E947911812F2F960FB6F894DEBF0FBECD
:1027B000CDBFDF91CF911F9108950F931F93CF93BA
:1027C000DF93CDB7DEB7C954D1090FB6F894DEBF99
:1027D0000FBECDBF49E450E070E060E0CE0101964D
:1027E0000E94A1368981843009F470C040E050E035
:1027F00060E271E44A835B836C837D8380E090E0D8
:10280000ABE9B3E48E839F83A887B98780E090E02B
:10281000A4E8B2E48A879B87AC87BD8780E090E01C
:10282000A0E8BFE38E879F87A88BB98B8A8B9B8B91
:10283000AC8BBD8B00E010E020E731E40E8B1F8BEA
:10284000288F398F22968CAF9DAFAEAFBFAF229746
:1028500080E090E0A0E9B1E48AAF9BAFACAFBDAF40
:1028600080E090E0AAE7B3E42A968CAF9DAFAEAFCC
:10287000BFAF2A9726961CAE1DAE1EAE1FAE269782
:102880000DEC1CEC2CEC3DE30EA71FA728AB39ABDD
:102890004AA75BA76CA77DA78EAB9FABA8AFB9AFCC
:1028A0001AAA1BAA1CAA1DAA1A8E1B8E1C8E1D8E6C
:1028B0001E8E1F8E18A219A21AA21BA21CA21DA254
:1028C0001EA21FA218A619A60E94791189E4FE0172
:1028D0003196AEE4B2E001900D928A95E1F7C75BC4
:1028E000DF4F0FB6F894DEBF0FBECDBFDF91CF91A3
:1028F0001F910F910895CF92DF92EF92FF920F9365
:102900001F93CF93DF938C017B01FC016281808157
:102910000E94150BC7010E94E02E6C01D0E0C0E0C0
:10292000CC15DD055CF4F701EC0FFD1F649141E06F
:1029300080E795E00E94FE0A2196F2CFF801C58952
:10294000D689C031D10544F46AE971E080E795E0A9
:102950000E94D00A2196F5CFDF91CF911F910F9160
:10296000FF90EF90DF90CF9008956F927F928F92BB
:102970009F92AF92BF92CF92DF92EF92FF920F930E
:102980001F93CF93DF9380910002811173C062E0A7
:1029900082E00E94050462E083E00E940504E1E415
:1029A000F4E0E491F0E0EE0FFF1FEB5CFB4FA5912C
:1029B000B491B093F501A093F401E5E5F4E04491FE
:1029C0004093F801E2E4F4E0E491F0E0EE0FFF1F41
:1029D000EB5CFB4FC591D491D093F701C093F60106
:1029E000E6E5F4E0E491E093F9011092FB01109226
:1029F000FC011092FD011092FE012BE33FE1C901A1
:102A00000197F1F79C91842F892391E009F490E0DC
:102A10008881E82309F0926024EF31E09093FA0175
:102A20003093E1012093E0018DEA98E09093050155
:102A300080930401809169008C7F8160809369009C
:102A4000E89A91E09093FF013093E3012093E20133
:102A500023EB38E030930701209306018091690051
:102A6000837F846080936900E99A82E08093FF010C
:102A7000909300028091EC01811112C081E10E94CB
:102A80006F03092E000CAA0BBB0B8093E8019093F7
:102A9000E901A093EA01B093EB0181E08093EC019E
:102AA00081E10E946F03482F50E070E060E00091E8
:102AB000E8011091E9012091EA013091EB01401702
:102AC000510762077307B1F14093E8015093E901A0
:102AD0006093EA017093EB0181112CC080913D0459
:102AE0008F3F09F457C08091390480618093390485
:102AF0000E94980480913D048F3F99F00E949804B1
:102B00006F5F7F4F8F4F9F4F6093B6027093B702F6
:102B10008093B8029093B9028091B1028260809351
:102B2000B1028091390485FD05C08F7D8093390401
:102B30000E94FA0C81E0809322060E949804009182
:102B40001206109113062091140630911506AB0160
:102B5000BC01401B510B620B730B80911E069091C0
:102B60001F06B0E0A0E084179507A607B70708F096
:102B7000B2C1C0E080911C06C81778F4E091180635
:102B8000F0911906EC0FF11D62E080810E940504AE
:102B9000CF5FF0CF0E94E209ABCF712C812C912C3A
:102BA0005401839480911D06781608F05FC0072DAC
:102BB00010E0E0911A06F0911B06E00FF11F61E0B2
:102BC00080810E940504E0911A06F0911B06E00F37
:102BD000F11F60E080810E949803D501C401072C99
:102BE00004C0880F991FAA1FBB1F0A94D2F76C015B
:102BF0007C01E094F094612C80911C066816F8F436
:102C0000C62DD0E0E0911806F0911906EC0FFD1FDB
:102C100080810E946F032496CC0FDD1FCA54DA4FC7
:102C2000892B41F4888199818C299D2999838883F6
:102C30006394E2CF888199818E219F21F7CFE09123
:102C40001A06F0911B06E00FF11F61E080810E94DF
:102C5000980380911A0690911B06080F191F60E0D7
:102C6000F80180810E94050473949CCF26EBC22E4C
:102C700025E0D22E82EF95E0E6012FEF3FEF4F8D5A
:102C800058A1452B21F41C8E3E8F2D8F19A226961C
:102C90008C179D07A1F710E096E0B92E80911C06D5
:102CA000181708F052C000E0E12EF12CEE0CFF1CCA
:102CB000970122543A4F790120911D06021708F01E
:102CC00042C0F70160817181002E02C07695679540
:102CD0000A94E2F7129F90011124200F311DE6EBB8
:102CE000F5E080E0458D568D2417350709F46EC157
:102CF0008F5F36968A30B1F760FF23C0E6EBF5E0D0
:102D000090E080E0448D411117C0E0911606F091EB
:102D10001706E20FF31F4081B89EF001B99EF00D37
:102D20001124EA54FA4F448F368F258F10A2178E44
:102D300061E00E94E10405C0019636968A30910553
:102D400009F70F5FB9CF1F5FA9CF10E0F60181A18E
:102D50008111182FF6E0CF0ED11CCC15DD05B1F78F
:102D60000E949804609312067093130680931406D1
:102D700090931506112309F4AEC08091D7058823DE
:102D800009F4A9C08091D5059091D605019709F065
:102D9000A2C08091D205109210028111A1C00E94A0
:102DA000A4048091B505882351F11092B5050E94C5
:102DB000A404811124C06BE172E08DE795E00E94CC
:102DC0007B146BE172E085E995E00E947B146BE077
:102DD00072E08DE795E00E947B140E94A404882392
:102DE000E1F38091B5058823C1F31092B5058DE715
:102DF00095E00E94490B85E995E00E94490B80917E
:102E0000FF01823008F0DEC0F89484EF91E00E9468
:102E10006B086091FB017091FC018091FD01909124
:102E2000FE01789422E030E040E050E00E94243738
:102E300069017A018091E4019091E501A091E60198
:102E4000B091E7018C159D05AE05BF05A9F1281BC2
:102E5000390B4A0B5B0BDA01C901B7FFB5C082E041
:102E60000E94330A0E94980480913D048F3F99F09C
:102E70000E9498046F5F7F4F8F4F9F4F6093B60201
:102E80007093B7028093B8029093B9028091B10217
:102E900082608093B1028091390485FD05C08F7DE9
:102EA000809339040E94FA0CC092E401D092E501AB
:102EB000E092E601F092E701DF91CF911F910F912F
:102EC000FF90EF90DF90CF90BF90AF909F908F904A
:102ED0007F906F90089510922206109210025FCF9B
:102EE000853689F044F48A3009F45FC0843699F15C
:102EF0008093100254CF823709F455C0853709F406
:102F000050C08C36A9F781E00E94330A0E949804D1
:102F100080913D048F3F99F00E9498046F5F7F4F2E
:102F20008F4F9F4F6093B6027093B7028093B802A1
:102F30009093B9028091B10282608093B102809136
:102F4000390485FD05C08F7D809339040E94FA0CF9
:102F50000E94D10903C082E00E94330A0E949804B3
:102F600080913D048F3F99F00E9498046F5F7F4FDE
:102F70008F4F9F4F6093B6027093B7028093B80251
:102F80009093B9028091B10282608093B1028091E6
:102F9000390485FD04CF8F7D809339040E94FA0C9B
:102FA000FECE83E0D9CF80E0D7CF80913D048F3F24
:102FB00031F080913904806180933904CFCF0E9431
:102FC000E209CCCFF89425CF83E04ACF6170B1CE2F
:102FD000CF92DF92EF92FF928091B10280FF56C0B4
:102FE0008091BA0280FD28C081608093BA02C12C12
:102FF000D12C7601C394C0920001D0920101E092DD
:103000000201F092030162E082E00E94050462E0A6
:1030100083E00E94050462E081E10E94050462E011
:103020008091AD050E940504C092B202D092B30215
:10303000E092B402F092B5020E949804C090B202ED
:10304000D090B302E090B402F090B5026C197D0903
:103050008E099F09C0900001D0900101E09002010B
:10306000F09003016C157D058E059F0578F00E9498
:1030700098046093B2027093B3028093B402909369
:10308000B5020E94B51481E080930A01FF90EF9091
:10309000DF90CF9008952F923F924F925F926F9260
:1030A0007F928F929F92AF92BF92CF92DF92EF92D8
:1030B000FF920F931F93CF93DF93CDB7DEB7609747
:1030C0000FB6F894DEBF0FBECDBF1C014A015B01F5
:1030D00028013901FC0160817181828193818E0117
:1030E0000F5F1F4F22E041E00E94B72EB80185E933
:1030F00095E00E94BC0B81E08093AC05809139047F
:103100008D7E809339040E94B5148091390481FF2B
:103110001FC08D7F809339040E94680B80E0609609
:103120000FB6F894DEBF0FBECDBFDF91CF911F91D8
:103130000F91FF90EF90DF90CF90BF90AF909F9056
:103140008F907F906F905F904F903F902F90089559
:1031500084FF20C08F7E8093390489E995E00E9426
:10316000D52E6B017C01F101C082D182E282F38213
:10317000A30192010E94D838181674F2A501940197
:10318000C701B6010E947A3587FDC6CF0E94680B41
:1031900081E0C5CF10911002112309F4B4CF8091C2
:1031A000AC05882321F01092AC050E94680B809139
:1031B000AA059091AB058F3091057CF49C012F5F9F
:1031C0003F4F3093AB052093AA0583589A4FFC01DB
:1031D000148F23583A4FF901148E85E995E00E9427
:1031E000490B109210028FCF0F931F936BED73E07A
:1031F0008DE795E00E94010F00E010E020E732E447
:1032000040E050E0BA0187E792E00E944B1881113C
:1032100008C080913A04826080933A041F910F9114
:1032200008956AEC73E08DE795E00E94010F00E0DD
:1032300010E020E231E440E050E0BA018BE792E098
:103240000E944B18882329F36DEB73E08DE795E01E
:103250000E94010F609153027091540280915502B7
:10326000909156029B01AC010E946C378B019C012E
:1032700040E050E0BA0183E892E00E944B188823B6
:1032800041F26EEA73E08DE795E00E94010F009134
:103290005702109158022091590230915A0240E091
:1032A00050E0BA018FE792E00E944B18882309F49E
:1032B000B0CF6EE973E08DE795E00E94010F0091B9
:1032C0005702109158022091590230915A0240E061
:1032D00050E0BA0183E692E00E944B18882309F47B
:1032E00098CF0E94791195CF0F931F938091390445
:1032F00081FF05C080913A04826080933A046AE0BD
:1033000073E08DE795E00E94010F00E010E020EAF5
:1033100030E440E050E0BA018BE592E00E944B18A7
:10332000811108C080913A04826080933A041F9111
:103330000F9108956DEF72E08DE795E00E94010F07
:1033400000E010E020EA30E440E050E0BA018FE510
:1033500092E00E944B18882329F36FEE72E08DE70C
:1033600095E00E94010F00E010E02AEF34E440E015
:1033700050E0BA0183E592E00E944B18882391F255
:1033800061EE72E08DE795E00E94010F00E010E031
:1033900028EC32E440E050E0BA0187E592E00E9478
:1033A0004B18882309F4BECF0E9479110E94DD13C7
:1033B000B9CF48E1469F9001479F300D1124BC01D1
:1033C000C90183589A4F0E94010F0E94B514809141
:1033D000390484FF05C08F7E8093390481E008950D
:1033E00081FFF3CF8D7F8093390480E00895CF92E1
:1033F000DF92EF92FF9261E070E082E593E00E943D
:10340000D9198823F1F121E041E068EA71E686EC00
:1034100091E00E94210FC0905302D0905402E0909E
:103420005502F090560220E030E0A901C701B60134
:103430000E940B11882391F0C0926702D09268021B
:10344000E0926902F0926A0210926B0210926C0292
:1034500010926D0210926E020E94791140E050E0CD
:10346000BA0181E090E00E9498114091530250917E
:103470005402609155027091560290E080E00E94E3
:10348000981161E070E087E493E00E94D9198823E5
:1034900039F020E030E0A901CA01B9010E940B1304
:1034A00080913A04826080933A04FF90EF90DF901D
:1034B000CF9008952F923F924F925F926F927F929A
:1034C0008F929F92AF92BF92CF92DF92EF92FF9234
:1034D0000F931F93CF93DF93CDB7DEB7C25AD109B5
:1034E0000FB6F894DEBF0FBECDBFCF56DF4F998326
:1034F0008883C159D040C157DF4F79836883CF5843
:10350000D040CF55DF4F59834883C15AD040C7566A
:10351000DF4F088319832A833B83C959D0403090F9
:103520004F0220915002EA962FAFEA973091510254
:10353000EC963FAFEC9740915202EE964FAFEE976C
:1035400020E030E0A901632DEA967FADEA97EC9682
:103550008FADEC97EE969FADEE970E947A3588235B
:1035600009F4A8C140905302509054026090550253
:1035700070905602F12CE12CC157DF4F8881998160
:10358000CF58D040E816F9060CF036C2EDE0EE9DBB
:10359000D001EF9DB00D1124CD56DF4FB983A88324
:1035A000C359D040CF56DF4FC880D980C159D040D1
:1035B000CA0EDB1ED601BC91CB57DF4FB883C5586E
:1035C000D040F60101811281238084809580A680FD
:1035D000B7802085318542855385CB56DF4F2883C0
:1035E00039834A835B83C559D040A5019401632D7B
:1035F000EA967FADEA97EC968FADEC97EE969FAD8D
:10360000EE970E94D838181684F420E030E0A90123
:10361000CB57DF4F6881C558D040702F812F922D36
:103620000E947A35882309F479C6CB57DF4F288169
:10363000C558D040302F412F522DC501B4010E94F2
:103640006C37CF57DF4F688379838A839B83C15858
:10365000D040C756DF4F288139814A815B81C959E3
:10366000D040632DEA967FADEA97EC968FADEC974C
:10367000EE969FADEE970E946C379B01AC01CF5741
:10368000DF4F688179818A819B81C158D0400E9437
:10369000D83818160CF40EC1CF57DF4F2881398166
:1036A0004A815B81C158D040C301B2010E94D83821
:1036B00087FF34C6CF57DF4F288139814A815B812C
:1036C000C158D040C756DF4F688179818A819B817C
:1036D000C959D0400E946B37C356DF4F6883CD591C
:1036E000D040C256DF4F7883CE59D040C156DF4F0D
:1036F0008883CF59D040C056DF4F9883C05AD040FE
:10370000CB57DF4F2881C558D040302F412F522D45
:10371000C301B2010E947A3518167CF0CF57DF4FF3
:10372000288139814A815B81C158D040C301B201EF
:103730000E947A3518160CF011C6CB57DF4F28813E
:10374000C558D040302F412F522DC301B2010E94E5
:103750006B37CF57DF4F6883C158D040CA57DF4F10
:103760007883C658D040C657DF4F8883CA58D040A8
:10377000C557DF4F9883CB58D0409B01AC01C501A2
:10378000B4010E946B37B62EA72E982E892ECF57E4
:10379000DF4F2881C158D040CA57DF4F3881C65803
:1037A000D040C657DF4F4881CA58D040C557DF4F79
:1037B0005881CB58D040632DEA967FADEA97EC96BE
:1037C0008FADEC97EE969FADEE970E94D838181605
:1037D000ECF4CF57DF4F3882C158D040EA96BFADE6
:1037E000EA97CA57DF4FB883C658D040EC96EFAD82
:1037F000EC97C657DF4FE883CA58D040EE96FFAD2E
:10380000EE97C557DF4FF883CB58D0402B2D3A2D7C
:10381000492D582D632DEA967FADEA97EC968FAD32
:10382000EC97EE969FADEE970E94D83818160CF4E0
:10383000B0C5CB57DF4F8881C558D040902FA12FFE
:10384000B22DF60180839183A283B383CF57DF4FDC
:103850008881C158D040CA57DF4F9881C658D040A0
:10386000C657DF4FA881CA58D040C557DF4FB8812F
:10387000CB58D04084839583A683B783CB56DF4F44
:10388000288139814A815B81C559D04020873187A1
:10389000428753871486CF55DF4FE881F981C15A9B
:1038A000D040C157DF4F28813981CF58D0402E17E3
:1038B0003F075CF168E273E08DE795E00E94010F3D
:1038C00068EE73E080E090E00E94660480913A0424
:1038D000826080933A04CE55DF4F0FB6F894DEBF76
:1038E0000FBECDBFDF91CF911F910F91FF90EF9051
:1038F000DF90CF90BF90AF909F908F907F906F9010
:103900005F904F903F902F900895CD56DF4F0881E4
:103910001981C359D040035F1F4FCF56DF4F288115
:103920003981C159D040020F131FC157DF4F888121
:103930009981CF58D0408E199F0901973DE0389F5B
:10394000A001399F500D1124CD56DF4F88819981F8
:10395000C359D0404A96B801CF56DF4FA881B981EC
:10396000C159D0408A0F9B1F0E94DD38C356DF4FDC
:103970008881CD59D040C256DF4F9881CE59D04072
:10398000C156DF4FA881CF59D040C056DF4FB88114
:10399000C05AD040F80180839183A283B3838B2DDA
:1039A0009A2DA92DB82D84839583A683B783CB56F2
:1039B000DF4F288139814A815B81C559D040D801C8
:1039C0002087318742875387E1E01C96EC93FFEF15
:1039D000EF1AFF0AC157DF4F28813981CF58D040F5
:1039E0002F5F3F4FC157DF4F39832883CF58D040D7
:1039F0003FEFE31AF30AC0CD512C412C41E0CB57E5
:103A0000DF4F4883C558D040EB961FAE1EAEEB97F4
:103A1000ED961FAE1EAEED97C157DF4F888199819D
:103A2000CF58D0400197CD56DF4F99838883C35933
:103A3000D04051C4CD56DF4FE881F981C359D04001
:103A4000ED962EAD3FADED972E173F070CF059C404
:103A50002F5F3F4FED963FAF2EAFED9781E0EB9696
:103A60001FAE1EAEEB979B7F9093390431E0C65793
:103A7000DF4F3883CA58D0409091390493FF14C067
:103A8000EB96AEADBFADEB971097A9F11197EB9602
:103A9000BFAFAEAFEB97977F90933904F1E0C65775
:103AA000DF4FF883CA58D0409091390494FF0FC07B
:103AB0009F7E9093390421E0C657DF4F2883CA5870
:103AC000D04031E0CB57DF4F3883C558D04090917C
:103AD000390491FF1EC09D7F90933904F7CECB57D8
:103AE000DF4F4881C558D040C657DF4F4883CA587A
:103AF000D040842FC1CFED96EEADFFADED971E16F1
:103B00001F064CF63197ED96FFAFEEAFED9781E0D3
:103B1000C2CF882309F4BBC2C0904F02D09050029C
:103B2000E0905102F090520220E030E0A901C7017C
:103B3000B6010E947A35882309F4A0C28DE0ED9683
:103B40004EAD5FADED97849FF001859FF00D112480
:103B5000CF56DF4FA881B981C159D040EA0FFB1F72
:103B60002091630230916402409165025091660297
:103B7000CF57DF4F288339834A835B83C158D040B6
:103B800080819181A281B381CA57DF4F8883998355
:103B9000AA83BB83C658D040248135814681578192
:103BA000C557DF4F288339834A835B83CB58D04086
:103BB00080859185A285B385C358DF4F888399831B
:103BC000AA83BB83CD57D04020E030E0A901CA577B
:103BD000DF4F688179818A819B81C658D0400E94DD
:103BE0007A35811173C1A701960160E070E080E031
:103BF0009FE30E946B3720E030E040E251E40E94F6
:103C0000E0350E9461387A83698320E030E040E249
:103C100051E4C358DF4F688179818A819B81CD57F8
:103C2000D0400E94E0350E9461387C836B8344243D
:103C30004394512CC557DF4F288139814A815B81DC
:103C4000CB58D040C701B6010E94D838181684F46A
:103C500020E030E0A901CA57DF4F688179818A816D
:103C60009B81C658D0400E94D83818160CF406C262
:103C7000F201E150F04CEE0FFF1FEE0FFF1F21E0AD
:103C800030E02C0F3D1FE20FF31F60817181072E82
:103C9000000C880B990B0E94813520E030E040E257
:103CA00051E40E94EF37A70196010E946C37CA5772
:103CB000DF4F288139814A815B81C658D0400E94FC
:103CC0006B379B01AC01C557DF4F688179818A81D1
:103CD0009B81CB58D0400E946B374B015C01A70100
:103CE00096010E94EF370E94D8377B018C019B011F
:103CF000AC01C501B4010E94EF37C557DF4F68839F
:103D000079838A839B83CB58D04020E030E040E821
:103D10005FE3B701C8010E946B37762E672ECB5642
:103D2000DF4F8883C559D040C756DF4F9883C959A4
:103D3000D04020E030E0A901B701C8010E947A35E7
:103D4000882309F4A4C1120131E0231A30EC330AAC
:103D5000220C331C220C331CE1E0F0E0EC0FFD1FC1
:103D6000E20DF31D60817181072E000C880B990B09
:103D70000E9481356B017C0120E030E040E251E49B
:103D8000C557DF4F688179818A819B81CB58D040AC
:103D90000E94E0359B01AC01C701B6010E946C375F
:103DA0004B015C01C358DF4F288139814A815B8117
:103DB000CD57D040CF57DF4F688179818A819B8171
:103DC000C158D0400E947A35C12CD12C760187FF92
:103DD0003AC0CF57DF4F288139814A815B81C15872
:103DE000D040C358DF4F688179818A819B81CD574C
:103DF000D0400E94EF370E946838CA57DF4F68836F
:103E000079838A839B83C658D04044E0240E311CBA
:103E100081E090E08C0F9D1F280E391ECA57DF4F9E
:103E200008811981C658D040C12CD12C760101508F
:103E3000110908F0FBC0CA57DF4FA881B981C658E5
:103E4000D0404A0E5B1EA7019601C358DF4F688120
:103E500079818A819B81CD57D0400E94D83818162D
:103E600044F57201EE0CFF1CEE0CFF1CE1E0F0E0EB
:103E7000EC0FFD1FEE0EFF1EC501B4010E9461385C
:103E8000D7016D937C9320E030E040E251E4C358C9
:103E9000DF4F688179818A819B81CD57D0400E9414
:103EA000E0350E946138F70173836283FFEF4F1A98
:103EB0005F0AE72CF62CCB56DF4F0881C559D0405E
:103EC000C756DF4F1881C959D0401FCFC358DF4FA5
:103ED000288139814A815B81CD57D040CF57DF4F50
:103EE000688179818A819B81C158D0400E947A354E
:103EF000512C412C812C912C540187FF53C0CF575A
:103F0000DF4F288139814A815B81C158D040C35835
:103F1000DF4F688179818A819B81CD57D0400E9493
:103F2000EF370E9468382B01DE0111961D018B01CD
:103F3000812C912C540101501109A0F1CF57DF4F72
:103F4000288139814A815B81C158D040C501B401C3
:103F50000E946C374B015C0120E030E040E251E40C
:103F6000CA57DF4F688179818A819B81C658D040CA
:103F70000E94E0350E946138F1017183608320E086
:103F800030E040E251E4C501B4010E94E0350E94F6
:103F90006138D10113967C936E931297B4E02B0E87
:103FA000311CC9CFA5019401C358DF4F68817981C5
:103FB0008A819B81CD57D0400E94D83818160CF0CA
:103FC00039CE8201000F111F000F111FE1E0F0E058
:103FD000EC0FFD1F0E0F1F1F20E030E040E251E408
:103FE000CA57DF4F688179818A819B81C658D0404A
:103FF0000E94E0350E946138D8016D937C9320E0E7
:1040000030E040E251E4C358DF4F688179818A8112
:104010009B81CD57D0400E94E0350E946138F80165
:1040200073836283FFEF4F1A5F0A04CECF57DF4FCF
:10403000288139814A815B81C158D040C701B601CE
:104040000E946C376B017C01C501B4010E9461388C
:10405000F1017183608320E030E040E251E4C70168
:10406000B6010E94E0350E946138D10113967C931D
:104070006E931297B4E02B0E311CD9CE0E94680BC0
:1040800070E060E087E193E00E94D9191FCCC65729
:10409000DF4F2881CA58D040222309F461C08DE047
:1040A000ED964EAD5FADED97849F7001859FF00C4E
:1040B0001124CF56DF4FA881B981C159D040EA0EF3
:1040C000FB1EEB960EAD1FADEB97000F111F000FFF
:1040D000111FE1E0F0E0EC0FFD1F0E0F1F1FD801D4
:1040E00012966D917C91072E000C880B990B0E9403
:1040F000813520E030E040E251E40E94EF375B017F
:104100006C01F80160817181072E000C880B990BFE
:104110000E94813520E030E040E251E40E94EF3718
:1041200020914F0230915002409151025091520221
:104130000E946C37D7011C968C907B018C019201F8
:10414000EB964EAD5FADEB97C157DF4F688179813C
:10415000CF58D040ED968EAD9FADED970E94FC0DEF
:10416000CB57DF4FB881C558D040BB2309F4AEC050
:10417000EB960EAD1FADEB97000F111F000F111F37
:10418000E1E0F0E0EC0FFD1F0E0F1F1FD8011296AB
:104190006D917C91072E000C880B990B0E94813544
:1041A00020E030E040E251E40E94EF376B017C01F7
:1041B000F80160817181072E000C880B990B0E9419
:1041C000813520E030E040E251E40E94EF37209159
:1041D0004F023091500240915102509152020E9480
:1041E0006C37A70196010E940B13882309F48FC036
:1041F000C2010197EB962EAD3FADEB97281739071B
:104200000CF064C02F5F3F4FEB963FAF2EAFEB97A4
:104210008DE0ED964EAD5FADED97849F7001859F6B
:10422000F00C1124CF56DF4FA881B981C159D0407D
:10423000EA0EFB1E8901000F111F000F111FE1E0A4
:10424000F0E0EC0FFD1F0E0F1F1FD80112966D91AD
:104250007C91072E000C880B990B0E94813520E081
:1042600030E040E251E40E94EF375B016C01F8015D
:1042700060817181072E000C880B990B0E9481359B
:1042800020E030E040E251E40E94EF3720914F02FD
:104290003091500240915102509152020E946C376D
:1042A000D7011C968C907B018C019201EB964EAD50
:1042B0005FADEB97C157DF4F68817981CF58D04010
:1042C000ED968EAD9FADED970E94FC0DCB57DF4F65
:1042D0001882C558D0400E94B5149091390492FFBD
:1042E000FECB920121503109EB96AEADBFADEB97FD
:1042F000A217B3070CF09ECB1196EB96BFAFAEAFF3
:10430000EB97CB57DF4F8881C558D040ACCB69ECD9
:1043100071E085E995E00E94BC0BD8CF20E0CB5737
:10432000DF4F8881C558D040902FA12FB22DF601C4
:1043300080839183A283B38384829582A682B7828D
:10434000CB56DF4F88819981AA81BB81C559D04066
:1043500080879187A287B38724874ACBC356DF4FD4
:10436000B881CD59D040CB57DF4FB883C558D04026
:10437000C256DF4F0881CE59D040C156DF4F188159
:10438000CF59D040C056DF4F2880C05AD04021E0DE
:10439000C6CFB32CEA96AFACEA97EC969FACEC97FD
:1043A000EE968FACEE9745CA2F923F924F925F9256
:1043B0006F927F928F929F92AF92BF92CF92DF9235
:1043C000EF92FF920F931F93CF93DF93CDB7DEB79A
:1043D0002D970FB6F894DEBF0FBECDBF7C01C62E61
:1043E000D42E0E94500869837A838B839C830E9419
:1043F00098046E837F83888799870E9498044B0175
:104400005C01C7010E94AA0E21E02D83222423947F
:10441000312CD501C40188519C4FAF4FBF4F8A87C3
:104420009B87AC87BD870E94B514CC20A1F18091F9
:1044300010028C33B1F491E0E916F10491F410927A
:1044400010020E94981390E080E00E945008698357
:104450007A838B839C8390E080E00E94AA0EF12CEB
:10446000E12C809110028C33B1F4E114F10499F441
:10447000109210020E94981381E090E00E94500870
:1044800069837A838B839C8381E090E00E94AA0EEB
:10449000EE24E394F12C809110028E33D1F410922B
:1044A000100261E070E086E792E00E94D91988234B
:1044B00069F040E050E0BA01C7010E949811C701BD
:1044C0000E94500869837A838B839C83C7010E9472
:1044D000AA0E809110028D32D4F1109210020E9427
:1044E000680BC7010296880F991F880F991FFC015E
:1044F000E25BFD4F818C928CA38CB48C825C9D4FCF
:10450000DC012D913D914D915C91C501B4010E945A
:104510006C372B013C0120E030E0A901C501B4015A
:104520000E946C37AB01BC0193018201CE01019660
:104530000E944B18882359F049815A816B817C81F4
:10454000C7010E94A30FC7010E94AA0E6CCF8091E1
:104550003904982F9470282F2C7009F4B0C00FEFF5
:104560001FEF911102C001E010E0837F80933904B6
:104570000E9498042E813F8148855985621B730BE8
:10458000840B950B0E947F352B013C01B801012E55
:10459000000C880B990B0E9481354B015C0120E0D7
:1045A00030E040E752E4C301B2010E947A3520E0D6
:1045B00030E040E850E487FD31C020E030E04CE8D6
:1045C00052E4C301B2010E947A3587FF19C0A501E8
:1045D0009401C501B4010E946C374B015C012016A7
:1045E000310609F13D81311109C00E949813C701BC
:1045F0000E94500869837A838B839C83180113CFB0
:1046000020E030E044EB52E4C301B2010E947A356D
:1046100087FDE5CF2DEC3CEC4CEC5DE3C501B4012E
:104620000E94E035DACFA501940169817A818B81FE
:104630009C810E946C3769837A838B839C830E9460
:1046400098046E837F838887998749815A816B811B
:104650007C81C7010E94A30FC7010E94AA0E1D8280
:1046600080913904DD2039F184FFDDCE8F7E809387
:1046700039040E9498130E94680B80913A0482606A
:1046800080933A042D960FB6F894DEBF0FBECDBFCF
:10469000DF91CF911F910F91FF90EF90DF90CF901E
:1046A000BF90AF909F908F907F906F905F904F9052
:1046B0003F902F90089581FFB6CE8D7FD8CF0E9476
:1046C00098042A853B854C855D8526173707480762
:1046D000590730F60E947911C3CF8F929F92AF9203
:1046E000BF92CF92DF92EF92FF920F931F9321E040
:1046F00040E068EB7BE088ED91E00E94210F63EDE4
:1047000072E08DE795E00E94010F80904F0290903B
:104710005002A0905102B090520200E010E020EA56
:1047200032E440E050E0BA018FE492E00E944B187E
:10473000882339F00E94791180913A048260809335
:104740003A0490E080E00E9450086B017C01A501D2
:10475000940160914F0270915002809151029091AA
:1047600052020E946B3720E030E040E05FE30E949D
:10477000E035A70196010E946C37AB01BC0190E0C7
:1047800080E00E94981120E030E0A901609173025E
:104790007091740280917502909176020E946C373C
:1047A0000E94BE1264EF71E080E090E00E94660417
:1047B00060E070E086E193E40E94F31220917302BE
:1047C00030917402409175025091760260914A02D4
:1047D00070914B0280914C0290914D020E946C3777
:1047E0000E94BE1270E060E087EC92E00E94D9194E
:1047F0008823B1F16AEB72E08DE795E00E94010F2A
:1048000060E070E0CB010E94BE1241E060E081E018
:1048100090E00E94D4216DEA72E08DE795E00E945D
:10482000010F64EF71E080E090E00E94660440E0D8
:1048300050E0BA0181E090E00E9498116AEA72E0CB
:1048400085E995E00E94010F81E090E00E94500808
:104850000E94770B68EE73E080E090E00E946604AF
:1048600070E060E08EE992E00E94D919882309F493
:1048700044C020E030E040E251E460E070E0CB0171
:104880000E940B1361E972E08DE795E00E94010F31
:1048900010926F02109270021092710210927202C6
:1048A0000E94791141E060E090E080E00E94D42114
:1048B00064E872E08DE795E00E94010F64EF71E01B
:1048C00080E090E00E94660440E050E0BA0190E091
:1048D00080E00E94981161E872E085E995E00E940D
:1048E000010F90E080E00E9450080E94770B68EE74
:1048F00073E080E090E00E94660460E070E0CB012D
:104900000E94BE1260E070E0CB010E94F3120E9490
:104910009B0F80913A04826080933A041F910F911B
:10492000FF90EF90DF90CF90BF90AF909F908F90CF
:10493000089520E030E0A90160914F02709150028B
:1049400080915102909152020E947A35811108C0E3
:1049500070E060E08DE392E00E94D91980E0089554
:1049600081E008952F923F924F925F926F927F92D3
:104970008F929F92AF92BF92CF92DF92EF92FF926F
:104980000F931F93CF93DF93CDB7DEB7C95CD109E7
:104990000FB6F894DEBF0FBECDBF0E9499248111DF
:1049A0001FC080913A04826080933A04C753DF4F5E
:1049B0000FB6F894DEBF0FBECDBFDF91CF911F9130
:1049C0000F91FF90EF90DF90CF90BF90AF909F90AE
:1049D0008F907F906F905F904F903F902F900895B1
:1049E000C0904F02D0905002E0905102F0905202DD
:1049F00020E030E0A901C701B6010E947A35882382
:104A000009F48BC0609177027091780280917902ED
:104A100090917A020E9461381B014090830250906D
:104A200084026090850270908602072E000C880B2D
:104A3000990B0E9481359B01AC01C301B2010E9418
:104A4000EF374B015C01AC019B01C701B6010E942D
:104A5000D83818160CF461C080917F0290918002C2
:104A6000A0918102B0918202CC53DF4F8883998359
:104A7000AA83BB83C45CD0408E010F5F1F4FD12C33
:104A8000C12CF12CE12CC853DF4F0883C85CD04007
:104A9000C753DF4F1883C95CD040E214F3045CF5C0
:104AA000B7010F2C000C880B990B0E948135A501D2
:104AB00094010E94E035D8016D937D938D939C9372
:104AC0001397F80184829582A682B782CC53DF4F78
:104AD00088819981AA81BB81C45CD04080879187FD
:104AE000A287B387FFEFCF1ADF0A82E0E80EF11C3E
:104AF000035F1F4FD2CF930182014FE050E0B60118
:104B0000C853DF4F8881C85CD040C753DF4F9881BE
:104B1000C95CD0400E945A1A44CF6AEF73E08DE717
:104B200095E00E94010F68EE73E080E090E00E9443
:104B3000660437CF2F923F924F925F926F927F928F
:104B40008F929F92AF92BF92CF92DF92EF92FF929D
:104B50000F931F93CF93DF93CDB7DEB7CB5CD10913
:104B60000FB6F894DEBF0FBECDBF0E94992481110D
:104B70001FC080913A04826080933A04C553DF4F8E
:104B80000FB6F894DEBF0FBECDBFDF91CF911F915E
:104B90000F91FF90EF90DF90CF90BF90AF909F90DC
:104BA0008F907F906F905F904F903F902F900895DF
:104BB000C0904F02D0905002E0905102F09052020B
:104BC00020E030E0A901C701B6010E947A358823B0
:104BD00009F496C060917702709178028091790211
:104BE00090917A020E9461381B014090830250909C
:104BF00084026090850270908602072E000C880B5C
:104C0000990B0E9481359B01AC01C301B2010E9446
:104C1000EF374B015C01AC019B01C701B6010E945B
:104C2000D83818160CF46CC080917F0290918002E5
:104C3000A0918102B0918202CC53DF4F8883998387
:104C4000AA83BB83C45CD04080917B0290917C029C
:104C5000A0917D02B0917E02C853DF4F8883998373
:104C6000AA83BB83C85CD0408E010F5F1F4FD12C3D
:104C7000C12CEE24E394F12CE214F304BCF5B7014B
:104C80000F2C000C880B990B0E948135A501940113
:104C90000E94E035D8016D937D938D939C9313977B
:104CA000A5019401C853DF4F688179818A819B8176
:104CB000C85CD0400E946C37F8016483758386839A
:104CC0009783CC53DF4F88819981AA81BB81C45CD3
:104CD000D04080879187A287B387FFEFCF1ADF0A82
:104CE00082E0E80EF11C035F1F4FC6CF93018201E3
:104CF0004FE050E0B601CE0101960E945A1A39CF1A
:104D000069EE73E08DE795E00E94010F68EE73E0B5
:104D100080E090E00E9466042CCF0F931F93CF9306
:104D2000DF93CDB7DEB76A970FB6F894DEBF0FBE3C
:104D3000CDBF0E949924811110C080913A048260F5
:104D400080933A046A960FB6F894DEBF0FBECDBFCB
:104D5000DF91CF911F910F91089562E973E08DE784
:104D600095E00E94010F00E010E028EC32E440E002
:104D700050E0BA0187E892E00E944B188823E9F2DC
:104D800066E873E08DE795E00E94010F00915702FD
:104D9000109158022091590230915A0240E050E09F
:104DA000BA018FE892E00E944B18882331F266E73F
:104DB00073E08DE795E00E94010F0091570210917A
:104DC00058022091590230915A0240E050E0BA0155
:104DD00083E692E00E944B18882309F4AECF67E681
:104DE00073E08DE795E00E94010F0091530210914E
:104DF0005402209155023091560240E050E0BA0131
:104E00008BE892E00E944B18882309F496CF6AE55C
:104E100073E08DE795E00E94010F0091530210911D
:104E20005402209155023091560240E050E0BA0100
:104E300083E992E00E944B18882309F47ECF0E94F8
:104E40007911FE013D968EE0DF011D928A95E9F70A
:104E500080918B0290918C02A0918D02B0918E0274
:104E600089839A83AB83BC83809187029091880267
:104E7000A0918902B0918A028D839E83AF83B88707
:104E800080918F0290919002A0919102B091920234
:104E900089879A87AB87BC8700919302109194020F
:104EA000209195023091960242E050E061E070E07E
:104EB000CE0101960E945A1A40CF0E949924811176
:104EC00006C080913A04826080933A04089567E3B3
:104ED00073E08DE795E00E94010F40E061E081E022
:104EE00090E00E94D421EDCF1F920F920FB60F9247
:104EF00011242F933F934F935F936F937F938F93DF
:104F00009F93AF93BF93EF93FF938091B900887FF6
:104F1000803609F44AC0F0F5883209F4A7C018F5C4
:104F2000803109F49BC0B8F4882309F4F9C08830B3
:104F300009F494C0FF91EF91BF91AF919F918F9130
:104F40007F916F915F914F913F912F910F900FBE85
:104F50000F901F901895883109F488C0803251F75E
:104F60008093560314C0803409F49DC040F480330C
:104F7000B9F38833F9F68093560385ECB0C08035D9
:104F800009F485C0883509F496C0883499F60E94E2
:104F9000C40DD0CF883909F48CC038F5883729F092
:104FA00050F4883611F0803729F683E08093570358
:104FB0001092550357C0883809F47BC0803919F026
:104FC000803809F0B7CF80915503803208F071C066
:104FD000E091550381E08E0F809355038091BB00D3
:104FE000F0E0EB5CFC4F80833DC0803B39F0E0F4A7
:104FF000803A09F479C0883A09F09CCF84E0809324
:1050000057031092320310923103E0912F03F09175
:10501000300309958091310381110FC081E08093A5
:10502000310310920F0309C0803C09F4A6CF883CDD
:1050300009F4A3CF883B09F07DCFE091320381E0F2
:105040008E0F80933203F0E0E15FFC4F808180930C
:10505000BB00909132038091310329C080917C0381
:105060008093BB0085EC8093BC0064CF90917B0360
:1050700080917A03981758F5E0917B0381E08E0FB9
:1050800080937B03F0E0E65AFC4F8081E9CFE0910A
:105090007B0381E08E0F80937B038091BB00F0E067
:1050A000E65AFC4F808390917B0380917A03981796
:1050B000C8F285E8D8CFE0917B0381E08E0F809322
:1050C0007B038091BB00F0E0E65AFC4F8083809127
:1050D000590381115CCF81E08093580384EA809367
:1050E000BC001092570326CF85EC8093BC00109231
:1050F000570380915503803230F4E0915503F0E07E
:10510000EB5CFC4F10826091550370E0E09133033B
:10511000F091340385E393E00995109255030ACF8B
:105120001092560334CF1F920F920FB60F92112494
:105130002F933F938F939F93AF93BF938091BC0224
:105140009091BD02A091BE02B091BF023091BB020E
:1051500023E0230F2D3758F50196A11DB11D209393
:10516000BB028093BC029093BD02A093BE02B09399
:10517000BF028091C0029091C102A091C202B09181
:10518000C3020196A11DB11D8093C0029093C1027C
:10519000A093C202B093C302BF91AF919F918F9130
:1051A0003F912F910F900FBE0F901F90189526E8FA
:1051B000230F0296A11DB11DD2CF1F920F920FB6E1
:1051C0000F9211242F933F934F935F936F937F938D
:1051D0008F939F93AF93BF93EF93FF93E09106015B
:1051E000F09107010995FF91EF91BF91AF919F91C8
:1051F0008F917F916F915F914F913F912F910F9080
:105200000FBE0F901F9018951F920F920FB60F921E
:1052100011242F933F934F935F936F937F938F93BB
:105220009F93AF93BF93EF93FF93E0910401F091AD
:1052300005010995FF91EF91BF91AF919F918F91DA
:105240007F916F915F914F913F912F910F900FBE82
:105250000F901F9018951F920F920FB60F92112466
:105260002F933F934F935F936F937F938F939F936E
:10527000AF93BF93EF93FF9389E893E00E940E06EC
:10528000FF91EF91BF91AF919F918F917F916F911E
:105290005F914F913F912F910F900FBE0F901F90F4
:1052A00018951F920F920FB60F9211242F938F9380
:1052B0009F93EF93FF93E0919903F0919A0380817C
:1052C000E0919F03F091A00382FD1BC0908180912B
:1052D000A2038F5F8F732091A303821741F0E091A7
:1052E000A203F0E0E757FC4F958F8093A203FF9154
:1052F000EF919F918F912F910F900FBE0F901F9064
:1053000018958081F4CFCF931092800310927F0381
:1053100088EE93E0A0E0B0E0809381039093820355
:10532000A0938303B093840324E631E030937E039B
:1053300020937D0310928C0310928B0380938D0336
:1053400090938E03A0938F03B093900386E791E030
:1053500090938A038093890385EC90E09093960361
:105360008093950384EC90E0909398038093970347
:1053700080EC90E090939A038093990381EC90E005
:1053800090939C0380939B0382EC90E090939E0308
:1053900080939D0386EC90E09093A00380939F03FD
:1053A0001092A2031092A3031092A4031092A503DB
:1053B00010927E0510927D051092800510927F0557
:1053C00010929305109292051092940510929605F2
:1053D0001092950581E090E0909398058093970551
:1053E0001092AB051092AA051092AC0510927305AD
:1053F0001092720588E891E0909371058093700592
:10540000109279058FE38093740580E180937A058B
:10541000C2E0C0937B0510927C050E94980428E6A8
:1054200035E0109269051092680510926D05109292
:105430006C0510926B0510926A058FEF80936E05D4
:1054400091E090936F0510926105109260051092A3
:105450006505109264051092630510926205109222
:105460006605109267051092590510925805109222
:105470005D0510925C0510925B0510925A059093A1
:105480005E0510925F051092510510925005109222
:105490005505109254051092530510925205C09371
:1054A0005605109257051092490510924805109222
:1054B0004D0510924C0510924B0510924A0593E051
:1054C00090934E0510924F051092410510924005A1
:1054D0001092450510924405109243051092420522
:1054E00094E090934605109247051092390510926A
:1054F000380510923D0510923C0510923B05109224
:105500003A0595E090933E0510923F0510923105C3
:105510001092300510923505109234051092330523
:105520001092320596E0909336051092370510924E
:1055300029051092280510922D0510922C05109225
:105540002B0510922A0597E090932E0510922F05B7
:105550001092210510922005109225051092240525
:10556000109223051092220598E090932605109240
:105570002705109219051092180510921D0510921A
:105580001C0510921B0510921A0599E090931E05B8
:1055900010921F051092110510921005109215051A
:1055A0001092140510921305109212059AE0909330
:1055B0001605109217053093270420932604309384
:1055C0002904209328042BE734E030932B04209304
:1055D0002A0410923A0410923B041092360410925E
:1055E000380410922E0410923704C0932D049FE0CB
:1055F00090932C0480933D04109239041092B805C6
:105600001092BC051092BB051092BD0584E991E093
:105610009093B7058093B605E2EDF5E01082148211
:1056200013821582369686E0EE30F807B9F783E1EB
:1056300091E090931906809318068FE091E0909383
:105640001B0680931A0685E080931C0684E08093F5
:105650001D0688E191E090931706809316068AE074
:1056600090E090931F0680931E0684EF91E0909344
:105670002106809320061092240610922306109291
:10568000120610921306109214061092150610922C
:10569000220680E18093AD0584E690E09093AF050B
:1056A0008093AE0581E08093B0051092B105109211
:1056B000B2051092B3051092B4051092B505CF91C2
:1056C0000895CF93DF9300D0CDB7DEB7789484B53B
:1056D000826084BD84B5816084BD85B5826085BDEE
:1056E00085B5816085BD80916E00816080936E007C
:1056F000109281008091810082608093810080916E
:10570000810081608093810080918000816080931E
:1057100080008091B10084608093B1008091B000DE
:1057200081608093B00080917A00846080937A00D9
:1057300080917A00826080937A0080917A00816003
:1057400080937A0080917A00806880937A0010922A
:10575000C100E0919903F0919A0382E08083E09187
:105760009503F09196031082E0919703F0919803CE
:1057700080E180831092A103E0919D03F0919E034C
:1057800086E08083E0919B03F0919C03808180619F
:105790008083E0919B03F0919C03808188608083EB
:1057A000E0919B03F0919C03808180688083E0916D
:1057B0009B03F0919C0380818F7D80831092060370
:1057C0001092050310920803109207030E94C6036B
:1057D0008EEB92E09093300380932F038FEB92E057
:1057E00090933403809333031092750580917B0569
:1057F0000E94790C88E080937C0560E080E795E06A
:105800000E94510782E00E94790C0E946E0C68E3AE
:1058100071E080E00E94DB0C60E471E081E00E94B6
:10582000DB0C68E471E082E00E94DB0C60E571E073
:1058300083E00E94DB0C68E571E084E00E94DB0CF1
:1058400080913C04816080933C048AE498E09093CA
:105850002902809328028DE597E2909313028093AA
:10586000120289E498E0909398028093970260E690
:1058700075E088E695E00E94380786E498E090930A
:105880002B0280932A028DE896E290931502809372
:10589000140285E498E090939A028093990268E557
:1058A00075E088E695E00E9438079EE3C92E98E0EF
:1058B000D92ED0922D02C0922C022DE3E22E28E0A8
:1058C000F22EF0921702E09216020CE318E0109309
:1058D0009C0200939B0260E575E088E695E00E94DB
:1058E000380784E498E090932F0280932E0284EF8F
:1058F00098E1909319028093180283E498E09093C2
:105900009E0280939D0268E475E080E595E00E9428
:10591000380782E498E090933102809330028AE95C
:1059200095E290931B0280931A0281E498E0909391
:10593000A00280939F0260E475E080E595E00E94FC
:10594000380780E498E0909333028093320282EB30
:1059500094E290931D0280931C028FE398E0909351
:10596000A2028093A10268E375E080E595E00E94C1
:1059700038078CE498E0909335028093340284EDEC
:1059800092E190931F0280931E028BE498E0909323
:10599000A4028093A30260E375E088E695E00E948C
:1059A0003807D0923702C0923602F0922102E0927C
:1059B00020021093A6020093A50268E275E088E633
:1059C00095E00E9438078DE395E09093390280932B
:1059D00038028DE693E290932302809322028FE4B3
:1059E00098E09093A8028093A70260E275E088E2B5
:1059F00095E00E94380788E498E090933B028093FA
:105A00003A0287EF99E1909325028093240287E47C
:105A100098E09093AA028093A90268E175E088E279
:105A200095E00E9438078EE498E090933D028093C1
:105A30003C0284E799E190932702809326028DE44B
:105A400098E09093AC028093AB0260E175E088E24D
:105A500095E00E9438070E94B9080E94FA0C88EE6F
:105A600097E19093AE028093AD020E9498046F5F1D
:105A70007F4F8F4F9F4F6093B2027093B30280931A
:105A8000B4029093B5028091B10281608093B1021B
:105A900085EF9BE09093B0028093AF020E94DD13EC
:105AA00021E040E068EE73E08CED91E00E94210F70
:105AB00088E189831A8221E041E068EB7BE0CE0136
:105AC00001960E94210F68EE73E080E090E00E9452
:105AD000660421E040E068EE73E08CED91E00E9406
