:100000000C9408020C94EC240C94C5240C9430023B
:100010000C9430020C9430020C9430020C94300298
:100020000C9430020C9430020C9430020C94300288
:100030000C9430020C9430020C9430020C94300278
:100040000C947B240C9430020C9449240C942324AB
:100050000C9430020C9430020C9430020C94300258
:100060000C9413250C9430024E414E494E4954597C
:10007000494E46CDCCCC3D0AD7233C17B7D1387773
:10008000CC2B329595E6241FB14F0A000020410089
:1000900000C84200401C4620BCBE4CCA1B0E5AAED3
:1000A000C59D7400407A10F35A00A0724E180900E2
:1000B00010A5D4E80000E87648170000E40B5402CD
:1000C0000000CA9A3B000000E1F505000080969808
:1000D00000000040420F000000A086010000001058
:1000E0002700000000E8030000000064000000009A
:1000F000000A00000000000100000000002C76D87B
:1001000088DC674F0823DFC1DFAE59E1B1B796E560
:10011000E3E453C63AE651997696E8E6C28426EBC4
:10012000898C9B62ED407C6FFCEFBC9C9F40F2BAD7
:10013000A56FA5F490055A2AF75C936B6CF9676D6F
:10014000C11BFCE0E40D47FEF520E6B500D0ED90C4
:100150002E0300943577050080841E080000204E91
:100160000A000000C80C333333330F986E1283112A
:1001700041EF8D2114893BE65516CFFEE6DB18D101
:10018000844B381BF77C1D901DA4BBE424203284D3
:10019000725E228100C9F124ECA1E53D2756616C15
:1001A00075657300486F6D65267265736574506F71
:1001B00073004368616E67652043757474657200EF
:1001C00053657475700053687574646F776E00467C
:1001D000656D616C65204A6F696E74004D616C6578
:1001E000204A6F696E740053657475700046696EBD
:1001F000676572204A6F696E74004461646F004DD8
:10020000616E75616C206D6F646500244A3D4739ED
:100210003020257325732046313030300047393087
:1002200020473020592573205A257300454D4552EB
:1002300047454E43592053544F50210000593D002B
:10024000736574206E6577207A65726F0073656CD4
:1002500065637420706F732059007A65726F207027
:100260006F7320593F004375747465722077696419
:1002700074683F006D61782074726176656C2059F6
:100280003F006261636B736C61736820593F006665
:1002900061696C65642063616C63206461646F00F4
:1002A0006572722063616C63206461646F730073B4
:1002B000656C65637420706F73205900676F746F8D
:1002C000207A65726F3F00686F6D696E673F0073DB
:1002D000686565742077696474683F006461646F61
:1002E00020706F736974696F6E3F0063757420646A
:1002F000657074682F706173733F006461646F2070
:1003000064657074683F006461646F207769647429
:10031000683F006375742064657074682F70617342
:10032000733F0066696E676572206C656E677468FE
:100330003F0073686565742077696474683F006383
:100340006C656172616E63652077696474683F00F3
:1003500066696E67657220636F756E743F003A2040
:1003600000473130205030204C3230205925732046
:100370005A25730000000000240027002A00000016
:100380000000250028002B000000000023002600AC
:100390002900040404040404040402020202020208
:1003A0000303030303030102040810204080010239
:1003B00004081020010204081020000000080002B8
:1003C0000100000304070000000000000000506F5F
:1003D000733A202573202025730050617373202504
:1003E000692F256900443A25692F2569202D205061
:1003F0003A25692F256900FF01FA01ED01E701DCCB
:1004000001CF01C601C001B201A4019D0100322645
:1004100011241FBECFEFD8E0DEBFCDBF25E0A0ED99
:10042000B1E001C01D92AF38B207E1F711E0A0E0E2
:10043000B1E0E0EBFBE602C005900D92A03DB107F4
:10044000D9F712E0C8E0D2E004C02197FE010E9473
:100450009D35C730D107C9F70E940A280C94D635BC
:100460000C94000096E0899FD0011124A75EBB4F39
:1004700090967C936E935F9791E091969C93919761
:10048000E0918604F091870490918504992339F0D6
:10049000309751F0811108C080913504099430974C
:1004A00019F05C968C91FACF0895AF92BF92CF92DB
:1004B000DF92EF92FF920F931F93CF93DF936C0124
:1004C0007B018B01040F151FEB015E01AE18BF0805
:1004D000C017D10759F06991D601ED91FC910190B7
:1004E000F081E02DC6010995892B79F7C501DF91CF
:1004F000CF911F910F91FF90EF90DF90CF90BF9021
:10050000AF900895089508950895FC01538D448D8A
:10051000252F30E0842F90E0821B930B541710F0AE
:10052000CF96089501970895FC01918D828D9817BB
:1005300061F0A28DAE0FBF2FB11D5D968C91928D93
:100540009F5F9F73928F90E008958FEF9FEF0895C4
:10055000FC01918D828D981731F0828DE80FF11D8D
:10056000858D90E008958FEF9FEF0895FC01918DA8
:10057000228D892F90E0805C9F4F821B91098F73A1
:100580009927089587E693E00E94B60221E0892B1F
:1005900009F420E0822F089580E090E0892B29F073
:1005A0000E94C20281110C9400000895FC01A48DE8
:1005B000A80FB92FB11DA35ABF4F2C91848D90E085
:1005C00001968F739927848FA689B7892C93A08968
:1005D000B1898C91837080648C93938D848D9813F2
:1005E00006C00288F389E02D80818F7D8083089585
:1005F000EF92FF920F931F93CF93DF93EC0181E073
:10060000888F9B8D8C8D98131AC0E889F989808119
:1006100085FF15C09FB7F894EE89FF896083E8894C
:10062000F98980818370806480839FBF81E090E03E
:10063000DF91CF911F910F91FF90EF900895F62ECB
:100640000B8D10E00F5F1F4F0F731127E02E8C8D65
:100650008E110CC00FB607FCFACFE889F9898081AA
:1006600085FFF5CFCE010E94D602F1CFEB8DEC0FC6
:10067000FD2FF11DE35AFF4FF0829FB7F8940B8FC7
:10068000EA89FB8980818062CFCFCF93DF93EC0131
:10069000888D8823B9F0AA89BB89E889F9898C916A
:1006A00085FD03C0808186FD0DC00FB607FCF7CF26
:1006B0008C9185FFF2CF808185FFEDCFCE010E9426
:1006C000D602E9CFDF91CF910895833081F028F4ED
:1006D000813099F08230A9F008958730A9F08830F0
:1006E000C9F08430B1F4809180008F7D03C0809187
:1006F00080008F7780938000089584B58F7784BDC4
:10070000089584B58F7DFBCF8091B0008F77809363
:10071000B00008958091B0008F7DF9CFCF93DF9323
:10072000282F30E0F901E654FC4F8491F901EA5595
:10073000FC4FD491F901EE56FC4FC491CC23A1F0AB
:1007400081110E946503EC2FF0E0EE0FFF1FE857C8
:10075000FC4FA591B491EC91ED2381E090E009F478
:1007600080E0DF91CF91089580E090E0FACF1F9371
:10077000CF93DF93282F30E0F901E654FC4F8491AA
:10078000F901EA55FC4FD491F901EE56FC4FC491A2
:10079000CC23A9F0162F81110E946503EC2FF0E005
:1007A000EE0FFF1FE258FC4FA591B4918FB7F8945C
:1007B000EC91111108C0D095DE23DC938FBFDF913F
:1007C000CF911F910895DE2BF8CFCF93DF9390E068
:1007D000FC01EA55FC4F24918E569C4FFC018491FC
:1007E0008823C9F090E0880F991FFC01EC58FC4F5A
:1007F000A591B491FC01E258FC4FC591D4916111CF
:100800000DC09FB7F8948C91209582238C9388819A
:10081000282328839FBFDF91CF910895623051F440
:100820009FB7F8943C91822F809583238C93E88125
:100830002E2BEFCF8FB7F894EC912E2B2C938FBFEC
:10084000EACF3FB7F8948091AE029091AF02A091A9
:10085000B002B091B10226B5A89B05C02F3F19F098
:100860000196A11DB11D3FBFBA2FA92F982F882730
:10087000BC01CD01620F711D811D911D42E0660F0B
:10088000771F881F991F4A95D1F708958F929F92DD
:10089000AF92BF92CF92DF92EF92FF924B015C0139
:1008A0000E9421046B017C010E9421046C197D09C6
:1008B0008E099F09683E734081059105A8F321E0E8
:1008C000821A9108A108B10888EEC80E83E0D81EEC
:1008D000E11CF11C81149104A104B10429F7FF90DB
:1008E000EF90DF90CF90BF90AF909F908F90089542
:1008F0002FB7F8946091AA027091AB028091AC027C
:100900009091AD022FBF08958F929F92AF92BF92A8
:10091000EF92FF920F931F93CF93DF937B018C0194
:10092000D0E0C0E00E94780460936F03709370037E
:10093000809371039093720387E693E00E94940280
:1009400097FF27C00E94780480906F0390907003F7
:10095000A0907103B0907203681979098A099B0904
:1009600080906B0390906C03A0906D03B0906E0329
:10097000681579058A059B05F8F2CE01DF91CF91C4
:100980001F910F91FF90EF90BF90AF909F908F902D
:1009900008958A30910589F3F80181938F0121969A
:1009A000EC16FD0609F0BECFE8CFCF92DF92EF92B2
:1009B000FF92C0901504D0901604E0901704F090B8
:1009C00018040E9478046C157D058E059F0518F1AA
:1009D000809110040E948E03209113042817190699
:1009E000D1F00E9478042091110430911204620F1A
:1009F000731F811D911D60931504709316048093DD
:100A00001704909318048091130491E08927809330
:100A100013049093140480911304FF90EF90DF90DF
:100A2000CF9008950F931F93CF93DF93C82FD62FA6
:100A300086E0C89FF0011124E75EFB4F11A2878D6D
:100A400090A181309105F1F058F082309105F1F1DB
:100A5000039709F440C0DF91CF911F910F91089542
:100A60006623C9F361E070E08C2F0E9432020E947D
:100A7000780460937104709372048093730490936C
:100A80007404E9CF0E9478040091710410917204FB
:100A90002091730430917404AB01BC01401B510BD5
:100AA000620B730B8091830490918404B0E0A0E00A
:100AB00084179507A607B70748F462E070E08C2F0B
:100AC000DF91CF911F910F910C94320263E070E09F
:100AD000D111C1CFF4CF70E060E0F1CF0895862F3F
:100AE0000C948E03862F642F0C94B703862F642FEB
:100AF0000C94E503662339F0FC018481958100970D
:100B000011F06150F7CF0895FC0182819381009725
:100B100011F00C947A0590E080E00895EF92FF9236
:100B20000F931F93CF93DF9360E080918A0490919D
:100B30008B040E948405C0E00097E1F000919D04C1
:100B400010E0D0919C04D170E0909604F12CC0E0AC
:100B5000FC012781A80102C0559547952A95E2F727
:100B600040FD02C0DD2371F0F39461E00E947A053C
:100B7000009771F78C2FDF91CF911F910F91FF900C
:100B8000EF900895EF1488F3CF5FEFCF0F931F938B
:100B9000CF93DF9360E080918A0490918B040E9450
:100BA0008405C0E00097D1F000919D0410E0D09141
:100BB0009C04D170C0E0FC012781A80102C05595BA
:100BC00047952A95E2F740FD01C0D111CF5F61E062
:100BD0000E947A05009779F7C111C1508C2FDF91DF
:100BE000CF911F910F9108950E94C605809399049B
:100BF0009091960420919704921B891740F090934E
:100C0000980480919C04806280939C040895809352
:100C10009804F7CFDC011296ED91FC911397309771
:100C200069F0248135812115310531F475836483A0
:100C3000FB01918380830895F901F3CF13967C9390
:100C40006E931297F5CF85ED8093BC008091BC0028
:100C500084FDFCCF1092B802089520914002260F27
:100C60003327331F21323105ECF42091B802FC0107
:100C700090E080E0243069F082E00895A091400285
:100C80002191AC01405E5D4FA40FB52FB11D2C9397
:100C90000196861798F380914002680F6093400296
:100CA00080E0089581E008950895E091BC0280916C
:100CB000BB02E81730F4F0E0E050FE4F808190E096
:100CC00008958FEF9FEF08959091BC028091BB0231
:100CD0002FEF3FEF981748F4E92FF0E0E050FE4F78
:100CE000208130E09F5F9093BC02C90108958091FC
:100CF000BB029091BC02891B990B0895CF92DF92A1
:100D0000EF92FF920F931F93CF93DF937C01CB0160
:100D10008A0120918702222389F0EB016B01C40E26
:100D2000D51ECC15DD0569F06991D701ED91FC91D7
:100D30000190F081E02DC7010995F3CF642F0E9447
:100D40002D06C801DF91CF911F910F91FF90EF9079
:100D5000DF90CF900895CF93DF931F92CDB7DEB78A
:100D60006983209187022223F9F02091B902203271
:100D700058F021E030E0FC013383228390E080E0F2
:100D80000F90DF91CF9108958091BA02E82FF0E0A3
:100D9000E857FD4F998190838F5F8093BA028093CB
:100DA000B90281E090E0ECCF61E0CE0101960E94B3
:100DB0002D06F7CFCF93FC01C48121E02093870259
:100DC000C093A8021092BA021092B9028385682BD0
:100DD00084E094E00E94AB069091B902913208F051
:100DE0003FC08091B8028111FCCF82E08093B802AD
:100DF00081E08093B7028FEF809386021092850284
:100E000090938402A8E8B2E0E4E6F2E080E0981370
:100E10002FC01092630280916302CC0FC82BC09345
:100E200063028091B602813039F51092B60280914A
:100E300063028093BB008091BC0083FDF8CF85ECFA
:100E40008093BC008091B8028230E1F380918602E9
:100E50008F3F31F080918602803211F080918602BE
:100E60001092BA021092B90210928702CF9108959F
:100E70002D9121938F5FCBCF85EEE2CF089590E047
:100E800080E00895089508950895089508950895B7
:100E9000089508950895089508950895089508956A
:100EA0000895089508950895DC01ED91FD918081E4
:100EB000ED91FD919081ED91FD916C9163708E2388
:100EC00009F064609F2309F06860E1E7F7E0E60F4E
:100ED000F11D659565956D936D917D918D919D91B8
:100EE000099423C01AC012C016C010C01EC009C089
:100EF00014C013C006C019C009C00DC007C00DC082
:100F000014C062507040804090400BC061507040EF
:100F10008040904006C06E5F01C06F5F7F4F8F4F73
:100F20009F4F9E938E937E936E9308958091D801E8
:100F30009091D9010C9454078091DA019091DB01D2
:100F40000C94540708950895DC01AA0FBB1FAA0F43
:100F5000BB1FAB5DBC4F880F991F880F991FFC0109
:100F6000E35EFC4F218D328D438D548D59966D91EA
:100F70007D918D919C915C970E94DF33089561155E
:100F8000710579F0FB0101900020E9F73197AF017D
:100F9000461B570BDC01ED91FC910280F381E02DA3
:100FA000099490E080E00895FF920F931F93CF93F0
:100FB000DF93C0919704D0918F040E94C60580935F
:100FC00099046C2F80918A0490918B040E9484056F
:100FD0008C01892B09F45AC080919C0482FD4FC07A
:100FE00048E854E024E030E290E080E0FA01E80FC5
:100FF000F91F378B019684319105C1F721504C5E62
:101000005F4F2111F1CF34E1F32EDC0F80919D046D
:1010100090E0D80117962C91179702C09595879567
:101020002A95E2F780FF1DC01696EC918E2F90E076
:10103000880F991FE0918C04F0918D04E80FF91F3F
:101040006591749180919704EC2FE81BFF0BFE9E35
:10105000C001FF9E900D112481569B4F0E949F2B33
:10106000CF5F61E0C8010E947A058C01892B11F0E5
:10107000CD1760F280919C04806480939C04DF9182
:10108000CF911F910F91FF900C94F4050E94BF081F
:10109000F6CF0F931F93CF9300918A0410918B0486
:1010A000C0919604CC2351F06C2FC8010E94840596
:1010B000892B21F4C150C0939604F2CF80919704FC
:1010C00020918F04280F3327331FC217130644F0D3
:1010D0008F5F80939704CF911F910F910C94D40749
:1010E000C81710F48150F5CFCF911F910F910C9438
:1010F000F4050F931F93CF93DF931092970490936F
:101100008B0480938A04E0919A04E63088F48091FD
:101110009C0487FD13C0AE2FB0E0A857BB4F809151
:10112000960418968C93EF5FE0939A0410929604BD
:10113000DF91CF911F910F910C94D4078F778093FB
:101140009C04EE23A9F3E150E0939A04F0E0E85701
:10115000FB4FC085C093960480918F04C81740F35D
:10116000D0E08150990BC81BD90B10E000E00C17A0
:101170001D07F4F60E9449080F5F1F4FF8CF8091BA
:101180009A04882391F080919C04806880939C0449
:1011900080918A0490918B04FC012081318121157A
:1011A000310509F0C9010C947908089580919E04D5
:1011B0008F3F59F080919C04826080939C048091C1
:1011C0009B04806280939B0408950C94BF08EF9267
:1011D000FF920F931F93CF93DF9380919E048F3FD5
:1011E00009F03FC000918A0410918B04C0919604CD
:1011F0000E948E056C2F680FC8010E948405EC01C7
:10120000009779F10E94790860E0CE010E94840580
:101210000097E1F0E0909D04F12C00919C04017096
:1012200010E061E00E947A05009771F0FC012781CF
:10123000A70102C0559547952A95E2F740FD02C0E7
:10124000002379F31F5FEDCF11110BC08E818093C6
:101250009E04DF91CF911F910F91FF90EF900C941E
:10126000C605DF91CF911F910F91FF90EF900895E8
:10127000282F80919E048F3FA9F4223059F023300B
:1012800009F5809196048823E9F0815080939604B3
:101290000C9449088091960490919904891790F4D0
:1012A0008F5FF4CF81E090E0A0E0B0E004C0880F51
:1012B000991FAA1FBB1F2A95D2F720919B04822B4E
:1012C00080939B040895CF92DF92FF920F931F9318
:1012D000CF93DF938C01D62F80919C048460809300
:1012E0009C04FF24FA9460E0C8010E9484056C010C
:1012F000892B41F10E94E708F60186818D17A9F13B
:10130000F0929E046D2FC6010E946309C82F8130A0
:1013100061F1F0929E040E94BF0882E00E943809A9
:1013200061E0C8010E947A058C01892B11F0CC2361
:10133000D1F28C2FDF91CF911F910F91FF90DF9011
:10134000CF900895F8018681D81779F0F0929E0425
:101350008091960490919904891728F48F5F809367
:1013600096040E944908C0E0DBCF80919C048B7FEB
:1013700080939C04C1E0DDCF0F931F93CF938C012A
:10138000C62F0E94DA066C2F6460C8010E94DA063C
:101390006C2F6B7FC8010E94DA0683EC90E0019706
:1013A000F1F7CF911F910F9108950F931F93CF9352
:1013B000DF938C01D62FC42F607F642B0E94BC0961
:1013C00080E1D89FB00111246C2BC801DF91CF912F
:1013D0001F910F910C94BC09CF93DF93CDB7DEB76B
:1013E00028970FB6F894DEBF0FBECDBF98E0ECE2B1
:1013F000F1E0DE01119601900D929A95E1F790913E
:101400005705961710F46FEF690F262F30E0220F63
:10141000331F41E050E04C0F5D1F240F351FF901D1
:101420006081680F606840E08FE495E028960FB611
:10143000F894DEBF0FBECDBFDF91CF910C94D509DC
:10144000CF93DF93EC016A8188810E94EC09BE0191
:101450006C5F7F4F8FE495E00E94BF070D88DE89A7
:10146000C02DC031D10544F46AE971E08FE495E004
:101470000E94BF072196F5CFDF91CF91089510927A
:10148000890510928805E7E7F5E080E1DF011D920C
:101490008A95E9F783E795E00C94200ACF93DF93D0
:1014A000C7E7D5E0FE0101900020E9F79F0128572A
:1014B000354040E150E0421B530BBC01C901895843
:1014C0009A4F0E94BE3509900020E9F7C857D540D1
:1014D000D0938905C0938805C55ADA4F1C8E83E7DF
:1014E00095E0DF91CF910C94200A0F931F93CF9337
:1014F000DF93EC018C010C5F1F4F40E150E0C8010D
:101500000E94BE35F80101900020E9F73197E01BF9
:10151000F10BFE8BED8BEC0FFD1F1482CE01DF91E2
:10152000CF911F910F910C94200A40E062E08FE46C
:1015300095E00E94D5098BE39FE10197F1F70895AB
:10154000CF93DF93823028F0909154059860909368
:1015500054058093570562E370E080E090E00E94BC
:10156000460460915A058FE495E00E94DA0668EE21
:1015700073E080E090E00E94460460E38FE495E031
:101580000E94BC09CBE4D6E4CE010197F1F760E3F9
:101590008FE495E00E94BC092197F1F760E38FE4A6
:1015A00095E00E94BC0983E592E00197F1F760E2C3
:1015B0008FE495E00E94BC0960915405606240E0B0
:1015C0008FE495E00E94D50984E08093550540E0C2
:1015D0006CE08FE495E00E94D50940E061E08FE483
:1015E00095E00E94D5098BE39FE10197F1F782E036
:1015F0008093560540E066E08FE495E00E94D509AF
:10160000DF91CF910C94950A41E00E94D50981E0C9
:1016100090E008950F931F93CF93DF938B0198E091
:10162000899FB0011124606440E08FE495E00E943E
:10163000D509E801085F1F4F69918FE495E00E948A
:10164000040BC017D107C1F7DF91CF911F910F9104
:10165000089540E061E08FE495E00E94D5098BE3B6
:101660009FE10197F1F760E080E00C94EC098F9224
:101670009F92AF92BF92EF92FF920F931F93CF93DF
:10168000DF930E94950A80919E04C0919C048F3F35
:1016900011F0C1FF60C0D0919904DF5FFD2ED23000
:1016A00010F082E0F82EE09096040E948E05982EAD
:1016B000C6FF19C00E94290B08E814E0C0E05801D9
:1016C00024E1A20EB11CCF1571F06C2F81E00E94B5
:1016D000EC09B801695E7F4F8FE495E00E94BF0777
:1016E000CF5F8501ECCF80919C0485FF34C0C0E0C2
:1016F000CF1519F16C2F80E00E94EC0980919804BD
:101700006EE7C81360E28FE495E00E94040B6C2F33
:101710008FE0FD1648F40E94EC0960E08FE495E04C
:101720000E94040BCF5FE4CF0E94EC0941E060E22D
:101730008FE495E00E94D509F5CFCD1760F48E2D8A
:10174000890DC9F460E08FE00E94EC0961E08FE44C
:1017500095E00E94040B80919C048F7980939C04F7
:10176000DF91CF911F910F91FF90EF90BF90AF90BD
:101770009F908F9008952D2F2150330B8901E82ED3
:10178000F12C2E153F0539F46FEF6C0F8FE00E949E
:10179000EC0964E0DCCF6C2F70E090E080E00E9408
:1017A00047329B01AC010E94DF334B015C01B80161
:1017B000110F880B990B0E9447329B01AC01C501A8
:1017C000B4010E9462344B015C01B701FF0C880B2D
:1017D000990B0E9447329B01AC01C501B4010E94E4
:1017E000A6320E94DB34862F6C2F0E945035C92F01
:1017F000682F8FE00E94EC0961E06C0FA8CF0F9377
:101800001F93CF93DF938091030381FF51C00E9408
:101810007804009108031091090320910A03309184
:101820000B03601B710B820B930B00910B0110914A
:101830000C0120910D0130910E0160177107820794
:101840009307B0F10E947804609308037093090332
:1018500080930A0390930B0380910C0381FD18C0C1
:10186000826080930C0380919E0480930901E82F8D
:10187000F0E0EE0FFF1FED52FD4FC081D18192E0ED
:10188000C238D907D1F480919C04826080939C0473
:10189000E0919E04EF3F49F0F0E0EE0FFF1FE354AC
:1018A000FD4F0190F081E02D099581E080930A01C0
:1018B000DF91CF911F910F9108958F3FB1F30E9457
:1018C000290B10929B04FE010995E2CF4F925F9283
:1018D0006F927F928F929F92AF92BF92CF92EF9230
:1018E000FF920F931F93CF93DF93CDB7DEB76E9721
:1018F0000FB6F894DEBF0FBECDBF270138014F5F92
:101900005F4FFE0131965F01623071050CF45EC0DD
:101910003F932F935F934F937F936F9301969F9382
:101920008F9385EE93E09F938F931F9284E18F9323
:10193000FF93EF930E94EA2B0FB6F894DEBF0FBE21
:10194000CDBFB5018BE595E00E94750A4E01F5E12A
:101950008F0E911C840121E041E0C301B2010E947D
:101960007D2B8CE991E0C11002C087EA91E09F9342
:101970008F939F928F928EEC93E09F938F931F9201
:1019800084E18F93BF92AF920E94EA2BB50183E767
:1019900095E00E94750A0FB6F894DEBF0FBECDBF6A
:1019A0006E960FB6F894DEBF0FBECDBFDF91CF911C
:1019B0001F910F91FF90EF90CF90BF90AF909F90AD
:1019C0008F907F906F905F904F9008953F932F93EB
:1019D0005F934F938AED93E09F938F931F9284E1DF
:1019E0008F93FF93EF930E94EA2BA6CFEF92FF9283
:1019F0000F931F93CF93DF93CDB7DEB760970FB6EA
:101A0000F894DEBF0FBECDBF7C0180913401909170
:101A10003501A0913601B091370189839A83AB8358
:101A2000BC83F701EE0FFF1F81E090E08C0F9D1F3C
:101A3000E80FF91F6081718183E795E00E94750AC4
:101A400007E715E0F80101900020E9F7CF0188577A
:101A5000954040E150E0481B590B6EE573E0895812
:101A60009A4F0E94AF2BF80101900020E9F78F01F7
:101A7000085715401093890500938805055A1A4F99
:101A8000F801148E83E795E00E94200AC7010E94A6
:101A9000A4078E010F5F1F4F22E041E00E947D2BC3
:101AA000C8010E944E0A60960FB6F894DEBF0FBEC2
:101AB000CDBFDF91CF911F910F91FF90EF900895CF
:101AC0000F931F93CF93DF93EC018C010C5F1F4F9B
:101AD00040E150E0C8010E94AF2BF80101900020C6
:101AE000E9F73197E01BF10BFE8BED8BEC0FFD1F3F
:101AF0001482CE01DF91CF911F910F910C94200A97
:101B0000CF92DF92EF92FF920F931F93CF93DF93C9
:101B10008C017B01FC01628180810E94EC09C7017C
:101B20000E94A62B6C01D0E0C0E0CC15DD055CF472
:101B3000F701EC0FFD1F649141E08FE495E00E94F6
:101B4000D5092196F2CFF801C589D689C031D105D2
:101B500044F46AE971E08FE495E00E94BF072196A2
:101B6000F5CFDF91CF911F910F91FF90EF90DF9014
:101B7000CF9008956F927F928F929F92AF92BF9273
:101B8000CF92DF92EF92FF920F931F93CF93DF9349
:101B90008091F801811173C062E082E00E94E50348
:101BA00062E083E00E94E503E4E9F3E0E491F0E021
:101BB000EE0FFF1FE857FC4FA591B491B093ED01D4
:101BC000A093EC01E8EAF3E044914093F001E5E9E9
:101BD000F3E0E491F0E0EE0FFF1FE857FC4FC591F2
:101BE000D491D093EF01C093EE01E9EAF3E0E491E0
:101BF000E093F1011092F3011092F4011092F501BB
:101C00001092F6012BE33FE1C9010197F1F79C9196
:101C1000842F892391E009F490E08881E82309F07A
:101C200092602CEE31E09093F2013093D901209331
:101C3000D80186E997E09093050180930401809193
:101C400069008C7F816080936900E89A91E09093AD
:101C5000F7013093DB012093DA012CE937E0309370
:101C600007012093060180916900837F846080933F
:101C70006900E99A82E08093F7019093F8018091DE
:101C8000E401811112C081E10E948E03092E000C33
:101C9000AA0BBB0B8093E0019093E101A093E201BA
:101CA000B093E30181E08093E40181E10E948E031F
:101CB000482F50E070E060E00091E0011091E101F8
:101CC0002091E2013091E301401751076207730749
:101CD000B1F14093E0015093E1016093E201709310
:101CE000E30181112CC080919E048F3F09F457C0FD
:101CF00080919B04806180939B040E947804809172
:101D00009E048F3F99F00E9478046F5F7F4F8F4F42
:101D10009F4F609308037093090380930A03909385
:101D20000B038091030382608093030380919B04E3
:101D300085FD05C08F7D80939B040E94370B81E059
:101D4000809385040E9478040091750410917604B4
:101D50002091770430917804AB01BC01401B510BFA
:101D6000620B730B8091810490918204B0E0A0E03B
:101D700084179507A607B70708F0B2C1C0E08091A5
:101D80007F04C81778F4E0917B04F0917C04EC0F99
:101D9000F11D62E080810E94E503CF5FF0CF0E94D9
:101DA000E708ABCF712C812C912C54018394809146
:101DB0008004781608F05FC0072D10E0E0917D04E4
:101DC000F0917E04E00FF11F61E080810E94E50345
:101DD000E0917D04F0917E04E00FF11F60E08081CE
:101DE0000E94B703D501C401072C04C0880F991FB6
:101DF000AA1FBB1F0A94D2F76C017C01E094F094F7
:101E0000612C80917F046816F8F4C62DD0E0E09133
:101E10007B04F0917C04EC0FFD1F80810E948E03F7
:101E20002496CC0FDD1FC75EDB4F892B41F48881E0
:101E300099818C299D29998388836394E2CF888135
:101E400099818E219F21F7CFE0917D04F0917E044E
:101E5000E00FF11F61E080810E94B70380917D0453
:101E600090917E04080F191F60E0F80180810E94A4
:101E7000E50373949CCF29E1C22E24E0D22E85E5A0
:101E800094E0E6012FEF3FEF4F8D58A1452B21F451
:101E90001C8E3E8F2D8F19A226968C179D07A1F7B9
:101EA00010E096E0B92E80917F04181708F052C018
:101EB00000E0E12EF12CEE0CFF1C97012F5D3B4F53
:101EC000790120918004021708F042C0F701608177
:101ED0007181002E02C0769567950A94E2F7129FF1
:101EE00090011124200F311DE9E1F4E080E0458DDF
:101EF000568D2417350709F46EC18F5F36968A30E8
:101F0000B1F760FF23C0E9E1F4E090E080E0448DA8
:101F1000411117C0E0917904F0917A04E20FF31FA8
:101F20004081B89EF001B99EF00D1124E75EFB4F91
:101F3000448F368F258F10A2178E61E00E94120504
:101F400005C0019636968A30910509F70F5FB9CF23
:101F50001F5FA9CF10E0F60181A18111182FF6E0D3
:101F6000CF0ED11CCC15DD05B1F70E94780460932B
:101F7000750470937604809377049093780411230A
:101F800009F4AEC080913A04882309F4A9C0809175
:101F9000380490913904019709F0A2C0809135046A
:101FA000109266038111A1C00E94D504809114048F
:101FB000882351F1109214040E94D504811124C089
:101FC0006CE372E08BE595E00E94800D6CE372E0BB
:101FD00083E795E00E94800D6CE272E08BE595E06E
:101FE0000E94800D0E94D5048823E1F3809114049F
:101FF0008823C1F3109214048BE595E00E94200A17
:1020000083E795E00E94200A8091F701823008F072
:10201000DEC0F8948CEE91E00E9454076091F301C9
:102020007091F4018091F5019091F601789422E08D
:1020300030E040E050E00E945C3569017A01809117
:10204000DC019091DD01A091DE01B091DF018C15E2
:102050009D05AE05BF05A9F1281B390B4A0B5B0B8B
:10206000DA01C901B7FFB5C082E00E9438090E94B9
:10207000780480919E048F3F99F00E9478046F5FEE
:102080007F4F8F4F9F4F6093080370930903809396
:102090000A0390930B0380910303826080930303F0
:1020A00080919B0485FD05C08F7D80939B040E94D9
:1020B000370BC092DC01D092DD01E092DE01F0929C
:1020C000DF01DF91CF911F910F91FF90EF90DF9093
:1020D000CF90BF90AF909F908F907F906F9008951A
:1020E00010928504109266035FCF853689F044F420
:1020F0008A3009F45FC0843699F18093660354CF27
:10210000823709F455C0853709F450C08C36A9F7D9
:1021100081E00E9438090E94780480919E048F3FDC
:1021200099F00E9478046F5F7F4F8F4F9F4F6093AD
:1021300008037093090380930A0390930B03809123
:10214000030382608093030380919B0485FD05C097
:102150008F7D80939B040E94370B0E94D60803C09A
:1021600082E00E9438090E94780480919E048F3F8B
:1021700099F00E9478046F5F7F4F8F4F9F4F60935D
:1021800008037093090380930A0390930B038091D3
:10219000030382608093030380919B0485FD04CF39
:1021A0008F7D80939B040E94370BFECE83E0D9CFB6
:1021B00080E0D7CF80919E048F3F31F080919B04C7
:1021C000806180939B04CFCF0E94E708CCCFF89426
:1021D00025CF83E04ACF6170B1CE48E1469F9001A0
:1021E000479F300D1124BC01C901855A9A4F0E94A6
:1021F000600D0E94BA0D80919B0484FF05C08F7E04
:1022000080939B0481E0089581FFF3CF8D7F8093BD
:102210009B0480E008950F931F938091030380FF38
:102220004EC00E9478040091040310910503209190
:10223000060330910703601B710B820B930B009117
:1022400000011091010120910201309103016017FA
:1022500071078207930798F10E9478046093040342
:1022600070930503809306039093070380910C03FA
:1022700080FD20C0816080930C0381E090E0A0E0AD
:10228000B0E08093000190930101A0930201B0930C
:10229000030162E082E00E94E50362E083E00E94C5
:1022A000E50362E081E10E94E50362E080911004B1
:1022B0000E94E5030E94BA0D81E080930A011F91FC
:1022C0000F9108952F923F924F925F926F927F925B
:1022D0008F929F92AF92BF92CF92DF92EF92FF9236
:1022E0000F931F93CF93DF93CDB7DEB760970FB6F1
:1022F000F894DEBF0FBECDBF1C014A015B0128016F
:102300003901FC0160817181828193818E010F5FAF
:102310001F4F22E041E00E947D2BB80183E795E04A
:102320000E94750A81E080938A0580919B048D7ECE
:1023300080939B040E94BA0D80919B0481FF1FC073
:102340008D7F80939B040E943F0A80E060960FB6C9
:10235000F894DEBF0FBECDBFDF91CF911F910F91DB
:10236000FF90EF90DF90CF90BF90AF909F908F90B5
:102370007F906F905F904F903F902F90089584FFD3
:1023800020C08F7E80939B0487E795E00E949B2B63
:102390006B017C01F101C082D182E282F382A30150
:1023A00092010E944B35181674F2A5019401C701E1
:1023B000B6010E94403287FDC6CF0E943F0A81E0ED
:1023C000C5CF10916603112309F4B4CF80918A051B
:1023D000882321F010928A050E943F0A8091880587
:1023E000909189058F3091057CF49C012F5F3F4FC0
:1023F0003093890520938805855A9A4FFC01148FE4
:10240000255A3A4FF901148E83E795E00E94200A7D
:10241000109266038FCFCF92DF92EF92FF920F93CD
:102420001F93CF93DF93CDB7DEB7C054D1090FB65A
:10243000F894DEBF0FBECDBF6C018B01F42EE22EEF
:1024400087E693E00E9494020196D1F7012E000CDA
:10245000220B330B00936B0310936C0320936D03DB
:1024600030936E03B60187E693E00E94BF0765EAEA
:1024700071E087E693E00E94BF0721E0EE20A1F122
:102480008E010F5F1F4FF1100FC080E4F801119211
:102490008A95E9F760E470E0C8010E948404181688
:1024A000190684F020E020C080E4F80111928A959A
:1024B000E9F760E470E0C8010E9484041816190668
:1024C00024F3F0CFF80101900020E9F73197E01BE9
:1024D000F10BEC0FFD1F108268EA71E0C8010E9449
:1024E000B53521E0892BF1F6822FC05CDF4F0FB6A6
:1024F000F894DEBF0FBECDBFDF91CF911F910F913A
:10250000FF90EF90DF90CF90089521E040E068EBDE
:102510007BE08BEA91E00C940B127F928F929F925A
:10252000AF92BF92CF92DF92EF92FF920F931F93E1
:10253000CF93DF93CDB7DEB7A8970FB6F894DEBF81
:102540000FBECDBF7C01CB01BA0187010E5F1F4FCB
:10255000000F111F000F111FF801E35EFC4F218DCA
:10256000328D438D548D0E94DE335B016C0120E07F
:1025700030E0A9010E94403287FD74C0F801E35F9A
:10258000FC4F80809180028113819501A601B401E6
:10259000C8010E944032712C87FF04C054016801B9
:1025A000772473944E012FE1820E911C840122E066
:1025B00041E0B501C6010E947D2B809134019091CC
:1025C0003501A0913601B091370189839A83AB839D
:1025D000BC830E511109F701EE0FFF1FE00FF11F31
:1025E000808191819F928F929F938F938BE092E055
:1025F0009F938F931F928EE18F931F930F930E944F
:10260000EA2B20E040E068EE73E0C8010E940B1264
:102610000FB6F894DEBF0FBECDBF882379F0F70167
:10262000EE0FFF1FEE0FFF1FE35EFC4FC501D6014B
:10263000818F928FA38FB48F81E08725A8960FB6E4
:10264000F894DEBF0FBECDBFDF91CF911F910F91E8
:10265000FF90EF90DF90CF90BF90AF909F908F90C2
:102660007F90089577247394A12CB12CC12CD12C88
:1026700099CF5F926F927F928F929F92AF92BF920B
:10268000CF92DF92EF92FF920F931F93CF93DF933E
:10269000CDB7DEB7C456D1090FB6F894DEBF0FBE72
:1026A000CDBF7C0187E693E00E9494020196D1F7AA
:1026B00088EE93E0A0E0B0E080936B0390936C030E
:1026C000A0936D03B0936E036FEA71E087E693E029
:1026D0000E94BF0765EA71E087E693E00E94BF07AA
:1026E0008E010F5F1F4F84E6F80111928A95E9F77A
:1026F00064E670E0C8010E948404181619060CF004
:1027000056C0F80101900020E9F73197E01BF10B6A
:10271000EC0FFD1F108261EB71E0C8010E94BE2B1F
:1027200010E000E03701FFEF6F1A7F0A570125E044
:10273000A20EB11C4701E9E08E0E911C5524539462
:10274000009709F450C00230110509F448C07CF428
:1027500001151105D9F00130110519F160EC71E096
:1027600090E080E00E94BE2B0F5F1F4FE9CF033047
:102770001105B9F164010430110581F70E949B2B0A
:10278000F6016083718382839383E8CFF70110821F
:1027900066EB71E00E94B535892B01F7F701508295
:1027A000DDCF6BEB71E00E94B535892BB9F280E08B
:1027B000CC59DF4F0FB6F894DEBF0FBECDBFDF910F
:1027C000CF911F910F91FF90EF90DF90CF90BF902E
:1027D000AF909F908F907F906F905F90089563016E
:1027E000CDCF6501CBCF81E0E3CF4F925F926F9267
:1027F0007F929F92AF92BF92CF92DF92EF92FF9221
:102800000F931F93CF93DF93CDB7DEB7EF970FB63C
:10281000F894DEBF0FBECDBF29013A012EE1922E02
:102820009E012F5F3F4F7901F901292D11922A95C1
:10283000E9F76E013CE2C30ED11C860122E041E0C3
:102840000E947D2B5E0186E3A80EB11C850122E06B
:1028500041E0C301B2010E947D2BBF92AF92DF9293
:10286000CF9281E693E09F938F931F929F92FF9266
:10287000EF920E94EA2B21E040E068EE73E0C7018E
:102880000E940B120FB6F894DEBF0FBECDBF882397
:1028900021F0CE014F960E943913EF960FB6F894AF
:1028A000DEBF0FBECDBFDF91CF911F910F91FF9083
:1028B000EF90DF90CF90BF90AF909F907F906F9000
:1028C0005F904F9008950F931F93CF93DF9384E011
:1028D00080931D030DE113E0D0E0C0E0CE010E9423
:1028E0007733F80161918F01861719F0CE010E94AC
:1028F0007F332196C934D10589F7DF91CF911F919C
:102900000F9108950F931F9360E573E08BE595E0B9
:102910000E94600D00E010E020E732E440E050E06B
:10292000BA0186E493E00E946211882309F466C02C
:102930006FE373E08BE595E00E94600D00E010E02E
:1029400020E231E440E050E0BA018AE493E00E94E2
:102950006211882309F452C062E373E08BE595E0CD
:102960000E94600D609122037091230380912403E3
:10297000909125039B01AC010E94DF338B019C01E8
:1029800040E050E0BA0182E593E00E9462118823A2
:10299000A9F163E273E08BE595E00E94600D009180
:1029A000260310912703209128033091290340E04A
:1029B00050E0BA018EE493E00E9462118823F1F0A6
:1029C00063E173E08BE595E00E94600D00912603C2
:1029D00010912703209128033091290340E050E013
:1029E000BA0182E393E00E946211882339F00E94C9
:1029F000631480919C04826080939C041F910F91CA
:102A000008953F924F925F926F927F928F929F9222
:102A1000AF92BF92CF92DF92EF92FF920F931F93EC
:102A2000CF93DF93CDB7DEB7C354D1090FB6F89477
:102A3000DEBF0FBECDBF24966CAF7DAF8EAF9FAF14
:102A4000249749015A01302E20913E0330913F03D3
:102A500040914003509141030E94DE336B017C01A1
:102A600020E030E0A9010E94403287FF1BC0F12C1A
:102A70008F2DCD5BDF4F0FB6F894DEBF0FBECDBFFD
:102A8000DF91CF911F910F91FF90EF90DF90CF904A
:102A9000BF90AF909F908F907F906F905F904F907E
:102AA0003F9008952091150330911603409117032C
:102AB00050911803C701B6010E944B351816BCF29D
:102AC00020914203309143034091440350914503C8
:102AD000C501B4010E94DE332B013C0120E030E04F
:102AE000A9010E94403287FDC2CF20911903309185
:102AF0001A0340911B0350911C03C301B2010E94B1
:102B00004B3518160CF4B3CF3E018CE2680E711CE5
:102B1000830122E041E0C701B6010E947D2B7E01C6
:102B200096E3E90EF11C209142033091430340915A
:102B3000440350914503C501B4010E94DE3387016F
:102B400022E041E00E947D2BFF92EF927F926F92F4
:102B50008DE192E09F938F931F928EE18F930553A7
:102B600011091F930F930E94EA2B232D40E060E18F
:102B700077E2C8010E940B12F82E0FB6F894DEBF60
:102B80000FBECDBF882309F472CF20913E03309150
:102B90003F03409140035091410324966CAD7DADBD
:102BA0008EAD9FAD24970E94DE3360933603709301
:102BB0003703809338039093390320914203309177
:102BC00043034091440350914503C501B4010E9461
:102BD000DE3360933A0370933B0380933C039093FE
:102BE0003D030E946314332009F442CFCE014F9677
:102BF0000E9439138823D1F3FF8CF11039CF64E69A
:102C000070E080E090E00E944604F0CF0F9381E0F6
:102C100090E00E94A4079B01AC0101E060E070E03D
:102C200080E291EC0E94011590E080E00E94A407F0
:102C300020E030E040E251EC0E940115E8E8F4E0C9
:102C400084898260848B0F9108957F928F929F92E6
:102C5000AF92BF92CF92DF92EF92FF920F931F93AA
:102C6000CF93DF934B015C01F22E132FD42FC52F8E
:102C7000AC019B016091D4017091D5018091D60186
:102C80009091D7010E94403287FD1AC001E02F2D9C
:102C9000312F4D2F5C2FC501B4010E940115811108
:102CA0004CC080E0DF91CF911F910F91FF90EF908A
:102CB000DF90CF90BF90AF909F908F907F900895BE
:102CC0002F2D312F4D2F5C2F6091D0017091D101AC
:102CD0008091D2019091D3010E944032882341F12A
:102CE000209111033091120340911303509114036A
:102CF0006F2D712F8D2F9C2F0E94DE33762EC72EC5
:102D0000D82EE92E20910D0330910E0340910F0330
:102D100050911003C501B4010E94DF3300E0272D5C
:102D20003C2D4D2D5E2D0E9401158111AFCFB9CFE5
:102D30007F2CC12EDD2EEC2EE5CF8092D401909217
:102D4000D501A092D601B092D7014F2D512F6D2FF2
:102D50007C2F4093D0015093D1016093D2017093A6
:102D6000D301A0CFCF92DF92EF92FF9261E070E0AB
:102D700087EC92E00E94ED10882309F45EC021E008
:102D800041E068EA71E686EC91E00E940B12C09087
:102D90002203D0902303E0902403F090250320E049
:102DA00030E0A901C701B6010E94F513882391F014
:102DB000C0923603D0923703E0923803F092390381
:102DC00010923A0310923B0310923C0310923D0381
:102DD0000E946314209136033091370340913803E9
:102DE0005091390360912203709123038091240351
:102DF000909125030E94DE3360933E0370933F035E
:102E000080934003909341030E94631420913A03FE
:102E100030913B0340913C0350913D0360E070E0F2
:102E2000CB010E94DE33609342037093430380938F
:102E30004403909345030E94631461E070E08CEBBF
:102E400092E00E94ED10882339F020E030E0A901E3
:102E5000CA01B9010E94251680919C04826080936A
:102E60009C04FF90EF90DF90CF9008952F923F92B7
:102E70004F925F926F927F928F929F92AF92BF928A
:102E8000CF92DF92EF92FF920F931F93CF93DF9336
:102E9000CDB7DEB7C45AD1090FB6F894DEBF0FBE66
:102EA000CDBFCD56DF4F99838883C359D040CF56CD
:102EB000DF4F79836883C159D040CD55DF4F5983A7
:102EC0004883C35AD040C556DF4F088319832A83ED
:102ED0003B83CB59D04030901E0320911F03CD5728
:102EE000DF4F2883C358D04030912003CC57DF4FA9
:102EF0003883C458D04040912103C158DF4F4883E4
:102F0000CF57D04040902203509023036090240379
:102F100070902503F12CE12CCF56DF4F88819981E9
:102F2000C159D040E816F9060CF036C2EDE0EE9D2E
:102F3000D001EF9DB00D1124CB56DF4FB983A8838C
:102F4000C559D040CD56DF4FC880D980C359D04035
:102F5000CA0EDB1ED601BC91EA96BFAFEA97F60116
:102F600001811281238084809580A680B78020858E
:102F7000318542855385C956DF4F288339834A837B
:102F80005B83C759D040A5019401EA966FADEA97DB
:102F9000702F812F922D0E94DF33EF966CAF7DAFA3
:102FA0008EAF9FAFEF97A5019401632DCD57DF4FF3
:102FB0007881C358D040CC57DF4F8881C458D04067
:102FC000C158DF4F9881CF57D0400E944B3518161B
:102FD00074F420E030E0A901EA966FADEA97702F13
:102FE000812F922D0E944032882309F414C6C556C1
:102FF000DF4F288139814A815B81CB59D040632DD5
:10300000CD57DF4F7881C358D040CC57DF4F8881F0
:10301000C458D040C158DF4F9881CF57D0400E944C
:10302000DF339B01AC01EF966CAD7DAD8EAD9FADF6
:10303000EF970E944B3518160CF40CC1EF962CAD8F
:103040003DAD4EAD5FADEF97C301B2010E944B3570
:1030500087FFE1C5EF962CAD3DAD4EAD5FADEF976F
:10306000C556DF4F688179818A819B81CB59D040D9
:103070000E94DE33C156DF4F6883CF59D040C0561F
:10308000DF4F7883C05AD040CF55DF4F8883C15A75
:10309000D040CE55DF4F9883C25AD040EA962FAD2C
:1030A000EA97302F412F522DC301B2010E944032C6
:1030B00018166CF0EF962CAD3DAD4EAD5FADEF97B1
:1030C000C301B2010E94403218160CF0C2C5EA9644
:1030D0002FADEA97302F412F522DC301B2010E942C
:1030E000DE33EC966FAFEC97C857DF4F7883C85844
:1030F000D040C757DF4F8883C958D040C357DF4FF0
:103100009883CD58D0409B01AC01C501B4010E9409
:10311000DE33B62EA72E982E892EEC962FADEC9787
:10312000C857DF4F3881C858D040C757DF4F488154
:10313000C958D040C357DF4F5881CD58D040632D78
:10314000CD57DF4F7881C358D040CC57DF4F8881AF
:10315000C458D040C158DF4F9881CF57D0400E940B
:103160004B3518160CF5EC963FAEEC97CD57DF4F6C
:10317000B881C358D040C857DF4FB883C858D04033
:10318000CC57DF4FE881C458D040C757DF4FE883A2
:10319000C958D040C158DF4FF881CF57D040C357EE
:1031A000DF4FF883CD58D0402B2D3A2D492D582D87
:1031B000632DCD57DF4F7881C358D040CC57DF4FB8
:1031C0008881C458D040C158DF4F9881CF57D04034
:1031D0000E944B3518160CF455C5EA968FADEA9748
:1031E000902FA12FB22DF60180839183A283B38308
:1031F000EC968FADEC97C857DF4F9881C858D040F8
:10320000C757DF4FA881C958D040C357DF4FB88197
:10321000CD58D04084839583A683B783C956DF4FAA
:10322000288139814A815B81C759D0402087318705
:10323000428753871486CD55DF4FE881F981C35A01
:10324000D040CF56DF4F28813981C159D0402E1749
:103250003F075CF160EA72E08BE595E00E94600D4B
:1032600068EE73E080E090E00E94460480919C0448
:10327000826080939C04CC55DF4F0FB6F894DEBF7C
:103280000FBECDBFDF91CF911F910F91FF90EF90B7
:10329000DF90CF90BF90AF909F908F907F906F9076
:1032A0005F904F903F902F900895CB56DF4F08814D
:1032B0001981C559D040035F1F4FCD56DF4F28817C
:1032C0003981C359D040020F131FCF56DF4F888179
:1032D0009981C159D0408E199F0901973DE0389FCF
:1032E000A001399F500D1124CB56DF4F8881998161
:1032F000C559D0404A96B801CD56DF4FA881B98153
:10330000C359D0408A0F9B1F0E94A335C156DF4F7F
:103310008881CF59D040C056DF4F9881C05AD040E5
:10332000CF55DF4FA881C15AD040CE55DF4FB8816D
:10333000C25AD040F80180839183A283B3838B2D3E
:103340009A2DA92DB82D84839583A683B783C9565A
:10335000DF4F288139814A815B81C759D040D8012C
:103360002087318742875387E1E01C96EC93FFEF7B
:10337000EF1AFF0ACF56DF4F28813981C159D0405B
:103380002F5F3F4FCF56DF4F39832883C159D0403D
:103390003FEFE31AF30AC0CD512C412C41E0CD5749
:1033A000DF4F4883C358D040712C612CEB961FAE81
:1033B0001EAEEB97CF56DF4F88819981C159D0401F
:1033C0000197CB56DF4F99838883C559D0400DC4F0
:1033D000CB56DF4FE881F981C559D040EB962EAD31
:1033E0003FADEB972E173F070CF00FC42F5F3F4FF9
:1033F000EB963FAF2EAFEB9781E0712C612C9B7F5A
:1034000090939B0431E0C857DF4F3883C858D040B1
:1034100090919B0493FF0FC06114710499F151E0E6
:10342000651A7108977F90939B04B1E0C857DF4FEE
:10343000B883C858D04090919B0494FF0FC09F7EE2
:1034400090939B04E1E0C857DF4FE883C858D04011
:10345000F1E0CD57DF4FF883C358D04090919B04E3
:1034600091FF1EC09D7F90939B0400CFCD57DF4FEF
:103470004881C358D040C857DF4F4883C858D04010
:10348000842FC6CFEB96AEADBFADEB971A161B06D9
:103490004CF61197EB96BFAFAEAFEB9781E0C2CF82
:1034A000882309F4B8C24DE0EB962EAD3FADEB9703
:1034B000429FF001439FF00D1124CD56DF4F8881CC
:1034C0009981C359D040E80FF91F20913203309100
:1034D00033034091340350913503CC57DF4F288399
:1034E00039834A835B83C458D04080911E039091F6
:1034F0001F03A0912003B0912103EF968CAF9DAFE5
:10350000AEAFBFAFEF972081318142815381C15867
:10351000DF4F288339834A835B83CF57D040848130
:103520009581A681B781C757DF4F88839983AA8386
:10353000BB83C958D04080849184A284B38420E0A6
:1035400030E0A901C158DF4F688179818A819B8170
:10355000CF57D0400E94403281117BC1EF962CADF5
:103560003DAD4EAD5FADEF9760E070E080E09FE372
:103570000E94DE3320E030E040E251E40E94A632B7
:103580000E94D4347A83698320E030E040E251E441
:10359000C501B4010E94A6320E94D4347C836B839F
:1035A00044244394512CC757DF4F288139814A81E5
:1035B0005B81C958D040EF966CAD7DAD8EAD9FADAF
:1035C000EF970E944B35181684F420E030E0A901F3
:1035D000C158DF4F688179818A819B81CF57D04064
:1035E0000E944B3518160CF40DC2F201E150F04C5C
:1035F000EE0FFF1FEE0FFF1F21E030E02C0F3D1FED
:10360000E20FF31F60817181072E000C880B990B6C
:103610000E94473220E030E040E251E40E946234F0
:10362000EF962CAD3DAD4EAD5FADEF970E94DF3311
:10363000C158DF4F288139814A815B81CF57D04003
:103640000E94DE339B01AC01C757DF4F688179814F
:103650008A819B81C958D0400E94DE336B017C0176
:10366000EF962CAD3DAD4EAD5FADEF970E9462344D
:103670000E944B341B018C019B01AC01C701B601B8
:103680000E946234C757DF4F688379838A839B83A4
:10369000C958D04020E030E040E85FE3B101C80104
:1036A0000E94DE33C357DF4F6883CD58D040C956E0
:1036B000DF4F7883C759D040C556DF4F8883CB5939
:1036C000D040C156DF4F9883CF59D04020E030E042
:1036D000A901B101C8010E944032882309F49BC1AD
:1036E000120131E0231A30EC330A220C331C220C75
:1036F000331CE1E0F0E0EC0FFD1FE20DF31D6081F3
:103700007181072E000C880B990B0E9447326B01C8
:103710007C0120E030E040E251E4C757DF4F688190
:1037200079818A819B81C958D0400E94A6329B0131
:10373000AC01C701B6010E94DF33C158DF4F688377
:1037400079838A839B83CF57D040A5019401CC57BE
:10375000DF4F688179818A819B81C458D0400E9463
:103760004032C12CD12C760187FF2EC0CC57DF4FC1
:10377000288139814A815B81C458D040C501B40198
:103780000E9462340E94DB34EF966CAF7DAF8EAF47
:103790009FAFEF9744E0240E311C81E090E08C0F46
:1037A0009D1F280E391EED960EAD1FADED97C12C55
:1037B000D12C76010150110908F0F6C0ED96AEAD9E
:1037C000BFADED974A0E5B1EA7019601C501B4017E
:1037D0000E944B35181644F57201EE0CFF1CEE0CDE
:1037E000FF1CE1E0F0E0EC0FFD1FEE0EFF1EC158E4
:1037F000DF4F688179818A819B81CF57D0400E94B9
:10380000D434D7016D937C9320E030E040E251E462
:10381000C501B4010E94A6320E94D434F70173831B
:103820006283FFEF4F1A5F0AC357DF4F2880CD58DE
:10383000D040C956DF4F3880C759D040C556DF4FFA
:103840000881CB59D040C156DF4F1881CF59D040A5
:1038500021CFA5019401CC57DF4F688179818A81FE
:103860009B81C458D0400E944032512C412CC12C25
:10387000D12C760187FF2CC0CC57DF4F28813981AE
:103880004A815B81C458D040C501B4010E946234B2
:103890000E94DB34C357DF4F688379838A839B831D
:1038A000CD58D040DE0111961D01C357DF4F08816E
:1038B0001981CD58D040C12CD12C7601015011096D
:1038C00008F03EC0C357DF4F48805980CD58D040E4
:1038D000A7019601C501B4010E944B3518160CF0E2
:1038E00062CE8201000F111F000F111FE1E0F0E016
:1038F000EC0FFD1F0E0F1F1F20E030E040E251E4EF
:10390000C158DF4F688179818A819B81CF57D04030
:103910000E94A6320E94D434D8016D937C9320E09B
:1039200030E040E251E4C501B4010E94A6320E9499
:10393000D434F80173836283FFEF4F1A5F0A33CEEA
:10394000CC57DF4F288139814A815B81C458D040F0
:10395000C701B6010E94DF336B017C0120E030E03B
:1039600040E251E4C158DF4F688179818A819B81AF
:10397000CF57D0400E94A6320E94D434F101718307
:10398000608320E030E040E251E4C701B6010E94CC
:10399000A6320E94D434D10113967C936E93129771
:1039A000B4E02B0E311C8ACFCC57DF4F28813981F0
:1039B0004A815B81C458D040C701B6010E94DF3301
:1039C0006B017C01C158DF4F688179818A819B81BD
:1039D000CF57D0400E94D434F1017183608320E03E
:1039E00030E040E251E4C701B6010E94A6320E94D5
:1039F000D434D10113967C936E931297B4E02B0EBE
:103A0000311CD8CE0E943F0A70E060E08FE892E05F
:103A10000E94ED102BCCC857DF4F2881C858D040EA
:103A2000222309F448C08DE0EB964EAD5FADEB97D5
:103A3000849F8001859F100D1124CD56DF4FA881F2
:103A4000B981C359D0400A0F1B1FF301EE0FFF1FAE
:103A5000EE0FFF1F21E030E02C0F3D1FE20FF31FA0
:103A600060817181072E000C880B990B0E944732F0
:103A700020E030E040E251E40E94623420911E03D5
:103A800030911F0340912003509121030E94DF33A6
:103A9000D8011C96CC907B018C019201A301CF56DA
:103AA000DF4F68817981C159D040EB968EAD9FADD3
:103AB000EB970E94660CCD57DF4FB881C358D040BA
:103AC000BB2309F48DC08301000F111F000F111FCC
:103AD000E1E0F0E0EC0FFD1F0E0F1F1FD801129662
:103AE0006D917C91072E000C880B990B0E94473238
:103AF00020E030E040E251E40E9462346B017C013E
:103B0000F80160817181072E000C880B990B0E94CF
:103B1000473220E030E040E251E40E9462342091DC
:103B20001E0330911F0340912003509121030E94F6
:103B3000DF33A70196010E942516882309F450C09F
:103B4000C2010197681679060CF04AC0FFEF6F1AA0
:103B50007F0A4DE0EB962EAD3FADEB97429F800183
:103B6000439F100D1124CD56DF4F88819981C35991
:103B7000D040080F191FF301EE0FFF1FEE0FFF1FBC
:103B8000A1E0B0E0AC0FBD1FEA0FFB1F60817181A7
:103B9000072E000C880B990B0E94473220E030E082
:103BA00040E251E40E94623420911E0330911F03D1
:103BB00040912003509121030E94DF33F801C48417
:103BC0007B018C019201A301CF56DF4F688179817F
:103BD000C159D040EB968EAD9FADEB970E94660C1D
:103BE000CD57DF4F1882C358D0400E94BA0D909134
:103BF0009B0492FF3BCC920121503109621673065F
:103C00000CF0E6CBAFEF6A1A7A0ACD57DF4F888106
:103C1000C358D040F4CB20E0EA968FADEA97902FBE
:103C2000A12FB22DF60180839183A283B383848276
:103C30009582A682B782C956DF4F88819981AA8171
:103C4000BB81C759D04080879187A287B3872487DB
:103C50009FCBC156DF4FF881CF59D040EA96FFAFD6
:103C6000EA97C056DF4F0881C05AD040CF55DF4F8A
:103C70001881C15AD040CE55DF4F2880C25AD0405B
:103C800021E0CACFB32CCD57DF4FA880C358D04016
:103C9000CC57DF4F9880C458D040C158DF4F888040
:103CA000CF57D0409ACA2F923F924F925F926F9215
:103CB0007F928F929F92AF92BF92CF92DF92EF92BC
:103CC000FF920F931F93CF93DF93CDB7DEB7C95CFD
:103CD000D1090FB6F894DEBF0FBECDBF6091460389
:103CE0007091470380914803909149030E94D43416
:103CF0001B01409052035090530360905403709006
:103D00005503072E000C880B990B0E9447329B012C
:103D1000AC01C301B2010E9462344B015C01AC01F1
:103D20009B0160911E0370911F038091200390916D
:103D300021030E944B3518160CF460C080914E038D
:103D400090914F03A0915003B0915103CC53DF4F9A
:103D500088839983AA83BB83C45CD0408E010F5FA4
:103D60001F4FD12CC12CF12CE12CC853DF4F0883FD
:103D7000C85CD040C753DF4F1883C95CD040E21401
:103D8000F3045CF5B7010F2C000C880B990B0E9413
:103D90004732A50194010E94A632D8016D937D930C
:103DA0008D939C931397F80184829582A682B782A3
:103DB000CC53DF4F88819981AA81BB81C45CD040FC
:103DC00080879187A287B387FFEFCF1ADF0A82E04F
:103DD000E80EF11C035F1F4FD2CF930182014FE029
:103DE00050E0B601C853DF4F8881C85CD040C7534C
:103DF000DF4F9881C95CD0400E943617C753DF4F10
:103E00000FB6F894DEBF0FBECDBFDF91CF911F91EB
:103E10000F91FF90EF90DF90CF90BF90AF909F9069
:103E20008F907F906F905F904F903F902F9008956C
:103E30002F923F924F925F926F927F928F929F92BA
:103E4000AF92BF92CF92DF92EF92FF920F931F93A8
:103E5000CF93DF93CDB7DEB7CB5CD1090FB6F89423
:103E6000DEBF0FBECDBF60914603709147038091C6
:103E70004803909149030E94D4341B01409052039F
:103E8000509053036090540370905503072E000C1C
:103E9000880B990B0E9447329B01AC01C301B20110
:103EA0000E9462344B015C01AC019B0160911E03D6
:103EB00070911F0380912003909121030E944B3544
:103EC00018160CF46BC080914E0390914F03A09193
:103ED0005003B0915103CC53DF4F88839983AA8359
:103EE000BB83C45CD04080914A0390914B03A09166
:103EF0004C03B0914D03C853DF4F88839983AA8345
:103F0000BB83C85CD0408E010F5F1F4FD12CC12CEA
:103F1000EE24E394F12CE214F304BCF5B7010F2C6A
:103F2000000C880B990B0E944732A50194010E9456
:103F3000A632D8016D937D938D939C931397A50121
:103F40009401C853DF4F688179818A819B81C85C65
:103F5000D0400E94DF33F8016483758386839783A2
:103F6000CC53DF4F88819981AA81BB81C45CD0404A
:103F700080879187A287B387FFEFCF1ADF0A82E09D
:103F8000E80EF11C035F1F4FC6CF930182014FE083
:103F900050E0B601CE0101960E943617C553DF4F9F
:103FA0000FB6F894DEBF0FBECDBFDF91CF911F914A
:103FB0000F91FF90EF90DF90CF90BF90AF909F90C8
:103FC0008F907F906F905F904F903F902F900895CB
:103FD0000F931F93CF93DF93CDB7DEB76A970FB6DA
:103FE000F894DEBF0FBECDBF67E073E08BE595E0D0
:103FF0000E94600D00E010E028EC32E440E050E068
:10400000BA0186E593E00E946211882309F4A2C0F8
:104010006BEF72E08BE595E00E94600D0091260346
:1040200010912703209128033091290340E050E0AC
:10403000BA018EE593E00E946211882309F48AC0D8
:104040006BEE72E08BE595E00E94600D0091260317
:1040500010912703209128033091290340E050E07C
:10406000BA0182E393E00E946211882309F472C0CE
:104070006CED72E08BE595E00E94600D00912203EB
:1040800010912303209124033091250340E050E058
:10409000BA018AE593E00E946211882309F45AC0AC
:1040A0006FEC72E08BE595E00E94600D00912203B9
:1040B00010912303209124033091250340E050E028
:1040C000BA0182E693E00E946211882309F442C09B
:1040D0000E946314FE013D968EE0DF011D928A95D9
:1040E000E9F780915A0390915B03A0915C03B09132
:1040F0005D0389839A83AB83BC838091560390913F
:104100005703A0915803B09159038D839E83AF83C9
:10411000B88780915E0390915F03A0916003B09196
:10412000610389879A87AB87BC87009162031091EE
:104130006303209164033091650342E050E061E045
:1041400070E0CE0101960E94361780919C04826037
:1041500080939C046A960FB6F894DEBF0FBECDBF65
:10416000DF91CF911F910F9108951F93CF93DF930C
:10417000CDB7DEB72F970FB6F894DEBF0FBECDBF19
:1041800085E88E871F8621E041E068EE73E0CE016E
:104190000E960E940B1211E0882309F1CE010196C0
:1041A0000E943913182F8823D1F08E819F81A88512
:1041B000B9858093360390933703A0933803B09367
:1041C00039038A859B85AC85BD8580933A0390939E
:1041D0003B03A0933C03B0933D030E946314812FE3
:1041E0002F960FB6F894DEBF0FBECDBFDF91CF91F3
:1041F0001F9108952F923F924F925F926F927F92FC
:104200008F929F92AF92BF92CF92DF92EF92FF92E6
:104210000F931F93CF93DF93CDB7DEB72A970FB6D7
:10422000F894DEBF0FBECDBF8E8390E080E00E9489
:10423000A40769837A838B839C830E9478042B0173
:104240003C010E9478046B017C0190E080E00E94B8
:10425000F60C21E02D8322242394312CD701C601B2
:1042600088519C4FAF4FBF4F8F839887A987BA87DC
:104270000E94BA0D809166038D32C4F110926603DC
:104280000E943F0AC0903E03D0903F03E09040035D
:10429000F0904103209115033091160340911703CC
:1042A00050911803C701B6010E94DF334B015C0136
:1042B00020E030E0A901C701B6010E94DF33AB0165
:1042C000BC0195018401CE0101960E9462118823F0
:1042D00069F049815A816B817C8190E080E00E9485
:1042E0008D1290E080E00E94F60CC2CF80919B047A
:1042F000982F9470282F2C7009F4AEC00FEF1FEF89
:10430000911102C001E010E0837F80939B040E9422
:10431000780464197509860997090E9445324B0192
:104320005C01B801012E000C880B990B0E944732EA
:104330006B017C0120E030E040E752E4C501B401AC
:104340000E94403220E030E040E850E487FD32C077
:1043500020E030E04CE852E4C501B4010E94403254
:1043600087FF1AC0A7019601C701B6010E94DF337B
:104370006B017C010215130511F19D8191110AC099
:104380000E94B52090E080E00E94A40769837A83B0
:104390008B839C8318016CCF20E030E044EB52E427
:1043A000C501B4010E94403287FDE4CF2DEC3CEC06
:1043B0004CEC5DE3C701B6010E94A632D9CFA7013C
:1043C000960169817A818B819C810E94DF336983A8
:1043D0007A838B839C830E9478042B013C01498162
:1043E0005A816B817C8190E080E00E948D1290E088
:1043F00080E00E94F60C1D8280919B04AE81AA236E
:1044000039F184FF35CF8F7E80939B040E94B520C5
:104410000E943F0A80919C04826080939C042A96AB
:104420000FB6F894DEBF0FBECDBFDF91CF911F91C5
:104430000F91FF90EF90DF90CF90BF90AF909F9043
:104440008F907F906F905F904F903F902F90089546
:1044500081FF0ECF8D7FD8CF0E9478042F813885C1
:1044600049855A85261737074807590728F60E94B5
:104470006314C2CF8F929F92AF92BF92CF92DF927E
:10448000EF92FF920F931F93CF93DF93CDB7DEB7D9
:1044900060970FB6F894DEBF0FBECDBF21E040E0BD
:1044A00068EB7BE089EC91E00E940B1266E672E01B
:1044B0008BE595E00E94600D80901E0390901F0395
:1044C000A0902003B090210300E010E020EA32E445
:1044D00040E050E0BA018EE193E00E94621188232F
:1044E00039F00E94631480919C04826080939C0444
:1044F00090E080E00E94A4076B017C01A50194017B
:1045000060911E0370911F038091200390912103FD
:104510000E94DE3320E030E040E05FE30E94A632FC
:10452000A70196010E94DF332091360330913703B3
:1045300040913803509139030E94DE3360933E036B
:1045400070933F0380934003909341030E94631450
:1045500070E060E08AE592E00E94ED10882309F4A3
:1045600059C020E030E040E251E460E070E0CB016F
:104570000E9425166DE472E08BE595E00E94600DC7
:1045800010923E0310923F03109240031092410399
:104590000E94631481E00E94FA2060E472E08BE5DF
:1045A00095E00E94600D64EF71E080E090E00E9471
:1045B00046042091360330913703409138035091DF
:1045C000390360E070E0CB010E94DE3360933E036C
:1045D00070933F0380934003909341030E946314C0
:1045E0006DE372E083E795E00E94600D90E080E06B
:1045F0000E94A4078E010F5F1F4F22E041E00E943E
:104600007D2BC8010E944E0A68EE73E080E090E0C6
:104610000E94460490E080E00E94A40701E020E0B0
:1046200030E0A9010E94011581E090E00E94A407FA
:104630009B01AC0160E070E0CB010E9401150E947B
:10464000851280919C04826080939C0460960FB6D2
:10465000F894DEBF0FBECDBFDF91CF911F910F91B8
:10466000FF90EF90DF90CF90BF90AF909F908F9092
:1046700008956FEA72E08BE595E00E94600D80E09E
:104680000E94FA20E8E8F4E084898260848B08952F
:104690000F931F93CF93DF93CDB7DEB7C954D109E2
:1046A0000FB6F894DEBF0FBECDBF49E450E070E016
:1046B00060E0CE0101960E9467338981843009F45D
:1046C00070C040E050E060E271E44A835B836C8339
:1046D0007D8380E090E0ABE9B3E48E839F83A8877D
:1046E000B98780E090E0A4E8B2E48A879B87AC8732
:1046F000BD8780E090E0A0E8BFE38E879F87A88B0E
:10470000B98B8A8B9B8BAC8BBD8B00E010E020E7D4
:1047100031E40E8B1F8B288F398F22968CAF9DAF83
:10472000AEAFBFAF229780E090E0A0E9B1E48AAFDE
:104730009BAFACAFBDAF80E090E0AAE7B3E42A96B0
:104740008CAF9DAFAEAFBFAF2A9726961CAE1DAE05
:104750001EAE1FAE26970DEC1CEC2CEC3DE30EA715
:104760001FA728AB39AB4AA75BA76CA77DA78EAB69
:104770009FABA8AFB9AF1AAA1BAA1CAA1DAA1A8E72
:104780001B8E1C8E1D8E1E8E1F8E18A219A21AA2A1
:104790001BA21CA21DA21EA21FA218A619A60E943F
:1047A000631489E4FE013196ADE1B3E001900D920E
:1047B0008A95E1F7C75BDF4F0FB6F894DEBF0FBEF7
:1047C000CDBFDF91CF911F910F9108950F931F934C
:1047D00080919B0481FF05C080919C04826080933E
:1047E0009C0462E872E08BE595E00E94600D00E0B9
:1047F00010E020EA30E440E050E0BA018AE293E0C1
:104800000E9462118823E1F064E772E08BE595E095
:104810000E94600D00E010E02AEF34E440E050E038
:10482000BA0182E293E00E946211882349F00E945B
:1048300063140E94482380919C04826080939C04AE
:104840001F910F9108951F920F920FB60F9211248E
:104850002F933F934F935F936F937F938F939F9388
:10486000AF93BF93EF93FF9387E693E00E94D60246
:10487000FF91EF91BF91AF919F918F917F916F9138
:104880005F914F913F912F910F900FBE0F901F900E
:1048900018951F920F920FB60F9211242F938F939A
:1048A0009F93EF93FF93E0917703F09178038081DA
:1048B000E0917D03F0917E0382FD1BC09081809189
:1048C00080038F5F8F7320918103821741F0E09105
:1048D0008003F0E0E959FC4F958F80938003FF91AE
:1048E000EF919F918F912F910F900FBE0F901F907E
:1048F00018958081F4CF1F920F920FB60F9211245A
:104900002F933F938F939F93AF93BF938091AA026E
:104910009091AB02A091AC02B091AD023091A9028E
:1049200023E0230F2D3758F50196A11DB11D2093CB
:10493000A9028093AA029093AB02A093AC02B09319
:10494000AD028091AE029091AF02A091B002B09101
:10495000B1020196A11DB11D8093AE029093AF02EA
:10496000A093B002B093B102BF91AF919F918F918C
:104970003F912F910F900FBE0F901F90189526E832
:10498000230F0296A11DB11DD2CF1F920F920FB619
:104990000F9211242F933F934F935F936F937F93C5
:1049A0008F939F93AF93BF93EF93FF93E091060193
:1049B000F09107010995FF91EF91BF91AF919F9100
:1049C0008F917F916F915F914F913F912F910F90B8
:1049D0000FBE0F901F9018951F920F920FB60F9257
:1049E00011242F933F934F935F936F937F938F93F4
:1049F0009F93AF93BF93EF93FF93E0910401F091E6
:104A000005010995FF91EF91BF91AF919F918F9112
:104A10007F916F915F914F913F912F910F900FBEBA
:104A20000F901F9018951F920F920FB60F9211249E
:104A30002F933F934F935F936F937F938F939F93A6
:104A4000AF93BF93EF93FF938091B900887F803637
:104A500009F44AC0F0F5883209F4A7C018F580318E
:104A600009F49BC0B8F4882309F4F9C0883009F42C
:104A700094C0FF91EF91BF91AF919F918F917F91E2
:104A80006F915F914F913F912F910F900FBE0F90BB
:104A90001F901895883109F488C0803251F78093AF
:104AA000860214C0803409F49DC040F48033B9F309
:104AB0008833F9F68093860285ECB0C0803509F41E
:104AC00085C0883509F496C0883499F60E9423067B
:104AD000D0CF883909F48CC038F5883729F050F4E4
:104AE000883611F0803729F683E08093B80210925F
:104AF000620257C0883809F47BC0803919F08038C9
:104B000009F0B7CF80916202803208F071C0E09165
:104B1000620281E08E0F809362028091BB00F0E020
:104B2000EE5BFD4F80833DC0803B39F0E0F4803A7E
:104B300009F479C0883A09F09CCF84E08093B802E8
:104B40001092410210924002E091B402F091B5023D
:104B500009958091400281110FC081E0809340024D
:104B60001092200209C0803C09F4A6CF883C09F4C9
:104B7000A3CF883B09F07DCFE091410281E08E0F09
:104B800080934102F0E0E05EFD4F80818093BB00A6
:104B9000909141028091400229C0809163028093EC
:104BA000BB0085EC8093BC0064CF9091850280911E
:104BB0008402981758F5E091850281E08E0F80936A
:104BC0008502F0E0EC59FD4F8081E9CFE09185024C
:104BD00081E08E0F809385028091BB00F0E0EC595C
:104BE000FD4F808390918502809184029817C8F2CE
:104BF00085E8D8CFE091850281E08E0F8093850211
:104C00008091BB00F0E0EC59FD4F80838091B702AA
:104C100081115CCF81E08093B60284EA8093BC006E
:104C20001092B80226CF85EC8093BC001092B80297
:104C300080916202803230F4E0916202F0E0EE5B3B
:104C4000FD4F10826091620270E0E091B202F0913B
:104C5000B30282E492E00995109262020ACF1092A8
:104C6000860234CFCF9310926A031092690388EEC4
:104C700093E0A0E0B0E080936B0390936C03A0936B
:104C80006D03B0936E0324E631E030936803209304
:104C9000670325EC30E0309374032093730324EC16
:104CA00030E0309376032093750320EC30E03093AE
:104CB00078032093770321EC30E030937A0320933C
:104CC000790322EC30E030937C0320937B0326ECC5
:104CD00030E030937E0320937D0310928003109286
:104CE00081031092820310928303109207041092A2
:104CF00006048093080490930904A0930A04B093D7
:104D00000B0486E791E090930504809304041092CD
:104D10005C0510925B0510925E0510925D05109285
:104D20007105109270051092720510927405109220
:104D3000730581E090E0909376058093750510925D
:104D400089051092880510928A05109252051092DA
:104D5000510582E991E09093500580934F058FE3D0
:104D60008093530580E180935805C2E0C0935905B4
:104D700010925A050E94780487E495E01092480545
:104D80001092470510924C0510924B0510924A055F
:104D90001092490510924D0521E020934E05109286
:104DA000400510923F051092440510924305109261
:104DB0004205109241051092450510924605109249
:104DC00038051092370510923C0510923B05109261
:104DD0003A051092390520933D0510923E05109238
:104DE000300510922F051092340510923305109261
:104DF000320510923105C093350510923605109298
:104E000028051092270510922C0510922B05109260
:104E10002A051092290523E020932D0510922E05D6
:104E20001092200510921F05109224051092230560
:104E3000109222051092210524E02093250510925E
:104E40002605109218051092170510921C05109255
:104E50001B0510921A051092190525E020931D05D7
:104E600010921E051092100510920F051092140555
:104E700010921305109212051092110526E020934E
:104E8000150510921605109208051092070510924C
:104E90000C0510920B0510920A051092090527E0E7
:104EA00020930D0510920E05109200051092FF043C
:104EB000109204051092030510920205109201054C
:104EC00028E020930505109206051092F804109230
:104ED000F7041092FC041092FB041092FA04109252
:104EE000F90429E02093FD041092FE041092F004CE
:104EF0001092EF041092F4041092F3041092F20452
:104F00001092F1042AE02093F5041092F604909395
:104F100089048093880490938B0480938A0487EF9C
:104F200093E090938D0480938C0410929C041092D3
:104F3000980410929A041092900410929904C093CD
:104F40008F048FE080938E048FEF80939E041092E5
:104F50009B0410921B0410921F0410921E041092C6
:104F6000200488E891E090931A0480931904E5E303
:104F7000F4E01082148213821582369684E0E137C1
:104F8000F807B9F783E191E090937C0480937B0468
:104F90008FE091E090937E0480937D0485E0809380
:104FA0007F0484E08093800488E191E090937A0408
:104FB000809379048AE090E0909382048093810446
:104FC00084EF91E09093840480938304109287048B
:104FD0001092860410927504109276041092770451
:104FE000109278041092850420E12093100490938D
:104FF00012048093110481E080931304109214042E
:1050000010921504109216041092170410921804AE
:10501000CF910895CF93DF9300D0CDB7DEB77894CA
:1050200084B5826084BD84B5816084BD85B58260AD
:1050300085BD85B5816085BD80916E00816080935E
:105040006E001092810080918100826080938100C7
:1050500080918100816080938100809180008160D7
:10506000809380008091B10084608093B100809132
:10507000B00081608093B00080917A00846080935A
:105080007A0080917A00826080937A0080917A0021
:10509000816080937A0080917A00806880937A00A2
:1050A0001092C100E0917703F091780382E0808351
:1050B000E0917303F09174031082E0917503F09115
:1050C000760380E1808310927F03E0917B03F0916F
:1050D0007C0386E08083E0917903F0917A038081FC
:1050E00080618083E0917903F0917A038081886008
:1050F0008083E0917903F0917A03808180688083D6
:10510000E0917903F0917A0380818F7D8083109202
:10511000BC021092BB021092BA021092B902109215
:10512000B80281E08093B7021092B60261E082E19A
:105130000E94B70361E083E10E94B7038091B90048
:105140008E7F8093B9008091B9008D7F8093B900E4
:1051500088E48093B80085E48093BC0083E892E003
:105160009093B5028093B40284E892E09093B302E6
:105170008093B20210925405809159050E94A00AB2
:1051800088E080935A0560E08FE495E00E94DA069B
:1051900082E00E94A00A0E94950A68E371E080E024
:1051A0000E940A0B60E471E081E00E940A0B68E44F
:1051B00071E082E00E940A0B60E571E083E00E94EA
:1051C0000A0B68E571E084E00E940A0B80919D045F
:1051D000816080939D048DE497E09093D402809346
:1051E000D30289E393E29093BE028093BD028CE4E4
:1051F00097E09093EA028093E9026FE375E087E419
:1052000095E00E940A0689E497E09093D602809385
:10521000D50288EE9FE19093C0028093BF0288E49C
:1052200097E09093EC028093EB0267E375E087E4EC
:1052300095E00E940A0692E8C92E92E0D92ED092FB
:10524000D802C092D70223EAE22E27E0F22EF09293
:10525000C202E092C10202EA17E01093EE0200934C
:10526000ED026FE275E087E495E00E940A0687E4AC
:1052700097E09093DA028093D90282E894E19093C8
:10528000C4028093C30286E497E09093F002809377
:10529000EF0267E275E08FE295E00E940A0685E47E
:1052A00097E09093DC028093DB0288E19FE190938A
:1052B000C6028093C50284E497E09093F202809343
:1052C000F1026FE175E08FE295E00E940A0683E447
:1052D00097E09093DE028093DD0283E59EE1909358
:1052E000C8028093C70282E497E09093F40280930F
:1052F000F30267E175E08FE295E00E940A068FE411
:1053000097E09093E0028093DF0286E096E190932D
:10531000CA028093C9028EE497E09093F6028093CC
:10532000F5026FE075E087E495E00E940A06D092EE
:10533000E202C092E102F092CC02E092CB02109322
:10534000F8020093F70267E075E087E495E00E94B9
:105350000A0683E597E09093E4028093E3028AE3F0
:1053600092E29093CE028093CD0282E597E09093F3
:10537000FA028093F9026FEF74E087E095E00E94F3
:105380000A068BE497E09093E6028093E50282EBB5
:1053900096E19093D0028093CF028AE497E09093B5
:1053A000FC028093FB0267EF74E087E095E00E94C7
:1053B0000A0681E597E09093E8028093E70286EE83
:1053C00093E29093D2028093D10280E597E090938C
:1053D000FE028093FD026FEE74E087E095E00E948C
:1053E0000A060E94D4070E94370B8BE091E190934C
:1053F00000038093FF020E9478046F5F7F4F8F4FFE
:105400009F4F60930403709305038093060390936A
:105410000703809103038160809303038FEF9BE078
:1054200090930203809301030E94482321E040E00F
:1054300068EE73E08DEC91E00E940B1288E18983A5
:105440001A8221E041E068EB7BE0CE0101960E94E8
:105450000B1268EE73E080E090E00E94460421E0C9
:1054600040E068EE73E08DEC91E00E940B1264E680
:1054700070E080E090E00E944604809126039091C5
:105480002703A0912803B091290340912203509152
:105490002303609124037091250300912E03109142
:1054A0002F032091300330913103C0902A03D09014
:1054B0002B03E0902C03F0902D03C0920D03D092AB
:1054C0000E03E0920F03F092100300931103109368
:1054D0001203209313033093140340931503509346
:1054E0001603609317037093180380931903909326
:1054F0001A03A0931B03B0931C0320913A0330912D
:105500003B0340913C0350913D0360913603709101
:10551000370380913803909139030E94F5130E945C
:10552000851200E010E034E6C32ED12CE12CF12CE2
:10553000BB24BA94AA24A39480919C0481FFA9C09F
:1055400080910C038D7F80930C03109208031092BE
:10555000090310920A0310920B03C0920B01D09220
:105560000C01E0920D01F0920E01809103038D7FFA
:1055700080930303E0910901EF3F09F48AC0F0E052
:10558000EE0FFF1FE751FD4F0190F081E02D0995CF
:10559000B09209010E94290B0E94D4070E94370B88
:1055A00010929B04B0929E0480919C048D7F809306
:1055B0009C04909008018FEF981609F452C00E9445
:1055C000D608B0929E0480919C048F7E80939C04A8
:1055D00080919A04882319F00E94BF08F9CF109295
:1055E0009804109296041092970410929B040E94C3
:1055F000D40780919C04816480939C04692D8091E0
:105600008804909189040E94630981110E94E7082F
:1056100080919C048A7F80939C040E9478048091EE
:105620009E048F3F99F00E9478046F5F7F4F8F4FE9
:105630009F4F609308037093090380930A0390932C
:105640000B038091030382608093030380919B048A
:1056500085FD05C08F7D80939B040E94370BB0921F
:10566000080180919C0484FF14C090919E049F3F88
:1056700039F1806180939C040E94D6080E94D4076F
:1056800080919C04806480939C040E94D4070E94B3
:10569000370BE091FF02F0910003099580910A0118
:1056A000811121C0A0920A010115110509F444CF0E
:1056B0000E94C202882309F43FCF0E9400003CCF21
:1056C0008F7E80939C0480919A04882319F00E9415
:1056D000BF08F9CF10929804109296041092970484
:1056E00010929B04CBCFE0910103F0910203099546
:1056F00080910A018111D8CFD5CFEF920F931F93DC
:10570000CF93DF93E80134E047FD34E1042E000C31
:10571000550B57FF03C0519541955109E32E022FB8
:10572000242FAE010E94F42DCE01DF91CF911F9165
:105730000F91EF900895662777270C94532FFB0164
:10574000DC0105900D920020E1F70895FC01059021
:105750000020E9F7809590958E0F9F1F0895FB011B
:10576000DC014150504048F005900D920020C9F7EF
:1057700001C01D9241505040E0F708954BE855E0BC
:105780000E94C32B0895FA01A191B081009719F4EA
:105790001097E1F0CD01DC01CD010D90002011F456
:1057A000C00113C0FB012191222319F02015D9F764
:1057B000F3CFFB012191201519F41E92119606C01A
:1057C0002223C1F70D900020A1F7D001FA01A19387
:1057D000B0830895AEE0B0E0E0EFFBE20C94A633B6
:1057E0000D891E898F89988D2EE02C831A83098359
:1057F00097FF02C080E090E801979E838D83AE0101
:10580000455E5F4F698D7A8DCE0101960E941A2CFC
:105810004D815E8157FD0AC02F813885421753079D
:105820000CF49A01020F131FF80110822E96E4E087
:105830000C94C233ABE0B0E0E0E2FCE20C949833AD
:105840007C013B018A01FC0117821682838181FF62
:10585000C8C1CE0101965C01F7019381F30193FD6C
:10586000859193FF81913F01882309F453C18532CB
:1058700039F493FD859193FF81913F01853229F49D
:10588000B70190E00E94B231E7CF912C212C312C4E
:10589000FFE1F31538F08B3211F190F4803209F109
:1058A000833229F137FC3CC020ED280F2A3050F517
:1058B00036FE20C08AE0989E200D1124922E06C04C
:1058C0008D3291F0803371F7689430F8F30193FDD5
:1058D000859193FF81913F018111DACF21C06894B6
:1058E00031F8689432F8F2CF689433F8EFCF6894C7
:1058F00034F8ECCFEAE02E9E200D1124222E68947D
:1059000035F8E4CF8E3229F436FC04C1689436F8B9
:10591000DDCF8C3619F4689437F8D8CF8836B1F2D9
:10592000982F9F7D95549330E0F08336A1F1833713
:10593000C1F1833509F063C02801F2E04F0E511C1C
:10594000F801C080D180692D70E036FC02C06FEF95
:105950007FEFC6010E949C314C01689437F88201A8
:105960000AC00C5F1F4FFFE3F98388248394912CB6
:105970006501E89437F833FE2DC0522C8114910450
:1059800071F5552009F468CFB70180E290E00E94DC
:10599000B2315A94F6CFF801808189830E5F1F4F90
:1059A000E4CF2801F2E04F0E511CF801C080D180F5
:1059B000692D70E036FC02C06FEF7FEFC6010E94D8
:1059C000A7314C018201D5CFB70180E290E00E945F
:1059D000B2312A942814190409F0B0F7CECFF60199
:1059E00037FC859137FE81916F01B70190E00E94ED
:1059F000B23151105A94F1E08F1A9108BFCF84361A
:105A000019F0893609F077C0F80137FE6BC0608164
:105A10007181828193810C5F1F4FF32DFF763F2EA2
:105A200097FF09C090958095709561957F4F8F4F36
:105A30009F4F689437F82AE030E0A5010E94E231D8
:105A4000C82ECA188C2C432C36FE0CC0E89440F8A3
:105A5000C91440F434FE05C032FC03C0F32DFE7EB1
:105A60004F2E892C44FE95C0FE01EC0DF11D808166
:105A7000803309F087C0242D297E422E842D887022
:105A8000582E43FC95C040FE8FC09C2C821418F405
:105A90002C0C922C981844FE91C0B70180E390E042
:105AA0000E94B23142FE09C088E790E041FE02C088
:105AB00088E590E0B7010E94B231C91408F48AC0A9
:105AC000CA94D12C9FEFC91AD90ACA0CDB1CF60163
:105AD00082916F01B70190E00E94B231AC14BD0415
