:100000000C9431020C944E260C9427260C94590221
:100010000C9459020C9459020C9459020C945902F4
:100020000C9459020C9459020C9459020C945902E4
:100030000C9459020C9459020C9459020C945902D4
:100040000C94DD250C9459020C94AB250C94852559
:100050000C9459020C9459020C9459020C945902B4
:100060000C9475260C9459024E414E494E495459F0
:10007000494E46CDCCCC3D0AD7233C17B7D1387773
:10008000CC2B329595E6241FB14F0A000020410089
:1000900000C84200401C4620BCBE4CCA1B0E5AAED3
:1000A000C59D7400407A10F35A00A0724E180900E2
:1000B00010A5D4E80000E87648170000E40B5402CD
:1000C0000000CA9A3B000000E1F505000080969808
:1000D00000000040420F000000A086010000001058
:1000E0002700000000E8030000000064000000009A
:1000F000000A00000000000100000000002C76D87B
:1001000088DC674F0823DFC1DFAE59E1B1B796E560
:10011000E3E453C63AE651997696E8E6C28426EBC4
:10012000898C9B62ED407C6FFCEFBC9C9F40F2BAD7
:10013000A56FA5F490055A2AF75C936B6CF9676D6F
:10014000C11BFCE0E40D47FEF520E6B500D0ED90C4
:100150002E0300943577050080841E080000204E91
:100160000A000000C80C333333330F986E1283112A
:1001700041EF8D2114893BE65516CFFEE6DB18D101
:10018000844B381BF77C1D901DA4BBE424203284D3
:10019000725E228100C9F124ECA1E53D2756616C15
:1001A00075657300486F6D65267265736574506F71
:1001B00073004368616E67652043757474657200EF
:1001C00053657475700053687574646F776E00467C
:1001D000656D616C65204A6F696E74004D616C6578
:1001E000204A6F696E740053657475700046696EBD
:1001F000676572204A6F696E74004461646F004DD8
:10020000616E75616C206D6F646500244A3D4739ED
:100210003020257325732046313030300047393087
:1002200020473020592573205A257300454D4552EB
:1002300047454E43592053544F50210000593A2509
:1002400073205A3A2573202573005061737320255B
:10025000692F256900443A25692F2569202D2050F2
:100260003A25692F2569007A65726F206178697374
:100270003F00593D00736574206E6577207A657282
:100280006F0073656C65637420706F732059007A1A
:1002900065726F20706F7320593F005A3D0073657F
:1002A00074206E6577207A65726F0073656C656384
:1002B0007420706F73205A007A65726F20706F73AC
:1002C000205A3F00437574746572207769647468BE
:1002D0003F006D61782074726176656C205A3F0032
:1002E0006D61782074726176656C20593F0062619F
:1002F000636B736C617368205A3F006261636B7358
:100300006C61736820593F006661696C65642063A5
:10031000616C63206461646F006572722063616C5C
:1003200063206461646F730073656C65637420702F
:100330006F736974696F6E00676F746F207A65728E
:100340006F3F00686F6D696E673F00736865657425
:100350002077696474683F006461646F20706F7314
:100360006974696F6E3F00637574206465707468AA
:100370002F706173733F006461646F2064657074F3
:10038000683F006461646F2077696474683F00634C
:1003900075742064657074682F706173733F0066B4
:1003A000696E676572206C656E6774683F0073687C
:1003B0006565742077696474683F00636C65617279
:1003C000616E63652077696474683F0066696E6773
:1003D000657220636F756E743F003A2000473130BC
:1003E000205030204C323020592573205A2573007C
:1003F00000000000240027002A0000000000250063
:1004000028002B000000000023002600290004041F
:1004100004040404040402020202020203030303AC
:100420000303010204081020408001020408102088
:10043000010204081020000000080002010000036F
:1004400004070000000000000000FF01FA01ED01B8
:10045000E701DC01CF01C601C001B201A4019D0189
:10046000942711241FBECFEFD8E0DEBFCDBF25E01B
:10047000A0EDB1E001C01D92AF38B207E1F711E085
:10048000A0E0B1E0E4E7FEE602C005900D92A03DD9
:10049000B107D9F712E0C1E3D2E004C02197FE0111
:1004A0000E94FF36C033D107C9F70E946C290C9413
:1004B00038370C94000096E0899FD0011124A75E84
:1004C000BB4F90967C936E935F9791E091969C932F
:1004D0009197E0918604F091870490918504992387
:1004E00039F0309751F0811108C08091350409949A
:1004F000309719F05C968C91FACF0895AF92BF9225
:10050000CF92DF92EF92FF920F931F93CF93DF93DF
:100510006C017B018B01040F151FEB015E01AE180E
:10052000BF08C017D10759F06991D601ED91FC9130
:100530000190F081E02DC6010995892B79F7C5015D
:10054000DF91CF911F910F91FF90EF90DF90CF90AF
:10055000BF90AF900895089508950895FC01538DBC
:10056000448D252F30E0842F90E0821B930B54178D
:1005700010F0CF96089501970895FC01918D828D1A
:10058000981761F0A28DAE0FBF2FB11D5D968C91B3
:10059000928D9F5F9F73928F90E008958FEF9FEFF2
:1005A0000895FC01918D828D981731F0828DE80FAE
:1005B000F11D858D90E008958FEF9FEF0895FC0168
:1005C000918D228D892F90E0805C9F4F821B910935
:1005D0008F739927089587E693E00E94DF0221E058
:1005E000892B09F420E0822F089580E090E0892B88
:1005F00029F00E94EB0281110C9400000895FC0187
:10060000A48DA80FB92FB11DA35ABF4F2C91848D73
:1006100090E001968F739927848FA689B7892C93D0
:10062000A089B1898C91837080648C93938D848D23
:10063000981306C00288F389E02D80818F7D808326
:100640000895EF92FF920F931F93CF93DF93EC01E6
:1006500081E0888F9B8D8C8D98131AC0E889F98969
:10066000808185FF15C09FB7F894EE89FF8960836C
:10067000E889F98980818370806480839FBF81E0ED
:1006800090E0DF91CF911F910F91FF90EF9008952F
:10069000F62E0B8D10E00F5F1F4F0F731127E02E0A
:1006A0008C8D8E110CC00FB607FCFACFE889F98942
:1006B000808185FFF5CFCE010E94FF02F1CFEB8D47
:1006C000EC0FFD2FF11DE35AFF4FF0829FB7F89416
:1006D0000B8FEA89FB8980818062CFCFCF93DF9334
:1006E000EC01888D8823B9F0AA89BB89E889F9894A
:1006F0008C9185FD03C0808186FD0DC00FB607FC7F
:10070000F7CF8C9185FFF2CF808185FFEDCFCE01B1
:100710000E94FF02E9CFDF91CF910895833081F0ED
:1007200028F4813099F08230A9F008958730A9F03B
:100730008830C9F08430B1F4809180008F7D03C08F
:10074000809180008F7780938000089584B58F77A3
:1007500084BD089584B58F7DFBCF8091B0008F77E5
:100760008093B00008958091B0008F7DF9CFCF9332
:10077000DF93282F30E0F901EA5CFB4F8491F90107
:10078000EE5DFB4FD491F901E25FFB4FC491CC23A6
:10079000A1F081110E948E03EC2FF0E0EE0FFF1FFD
:1007A000EC5FFB4FA591B491EC91ED2381E090E0DB
:1007B00009F480E0DF91CF91089580E090E0FACFD6
:1007C0001F93CF93DF93282F30E0F901EA5CFB4FB2
:1007D0008491F901EE5DFB4FD491F901E25FFB4F8B
:1007E000C491CC23A9F0162F81110E948E03EC2F07
:1007F000F0E0EE0FFF1FE650FC4FA591B4918FB7CC
:10080000F894EC91111108C0D095DE23DC938FBFD2
:10081000DF91CF911F910895DE2BF8CFCF93DF9317
:1008200090E0FC01EE5DFB4F2491825F9B4FFC0149
:1008300084918823C9F090E0880F991FFC01E05152
:10084000FC4FA591B491FC01E650FC4FC591D491A9
:1008500061110DC09FB7F8948C91209582238C93E1
:100860008881282328839FBFDF91CF91089562302C
:1008700051F49FB7F8943C91822F809583238C93F9
:10088000E8812E2BEFCF8FB7F894EC912E2B2C9381
:100890008FBFEACF3FB7F8948091AF029091B0023A
:1008A000A091B102B091B20226B5A89B05C02F3F1E
:1008B00019F00196A11DB11D3FBFBA2FA92F982F86
:1008C0008827BC01CD01620F711D811D911D42E081
:1008D000660F771F881F991F4A95D1F708958F9249
:1008E0009F92AF92BF92CF92DF92EF92FF924B0115
:1008F0005C010E944A046B017C010E944A046C194D
:100900007D098E099F09683E734081059105A8F312
:1009100021E0821A9108A108B10888EEC80E83E090
:10092000D81EE11CF11C81149104A104B10429F723
:10093000FF90EF90DF90CF90BF90AF909F908F90FF
:1009400008952FB7F8946091AB027091AC0280913A
:10095000AD029091AE022FBF08958F929F92AF92F9
:10096000BF92EF92FF920F931F93CF93DF937B0180
:100970008C01D0E0C0E00E94A10460936F037093EB
:100980007003809371039093720387E693E00E9453
:10099000BD0297FF27C00E94A10480906F03909032
:1009A0007003A0907103B0907203681979098A09E5
:1009B0009B0980906B0390906C03A0906D03B090A6
:1009C0006E03681579058A059B05F8F2CE01DF9163
:1009D000CF911F910F91FF90EF90BF90AF909F909C
:1009E0008F9008958A30910589F3F80181938F01E2
:1009F0002196EC16FD0609F0BECFE8CFCF92DF922C
:100A0000EF92FF92C0901504D0901604E090170466
:100A1000F09018040E94A1046C157D058E059F05B9
:100A200018F1809110040E94B70320911304281735
:100A30001906D1F00E94A1042091110430911204F2
:100A4000620F731F811D911D60931504709316042E
:100A500080931704909318048091130491E08927E0
:100A6000809313049093140480911304FF90EF90EB
:100A7000DF90CF9008950F931F93CF93DF93C82FEC
:100A8000D62F86E0C89FF0011124E75EFB4F11A22C
:100A9000878D90A181309105F1F058F08230910559
:100AA000F1F1039709F440C0DF91CF911F910F91AD
:100AB00008956623C9F361E070E08C2F0E945B0209
:100AC0000E94A10460937104709372048093730474
:100AD00090937404E9CF0E94A104009171041091D5
:100AE00072042091730430917404AB01BC01401B6B
:100AF000510B620B730B8091830490918404B0E0DE
:100B0000A0E084179507A607B70748F462E070E0F5
:100B10008C2FDF91CF911F910F910C945B0263E0BA
:100B200070E0D111C1CFF4CF70E060E0F1CF089553
:100B3000862F0C94B703862F642F0C94E003862F26
:100B4000642F0C940E04662339F0FC018481958196
:100B5000009711F06150F7CF0895FC0182819381D5
:100B6000009711F00C94A30590E080E00895EF92B7
:100B7000FF920F931F93CF93DF9360E080918A04DD
:100B800090918B040E94AD05C0E00097E1F00091C8
:100B90009D0410E0D0919C04D170E0909604F12C5B
:100BA000C0E0FC012781A80102C0559547952A9510
:100BB000E2F740FD02C0DD2371F0F39461E00E9492
:100BC000A305009771F78C2FDF91CF911F910F91A3
:100BD000FF90EF900895EF1488F3CF5FEFCF0F935E
:100BE0001F93CF93DF9360E080918A0490918B04F0
:100BF0000E94AD05C0E00097D1F000919D0410E087
:100C0000D0919C04D170C0E0FC012781A80102C0F2
:100C1000559547952A95E2F740FD01C0D111CF5F68
:100C200061E00E94A305009779F7C111C1508C2F94
:100C3000DF91CF911F910F9108950E94EF0580934E
:100C400099049091960420919704921B891740F083
:100C50009093980480919C04806280939C040895F2
:100C600080939804F7CFDC011296ED91FC911397D5
:100C7000309769F0248135812115310531F4758370
:100C80006483FB01918380830895F901F3CF139668
:100C90007C936E931297F5CF85ED8093BC00809185
:100CA000BC0084FDFCCF1092B9020895209141024E
:100CB000260F3327331F21323105ECF42091B9027E
:100CC000FC0190E080E0243069F082E00895A0917A
:100CD00041022191AC014F5D5D4FA40FB52FB11DB5
:100CE0002C930196861798F380914102680F6093C8
:100CF000410280E0089581E008950895E091BD02E9
:100D00008091BC02E81730F4F0E0EF5FFD4F808186
:100D100090E008958FEF9FEF08959091BD0280912C
:100D2000BC022FEF3FEF981748F4E92FF0E0EF5F98
:100D3000FD4F208130E09F5F9093BD02C90108956F
:100D40008091BC029091BD02891B990B0895CF92AE
:100D5000DF92EF92FF920F931F93CF93DF937C016B
:100D6000CB018A0120918802222389F0EB016B01DB
:100D7000C40ED51ECC15DD0569F06991D701ED9142
:100D8000FC910190F081E02DC7010995F3CF642F0C
:100D90000E945606C801DF91CF911F910F91FF90DD
:100DA000EF90DF90CF900895CF93DF931F92CDB750
:100DB000DEB76983209188022223F9F02091BA02DC
:100DC000203258F021E030E0FC013383228390E0B0
:100DD00080E00F90DF91CF9108958091BB02E82FC2
:100DE000F0E0E757FD4F998190838F5F8093BB02BE
:100DF0008093BA0281E090E0ECCF61E0CE010196F1
:100E00000E945606F7CFCF93FC01C48121E02093C6
:100E10008802C093A9021092BB021092BA02838585
:100E2000682B84E094E00E94D4069091BA0291323B
:100E300008F03FC08091B9028111FCCF82E080931D
:100E4000B90281E08093B8028FEF809387021092FD
:100E5000860290938502A9E8B2E0E5E6F2E080E040
:100E600098132FC01092640280916402CC0FC82B9B
:100E7000C09364028091B702813039F51092B702B5
:100E8000809164028093BB008091BC0083FDF8CF09
:100E900085EC8093BC008091B9028230E1F38091AF
:100EA00087028F3F31F080918702803211F080916C
:100EB00087021092BB021092BA0210928802CF9160
:100EC00008952D9121938F5FCBCF85EEE2CF0895CA
:100ED00090E080E008950895089508950895089594
:100EE000089508950895089508950895089508951A
:100EF00008950895089508950895DC01ED91FD91F8
:100F00008081ED91FD919081ED91FD916C916370E7
:100F10008E2309F064609F2309F06860EAE9F7E036
:100F2000E60FF11D659565956D936D917D918D91A0
:100F30009D91099423C01AC012C016C010C01EC0D3
:100F400009C014C013C006C019C009C00DC007C035
:100F50000DC014C062507040804090400BC0615082
:100F600070408040904006C06E5F01C06F5F7F4F51
:100F70008F4F9F4F9E938E937E936E930895809193
:100F8000D8019091D9010C947D078091DA0190915C
:100F9000DB010C947D0708950895DC01AA0FBB1FA7
:100FA000AA0FBB1FAE5FBC4F880F991F880F991FF8
:100FB000FC01E650FD4F218D328D438D548D5996A5
:100FC0006D917D918D919C915C970E944135089522
:100FD0006115710579F0FB0101900020E9F7319767
:100FE000AF01461B570BDC01ED91FC910280F381B0
:100FF000E02D099490E080E00895FF920F931F93F5
:10100000CF93DF93C0919704D0918F040E94EF0596
:10101000809399046C2F80918A0490918B040E9494
:10102000AD058C01892B09F45AC080919C0482FD86
:101030004FC048E854E024E030E290E080E0FA015C
:10104000E80FF91F378B019684319105C1F72150C4
:101050004C5E5F4F2111F1CF34E1F32EDC0F809114
:101060009D0490E0D80117962C91179702C0959592
:1010700087952A95E2F780FF1DC01696EC918E2F7A
:1010800090E0880F991FE0918C04F0918D04E80F97
:10109000F91F6591749180919704EC2FE81BFF0B69
:1010A000FE9EC001FF9E900D112481569B4F0E9411
:1010B000012DCF5F61E0C8010E94A3058C01892B3F
:1010C00011F0CD1760F280919C04806480939C04A1
:1010D000DF91CF911F910F91FF900C941D060E94FC
:1010E000E808F6CF0F931F93CF9300918A041091D5
:1010F0008B04C0919604CC2351F06C2FC8010E9440
:10110000AD05892B21F4C150C0939604F2CF809194
:10111000970420918F04280F3327331FC21713061B
:1011200044F08F5F80939704CF911F910F910C949F
:10113000FD07C81710F48150F5CFCF911F910F9183
:101140000C941D060F931F93CF93DF931092970477
:1011500090938B0480938A04E0919A04E63088F49B
:1011600080919C0487FD13C0AE2FB0E0A857BB4F01
:101170008091960418968C93EF5FE0939A041092F6
:101180009604DF91CF911F910F910C94FD078F77FB
:1011900080939C04EE23A9F3E150E0939A04F0E0DD
:1011A000E857FB4FC085C093960480918F04C81701
:1011B00040F3D0E08150990BC81BD90B10E000E040
:1011C0000C171D07F4F60E9472080F5F1F4FF8CF2F
:1011D00080919A04882391F080919C048068809388
:1011E0009C0480918A0490918B04FC0120813181C0
:1011F0002115310509F0C9010C94A20808958091C8
:101200009E048F3F59F080919C04826080939C04DF
:1012100080919B04806280939B0408950C94E8085D
:10122000EF92FF920F931F93CF93DF9380919E04D1
:101230008F3F09F03FC000918A0410918B04C09148
:1012400096040E94B7056C2F680FC8010E94AD0577
:10125000EC01009779F10E94A20860E0CE010E94A3
:10126000AD050097E1F0E0909D04F12C00919C0405
:10127000017010E061E00E94A305009771F0FC018D
:101280002781A70102C0559547952A95E2F740FDB1
:1012900002C0002379F31F5FEDCF11110BC08E81C7
:1012A00080939E04DF91CF911F910F91FF90EF905B
:1012B0000C94EF05DF91CF911F910F91FF90EF906C
:1012C0000895282F80919E048F3FA9F4223059F071
:1012D000233009F5809196048823E9F081508093AA
:1012E00096040C9472088091960490919904891741
:1012F00090F48F5FF4CF81E090E0A0E0B0E004C014
:10130000880F991FAA1FBB1F2A95D2F720919B0413
:10131000822B80939B040895CF92DF92FF920F93CC
:101320001F93CF93DF938C01D62F80919C04846010
:1013300080939C04FF24FA9460E0C8010E94AD05EC
:101340006C01892B41F10E941009F60186818D17ED
:10135000A9F1F0929E046D2FC6010E948C09C82F3E
:10136000813061F1F0929E040E94E80882E00E94C0
:10137000610961E0C8010E94A3058C01892B11F06D
:10138000CC23D1F28C2FDF91CF911F910F91FF9041
:10139000DF90CF900895F8018681D81779F0F09208
:1013A0009E048091960490919904891728F48F5F88
:1013B000809396040E947208C0E0DBCF80919C0469
:1013C0008B7F80939C04C1E0DDCF0F931F93CF935D
:1013D0008C01C62F0E9403076C2F6460C8010E9415
:1013E00003076C2F6B7FC8010E94030783EC90E01A
:1013F0000197F1F7CF911F910F9108950F931F93CC
:10140000CF93DF938C01D62FC42F607F642B0E9473
:10141000E50980E1D89FB00111246C2BC801DF9150
:10142000CF911F910F910C94E509CF93DF93CDB726
:10143000DEB728970FB6F894DEBF0FBECDBF98E099
:10144000ECE2F1E0DE01119601900D929A95E1F740
:1014500090915705961710F46FEF690F262F30E023
:10146000220F331F41E050E04C0F5D1F240F351F4A
:10147000F9016081680F606840E08FE495E028968C
:101480000FB6F894DEBF0FBECDBFDF91CF910C94A5
:10149000FE09CF93DF93EC016A8188810E94150ACF
:1014A000BE016C5F7F4F8FE495E00E94E8070D88D6
:1014B000DE89C02DC031D10544F46AE971E08FE4C2
:1014C00095E00E94E8072196F5CFDF91CF9108952E
:1014D0001092890510928805E7E7F5E080E1DF01C9
:1014E0001D928A95E9F783E795E00C94490A0F93DA
:1014F0001F93CF93DF93CDB7DEB760970FB6F89405
:10150000DEBF0FBECDBF8E010F5F1F4F22E041E057
:101510000E94DF2C07E715E0F80101900020E9F7B1
:10152000CF018857954040E150E0481B590BBE0160
:101530006F5F7F4F89589A4F0E942037F8010190C2
:101540000020E9F78F010857154010938905009393
:101550008805055A1A4FF801148E83E795E00E941A
:10156000490A60960FB6F894DEBF0FBECDBFDF917B
:10157000CF911F910F9108950F931F93CF93DF93F6
:10158000EC018C010C5F1F4F40E150E0C8010E944C
:101590002037F80101900020E9F73197E01BF10BAB
:1015A000FE8BED8BEC0FFD1F1482CE01DF91CF91EE
:1015B0001F910F910C94490A40E062E08FE495E09E
:1015C0000E94FE098BE39FE10197F1F70895CF9305
:1015D000DF93823028F090915405986090935405E1
:1015E0008093570562E370E080E090E00E946F0412
:1015F00060915A058FE495E00E94030768EE73E05E
:1016000080E090E00E946F0460E38FE495E00E9428
:10161000E509CBE4D6E4CE010197F1F760E38FE46E
:1016200095E00E94E5092197F1F760E38FE495E0EA
:101630000E94E50983E592E00197F1F760E28FE40B
:1016400095E00E94E50960915405606240E08FE4F6
:1016500095E00E94FE0984E08093550540E06CE02F
:101660008FE495E00E94FE0940E061E08FE495E0A0
:101670000E94FE098BE39FE10197F1F782E08093DE
:10168000560540E066E08FE495E00E94FE09DF9198
:10169000CF910C94DC0A41E00E94FE0981E090E0C9
:1016A00008950F931F93CF93DF938B0198E0899F49
:1016B000B0011124606440E08FE495E00E94FE09CF
:1016C000E801085F1F4F69918FE495E00E944B0B82
:1016D000C017D107C1F7DF91CF911F910F910895E6
:1016E00040E061E08FE495E00E94FE098BE39FE11A
:1016F0000197F1F760E080E00C94150A8F929F92B9
:10170000AF92BF92EF92FF920F931F93CF93DF930D
:101710000E94DC0A80919E04C0919C048F3F11F0CE
:10172000C1FF60C0D0919904DF5FFD2ED23010F070
:1017300082E0F82EE09096040E94B705982EC6FF2E
:1017400019C00E94700B08E814E0C0E0580124E1C1
:10175000A20EB11CCF1571F06C2F81E00E94150A0A
:10176000B801695E7F4F8FE495E00E94E807CF5F84
:101770008501ECCF80919C0485FF34C0C0E0CF157B
:1017800019F16C2F80E00E94150A809198046EE791
:10179000C81360E28FE495E00E944B0B6C2F8FE042
:1017A000FD1648F40E94150A60E08FE495E00E945F
:1017B0004B0BCF5FE4CF0E94150A41E060E28FE45B
:1017C00095E00E94FE09F5CFCD1760F48E2D890DAE
:1017D000C9F460E08FE00E94150A61E08FE495E0B3
:1017E0000E944B0B80919C048F7980939C04DF9125
:1017F000CF911F910F91FF90EF90BF90AF909F906E
:101800008F9008952D2F2150330B8901E82EF12C54
:101810002E153F0539F46FEF6C0F8FE00E94150A0B
:1018200064E0DCCF6C2F70E090E080E00E94A93390
:101830009B01AC010E9441354B015C01B801110FC5
:10184000880B990B0E94A9339B01AC01C501B4011F
:101850000E94C4354B015C01B701FF0C880B990B4A
:101860000E94A9339B01AC01C501B4010E94083458
:101870000E943D36862F6C2F0E94B236C92F682FEA
:101880008FE00E94150A61E06C0FA8CF0F931F93A1
:10189000CF93DF9380915D0381FF51C00E94A1042B
:1018A00000916203109163032091640330916503FA
:1018B000601B710B820B930B00910B0110910C01BB
:1018C00020910D0130910E01601771078207930777
:1018D000B0F10E94A104609362037093630380934C
:1018E0006403909365038091660381FD18C0826054
:1018F0008093660380919E0480930901E82FF0E0B5
:10190000EE0FFF1FEC52FD4FC081D18192E0CB3A28
:10191000D907D1F480919C04826080939C04E0916B
:101920009E04EF3F49F0F0E0EE0FFF1FE254FD4F41
:101930000190F081E02D099581E080930A01DF910B
:10194000CF911F910F9108958F3FB1F30E94700BBB
:1019500010929B04FE010995E2CF2F923F924F9285
:101960005F926F927F928F92AF92BF92CF92DF92EF
:10197000EF92FF920F931F93CF93DF93CDB7DEB714
:10198000A8970FB6F894DEBF0FBECDBF2701380170
:101990004F5F5F4F623071050CF479C03F932F9316
:1019A0005F934F937F936F9301969F938F9385E5FA
:1019B00092E09F938F931F9284E18F9381E090E058
:1019C0008C0F9D1F9F938F930E944C2D0FB6F89400
:1019D000DEBF0FBECDBFBE016F5F7F4F8BE595E0D1
:1019E0000E94BC0A1E0195E1290E311C810121E0F3
:1019F00041E0C301B2010E94DF2C7E018FE1E80EBD
:101A0000F11C870121E041E0C601B5010E94DF2CF5
:101A10008CE991E0811002C087EA91E09F938F9357
:101A2000FF92EF923F922F928DE392E09F938F93DC
:101A30001F9284E18F9381E090E08C0F9D1F9F9314
:101A40008F930E944C2DBE016F5F7F4F83E795E01F
:101A50000E94BC0A0FB6F894DEBF0FBECDBFA89699
:101A60000FB6F894DEBF0FBECDBFDF91CF911F91AF
:101A70000F91FF90EF90DF90CF90BF90AF908F903D
:101A80007F906F905F904F903F902F9008953F937D
:101A90002F935F934F938AE492E09F938F931F92CB
:101AA00084E18F9381E090E08C0F9D1F9F938F9333
:101AB0000E944C2D8BCFEF92FF920F931F93CF93E9
:101AC000DF9300D000D0CDB7DEB77C018091340128
:101AD00090913501A0913601B091370189839A83A5
:101AE000AB83BC83F701EE0FFF1FEC0FFD1F61817D
:101AF000728183E795E00E94BC0A07E715E0F801D0
:101B000001900020E9F7CF018857954040E150E06F
:101B1000481B590B6AED73E089589A4F0E94112DAA
:101B2000F80101900020E9F78F0108571540109344
:101B3000890500938805055A1A4FF801148E83E72A
:101B400095E00E94490AC7010E94CD070F900F90AF
:101B50000F900F90DF91CF911F910F91FF90EF9019
:101B60000C94770A0F931F93CF93DF93EC018C01B2
:101B70000C5F1F4F40E150E0C8010E94112DF80199
:101B800001900020E9F73197E01BF10BFE8BED8B04
:101B9000EC0FFD1F1482CE01DF91CF911F910F91A9
:101BA0000C94490ACF92DF92EF92FF920F931F930A
:101BB000CF93DF938C017B01FC01628180810E94C5
:101BC000150AC7010E94082D6C01D0E0C0E0CC15B9
:101BD000DD055CF4F701EC0FFD1F649141E08FE43B
:101BE00095E00E94FE092196F2CFF801C589D689B9
:101BF000C031D10544F46AE971E08FE495E00E94B8
:101C0000E8072196F5CFDF91CF911F910F91FF90BB
:101C1000EF90DF90CF9008956F927F928F929F9276
:101C2000AF92BF92CF92DF92EF92FF920F931F93EA
:101C3000CF93DF938091F801811173C062E082E05D
:101C40000E940E0462E083E00E940E04E0E1F4E0F2
:101C5000E491F0E0EE0FFF1FEC5FFB4FA591B49114
:101C6000B093ED01A093EC01E4E2F4E044914093E1
:101C7000F001E1E1F4E0E491F0E0EE0FFF1FEC5F32
:101C8000FB4FC591D491D093EF01C093EE01E5E2F3
:101C9000F4E0E491E093F1011092F3011092F40169
:101CA0001092F5011092F6012BE33FE1C901019773
:101CB000F1F79C91842F892391E009F490E08881C9
:101CC000E82309F092602CEE31E09093F20130931A
:101CD000D9012093D8018FEB97E090930501809371
:101CE0000401809169008C7F816080936900E89A8B
:101CF00091E09093F7013093DB012093DA0125EC1A
:101D000037E0309307012093060180916900837FBB
:101D1000846080936900E99A82E08093F701909350
:101D2000F8018091E401811112C081E10E94B703A2
:101D3000092E000CAA0BBB0B8093E0019093E101EC
:101D4000A093E201B093E30181E08093E40181E19B
:101D50000E94B703482F50E070E060E00091E0017E
:101D60001091E1012091E2013091E3014017510708
:101D700062077307B1F14093E0015093E101609372
:101D8000E2017093E30181112CC080919E048F3F8A
:101D900009F457C080919B04806180939B040E944A
:101DA000A10480919E048F3F99F00E94A1046F5F6F
:101DB0007F4F8F4F9F4F60936203709363038093B5
:101DC00064039093650380915D03826080935D035B
:101DD00080919B0485FD05C08F7D80939B040E94AC
:101DE0007E0B81E0809385040E94A104009175041C
:101DF000109176042091770430917804AB01BC01F6
:101E0000401B510B620B730B8091810490918204F3
:101E1000B0E0A0E084179507A607B70708F0B2C1A5
:101E2000C0E080917F04C81778F4E0917B04F091C2
:101E30007C04EC0FF11D62E080810E940E04CF5FF4
:101E4000F0CF0E941009ABCF712C812C912C540142
:101E5000839480918004781608F05FC0072D10E00D
:101E6000E0917D04F0917E04E00FF11F61E080813C
:101E70000E940E04E0917D04F0917E04E00FF11FBA
:101E800060E080810E94E003D501C401072C04C0FA
:101E9000880F991FAA1FBB1F0A94D2F76C017C01FF
:101EA000E094F094612C80917F046816F8F4C62DBC
:101EB000D0E0E0917B04F0917C04EC0FFD1F808169
:101EC0000E94B7032496CC0FDD1FC75EDB4F892B22
:101ED00041F4888199818C299D2999838883639411
:101EE000E2CF888199818E219F21F7CFE0917D04F7
:101EF000F0917E04E00FF11F61E080810E94E00319
:101F000080917D0490917E04080F191F60E0F80114
:101F100080810E940E0473949CCF29E1C22E24E09C
:101F2000D22E85E594E0E6012FEF3FEF4F8D58A1CB
:101F3000452B21F41C8E3E8F2D8F19A226968C17CF
:101F40009D07A1F710E096E0B92E80917F04181745
:101F500008F052C000E0E12EF12CEE0CFF1C9701BE
:101F60002F5D3B4F790120918004021708F042C099
:101F7000F70160817181002E02C0769567950A9401
:101F8000E2F7129F90011124200F311DE9E1F4E0E6
:101F900080E0458D568D2417350709F46EC18F5F9B
:101FA00036968A30B1F760FF23C0E9E1F4E090E0B3
:101FB00080E0448D411117C0E0917904F0917A04DA
:101FC000E20FF31F4081B89EF001B99EF00D11247D
:101FD000E75EFB4F448F368F258F10A2178E61E08E
:101FE0000E943B0505C0019636968A30910509F797
:101FF0000F5FB9CF1F5FA9CF10E0F60181A181115A
:10200000182FF6E0CF0ED11CCC15DD05B1F70E94DC
:10201000A104609375047093760480937704909381
:102020007804112309F4AEC080913A04882309F49E
:10203000A9C08091380490913904019709F0A2C099
:1020400080913504109200028111A1C00E94FE040B
:1020500080911404882351F1109214040E94FE040C
:10206000811124C06CE372E08BE595E00E94D20DF3
:102070006CE372E083E795E00E94D20D6CE272E0BF
:102080008BE595E00E94D20D0E94FE048823E1F3C7
:10209000809114048823C1F3109214048BE595E019
:1020A0000E94490A83E795E00E94490A8091F7015E
:1020B000823008F0DEC0F8948CEE91E00E947D073B
:1020C0006091F3017091F4018091F5019091F60116
:1020D000789422E030E040E050E00E94BE36690192
:1020E0007A018091DC019091DD01A091DE01B09137
:1020F000DF018C159D05AE05BF05A9F1281B390B25
:102100004A0B5B0BDA01C901B7FFB5C082E00E9440
:1021100061090E94A10480919E048F3F99F00E9462
:10212000A1046F5F7F4F8F4F9F4F60936203709347
:102130006303809364039093650380915D038260E1
:1021400080935D0380919B0485FD05C08F7D809306
:102150009B040E947E0BC092DC01D092DD01E092D4
:10216000DE01F092DF01DF91CF911F910F91FF907F
:10217000EF90DF90CF90BF90AF909F908F907F9027
:102180006F90089510928504109200025FCF8536FB
:1021900089F044F48A3009F45FC0843699F1809361
:1021A000000254CF823709F455C0853709F450C076
:1021B0008C36A9F781E00E9461090E94A1048091F8
:1021C0009E048F3F99F00E94A1046F5F7F4F8F4F55
:1021D0009F4F6093620370936303809364039093B3
:1021E000650380915D03826080935D0380919B0411
:1021F00085FD05C08F7D80939B040E947E0B0E940D
:10220000FF0803C082E00E9461090E94A10480913E
:102210009E048F3F99F00E94A1046F5F7F4F8F4F04
:102220009F4F609362037093630380936403909362
:10223000650380915D03826080935D0380919B04C0
:1022400085FD04CF8F7D80939B040E947E0BFECE84
:1022500083E0D9CF80E0D7CF80919E048F3F31F0CB
:1022600080919B04806180939B04CFCF0E941009D2
:10227000CCCFF89425CF83E04ACF6170B1CE48E14E
:10228000469F9001479F300D1124BC01C901855A1A
:102290009A4F0E94B20D0E940C0E80919B0484FF05
:1022A00005C08F7E80939B0481E0089581FFF3CF6A
:1022B0008D7F80939B0480E008950F931F938091FE
:1022C0005D0380FF4EC00E94A10400915E03109147
:1022D0005F032091600330916103601B710B820BDF
:1022E000930B0091000110910101209102013091A6
:1022F0000301601771078207930798F10E94A104F8
:1023000060935E0370935F03809360039093610317
:102310008091660380FD20C081608093660381E028
:1023200090E0A0E0B0E08093000190930101A093C1
:102330000201B093030162E082E00E940E0462E0B9
:1023400083E00E940E0462E081E10E940E0462E0DC
:10235000809110040E940E040E940C0E81E0809374
:102360000A011F910F9108952F923F924F925F9211
:102370006F927F928F929F92AF92BF92CF92DF9295
:10238000EF92FF920F931F93CF93DF93CDB7DEB7FA
:1023900060970FB6F894DEBF0FBECDBF1C014A0197
:1023A0005B0128013901FC01608171818281938187
:1023B0008E010F5F1F4F22E041E00E94DF2CB80129
:1023C00083E795E00E94BC0A81E080938A058091B2
:1023D0009B048D7E80939B040E940C0E80919B0435
:1023E00081FF1FC08D7F80939B040E94680A80E05C
:1023F00060960FB6F894DEBF0FBECDBFDF91CF91D0
:102400001F910F91FF90EF90DF90CF90BF90AF9012
:102410009F908F907F906F905F904F903F902F9004
:10242000089584FF20C08F7E80939B0487E795E00A
:102430000E94FD2C6B017C01F101C082D182E282FD
:10244000F382A30192010E94AD36181674F2A50121
:102450009401C701B6010E94A23387FDC6CF0E9436
:10246000680A81E0C5CF10910002112309F4B4CFAE
:1024700080918A05882321F010928A050E94680ABB
:1024800080918805909189058F3091057CF49C019D
:102490002F5F3F4F3093890520938805855A9A4FC7
:1024A000FC01148F255A3A4FF901148E83E795E009
:1024B0000E94490A109200028FCFCF92DF92EF92D2
:1024C000FF920F931F93CF93DF93CDB7DEB7C05426
:1024D000D1090FB6F894DEBF0FBECDBF6C018B01E2
:1024E000F42EE22E87E693E00E94BD020196D1F71A
:1024F000012E000C220B330B00936B0310936C0323
:1025000020936D0330936E03B60187E693E00E943B
:10251000E80765EA71E087E693E00E94E80721E0BA
:10252000EE20A1F18E010F5F1F4FF1100FC080E46C
:10253000F80111928A95E9F760E470E0C8010E9401
:10254000AD041816190684F020E020C080E4F801DC
:1025500011928A95E9F760E470E0C8010E94AD0429
:102560001816190624F3F0CFF80101900020E9F7BE
:102570003197E01BF10BEC0FFD1F108268EA71E050
:10258000C8010E94173721E0892BF1F6822FC05C29
:10259000DF4F0FB6F894DEBF0FBECDBFDF91CF91F6
:1025A0001F910F91FF90EF90DF90CF90089521E061
:1025B00040E068EB7BE08BEA91E00C945D127F9247
:1025C0008F929F92AF92BF92CF92DF92EF92FF9243
:1025D0000F931F93CF93DF93CDB7DEB7A8970FB6B6
:1025E000F894DEBF0FBECDBF7C01CB01BA018701DD
:1025F0000E5F1F4F000F111F000F111FF801E65053
:10260000FD4F218D328D438D548D0E9440355B01ED
:102610006C0120E030E0A9010E94A23387FD74C064
:10262000F801E651FD4F8080918002811381950170
:10263000A601B401C8010E94A233712C87FF04C017
:1026400054016801772473944E012FE1820E911C8E
:10265000840122E041E0B501C6010E94DF2C809197
:10266000340190913501A0913601B09137018983F1
:102670009A83AB83BC830E511109F701EE0FFF1F44
:10268000E00FF11F808191819F928F929F938F9392
:102690008BE092E09F938F931F928EE18F931F9315
:1026A0000F930E944C2D20E040E068EE73E0C801DB
:1026B0000E945D120FB6F894DEBF0FBECDBF882317
:1026C00079F0F701EE0FFF1FEE0FFF1FE650FD4FF1
:1026D000C501D601818F928FA38FB48F81E08725AA
:1026E000A8960FB6F894DEBF0FBECDBFDF91CF9195
:1026F0001F910F91FF90EF90DF90CF90BF90AF9020
:102700009F908F907F90089577247394A12CB12C83
:10271000C12CD12C99CF5F926F927F928F929F9212
:10272000AF92BF92CF92DF92EF92FF920F931F93DF
:10273000CF93DF93CDB7DEB7C456D1090FB6F89467
:10274000DEBF0FBECDBF7C0187E693E00E94BD02D5
:102750000196D1F788EE93E0A0E0B0E080936B03A0
:1027600090936C03A0936D03B0936E036FEA71E0D6
:1027700087E693E00E94E80765EA71E087E693E068
:102780000E94E8078E010F5F1F4F84E6F801119247
:102790008A95E9F764E670E0C8010E94AD04181656
:1027A00019060CF056C0F80101900020E9F73197A6
:1027B000E01BF10BEC0FFD1F108261EB71E0C80113
:1027C0000E94202D10E000E03701FFEF6F1A7F0A12
:1027D000570125E0A20EB11C4701E9E08E0E911CC5
:1027E00055245394009709F450C00230110509F4A0
:1027F00048C07CF401151105D9F00130110519F11B
:1028000060EC71E090E080E00E94202D0F5F1F4F90
:10281000E9CF03301105B9F164010430110581F7E6
:102820000E94FD2CF6016083718382839383E8CF3D
:10283000F701108266EB71E00E941737892B01F7D0
:10284000F7015082DDCF6BEB71E00E941737892BC7
:10285000B9F280E0CC59DF4F0FB6F894DEBF0FBE5F
:10286000CDBFDF91CF911F910F91FF90EF90DF903F
:10287000CF90BF90AF909F908F907F906F905F9020
:1028800008956301CDCF6501CBCF81E0E3CF4F92B7
:102890005F926F927F929F92AF92BF92CF92DF92A0
:1028A000EF92FF920F931F93CF93DF93CDB7DEB7D5
:1028B000EF970FB6F894DEBF0FBECDBF29013A01E6
:1028C0002EE1922E9E012F5F3F4F7901F901292DB4
:1028D00011922A95E9F76E013CE2C30ED11C8601E4
:1028E00022E041E00E94DF2C5E0186E3A80EB11CCD
:1028F000850122E041E0C301B2010E94DF2CBF92BA
:10290000AF92DF92CF928DED93E09F938F931F92C2
:102910009F92FF92EF920E944C2D21E040E068EEE2
:1029200073E0C7010E945D120FB6F894DEBF0FBEC0
:10293000CDBF882321F0CE014F960E948B13EF96D6
:102940000FB6F894DEBF0FBECDBFDF91CF911F91C0
:102950000F91FF90EF90DF90CF90BF90AF909F903E
:102960007F906F905F904F9008950F931F93CF9338
:10297000DF9384E08093FA020AEF12E0D0E0C0E037
:10298000CE010E94D934F80161918F01861719F0A8
:10299000CE010E94E1342196C934D10589F7DF9137
:1029A000CF911F910F9108950F931F936CEC73E0DB
:1029B0008BE595E00E94B20D00E010E020E732E4E4
:1029C00040E050E0BA0183E293E00E94B411882312
:1029D00009F466C06BEB73E08BE595E00E94B20DE5
:1029E00000E010E020E231E440E050E0BA0187E28C
:1029F00093E00E94B411882309F452C06EEA73E098
:102A00008BE595E00E94B20D6091FF02709100038A
:102A100080910103909102039B01AC010E9441351A
:102A20008B019C0140E050E0BA018FE293E00E94EC
:102A3000B4118823A9F16FE973E08BE595E00E945A
:102A4000B20D00910303109104032091050330910E
:102A5000060340E050E0BA018BE293E00E94B4111B
:102A60008823F1F06FE873E08BE595E00E94B20DEA
:102A70000091030310910403209105033091060394
:102A800040E050E0BA018FE093E00E94B411882347
:102A900039F00E94B51480919C04826080939C045C
:102AA0001F910F910895CF93DF939C01CB01BA0141
:102AB000E901CC0FDD1FCC0FDD1FCE5FDC4F220FF5
:102AC000331F220F331FF901E650FD4F218D328D48
:102AD000438D548D0E944035698F7A8F8B8F9C8FE8
:102AE000DF91CF910C94B5143F924F925F926F9209
:102AF0007F928F929F92AF92BF92CF92DF92EF928E
:102B0000FF920F931F93CF93DF93CDB7DEB7C354DC
:102B1000D1090FB6F894DEBF0FBECDBF24966CAFBF
:102B20007DAF8EAF9FAF249749015A01302E20917F
:102B30001B0330911C0340911D0350911E030E9402
:102B400040356B017C0120E030E0A9010E94A233F6
:102B500087FF1BC0F12C8F2DCD5BDF4F0FB6F89494
:102B6000DEBF0FBECDBFDF91CF911F910F91FF90C0
:102B7000EF90DF90CF90BF90AF909F908F907F901D
:102B80006F905F904F903F9008952091F2023091A6
:102B9000F3024091F4025091F502C701B6010E9480
:102BA000AD361816BCF220911F03309120034091DE
:102BB000210350912203C501B4010E9440352B012D
:102BC0003C0120E030E0A9010E94A23387FDC2CF82
:102BD0002091F6023091F7024091F8025091F902EB
:102BE000C301B2010E94AD3618160CF4B3CF3E01FA
:102BF0008CE2680E711C830122E041E0C701B6013E
:102C00000E94DF2C7E0196E3E90EF11C20911F0348
:102C1000309120034091210350912203C501B4015A
:102C20000E944035870122E041E00E94DF2CFF92A4
:102C3000EF927F926F928DE192E09F938F931F921C
:102C40008EE18F93055311091F930F930E944C2D12
:102C5000232D40E060E177E2C8010E945D12F82E6A
:102C60000FB6F894DEBF0FBECDBF882309F472CF34
:102C700020911B0330911C0340911D0350911E03B2
:102C800024966CAD7DAD8EAD9FAD24970E944035EE
:102C900060931303709314038093150390931603AA
:102CA00020911F0330912003409121035091220372
:102CB000C501B4010E944035609317037093180357
:102CC0008093190390931A030E94B514332009F4DA
:102CD00042CFCE014F960E948B138823D1F3FF8CF5
:102CE000F11039CF64E670E080E090E00E946F045C
:102CF000F0CFCF92DF92EF92FF920F936B017C01A6
:102D000090E080E00E94CD0701E0A70196010E94BB
:102D100074150F91FF90EF90DF90CF9008950F936F
:102D200081E090E00E94CD079B01AC0101E060E0F2
:102D300070E080E291EC0E94741590E080E00E94C7
:102D4000CD0720E030E040E251EC0E947415E8E845
:102D5000F4E084898260848B0F910895CF92DF9292
:102D6000EF92FF920F936B017C0181E090E00E9453
:102D7000CD079B01AC0101E0C701B6010E947415AB
:102D80000F91FF90EF90DF90CF9008957F928F92F8
:102D90009F92AF92BF92CF92DF92EF92FF920F93EA
:102DA0001F93CF93DF934B015C01F22E132FD42F8F
:102DB000C52FAC019B016091D4017091D501809128
:102DC000D6019091D7010E94A23387FD1AC001E07D
:102DD0002F2D312F4D2F5C2FC501B4010E9474158A
:102DE00081114CC080E0DF91CF911F910F91FF9036
:102DF000EF90DF90CF90BF90AF909F908F907F909B
:102E000008952F2D312F4D2F5C2F6091D00170919F
:102E1000D1018091D2019091D3010E94A2338823E5
:102E200041F12091EE023091EF024091F002509179
:102E3000F1026F2D712F8D2F9C2F0E944035762E21
:102E4000C72ED82EE92E2091EA023091EB02409154
:102E5000EC025091ED02C501B4010E94413500E041
:102E6000272D3C2D4D2D5E2D0E9474158111AFCF65
:102E7000B9CF7F2CC12EDD2EEC2EE5CF8092D40170
:102E80009092D501A092D601B092D7014F2D512F2B
:102E90006D2F7C2F4093D0015093D1016093D201CC
:102EA0007093D301A0CFCF92DF92EF92FF9261E0B7
:102EB00070E083E493E00E943F118823F1F121E068
:102EC00041E068EA71E686EC91E00E945D12C090F4
:102ED000FF02D0900003E0900103F090020320E095
:102EE00030E0A901C701B6010E944714882391F080
:102EF000C0921303D0921403E0921503F0921603CC
:102F000010921703109218031092190310921A03CB
:102F10000E94B5144091FF0250910003609101039B
:102F20007091020390E080E00E94531540E050E071
:102F3000BA0181E090E00E94531561E070E088E3FF
:102F400093E00E943F11882339F020E030E0A9018E
:102F5000CA01B9010E94C61680919C0482608093C8
:102F60009C04FF90EF90DF90CF9008952F923F92B6
:102F70004F925F926F927F928F929F92AF92BF9289
:102F8000CF92DF92EF92FF920F931F93CF93DF9335
:102F9000CDB7DEB7C25AD1090FB6F894DEBF0FBE67
:102FA000CDBFCF56DF4F99838883C159D040C157D9
:102FB000DF4F79836883CF58D040CF55DF4F598397
:102FC0004883C15AD040C756DF4F088319832A83EC
:102FD0003B83C959D0403090FB022091FC02C1587C
:102FE000DF4F2883CF57D0403091FD02CF57DF4FBE
:102FF0003883C158D0404091FE02CE57DF4F4883FE
:10300000C258D0404090FF025090000360900103EE
:1030100070900203F12CE12CC157DF4F8881998118
:10302000CF58D040E816F9060CF036C2EDE0EE9D20
:10303000D001EF9DB00D1124CD56DF4FB983A88389
:10304000C359D040CF56DF4FC880D980C159D04036
:10305000CA0EDB1ED601BC91EA96BFAFEA97F60115
:1030600001811281238084809580A680B78020858D
:10307000318542855385CB56DF4F288339834A8378
:103080005B83C559D040A5019401EA966FADEA97DC
:10309000702F812F922D0E944135EF966CAF7DAF3E
:1030A0008EAF9FAFEF97A5019401632DC158DF4FFD
:1030B0007881CF57D040CF57DF4F8881C158D0405B
:1030C000CE57DF4F9881C258D0400E94AD361816B7
:1030D00074F420E030E0A901EA966FADEA97702F12
:1030E000812F922D0E94A233882309F445C6C7562A
:1030F000DF4F288139814A815B81C959D040632DD6
:10310000C158DF4F7881CF57D040CF57DF4F8881EC
:10311000C158D040CE57DF4F9881C258D0400E944E
:1031200041359B01AC01EF966CAD7DAD8EAD9FAD91
:10313000EF970E94AD3618160CF40CC1EF962CAD2B
:103140003DAD4EAD5FADEF97C301B2010E94AD360C
:1031500087FF12C6EF962CAD3DAD4EAD5FADEF973C
:10316000C756DF4F688179818A819B81C959D040D8
:103170000E944035C356DF4F6883CD59D040C256B8
:10318000DF4F7883CE59D040C156DF4F8883CF5967
:10319000D040C056DF4F9883C05AD040EA962FAD3A
:1031A000EA97302F412F522DC301B2010E94A23362
:1031B00018166CF0EF962CAD3DAD4EAD5FADEF97B0
:1031C000C301B2010E94A23318160CF0F3C5EA96AF
:1031D0002FADEA97302F412F522DC301B2010E942B
:1031E0004035EC966FAFEC97C657DF4F7883CA58DF
:1031F000D040CA57DF4F8883C658D040C557DF4FED
:103200009883CB58D0409B01AC01C501B4010E940A
:103210004035B62EA72E982E892EEC962FADEC9722
:10322000C657DF4F3881CA58D040CA57DF4F488150
:10323000C658D040C557DF4F5881CB58D040632D7A
:10324000C158DF4F7881CF57D040CF57DF4F8881AB
:10325000C158D040CE57DF4F9881C258D0400E940D
:10326000AD3618160CF5EC963FAEEC97C158DF4F13
:10327000B881CF57D040C657DF4FB883CA58D04027
:10328000CF57DF4FE881C158D040CA57DF4FE8839E
:10329000C658D040CE57DF4FF881C258D040C557EE
:1032A000DF4FF883CB58D0402B2D3A2D492D582D88
:1032B000632DC158DF4F7881CF57D040CF57DF4FB4
:1032C0008881C158D040CE57DF4F9881C258D04036
:1032D0000E94AD3618160CF486C5EA968FADEA97B3
:1032E000902FA12FB22DF60180839183A283B38307
:1032F000EC968FADEC97C657DF4F9881CA58D040F7
:10330000CA57DF4FA881C658D040C557DF4FB88194
:10331000CB58D04084839583A683B783CB56DF4FA9
:10332000288139814A815B81C559D0402087318706
:10333000428753871486CF55DF4FE881F981C15A00
:10334000D040C157DF4F28813981CF58D0402E1748
:103350003F075CF169E173E08BE595E00E94B20DF7
:1033600068EE73E080E090E00E946F0480919C041E
:10337000826080939C04CE55DF4F0FB6F894DEBF79
:103380000FBECDBFDF91CF911F910F91FF90EF90B6
:10339000DF90CF90BF90AF909F908F907F906F9075
:1033A0005F904F903F902F900895CD56DF4F08814A
:1033B0001981C359D040035F1F4FCF56DF4F28817B
:1033C0003981C159D040020F131FC157DF4F888187
:1033D0009981CF58D0408E199F0901973DE0389FC1
:1033E000A001399F500D1124CD56DF4F888199815E
:1033F000C359D0404A96B801CF56DF4FA881B98152
:10340000C159D0408A0F9B1F0E940537C356DF4F1A
:103410008881CD59D040C256DF4F9881CE59D040D7
:10342000C156DF4FA881CF59D040C056DF4FB88179
:10343000C05AD040F80180839183A283B3838B2D3F
:103440009A2DA92DB82D84839583A683B783CB5657
:10345000DF4F288139814A815B81C559D040D8012D
:103460002087318742875387E1E01C96EC93FFEF7A
:10347000EF1AFF0AC157DF4F28813981CF58D0405A
:103480002F5F3F4FC157DF4F39832883CF58D0403C
:103490003FEFE31AF30AC0CD312C212C41E0CF5786
:1034A000DF4F4883C158D040EB961FAE1EAEEB975E
:1034B000C158DF4F19821882CF57D040C157DF4F14
:1034C00088819981CF58D0400197CD56DF4F99839D
:1034D0008883C359D04034C4CD56DF4FE881F98189
:1034E000C359D040C158DF4F28813981CF57D040D0
:1034F0002E173F070CF03AC42F5F3F4FC158DF4FE4
:1035000039832883CF57D04081E0EB961FAE1EAEA3
:10351000EB979B7F90939B0431E0C657DF4F388336
:10352000CA58D04090919B0493FF14C0EB96AEAD67
:10353000BFADEB971097A9F11197EB96BFAFAEAF68
:10354000EB97977F90939B04F1E0C657DF4FF8838A
:10355000CA58D04090919B0494FF0FC09F7E9093D7
:103560009B0421E0C657DF4F2883CA58D04031E082
:10357000CF57DF4F3883C158D04090919B0491FFC3
:1035800022C09D7F90939B04F1CECF57DF4F48819F
:10359000C158D040C657DF4F4883CA58D040842F07
:1035A000C1CFC158DF4FE881F981CF57D0401E16F7
:1035B0001F063CF63197C158DF4FF983E883CF5798
:1035C000D04081E0BECF882309F48EC28DE0C1587F
:1035D000DF4F48815981CF57D040849FF001859FAC
:1035E000F00D1124CF56DF4FA881B981C159D040C9
:1035F000EA0FFB1F20910F0330911003409111033C
:1036000050911203CE57DF4F288339834A835B835F
:10361000C258D0408091FB029091FC02A091FD0223
:10362000B091FE02EF968CAF9DAFAEAFBFAFEF97FC
:1036300080809180A280B38024813581468157812A
:10364000CA57DF4F288339834A835B83C658D040EB
:10365000408451846284738420E030E0A901C50174
:10366000B4010E94A23381116BC1EF962CAD3DAD28
:103670004EAD5FADEF9760E070E080E09FE30E94A9
:10368000403520E030E040E251E40E9408340E94DE
:1036900036367A83698320E030E040E251E4C301AA
:1036A000B2010E9408340E9436367C836B83222448
:1036B0002394312CCA57DF4F288139814A815B819D
:1036C000C658D040EF966CAD7DAD8EAD9FADEF97F7
:1036D0000E94AD36181654F420E030E0A901C5016F
:1036E000B4010E94AD3618160CF4F5C1F101E15099
:1036F000F04CEE0FFF1FEE0FFF1F21E030E02C0F0C
:103700003D1FE20FF31F60817181072E000C880BB3
:10371000990B0E94A93320E030E040E251E40E947E
:10372000C435EF962CAD3DAD4EAD5FADEF970E9429
:103730004135A50194010E9440359B01AC01CA5757
:10374000DF4F688179818A819B81C658D0400E9471
:1037500040356B017C01EF962CAD3DAD4EAD5FADBC
:10376000EF970E94C4350E94AD355B018C019B012F
:10377000AC01C701B6010E94C435C557DF4F68834D
:1037800079838A839B83CB58D04020E030E040E8A7
:103790005FE3B501C8010E944035CB56DF4F688317
:1037A000C559D040C756DF4F7883C959D040C3565A
:1037B000DF4F8883CD59D040C256DF4F9883CE5912
:1037C000D04020E030E0A901B501C8010E94A23339
:1037D000882309F489C1C1018150904C8C01000FEC
:1037E000111F000F111FE1E0F0E0EC0FFD1FE00FD3
:1037F000F11F60817181072E000C880B990B0E94CC
:10380000A9336B017C0120E030E040E251E4C55770
:10381000DF4F688179818A819B81CB58D0400E949B
:1038200008349B01AC01C701B6010E9441354B0130
:103830005C01CE57DF4F288139814A815B81C258B4
:10384000D040C301B2010E94AD36C12CD12C76010B
:103850001816BCF5CE57DF4F288139814A815B812C
:10386000C258D040C301B2010E94C4350E943D3607
:10387000CA57DF4F688379838A839B83C658D040B9
:10388000C801049641E050E04C0F5D1F480F591FDE
:10389000ED965FAF4EAFED97CA57DF4F08811981A4
:1038A000C658D040C12CD12C76010150110908F026
:1038B000E4C0CA57DF4F88819981C658D040280E8E
:1038C000391EA7019601C301B2010E94AD36181638
:1038D00014F57101EE0CFF1CEE0CFF1C21E030E032
:1038E0002C0F3D1FE20EF31EC501B4010E943636B7
:1038F000D7016D937C9320E030E040E251E4C301B6
:10390000B2010E9408340E943636F7017383628345
:10391000FFEF2F1A3F0ACB56DF4FA880C559D04082
:10392000C756DF4FB880C959D040C356DF4F088112
:10393000CD59D040C256DF4F1881CE59D04025CF47
:10394000CE57DF4F288139814A815B81C258D040F0
:10395000C301B2010E94AD36312C212CC12CD12CD7
:103960007601181664F5CE57DF4F288139814A81D8
:103970005B81C258D040C301B2010E94C4350E948D
:103980003D36C557DF4F688379838A839B83CB5845
:10399000D040AE014F5F5F4F1A01C557DF4F08811E
:1039A0001981CB58D040C12CD12C7601015011097E
:1039B000C0F5C557DF4F28803980CB58D040A701CC
:1039C0009601C301B2010E94AD3618160CF072CEFA
:1039D0008101000F111F000F111F21E030E02C0F9B
:1039E0003D1F020F131F20E030E040E251E4C5010B
:1039F000B4010E9408340E943636D8016D937C933E
:103A000020E030E040E251E4C301B2010E940834FA
:103A10000E943636F80173836283FFEF2F1A3F0A44
:103A200049CECE57DF4F288139814A815B81C25808
:103A3000D040C701B6010E9441356B017C0120E0F6
:103A400030E040E251E4C501B4010E9408340E9414
:103A50003636D1016D937C9320E030E040E251E4B2
:103A6000C701B6010E9408340E943636F101738303
:103A70006283F4E02F0E311C99CFCE57DF4F28819F
:103A800039814A815B81C258D040C701B6010E948A
:103A900041356B017C01C501B4010E943636ED96BB
:103AA000AEADBFADED976D937C9320E030E040E28A
:103AB00051E4C701B6010E9408340E943636ED96E3
:103AC000EEADFFADED97738362833496ED96FFAF55
:103AD000EEAFED97EACE0E94680A70E060E088E001
:103AE00093E00E943F1142CCC657DF4F2881CA584D
:103AF000D040222309F465C08DE0C158DF4F4881D2
:103B00005981CF57D040849F7001859FF00C1124BC
:103B1000CF56DF4FA881B981C159D040EA0EFB1EB4
:103B2000EB960EAD1FADEB97000F111F000F111F8D
:103B3000E1E0F0E0EC0FFD1F0E0F1F1FD801129601
:103B40006D917C91072E000C880B990B0E94A93374
:103B500020E030E040E251E40E94C4355B016C019A
:103B6000F80160817181072E000C880B990B0E946F
:103B7000A93320E030E040E251E40E94C4352091B6
:103B8000FB023091FC024091FD025091FE020E9426
:103B90004135D7011C968C907B018C019101EB96ED
:103BA0004EAD5FADEB97C157DF4F68817981CF583C
:103BB000D040C158DF4F88819981CF57D0400E94B3
:103BC000AD0CCF57DF4FB881C158D040BB2309F4AB
:103BD000B2C0EB960EAD1FADEB97000F111F000F9B
:103BE000111FE1E0F0E0EC0FFD1F0E0F1F1FD801C9
:103BF00012966D917C91072E000C880B990B0E94F8
:103C0000A93320E030E040E251E40E94C4356B016A
:103C10007C01F80160817181072E000C880B990BE3
:103C20000E94A93320E030E040E251E40E94C43514
:103C30002091FB023091FC024091FD025091FE0266
:103C40000E944135A70196010E94C616882309F4F7
:103C500072C0C1010197EB962EAD3FADEB972817CF
:103C600039070CF068C02F5F3F4FEB963FAF2EAF88
:103C7000EB978DE0C158DF4F48815981CF57D04035
:103C8000849F7001859FF00C1124CF56DF4FA881CF
:103C9000B981C159D040EA0EFB1E8901000F111FE6
:103CA000000F111FE1E0F0E0EC0FFD1F0E0F1F1FD2
:103CB000D80112966D917C91072E000C880B990B00
:103CC0000E94A93320E030E040E251E40E94C43574
:103CD0005B016C01F80160817181072E000C880B7B
:103CE000990B0E94A93320E030E040E251E40E94A9
:103CF000C4352091FB023091FC024091FD025091AD
:103D0000FE020E944135D7011C968C907B018C01EC
:103D10009101EB964EAD5FADEB97C157DF4F6881D8
:103D20007981CF58D040C158DF4F88819981CF57D2
:103D3000D0400E94AD0CCF57DF4F1882C158D04001
:103D40000E940C0E90919B0492FF1FCC9101215078
:103D50003109EB96AEADBFADEB97A217B3070CF0F0
:103D6000BBCB1196EB96BFAFAEAFEB97CF57DF4F04
:103D70008881C158D040CDCB20E0EA968FADEA973C
:103D8000902FA12FB22DF60180839183A283B3835C
:103D900084829582A682B782CB56DF4F8881998133
:103DA000AA81BB81C559D04080879187A287B387FC
:103DB00024876ECBC356DF4FB881CD59D040EA96E9
:103DC000BFAFEA97C256DF4F0881CE59D040C156E7
:103DD000DF4F1881CF59D040C056DF4F2880C05ADE
:103DE000D04021E0CACFB32CC158DF4FA880CF57B5
:103DF000D040CF57DF4F9880C158D040CE57DF4FCB
:103E00008880C258D04069CA2F923F924F925F92E9
:103E10006F927F928F929F92AF92BF92CF92DF92DA
:103E2000EF92FF920F931F93CF93DF93CDB7DEB73F
:103E3000C95CD1090FB6F894DEBF0FBECDBF60914B
:103E400023037091240380912503909126030E94FF
:103E500036361B0140902F035090300360903103A1
:103E600070903203072E000C880B990B0E94A93327
:103E70009B01AC01C301B2010E94C4354B015C013E
:103E8000AC019B016091FB027091FC028091FD02EC
:103E90009091FE020E94AD3618160CF460C080911D
:103EA0002B0390912C03A0912D03B0912E03CC53A2
:103EB000DF4F88839983AA83BB83C45CD0408E0183
:103EC0000F5F1F4FD12CC12CF12CE12CC853DF4FB9
:103ED0000883C85CD040C753DF4F1883C95CD0400B
:103EE000E214F3045CF5B7010F2C000C880B990B5E
:103EF0000E94A933A50194010E940834D8016D9352
:103F00007D938D939C931397F80184829582A6826A
:103F1000B782CC53DF4F88819981AA81BB81C45C71
:103F2000D04080879187A287B387FFEFCF1ADF0A3F
:103F300082E0E80EF11C035F1F4FD2CF9301820194
:103F40004FE050E0B601C853DF4F8881C85CD040D5
:103F5000C753DF4F9881C95CD0400E94B617C75342
:103F6000DF4F0FB6F894DEBF0FBECDBFDF91CF910C
:103F70001F910F91FF90EF90DF90CF90BF90AF9087
:103F80009F908F907F906F905F904F903F902F9079
:103F900008952F923F924F925F926F927F928F92ED
:103FA0009F92AF92BF92CF92DF92EF92FF920F93C8
:103FB0001F93CF93DF93CDB7DEB7CB5CD1090FB69C
:103FC000F894DEBF0FBECDBF609123037091240330
:103FD00080912503909126030E9436361B01409064
:103FE0002F03509030036090310370903203072EFE
:103FF000000C880B990B0E94A9339B01AC01C301F3
:10400000B2010E94C4354B015C01AC019B0160917F
:10401000FB027091FC028091FD029091FE020E94D1
:10402000AD3618160CF46BC080912B0390912C03C5
:10403000A0912D03B0912E03CC53DF4F8883998339
:10404000AA83BB83C45CD04080912703909128034E
:10405000A0912903B0912A03C853DF4F8883998325
:10406000AA83BB83C85CD0408E010F5F1F4FD12C49
:10407000C12CEE24E394F12CE214F304BCF5B70157
:104080000F2C000C880B990B0E94A933A5019401F9
:104090000E940834D8016D937D938D939C93139760
:1040A000A5019401C853DF4F688179818A819B8182
:1040B000C85CD0400E944135F801648375838683D3
:1040C0009783CC53DF4F88819981AA81BB81C45CDF
:1040D000D04080879187A287B387FFEFCF1ADF0A8E
:1040E00082E0E80EF11C035F1F4FC6CF93018201EF
:1040F0004FE050E0B601CE0101960E94B617C553BD
:10410000DF4F0FB6F894DEBF0FBECDBFDF91CF916A
:104110001F910F91FF90EF90DF90CF90BF90AF90E5
:104120009F908F907F906F905F904F903F902F90D7
:1041300008950F931F93CF93DF93CDB7DEB76A97A0
:104140000FB6F894DEBF0FBECDBF63E873E08BE51A
:1041500095E00E94B20D00E010E028EC32E440E06F
:1041600050E0BA0183E393E00E94B411882309F47C
:10417000A2C067E773E08BE595E00E94B20D009165
:10418000030310910403209105033091060340E0DE
:1041900050E0BA018BE393E00E94B411882309F444
:1041A0008AC067E673E08BE595E00E94B20D00914E
:1041B000030310910403209105033091060340E0AE
:1041C00050E0BA018FE093E00E94B411882309F413
:1041D00072C068E573E08BE595E00E94B20D009136
:1041E000FF0210910003209101033091020340E08F
:1041F00050E0BA0187E393E00E94B411882309F4E8
:104200005AC06BE473E08BE595E00E94B20D00911B
:10421000FF0210910003209101033091020340E05E
:1042200050E0BA018FE393E00E94B411882309F4AF
:1042300042C00E94B514FE013D968EE0DF011D9242
:104240008A95E9F78091370390913803A09139035B
:10425000B0913A0389839A83AB83BC838091330303
:1042600090913403A0913503B09136038D839E83E2
:10427000AF83B88780913B0390913C03A0913D03AD
:10428000B0913E0389879A87AB87BC8700913F0333
:1042900010914003209141033091420342E050E0ED
:1042A00061E070E0CE0101960E94B61780919C04F7
:1042B000826080939C046A960FB6F894DEBF0FBEAE
:1042C000CDBFDF91CF911F910F9108951F93CF9391
:1042D000DF93CDB7DEB72F970FB6F894DEBF0FBED2
:1042E000CDBF85E88E871F8621E041E068EE73E050
:1042F000CE010E960E945D1211E0882309F1CE01D5
:1043000001960E948B13182F8823D1F08E819F81F4
:10431000A885B9858093130390931403A093150384
:10432000B09316038A859B85AC85BD858093170362
:1043300090931803A0931903B0931A030E94B51425
:10434000812F2F960FB6F894DEBF0FBECDBFDF9141
:10435000CF911F9108952F923F924F925F926F924B
:104360007F928F929F92AF92BF92CF92DF92EF9205
:10437000FF920F931F93CF93DF93CDB7DEB72D97A7
:104380000FB6F894DEBF0FBECDBF7C01C62ED42E73
:104390000E94CD0769837A838B839C830E94A1044A
:1043A0006E837F83888799870E94A1044B015C01FB
:1043B000C7010E945B0D21E02D8322242394312C20
:1043C000D501C40188519C4FAF4FBF4F8A879B874F
:1043D000AC87BD870E940C0ECC2009F452C080919E
:1043E00000028C33B1F491E0E916F10491F41092DB
:1043F00000020E94662190E080E00E94CD07698360
:104400007A838B839C8390E080E00E945B0DF12C8B
:10441000E12C809100028C33B1F4E114F10499F4A1
:10442000109200020E94662181E090E00E94CD0778
:1044300069837A838B839C8381E090E00E945B0D8B
:10444000EE24E394F12C809100028E33D1F410928B
:10445000000261E070E087E692E00E943F1188234D
:1044600069F040E050E0BA01C7010E945315C7014E
:104470000E94CD0769837A838B839C83C7010E9446
:104480005B0D809100028D32D4F1109200020E94E7
:10449000680AC7010296880F991F880F991FFC01AF
:1044A000E650FD4F818C928CA38CB48C86519D4F2D
:1044B000DC012D913D914D915C91C501B4010E94AB
:1044C00041352B013C0120E030E0A901C501B401D8
:1044D0000E944135AB01BC0193018201CE010196DE
:1044E0000E94B411882359F049815A816B817C81E3
:1044F000C7010E94DF12C7010E945B0D6BCF809144
:104500009B04982F9470282F2C7009F4B0C00FEFE3
:104510001FEF911102C001E010E0837F80939B04A4
:104520000E94A1042E813F8148855985621B730B2F
:10453000840B950B0E94A7332B013C01B801012E7F
:10454000000C880B990B0E94A9334B015C0120E001
:1045500030E040E752E4C301B2010E94A23320E000
:1045600030E040E850E487FD31C020E030E04CE826
:1045700052E4C301B2010E94A23387FF19C0A50112
:104580009401C501B4010E9441354B015C01201624
:10459000310609F13D81311109C00E946621C70130
:1045A0000E94CD0769837A838B839C83180112CF85
:1045B00020E030E044EB52E4C301B2010E94A23398
:1045C00087FDE5CF2DEC3CEC4CEC5DE3C501B4017F
:1045D0000E940834DACFA501940169817A818B8128
:1045E0009C810E94413569837A838B839C830E94DE
:1045F000A1046E837F838887998749815A816B8163
:104600007C81C7010E94DF12C7010E945B0D1D82E1
:1046100080919B04DD2039F184FFDCCE8F7E809376
:104620009B040E9466210E94680A80919C0482601B
:1046300080939C042D960FB6F894DEBF0FBECDBFBD
:10464000DF91CF911F910F91FF90EF90DF90CF906E
:10465000BF90AF909F908F907F906F905F904F90A2
:104660003F902F90089581FFB5CE8D7FD8CF0E94C7
:10467000A1042A853B854C855D85261737074807A9
:10468000590730F60E94B514C3CF8F929F92AF9214
:10469000BF92CF92DF92EF92FF920F931F9321E090
:1046A00040E068EB7BE089EC91E00E945D1264ECF5
:1046B00072E08BE595E00E94B20D8090FB02909035
:1046C000FC02A090FD02B090FE0200E010E020EAA3
:1046D00032E440E050E0BA018BEF92E00E94B41166
:1046E000882339F00E94B51480919C0482608093E5
:1046F0009C0490E080E00E94CD076B017C01A50145
:1047000094016091FB027091FC028091FD029091F6
:10471000FE020E94403520E030E040E05FE30E946E
:104720000834A70196010E944135AB01BC0190E01D
:1047300080E00E94531520E030E0A90160911F0342
:104740007091200380912103909122030E944135B2
:104750000E94791664EF71E080E090E00E946F049F
:1047600060E070E086E193E40E94AE1620911F03A2
:104770003091200340912103509122036091F60271
:104780007091F7028091F8029091F9020E944135F0
:104790000E94791670E060E088EB92E00E943F1181
:1047A0008823B1F16BEA72E08BE595E00E94B20DCF
:1047B00060E070E0CB010E94791641E060E081E0AA
:1047C00090E00E94AB216EE972E08BE595E00E94DB
:1047D000B20D64EF71E080E090E00E946F0440E071
:1047E00050E0BA0181E090E00E9453156BE972E05D
:1047F00083E795E00E94B20D81E090E00E94CD0732
:104800000E94770A68EE73E080E090E00E946F04F7
:1048100070E060E08FE892E00E943F11882309F485
:1048200044C020E030E040E251E460E070E0CB01C1
:104830000E94C61662E872E08BE595E00E94B20D18
:1048400010921B0310921C0310921D0310921E0362
:104850000E94B51441E060E090E080E00E94AB214E
:1048600065E772E08BE595E00E94B20D64EF71E0C0
:1048700080E090E00E946F0440E050E0BA0190E0D8
:1048800080E00E94531562E772E083E795E00E94A2
:10489000B20D90E080E00E94CD070E94770A68EE9A
:1048A00073E080E090E00E946F0460E070E0CB0174
:1048B0000E94791660E070E0CB010E94AE160E9463
:1048C000D71280919C04826080939C041F910F9169
:1048D000FF90EF90DF90CF90BF90AF909F908F9020
:1048E000089568E273E08BE595E00E94B20D40E028
:1048F00061E081E090E00E94AB21E8E8F4E0848987
:104900008260848B08950F931F93CF93DF93CDB76D
:10491000DEB7C954D1090FB6F894DEBF0FBECDBFC4
:1049200049E450E070E060E0CE0101960E94C93495
:104930008981843009F470C040E050E060E271E4A5
:104940004A835B836C837D8380E090E0ABE9B3E4D2
:104950008E839F83A887B98780E090E0A4E8B2E4C3
:104960008A879B87AC87BD8780E090E0A0E8BFE3A3
:104970008E879F87A88BB98B8A8B9B8BAC8BBD8BCB
:1049800000E010E020E731E40E8B1F8B288F398F79
:1049900022968CAF9DAFAEAFBFAF229780E090E084
:1049A000A0E9B1E48AAF9BAFACAFBDAF80E090E0CF
:1049B000AAE7B3E42A968CAF9DAFAEAFBFAF2A97FC
:1049C00026961CAE1DAE1EAE1FAE26970DEC1CEC3F
:1049D0002CEC3DE30EA71FA728AB39AB4AA75BA77A
:1049E0006CA77DA78EAB9FABA8AFB9AF1AAA1BAAC5
:1049F0001CAA1DAA1A8E1B8E1C8E1D8E1E8E1F8E2B
:104A000018A219A21AA21BA21CA21DA21EA21FA2BA
:104A100018A619A60E94B51489E4FE013196AAEFE2
:104A2000B2E001900D928A95E1F7C75BDF4F0FB6B8
:104A3000F894DEBF0FBECDBFDF91CF911F910F91D4
:104A400008950F931F9380919B0481FF05C080916F
:104A50009C04826080939C046BEF72E08BE595E090
:104A60000E94B20D00E010E020EA30E440E050E0A7
:104A7000BA0187E093E00E94B411882309F442C090
:104A80006EEE72E08BE595E00E94B20D00E010E062
:104A900020EA30E440E050E0BA018BE093E00E946D
:104AA000B411882379F160EE72E08BE595E00E9405
:104AB000B20D00E010E02AEF34E440E050E0BA012B
:104AC0008FEF92E00E94B4118823E1F062ED72E072
:104AD0008BE595E00E94B20D00E010E028EC32E496
:104AE00040E050E0BA0183E093E00E94B4118823D3
:104AF00049F00E94B5140E94832480919C04826036
:104B000080939C041F910F9108951F920F920FB6EE
:104B10000F9211242F933F934F935F936F937F9343
:104B20008F939F93AF93BF93EF93FF9387E693E0A9
:104B30000E94FF02FF91EF91BF91AF919F918F91E2
:104B40007F916F915F914F913F912F910F900FBE89
:104B50000F901F9018951F920F920FB60F9211246D
:104B60002F938F939F93EF93FF93E0917703F091AF
:104B700078038081E0917D03F0917E0382FD1BC06C
:104B80009081809180038F5F8F73209181038217C2
:104B900041F0E0918003F0E0E959FC4F958F80935C
:104BA0008003FF91EF919F918F912F910F900FBEF6
:104BB0000F901F9018958081F4CF1F920F920FB61F
:104BC0000F9211242F933F938F939F93AF93BF9393
:104BD0008091AB029091AC02A091AD02B091AE0277
:104BE0003091AA0223E0230F2D3758F50196A11D1D
:104BF000B11D2093AA028093AB029093AC02A093C4
:104C0000AD02B093AE028091AF029091B002A0913C
:104C1000B102B091B2020196A11DB11D8093AF0205
:104C20009093B002A093B102B093B202BF91AF9142
:104C30009F918F913F912F910F900FBE0F901F90DA
:104C4000189526E8230F0296A11DB11DD2CF1F9201
:104C50000F920FB60F9211242F933F934F935F93B0
:104C60006F937F938F939F93AF93BF93EF93FF9334
:104C7000E0910601F09107010995FF91EF91BF9135
:104C8000AF919F918F917F916F915F914F913F91E4
:104C90002F910F900FBE0F901F9018951F920F929B
:104CA0000FB60F9211242F933F934F935F936F93FF
:104CB0007F938F939F93AF93BF93EF93FF93E09175
:104CC0000401F09105010995FF91EF91BF91AF911A
:104CD0009F918F917F916F915F914F913F912F9114
:104CE0000F900FBE0F901F9018951F920F920FB646
:104CF0000F9211242F933F934F935F936F937F9362
:104D00008F939F93AF93BF93EF93FF938091B900DD
:104D1000887F803609F44AC0F0F5883209F4A7C0CC
:104D200018F5803109F49BC0B8F4882309F4F9C060
:104D3000883009F494C0FF91EF91BF91AF919F919A
:104D40008F917F916F915F914F913F912F910F9034
:104D50000FBE0F901F901895883109F488C08032DB
:104D600051F78093870214C0803409F49DC040F449
:104D70008033B9F38833F9F68093870285ECB0C0AD
:104D8000803509F485C0883509F496C0883499F6D1
:104D90000E944C06D0CF883909F48CC038F588378A
:104DA00029F050F4883611F0803729F683E080939B
:104DB000B9021092630257C0883809F47BC0803969
:104DC00019F0803809F0B7CF80916302803208F083
:104DD00071C0E091630281E08E0F80936302809145
:104DE000BB00F0E0ED5BFD4F80833DC0803B39F0C0
:104DF000E0F4803A09F479C0883A09F09CCF84E065
:104E00008093B9021092420210924102E091B502E1
:104E1000F091B60209958091410281110FC081E0A5
:104E2000809341021092210209C0803C09F4A6CF70
:104E3000883C09F4A3CF883B09F07DCFE091420282
:104E400081E08E0F80934202F0E0EF5DFD4F8081A4
:104E50008093BB00909142028091410229C08091D1
:104E600064028093BB0085EC8093BC0064CF90917A
:104E7000860280918502981758F5E091860281E0BC
:104E80008E0F80938602F0E0EB59FD4F8081E9CFD1
:104E9000E091860281E08E0F809386028091BB00B4
:104EA000F0E0EB59FD4F808390918602809185025E
:104EB0009817C8F285E8D8CFE091860281E08E0F7E
:104EC000809386028091BB00F0E0EB59FD4F808318
:104ED0008091B80281115CCF81E08093B70284EAAF
:104EE0008093BC001092B90226CF85EC8093BC0061
:104EF0001092B90280916302803230F4E091630233
:104F0000F0E0ED5BFD4F10826091630270E0E09194
:104F1000B302F091B40283E492E009951092630227
:104F20000ACF1092870234CFCF9310926A03109267
:104F3000690388EE93E0A0E0B0E080936B03909368
:104F40006C03A0936D03B0936E0324E631E03093BD
:104F500068032093670325EC30E0309374032093BB
:104F6000730324EC30E0309376032093750320EC38
:104F700030E0309378032093770321EC30E03093D6
:104F80007A032093790322EC30E030937C03209362
:104F90007B0326EC30E030937E0320937D03109258
:104FA0008003109281031092820310928303109267
:104FB0000704109206048093080490930904A093B8
:104FC0000A04B0930B0486E791E090930504809364
:104FD000040410925C0510925B0510925E0510921D
:104FE0005D05109271051092700510927205109275
:104FF00074051092730581E090E09093760580939C
:105000007505109289051092880510928A051092F4
:1050100052051092510582E991E0909350058093DA
:105020004F058FE38093530580E180935805C2E0DC
:10503000C093590510925A050E94A10487E495E097
:10504000109248051092470510924C0510924B059E
:1050500010924A051092490510924D0521E02093C7
:105060004E051092400510923F0510924405109293
:105070004305109242051092410510924505109289
:105080004605109238051092370510923C05109293
:105090003B0510923A051092390520933D05109278
:1050A0003E051092300510922F0510923405109293
:1050B00033051092320510923105C09335051092D8
:1050C0003605109228051092270510922C05109293
:1050D0002B0510922A051092290523E020932D0517
:1050E00010922E051092200510921F051092240593
:1050F00010922305109222051092210524E020939E
:105100002505109226051092180510921705109289
:105110001C0510921B0510921A051092190525E026
:1051200020931D0510921E051092100510920F0578
:105130001092140510921305109212051092110589
:1051400026E020931505109216051092080510927E
:10515000070510920C0510920B0510920A0510928B
:10516000090527E020930D0510920E051092000509
:105170001092FF041092040510920305109202058C
:105180001092010528E02093050510920605109263
:10519000F8041092F7041092FC041092FB04109291
:1051A000FA041092F90429E02093FD041092FE0401
:1051B0001092F0041092EF041092F4041092F30491
:1051C0001092F2041092F1042AE02093F504109258
:1051D000F604909389048093880490938B048093C1
:1051E0008A048AE494E090938D0480938C04109256
:1051F0009C041092980410929A04109290041092B9
:105200009904C0938F048FE080938E048FEF809376
:105210009E0410929B0410921B0410921F04109283
:105220001E041092200488E891E090931A04809361
:105230001904E5E3F4E01082148213821582369695
:1052400084E0E137F807B9F783E191E090937C04BB
:1052500080937B048FE091E090937E0480937D04A3
:1052600085E080937F0484E08093800488E191E06E
:1052700090937A04809379048AE090E0909382047A
:105280008093810484EF91E090938404809383045D
:10529000109287041092860410927504109276047E
:1052A00010927704109278041092850420E12093E4
:1052B0001004909312048093110481E080931304EE
:1052C00010921404109215041092160410921704F0
:1052D00010921804CF910895CF93DF9300D0CDB7EB
:1052E000DEB7789484B5826084BD84B5816084BD66
:1052F00085B5826085BD85B5816085BD80916E0074
:10530000816080936E0010928100809181008260A4
:1053100080938100809181008160809381008091E1
:1053200080008160809380008091B10084608093D0
:10533000B1008091B00081608093B00080917A00CC
:10534000846080937A0080917A00826080937A00F2
:1053500080917A00816080937A0080917A008068E1
:1053600080937A001092C100E0917703F091780366
:1053700082E08083E0917303F09174031082E091E6
:105380007503F091760380E1808310927F03E091B2
:105390007B03F0917C0386E08083E0917903F091B8
:1053A0007A03808180618083E0917903F0917A03B0
:1053B000808188608083E0917903F0917A03808115
:1053C00080688083E0917903F0917A0380818F7DFA
:1053D00080831092BD021092BC021092BB02109208
:1053E000BA021092B90281E08093B8021092B7021B
:1053F00061E082E10E94E00361E083E10E94E0035A
:105400008091B9008E7F8093B9008091B9008D7F23
:105410008093B90088E48093B80085E48093BC0051
:105420008CEA92E09093B6028093B5028DEA92E006
:105430009093B4028093B302109254058091590561
:105440000E94E70A88E080935A0560E08FE495E0C7
:105450000E94030782E00E94E70A0E94DC0A68E3D8
:1054600071E080E00E94510B60E471E081E00E94F5
:10547000510B68E471E082E00E94510B60E571E03D
:1054800083E00E94510B68E571E084E00E94510BBB
:1054900080919D04816080939D0486E797E09093BE
:1054A000D5028093D40281E794E29093BF02809367
:1054B000BE0285E797E090934403809343036FE334
:1054C00075E087E495E00E94330682E797E09093C9
:1054D000D7028093D60289E990E29093C10280932B
:1054E000C00281E797E0909346038093450367E30A
:1054F00075E087E495E00E9433069BEAC92E92E0AE
:10550000D92ED092D902C092D8022CECE22E27E0FC
:10551000F22EF092C302E092C2020BEC17E010935D
:105520004803009347036FE275E087E495E00E942B
:10553000330680E797E09093DB028093DA0284EDF4
:1055400094E19093C5028093C4028FE697E0909314
:105550004A038093490367E275E08FE295E00E9479
:1055600033068EE697E09093DD028093DC0289ECAF
:105570009FE19093C7028093C6028DE697E09093D7
:105580004C0380934B036FE175E08FE295E00E943E
:1055900033068CE697E09093DF028093DE0284E08E
:1055A0009FE19093C9028093C8028BE697E09093A5
:1055B0004E0380934D0367E175E08FE295E00E9412
:1055C000330688E797E09093E1028093E0028FE84A
:1055D00096E19093CB028093CA0287E797E090937D
:1055E000500380934F036FE075E087E495E00E94DD
:1055F0003306D092E302C092E202F092CD02E09232
:10560000CC02109352030093510367E075E087E4E6
:1056100095E00E9433068CE797E09093E502809333
:10562000E40285E493E29093CF028093CE028BE76D
:1056300097E090935403809353036FEF74E087E0F7
:1056400095E00E94330684E797E09093E702809309
:10565000E60283E597E19093D1028093D00283E73D
:1056600097E0909356038093550367EF74E087E0CB
:1056700095E00E9433068AE797E09093E9028093D1
:10568000E80281E295E29093D3028093D20289E707
:1056900097E090935803809357036FEE74E087E090
:1056A00095E00E9433060E94FD070E947E0B8DE567
:1056B00091E190935A03809359030E94A1046F5F74
:1056C0007F4F8F4F9F4F60935E0370935F03809374
:1056D00060039093610380915D03816080935D031B
:1056E00086E49CE090935C0380935B030E94832498
:1056F00021E040E068EE73E08DEC91E00E945D12E5
:1057000088E189831A8221E041E068EB7BE0CE01E9
:1057100001960E945D1268EE73E080E090E00E94C6
:105720006F0421E040E068EE73E08DEC91E00E94B0
:105730005D1264E670E080E090E00E946F0480916A
:10574000030390910403A0910503B09106034091D7
:10575000FF025091000360910103709102030091D8
:105760000B0310910C0320910D0330910E03C09098
:105770000703D0900803E0900903F0900A03C09259
:10578000EA02D092EB02E092EC02F092ED0200937A
:10579000EE021093EF022093F0023093F102409357
:1057A000F2025093F3026093F4027093F502809337
:1057B000F6029093F702A093F802B093F9022091B9
:1057C0001703309118034091190350911A03609107
:1057D00013037091140380911503909116030E9496
:1057E00047140E94D71200E010E034E6C32ED12CFB
:1057F000E12CF12CBB24BA94AA24A39480919C049C
:1058000081FFA9C0809166038D7F8093660310920B
:105810006203109263031092640310926503C092B6
:105820000B01D0920C01E0920D01F0920E018091DB
:105830005D038D7F80935D03E0910901EF3F09F4E3
:105840008AC0F0E0EE0FFF1FED5BFC4F0190F0818E
:10585000E02D0995B09209010E94700B0E94FD078E
:105860000E947E0B10929B04B0929E0480919C0437
:105870008D7F80939C04909008018FEF981609F417
:1058800052C00E94FF08B0929E0480919C048F7EBB
:1058900080939C0480919A04882319F00E94E80860
:1058A000F9CF1092980410929604109297041092D7
:1058B0009B040E94FD0780919C04816480939C045A
:1058C000692D80918804909189040E948C0981112E
:1058D0000E94100980919C048A7F80939C040E94FE
:1058E000A10480919E048F3F99F00E94A1046F5FF4
:1058F0007F4F8F4F9F4F609362037093630380933A
:1059000064039093650380915D03826080935D03DF
:1059100080919B0485FD05C08F7D80939B040E9430
:105920007E0BB092080180919C0484FF14C090917A
:105930009E049F3F39F1806180939C040E94FF0880
:105940000E94FD0780919C04806480939C040E94C7
:10595000FD070E947E0BE0915903F0915A030995CF
:1059600080910A01811121C0A0920A01011511053F
:1059700009F444CF0E94EB02882309F43FCF0E9430
:1059800000003CCF8F7E80939C0480919A048823F2
:1059900019F00E94E808F9CF10929804109296042A
:1059A0001092970410929B04CBCFE0915B03F0918F
:1059B0005C03099580910A018111D8CFD5CFEF9270
:1059C0000F931F93CF93DF93E80134E047FD34E159
:1059D000042E000C550B57FF03C0519541955109FA
:1059E000E32E022F242FAE010E94562FCE01DF910D
:1059F000CF911F910F91EF900895662777270C9410
:105A0000B530FB01DC0105900D920020E1F708950F
:105A1000FC0105900020E9F7809590958E0F9F1F5F
:105A20000895FB01DC014150504048F005900D9273
:105A30000020C9F701C01D9241505040E0F7089581
:105A40004BE855E00E94252D0895FA01A191B081FF
:105A5000009719F41097E1F0CD01DC01CD010D9014
:105A6000002011F4C00113C0FB012191222319F081
:105A70002015D9F7F3CFFB012191201519F41E92BF
:105A8000119606C02223C1F70D900020A1F7D00186
:105A9000FA01A193B0830895AEE0B0E0E2E5FDE243
:105AA0000C9408350D891E898F89988D2EE02C83E2
:105AB0001A83098397FF02C080E090E801979E83D4
:105AC0008D83AE01455E5F4F698D7A8DCE01019663
:105AD0000E947C2D4D815E8157FD0AC02F81388543
